{
	"Solidity.sol": {
		"HARDWARE": {
			"abi": [
				{
					"inputs": [
						{
							"internalType": "string",
							"name": "password",
							"type": "string"
						}
					],
					"name": "AUTHORIZATION",
					"outputs": [],
					"stateMutability": "nonpayable",
					"type": "function"
				},
				{
					"inputs": [],
					"name": "CONVERSION",
					"outputs": [
						{
							"internalType": "string",
							"name": "",
							"type": "string"
						}
					],
					"stateMutability": "view",
					"type": "function"
				},
				{
					"inputs": [],
					"name": "OWNER",
					"outputs": [
						{
							"internalType": "string",
							"name": "",
							"type": "string"
						}
					],
					"stateMutability": "view",
					"type": "function"
				},
				{
					"inputs": [],
					"name": "TOKENS",
					"outputs": [
						{
							"internalType": "string",
							"name": "",
							"type": "string"
						}
					],
					"stateMutability": "view",
					"type": "function"
				}
			],
			"devdoc": {
				"kind": "dev",
				"methods": {},
				"version": 1
			},
			"evm": {
				"assembly": "    /* \"Solidity.sol\":60:3094  contract HARDWARE {... */\n  mstore(0x40, 0x80)\n    /* \"Solidity.sol\":85:145  string private owner = \"Ledger-Nano-X (Recognized HARDWARE)\" */\n  mload(0x40)\n  dup1\n  0x60\n  add\n  0x40\n  mstore\n  dup1\n  0x23\n  dup2\n  mstore\n  0x20\n  add\n  data_aafaed2b39b823bf94636b2d15e213cc715f9db176507d7232ffd32b6622025d\n  0x23\n  swap2\n  codecopy\n  0x00\n  swap1\n  dup2\n  tag_1\n  swap2\n  swap1\n  tag_2\n  jump\t// in\ntag_1:\n  pop\n    /* \"Solidity.sol\":180:193  53703 * 10**8 */\n  0x04e25ed2e700\n    /* \"Solidity.sol\":152:193  uint256 private btcAmount = 53703 * 10**8 */\n  0x01\n  sstore\n    /* \"Solidity.sol\":224:229  false */\n  0x00\n    /* \"Solidity.sol\":200:229  bool private loggedIn = false */\n  0x02\n  exp(0x0100, 0x00)\n  dup2\n  sload\n  dup2\n  0xff\n  mul\n  not\n  and\n  swap1\n  dup4\n  iszero\n  iszero\n  mul\n  or\n  swap1\n  sstore\n  pop\n    /* \"Solidity.sol\":60:3094  contract HARDWARE {... */\n  callvalue\n  dup1\n  iszero\n  tag_3\n  jumpi\n  0x00\n  dup1\n  revert\ntag_3:\n  pop\n  jump(tag_4)\n    /* \"#utility.yul\":7:106   */\ntag_5:\n    /* \"#utility.yul\":59:65   */\n  0x00\n    /* \"#utility.yul\":93:98   */\n  dup2\n    /* \"#utility.yul\":87:99   */\n  mload\n    /* \"#utility.yul\":77:99   */\n  swap1\n  pop\n    /* \"#utility.yul\":7:106   */\n  swap2\n  swap1\n  pop\n  jump\t// out\n    /* \"#utility.yul\":112:292   */\ntag_6:\n    /* \"#utility.yul\":160:237   */\n  0x4e487b7100000000000000000000000000000000000000000000000000000000\n    /* \"#utility.yul\":157:158   */\n  0x00\n    /* \"#utility.yul\":150:238   */\n  mstore\n    /* \"#utility.yul\":257:261   */\n  0x41\n    /* \"#utility.yul\":254:255   */\n  0x04\n    /* \"#utility.yul\":247:262   */\n  mstore\n    /* \"#utility.yul\":281:285   */\n  0x24\n    /* \"#utility.yul\":278:279   */\n  0x00\n    /* \"#utility.yul\":271:286   */\n  revert\n    /* \"#utility.yul\":298:478   */\ntag_7:\n    /* \"#utility.yul\":346:423   */\n  0x4e487b7100000000000000000000000000000000000000000000000000000000\n    /* \"#utility.yul\":343:344   */\n  0x00\n    /* \"#utility.yul\":336:424   */\n  mstore\n    /* \"#utility.yul\":443:447   */\n  0x22\n    /* \"#utility.yul\":440:441   */\n  0x04\n    /* \"#utility.yul\":433:448   */\n  mstore\n    /* \"#utility.yul\":467:471   */\n  0x24\n    /* \"#utility.yul\":464:465   */\n  0x00\n    /* \"#utility.yul\":457:472   */\n  revert\n    /* \"#utility.yul\":484:804   */\ntag_8:\n    /* \"#utility.yul\":528:534   */\n  0x00\n    /* \"#utility.yul\":565:566   */\n  0x02\n    /* \"#utility.yul\":559:563   */\n  dup3\n    /* \"#utility.yul\":555:567   */\n  div\n    /* \"#utility.yul\":545:567   */\n  swap1\n  pop\n    /* \"#utility.yul\":612:613   */\n  0x01\n    /* \"#utility.yul\":606:610   */\n  dup3\n    /* \"#utility.yul\":602:614   */\n  and\n    /* \"#utility.yul\":633:651   */\n  dup1\n    /* \"#utility.yul\":623:704   */\n  tag_30\n  jumpi\n    /* \"#utility.yul\":689:693   */\n  0x7f\n    /* \"#utility.yul\":681:687   */\n  dup3\n    /* \"#utility.yul\":677:694   */\n  and\n    /* \"#utility.yul\":667:694   */\n  swap2\n  pop\n    /* \"#utility.yul\":623:704   */\ntag_30:\n    /* \"#utility.yul\":751:753   */\n  0x20\n    /* \"#utility.yul\":743:749   */\n  dup3\n    /* \"#utility.yul\":740:754   */\n  lt\n    /* \"#utility.yul\":720:738   */\n  dup2\n    /* \"#utility.yul\":717:755   */\n  sub\n    /* \"#utility.yul\":714:798   */\n  tag_31\n  jumpi\n    /* \"#utility.yul\":770:788   */\n  tag_32\n  tag_7\n  jump\t// in\ntag_32:\n    /* \"#utility.yul\":714:798   */\ntag_31:\n    /* \"#utility.yul\":535:804   */\n  pop\n    /* \"#utility.yul\":484:804   */\n  swap2\n  swap1\n  pop\n  jump\t// out\n    /* \"#utility.yul\":810:951   */\ntag_9:\n    /* \"#utility.yul\":859:863   */\n  0x00\n    /* \"#utility.yul\":882:885   */\n  dup2\n    /* \"#utility.yul\":874:885   */\n  swap1\n  pop\n    /* \"#utility.yul\":905:908   */\n  dup2\n    /* \"#utility.yul\":902:903   */\n  0x00\n    /* \"#utility.yul\":895:909   */\n  mstore\n    /* \"#utility.yul\":939:943   */\n  0x20\n    /* \"#utility.yul\":936:937   */\n  0x00\n    /* \"#utility.yul\":926:944   */\n  keccak256\n    /* \"#utility.yul\":918:944   */\n  swap1\n  pop\n    /* \"#utility.yul\":810:951   */\n  swap2\n  swap1\n  pop\n  jump\t// out\n    /* \"#utility.yul\":957:1050   */\ntag_10:\n    /* \"#utility.yul\":994:1000   */\n  0x00\n    /* \"#utility.yul\":1041:1043   */\n  0x20\n    /* \"#utility.yul\":1036:1038   */\n  0x1f\n    /* \"#utility.yul\":1029:1034   */\n  dup4\n    /* \"#utility.yul\":1025:1039   */\n  add\n    /* \"#utility.yul\":1021:1044   */\n  div\n    /* \"#utility.yul\":1011:1044   */\n  swap1\n  pop\n    /* \"#utility.yul\":957:1050   */\n  swap2\n  swap1\n  pop\n  jump\t// out\n    /* \"#utility.yul\":1056:1163   */\ntag_11:\n    /* \"#utility.yul\":1100:1108   */\n  0x00\n    /* \"#utility.yul\":1150:1155   */\n  dup3\n    /* \"#utility.yul\":1144:1148   */\n  dup3\n    /* \"#utility.yul\":1140:1156   */\n  shl\n    /* \"#utility.yul\":1119:1156   */\n  swap1\n  pop\n    /* \"#utility.yul\":1056:1163   */\n  swap3\n  swap2\n  pop\n  pop\n  jump\t// out\n    /* \"#utility.yul\":1169:1562   */\ntag_12:\n    /* \"#utility.yul\":1238:1244   */\n  0x00\n    /* \"#utility.yul\":1288:1289   */\n  0x08\n    /* \"#utility.yul\":1276:1286   */\n  dup4\n    /* \"#utility.yul\":1272:1290   */\n  mul\n    /* \"#utility.yul\":1311:1408   */\n  tag_37\n    /* \"#utility.yul\":1341:1407   */\n  0xffffffffffffffffffffffffffffffffffffffffffffffffffffffffffffffff\n    /* \"#utility.yul\":1330:1339   */\n  dup3\n    /* \"#utility.yul\":1311:1408   */\n  tag_11\n  jump\t// in\ntag_37:\n    /* \"#utility.yul\":1429:1468   */\n  tag_38\n    /* \"#utility.yul\":1459:1467   */\n  dup7\n    /* \"#utility.yul\":1448:1457   */\n  dup4\n    /* \"#utility.yul\":1429:1468   */\n  tag_11\n  jump\t// in\ntag_38:\n    /* \"#utility.yul\":1417:1468   */\n  swap6\n  pop\n    /* \"#utility.yul\":1501:1505   */\n  dup1\n    /* \"#utility.yul\":1497:1506   */\n  not\n    /* \"#utility.yul\":1490:1495   */\n  dup5\n    /* \"#utility.yul\":1486:1507   */\n  and\n    /* \"#utility.yul\":1477:1507   */\n  swap4\n  pop\n    /* \"#utility.yul\":1550:1554   */\n  dup1\n    /* \"#utility.yul\":1540:1548   */\n  dup7\n    /* \"#utility.yul\":1536:1555   */\n  and\n    /* \"#utility.yul\":1529:1534   */\n  dup5\n    /* \"#utility.yul\":1526:1556   */\n  or\n    /* \"#utility.yul\":1516:1556   */\n  swap3\n  pop\n    /* \"#utility.yul\":1245:1562   */\n  pop\n  pop\n    /* \"#utility.yul\":1169:1562   */\n  swap4\n  swap3\n  pop\n  pop\n  pop\n  jump\t// out\n    /* \"#utility.yul\":1568:1645   */\ntag_13:\n    /* \"#utility.yul\":1605:1612   */\n  0x00\n    /* \"#utility.yul\":1634:1639   */\n  dup2\n    /* \"#utility.yul\":1623:1639   */\n  swap1\n  pop\n    /* \"#utility.yul\":1568:1645   */\n  swap2\n  swap1\n  pop\n  jump\t// out\n    /* \"#utility.yul\":1651:1711   */\ntag_14:\n    /* \"#utility.yul\":1679:1682   */\n  0x00\n    /* \"#utility.yul\":1700:1705   */\n  dup2\n    /* \"#utility.yul\":1693:1705   */\n  swap1\n  pop\n    /* \"#utility.yul\":1651:1711   */\n  swap2\n  swap1\n  pop\n  jump\t// out\n    /* \"#utility.yul\":1717:1859   */\ntag_15:\n    /* \"#utility.yul\":1767:1776   */\n  0x00\n    /* \"#utility.yul\":1800:1853   */\n  tag_42\n    /* \"#utility.yul\":1818:1852   */\n  tag_43\n    /* \"#utility.yul\":1827:1851   */\n  tag_44\n    /* \"#utility.yul\":1845:1850   */\n  dup5\n    /* \"#utility.yul\":1827:1851   */\n  tag_13\n  jump\t// in\ntag_44:\n    /* \"#utility.yul\":1818:1852   */\n  tag_14\n  jump\t// in\ntag_43:\n    /* \"#utility.yul\":1800:1853   */\n  tag_13\n  jump\t// in\ntag_42:\n    /* \"#utility.yul\":1787:1853   */\n  swap1\n  pop\n    /* \"#utility.yul\":1717:1859   */\n  swap2\n  swap1\n  pop\n  jump\t// out\n    /* \"#utility.yul\":1865:1940   */\ntag_16:\n    /* \"#utility.yul\":1908:1911   */\n  0x00\n    /* \"#utility.yul\":1929:1934   */\n  dup2\n    /* \"#utility.yul\":1922:1934   */\n  swap1\n  pop\n    /* \"#utility.yul\":1865:1940   */\n  swap2\n  swap1\n  pop\n  jump\t// out\n    /* \"#utility.yul\":1946:2215   */\ntag_17:\n    /* \"#utility.yul\":2056:2095   */\n  tag_47\n    /* \"#utility.yul\":2087:2094   */\n  dup4\n    /* \"#utility.yul\":2056:2095   */\n  tag_15\n  jump\t// in\ntag_47:\n    /* \"#utility.yul\":2117:2208   */\n  tag_48\n    /* \"#utility.yul\":2166:2207   */\n  tag_49\n    /* \"#utility.yul\":2190:2206   */\n  dup3\n    /* \"#utility.yul\":2166:2207   */\n  tag_16\n  jump\t// in\ntag_49:\n    /* \"#utility.yul\":2158:2164   */\n  dup5\n    /* \"#utility.yul\":2151:2155   */\n  dup5\n    /* \"#utility.yul\":2145:2156   */\n  sload\n    /* \"#utility.yul\":2117:2208   */\n  tag_12\n  jump\t// in\ntag_48:\n    /* \"#utility.yul\":2111:2115   */\n  dup3\n    /* \"#utility.yul\":2104:2209   */\n  sstore\n    /* \"#utility.yul\":2022:2215   */\n  pop\n    /* \"#utility.yul\":1946:2215   */\n  pop\n  pop\n  pop\n  jump\t// out\n    /* \"#utility.yul\":2221:2294   */\ntag_18:\n    /* \"#utility.yul\":2266:2269   */\n  0x00\n    /* \"#utility.yul\":2221:2294   */\n  swap1\n  jump\t// out\n    /* \"#utility.yul\":2300:2489   */\ntag_19:\n    /* \"#utility.yul\":2377:2409   */\n  tag_52\n  tag_18\n  jump\t// in\ntag_52:\n    /* \"#utility.yul\":2418:2483   */\n  tag_53\n    /* \"#utility.yul\":2476:2482   */\n  dup2\n    /* \"#utility.yul\":2468:2474   */\n  dup5\n    /* \"#utility.yul\":2462:2466   */\n  dup5\n    /* \"#utility.yul\":2418:2483   */\n  tag_17\n  jump\t// in\ntag_53:\n    /* \"#utility.yul\":2353:2489   */\n  pop\n    /* \"#utility.yul\":2300:2489   */\n  pop\n  pop\n  jump\t// out\n    /* \"#utility.yul\":2495:2681   */\ntag_20:\n    /* \"#utility.yul\":2555:2675   */\ntag_55:\n    /* \"#utility.yul\":2572:2575   */\n  dup2\n    /* \"#utility.yul\":2565:2570   */\n  dup2\n    /* \"#utility.yul\":2562:2576   */\n  lt\n    /* \"#utility.yul\":2555:2675   */\n  iszero\n  tag_57\n  jumpi\n    /* \"#utility.yul\":2626:2665   */\n  tag_58\n    /* \"#utility.yul\":2663:2664   */\n  0x00\n    /* \"#utility.yul\":2656:2661   */\n  dup3\n    /* \"#utility.yul\":2626:2665   */\n  tag_19\n  jump\t// in\ntag_58:\n    /* \"#utility.yul\":2599:2600   */\n  0x01\n    /* \"#utility.yul\":2592:2597   */\n  dup2\n    /* \"#utility.yul\":2588:2601   */\n  add\n    /* \"#utility.yul\":2579:2601   */\n  swap1\n  pop\n    /* \"#utility.yul\":2555:2675   */\n  jump(tag_55)\ntag_57:\n    /* \"#utility.yul\":2495:2681   */\n  pop\n  pop\n  jump\t// out\n    /* \"#utility.yul\":2687:3230   */\ntag_21:\n    /* \"#utility.yul\":2788:2790   */\n  0x1f\n    /* \"#utility.yul\":2783:2786   */\n  dup3\n    /* \"#utility.yul\":2780:2791   */\n  gt\n    /* \"#utility.yul\":2777:3223   */\n  iszero\n  tag_60\n  jumpi\n    /* \"#utility.yul\":2822:2860   */\n  tag_61\n    /* \"#utility.yul\":2854:2859   */\n  dup2\n    /* \"#utility.yul\":2822:2860   */\n  tag_9\n  jump\t// in\ntag_61:\n    /* \"#utility.yul\":2906:2935   */\n  tag_62\n    /* \"#utility.yul\":2924:2934   */\n  dup5\n    /* \"#utility.yul\":2906:2935   */\n  tag_10\n  jump\t// in\ntag_62:\n    /* \"#utility.yul\":2896:2904   */\n  dup2\n    /* \"#utility.yul\":2892:2936   */\n  add\n    /* \"#utility.yul\":3089:3091   */\n  0x20\n    /* \"#utility.yul\":3077:3087   */\n  dup6\n    /* \"#utility.yul\":3074:3092   */\n  lt\n    /* \"#utility.yul\":3071:3120   */\n  iszero\n  tag_63\n  jumpi\n    /* \"#utility.yul\":3110:3118   */\n  dup2\n    /* \"#utility.yul\":3095:3118   */\n  swap1\n  pop\n    /* \"#utility.yul\":3071:3120   */\ntag_63:\n    /* \"#utility.yul\":3133:3213   */\n  tag_64\n    /* \"#utility.yul\":3189:3211   */\n  tag_65\n    /* \"#utility.yul\":3207:3210   */\n  dup6\n    /* \"#utility.yul\":3189:3211   */\n  tag_10\n  jump\t// in\ntag_65:\n    /* \"#utility.yul\":3179:3187   */\n  dup4\n    /* \"#utility.yul\":3175:3212   */\n  add\n    /* \"#utility.yul\":3162:3173   */\n  dup3\n    /* \"#utility.yul\":3133:3213   */\n  tag_20\n  jump\t// in\ntag_64:\n    /* \"#utility.yul\":2792:3223   */\n  pop\n  pop\n    /* \"#utility.yul\":2777:3223   */\ntag_60:\n    /* \"#utility.yul\":2687:3230   */\n  pop\n  pop\n  pop\n  jump\t// out\n    /* \"#utility.yul\":3236:3353   */\ntag_22:\n    /* \"#utility.yul\":3290:3298   */\n  0x00\n    /* \"#utility.yul\":3340:3345   */\n  dup3\n    /* \"#utility.yul\":3334:3338   */\n  dup3\n    /* \"#utility.yul\":3330:3346   */\n  shr\n    /* \"#utility.yul\":3309:3346   */\n  swap1\n  pop\n    /* \"#utility.yul\":3236:3353   */\n  swap3\n  swap2\n  pop\n  pop\n  jump\t// out\n    /* \"#utility.yul\":3359:3528   */\ntag_23:\n    /* \"#utility.yul\":3403:3409   */\n  0x00\n    /* \"#utility.yul\":3436:3487   */\n  tag_68\n    /* \"#utility.yul\":3484:3485   */\n  0x00\n    /* \"#utility.yul\":3480:3486   */\n  not\n    /* \"#utility.yul\":3472:3477   */\n  dup5\n    /* \"#utility.yul\":3469:3470   */\n  0x08\n    /* \"#utility.yul\":3465:3478   */\n  mul\n    /* \"#utility.yul\":3436:3487   */\n  tag_22\n  jump\t// in\ntag_68:\n    /* \"#utility.yul\":3432:3488   */\n  not\n    /* \"#utility.yul\":3517:3521   */\n  dup1\n    /* \"#utility.yul\":3511:3515   */\n  dup4\n    /* \"#utility.yul\":3507:3522   */\n  and\n    /* \"#utility.yul\":3497:3522   */\n  swap2\n  pop\n    /* \"#utility.yul\":3410:3528   */\n  pop\n    /* \"#utility.yul\":3359:3528   */\n  swap3\n  swap2\n  pop\n  pop\n  jump\t// out\n    /* \"#utility.yul\":3533:3828   */\ntag_24:\n    /* \"#utility.yul\":3609:3613   */\n  0x00\n    /* \"#utility.yul\":3755:3784   */\n  tag_70\n    /* \"#utility.yul\":3780:3783   */\n  dup4\n    /* \"#utility.yul\":3774:3778   */\n  dup4\n    /* \"#utility.yul\":3755:3784   */\n  tag_23\n  jump\t// in\ntag_70:\n    /* \"#utility.yul\":3747:3784   */\n  swap2\n  pop\n    /* \"#utility.yul\":3817:3820   */\n  dup3\n    /* \"#utility.yul\":3814:3815   */\n  0x02\n    /* \"#utility.yul\":3810:3821   */\n  mul\n    /* \"#utility.yul\":3804:3808   */\n  dup3\n    /* \"#utility.yul\":3801:3822   */\n  or\n    /* \"#utility.yul\":3793:3822   */\n  swap1\n  pop\n    /* \"#utility.yul\":3533:3828   */\n  swap3\n  swap2\n  pop\n  pop\n  jump\t// out\n    /* \"#utility.yul\":3833:5228   */\ntag_2:\n    /* \"#utility.yul\":3950:3987   */\n  tag_72\n    /* \"#utility.yul\":3983:3986   */\n  dup3\n    /* \"#utility.yul\":3950:3987   */\n  tag_5\n  jump\t// in\ntag_72:\n    /* \"#utility.yul\":4052:4070   */\n  0xffffffffffffffff\n    /* \"#utility.yul\":4044:4050   */\n  dup2\n    /* \"#utility.yul\":4041:4071   */\n  gt\n    /* \"#utility.yul\":4038:4094   */\n  iszero\n  tag_73\n  jumpi\n    /* \"#utility.yul\":4074:4092   */\n  tag_74\n  tag_6\n  jump\t// in\ntag_74:\n    /* \"#utility.yul\":4038:4094   */\ntag_73:\n    /* \"#utility.yul\":4118:4156   */\n  tag_75\n    /* \"#utility.yul\":4150:4154   */\n  dup3\n    /* \"#utility.yul\":4144:4155   */\n  sload\n    /* \"#utility.yul\":4118:4156   */\n  tag_8\n  jump\t// in\ntag_75:\n    /* \"#utility.yul\":4203:4270   */\n  tag_76\n    /* \"#utility.yul\":4263:4269   */\n  dup3\n    /* \"#utility.yul\":4255:4261   */\n  dup3\n    /* \"#utility.yul\":4249:4253   */\n  dup6\n    /* \"#utility.yul\":4203:4270   */\n  tag_21\n  jump\t// in\ntag_76:\n    /* \"#utility.yul\":4297:4298   */\n  0x00\n    /* \"#utility.yul\":4321:4325   */\n  0x20\n    /* \"#utility.yul\":4308:4325   */\n  swap1\n  pop\n    /* \"#utility.yul\":4353:4355   */\n  0x1f\n    /* \"#utility.yul\":4345:4351   */\n  dup4\n    /* \"#utility.yul\":4342:4356   */\n  gt\n    /* \"#utility.yul\":4370:4371   */\n  0x01\n    /* \"#utility.yul\":4365:4983   */\n  dup2\n  eq\n  tag_78\n  jumpi\n    /* \"#utility.yul\":5027:5028   */\n  0x00\n    /* \"#utility.yul\":5044:5050   */\n  dup5\n    /* \"#utility.yul\":5041:5118   */\n  iszero\n  tag_79\n  jumpi\n    /* \"#utility.yul\":5093:5102   */\n  dup3\n    /* \"#utility.yul\":5088:5091   */\n  dup8\n    /* \"#utility.yul\":5084:5103   */\n  add\n    /* \"#utility.yul\":5078:5104   */\n  mload\n    /* \"#utility.yul\":5069:5104   */\n  swap1\n  pop\n    /* \"#utility.yul\":5041:5118   */\ntag_79:\n    /* \"#utility.yul\":5144:5211   */\n  tag_80\n    /* \"#utility.yul\":5204:5210   */\n  dup6\n    /* \"#utility.yul\":5197:5202   */\n  dup3\n    /* \"#utility.yul\":5144:5211   */\n  tag_24\n  jump\t// in\ntag_80:\n    /* \"#utility.yul\":5138:5142   */\n  dup7\n    /* \"#utility.yul\":5131:5212   */\n  sstore\n    /* \"#utility.yul\":5000:5222   */\n  pop\n    /* \"#utility.yul\":4335:5222   */\n  jump(tag_77)\n    /* \"#utility.yul\":4365:4983   */\ntag_78:\n    /* \"#utility.yul\":4417:4421   */\n  0x1f\n    /* \"#utility.yul\":4413:4422   */\n  not\n    /* \"#utility.yul\":4405:4411   */\n  dup5\n    /* \"#utility.yul\":4401:4423   */\n  and\n    /* \"#utility.yul\":4451:4488   */\n  tag_81\n    /* \"#utility.yul\":4483:4487   */\n  dup7\n    /* \"#utility.yul\":4451:4488   */\n  tag_9\n  jump\t// in\ntag_81:\n    /* \"#utility.yul\":4510:4511   */\n  0x00\n    /* \"#utility.yul\":4524:4732   */\ntag_82:\n    /* \"#utility.yul\":4538:4545   */\n  dup3\n    /* \"#utility.yul\":4535:4536   */\n  dup2\n    /* \"#utility.yul\":4532:4546   */\n  lt\n    /* \"#utility.yul\":4524:4732   */\n  iszero\n  tag_84\n  jumpi\n    /* \"#utility.yul\":4617:4626   */\n  dup5\n    /* \"#utility.yul\":4612:4615   */\n  dup10\n    /* \"#utility.yul\":4608:4627   */\n  add\n    /* \"#utility.yul\":4602:4628   */\n  mload\n    /* \"#utility.yul\":4594:4600   */\n  dup3\n    /* \"#utility.yul\":4587:4629   */\n  sstore\n    /* \"#utility.yul\":4668:4669   */\n  0x01\n    /* \"#utility.yul\":4660:4666   */\n  dup3\n    /* \"#utility.yul\":4656:4670   */\n  add\n    /* \"#utility.yul\":4646:4670   */\n  swap2\n  pop\n    /* \"#utility.yul\":4715:4717   */\n  0x20\n    /* \"#utility.yul\":4704:4713   */\n  dup6\n    /* \"#utility.yul\":4700:4718   */\n  add\n    /* \"#utility.yul\":4687:4718   */\n  swap5\n  pop\n    /* \"#utility.yul\":4561:4565   */\n  0x20\n    /* \"#utility.yul\":4558:4559   */\n  dup2\n    /* \"#utility.yul\":4554:4566   */\n  add\n    /* \"#utility.yul\":4549:4566   */\n  swap1\n  pop\n    /* \"#utility.yul\":4524:4732   */\n  jump(tag_82)\ntag_84:\n    /* \"#utility.yul\":4760:4766   */\n  dup7\n    /* \"#utility.yul\":4751:4758   */\n  dup4\n    /* \"#utility.yul\":4748:4767   */\n  lt\n    /* \"#utility.yul\":4745:4924   */\n  iszero\n  tag_85\n  jumpi\n    /* \"#utility.yul\":4818:4827   */\n  dup5\n    /* \"#utility.yul\":4813:4816   */\n  dup10\n    /* \"#utility.yul\":4809:4828   */\n  add\n    /* \"#utility.yul\":4803:4829   */\n  mload\n    /* \"#utility.yul\":4861:4909   */\n  tag_86\n    /* \"#utility.yul\":4903:4907   */\n  0x1f\n    /* \"#utility.yul\":4895:4901   */\n  dup10\n    /* \"#utility.yul\":4891:4908   */\n  and\n    /* \"#utility.yul\":4880:4889   */\n  dup3\n    /* \"#utility.yul\":4861:4909   */\n  tag_23\n  jump\t// in\ntag_86:\n    /* \"#utility.yul\":4853:4859   */\n  dup4\n    /* \"#utility.yul\":4846:4910   */\n  sstore\n    /* \"#utility.yul\":4768:4924   */\n  pop\n    /* \"#utility.yul\":4745:4924   */\ntag_85:\n    /* \"#utility.yul\":4970:4971   */\n  0x01\n    /* \"#utility.yul\":4966:4967   */\n  0x02\n    /* \"#utility.yul\":4958:4964   */\n  dup9\n    /* \"#utility.yul\":4954:4968   */\n  mul\n    /* \"#utility.yul\":4950:4972   */\n  add\n    /* \"#utility.yul\":4944:4948   */\n  dup9\n    /* \"#utility.yul\":4937:4973   */\n  sstore\n    /* \"#utility.yul\":4372:4983   */\n  pop\n  pop\n  pop\n    /* \"#utility.yul\":4335:5222   */\ntag_77:\n  pop\n    /* \"#utility.yul\":3925:5228   */\n  pop\n  pop\n  pop\n    /* \"#utility.yul\":3833:5228   */\n  pop\n  pop\n  jump\t// out\n    /* \"Solidity.sol\":60:3094  contract HARDWARE {... */\ntag_4:\n  dataSize(sub_0)\n  dup1\n  dataOffset(sub_0)\n  0x00\n  codecopy\n  0x00\n  return\nstop\ndata_aafaed2b39b823bf94636b2d15e213cc715f9db176507d7232ffd32b6622025d 4c65646765722d4e616e6f2d5820285265636f676e697a656420484152445741524529\n\nsub_0: assembly {\n        /* \"Solidity.sol\":60:3094  contract HARDWARE {... */\n      mstore(0x40, 0x80)\n      callvalue\n      dup1\n      iszero\n      tag_1\n      jumpi\n      0x00\n      dup1\n      revert\n    tag_1:\n      pop\n      jumpi(tag_2, lt(calldatasize, 0x04))\n      shr(0xe0, calldataload(0x00))\n      dup1\n      0x117803e3\n      eq\n      tag_3\n      jumpi\n      dup1\n      0x1d831d5c\n      eq\n      tag_4\n      jumpi\n      dup1\n      0x2782cc7f\n      eq\n      tag_5\n      jumpi\n      dup1\n      0x2c618954\n      eq\n      tag_6\n      jumpi\n    tag_2:\n      0x00\n      dup1\n      revert\n        /* \"Solidity.sol\":875:972  function OWNER() public view requireLogin returns (string memory) {... */\n    tag_3:\n      tag_7\n      tag_8\n      jump\t// in\n    tag_7:\n      mload(0x40)\n      tag_9\n      swap2\n      swap1\n      tag_10\n      jump\t// in\n    tag_9:\n      mload(0x40)\n      dup1\n      swap2\n      sub\n      swap1\n      return\n        /* \"Solidity.sol\":980:1093  function TOKENS() public view requireLogin returns (string memory) {... */\n    tag_4:\n      tag_11\n      tag_12\n      jump\t// in\n    tag_11:\n      mload(0x40)\n      tag_13\n      swap2\n      swap1\n      tag_10\n      jump\t// in\n    tag_13:\n      mload(0x40)\n      dup1\n      swap2\n      sub\n      swap1\n      return\n        /* \"Solidity.sol\":646:867  function CONVERSION() public view requireLogin returns (string memory) {... */\n    tag_5:\n      tag_14\n      tag_15\n      jump\t// in\n    tag_14:\n      mload(0x40)\n      tag_16\n      swap2\n      swap1\n      tag_10\n      jump\t// in\n    tag_16:\n      mload(0x40)\n      dup1\n      swap2\n      sub\n      swap1\n      return\n        /* \"Solidity.sol\":522:636  function AUTHORIZATION(string memory password) public requirePassword(password) {... */\n    tag_6:\n      tag_17\n      0x04\n      dup1\n      calldatasize\n      sub\n      dup2\n      add\n      swap1\n      tag_18\n      swap2\n      swap1\n      tag_19\n      jump\t// in\n    tag_18:\n      tag_20\n      jump\t// in\n    tag_17:\n      stop\n        /* \"Solidity.sol\":875:972  function OWNER() public view requireLogin returns (string memory) {... */\n    tag_8:\n        /* \"Solidity.sol\":926:939  string memory */\n      0x60\n        /* \"Solidity.sol\":462:470  loggedIn */\n      0x02\n      0x00\n      swap1\n      sload\n      swap1\n      0x0100\n      exp\n      swap1\n      div\n      0xff\n      and\n        /* \"Solidity.sol\":454:494  require(loggedIn, \"Please login first.\") */\n      tag_22\n      jumpi\n      mload(0x40)\n      0x08c379a000000000000000000000000000000000000000000000000000000000\n      dup2\n      mstore\n      0x04\n      add\n      tag_23\n      swap1\n      tag_24\n      jump\t// in\n    tag_23:\n      mload(0x40)\n      dup1\n      swap2\n      sub\n      swap1\n      revert\n    tag_22:\n        /* \"Solidity.sol\":959:964  owner */\n      0x00\n        /* \"Solidity.sol\":952:964  return owner */\n      dup1\n      sload\n      tag_26\n      swap1\n      tag_27\n      jump\t// in\n    tag_26:\n      dup1\n      0x1f\n      add\n      0x20\n      dup1\n      swap2\n      div\n      mul\n      0x20\n      add\n      mload(0x40)\n      swap1\n      dup2\n      add\n      0x40\n      mstore\n      dup1\n      swap3\n      swap2\n      swap1\n      dup2\n      dup2\n      mstore\n      0x20\n      add\n      dup3\n      dup1\n      sload\n      tag_28\n      swap1\n      tag_27\n      jump\t// in\n    tag_28:\n      dup1\n      iszero\n      tag_29\n      jumpi\n      dup1\n      0x1f\n      lt\n      tag_30\n      jumpi\n      0x0100\n      dup1\n      dup4\n      sload\n      div\n      mul\n      dup4\n      mstore\n      swap2\n      0x20\n      add\n      swap2\n      jump(tag_29)\n    tag_30:\n      dup3\n      add\n      swap2\n      swap1\n      0x00\n      mstore\n      keccak256(0x00, 0x20)\n      swap1\n    tag_31:\n      dup2\n      sload\n      dup2\n      mstore\n      swap1\n      0x01\n      add\n      swap1\n      0x20\n      add\n      dup1\n      dup4\n      gt\n      tag_31\n      jumpi\n      dup3\n      swap1\n      sub\n      0x1f\n      and\n      dup3\n      add\n      swap2\n    tag_29:\n      pop\n      pop\n      pop\n      pop\n      pop\n      swap1\n      pop\n        /* \"Solidity.sol\":875:972  function OWNER() public view requireLogin returns (string memory) {... */\n      swap1\n      jump\t// out\n        /* \"Solidity.sol\":980:1093  function TOKENS() public view requireLogin returns (string memory) {... */\n    tag_12:\n        /* \"Solidity.sol\":1032:1045  string memory */\n      0x60\n        /* \"Solidity.sol\":462:470  loggedIn */\n      0x02\n      0x00\n      swap1\n      sload\n      swap1\n      0x0100\n      exp\n      swap1\n      div\n      0xff\n      and\n        /* \"Solidity.sol\":454:494  require(loggedIn, \"Please login first.\") */\n      tag_33\n      jumpi\n      mload(0x40)\n      0x08c379a000000000000000000000000000000000000000000000000000000000\n      dup2\n      mstore\n      0x04\n      add\n      tag_34\n      swap1\n      tag_24\n      jump\t// in\n    tag_34:\n      mload(0x40)\n      dup1\n      swap2\n      sub\n      swap1\n      revert\n    tag_33:\n        /* \"Solidity.sol\":1065:1085  formatBTC(btcAmount) */\n      tag_36\n        /* \"Solidity.sol\":1075:1084  btcAmount */\n      sload(0x01)\n        /* \"Solidity.sol\":1065:1074  formatBTC */\n      tag_37\n        /* \"Solidity.sol\":1065:1085  formatBTC(btcAmount) */\n      jump\t// in\n    tag_36:\n        /* \"Solidity.sol\":1058:1085  return formatBTC(btcAmount) */\n      swap1\n      pop\n        /* \"Solidity.sol\":980:1093  function TOKENS() public view requireLogin returns (string memory) {... */\n      swap1\n      jump\t// out\n        /* \"Solidity.sol\":646:867  function CONVERSION() public view requireLogin returns (string memory) {... */\n    tag_15:\n        /* \"Solidity.sol\":702:715  string memory */\n      0x60\n        /* \"Solidity.sol\":462:470  loggedIn */\n      0x02\n      0x00\n      swap1\n      sload\n      swap1\n      0x0100\n      exp\n      swap1\n      div\n      0xff\n      and\n        /* \"Solidity.sol\":454:494  require(loggedIn, \"Please login first.\") */\n      tag_39\n      jumpi\n      mload(0x40)\n      0x08c379a000000000000000000000000000000000000000000000000000000000\n      dup2\n      mstore\n      0x04\n      add\n      tag_40\n      swap1\n      tag_24\n      jump\t// in\n    tag_40:\n      mload(0x40)\n      dup1\n      swap2\n      sub\n      swap1\n      revert\n    tag_39:\n        /* \"Solidity.sol\":728:748  uint256 btcToUsdRate */\n      0x00\n        /* \"Solidity.sol\":751:756  27017 */\n      0x6989\n        /* \"Solidity.sol\":728:756  uint256 btcToUsdRate = 27017 */\n      swap1\n      pop\n        /* \"Solidity.sol\":767:784  uint256 usdAmount */\n      0x00\n        /* \"Solidity.sol\":815:820  10**8 */\n      0x05f5e100\n        /* \"Solidity.sol\":799:811  btcToUsdRate */\n      dup3\n        /* \"Solidity.sol\":787:796  btcAmount */\n      sload(0x01)\n        /* \"Solidity.sol\":787:811  btcAmount * btcToUsdRate */\n      tag_42\n      swap2\n      swap1\n      tag_43\n      jump\t// in\n    tag_42:\n        /* \"Solidity.sol\":787:821  btcAmount * btcToUsdRate / (10**8) */\n      tag_44\n      swap2\n      swap1\n      tag_45\n      jump\t// in\n    tag_44:\n        /* \"Solidity.sol\":767:821  uint256 usdAmount = btcAmount * btcToUsdRate / (10**8) */\n      swap1\n      pop\n        /* \"Solidity.sol\":839:859  formatUSD(usdAmount) */\n      tag_46\n        /* \"Solidity.sol\":849:858  usdAmount */\n      dup2\n        /* \"Solidity.sol\":839:848  formatUSD */\n      tag_47\n        /* \"Solidity.sol\":839:859  formatUSD(usdAmount) */\n      jump\t// in\n    tag_46:\n        /* \"Solidity.sol\":832:859  return formatUSD(usdAmount) */\n      swap3\n      pop\n      pop\n      pop\n        /* \"Solidity.sol\":646:867  function CONVERSION() public view requireLogin returns (string memory) {... */\n      swap1\n      jump\t// out\n        /* \"Solidity.sol\":522:636  function AUTHORIZATION(string memory password) public requirePassword(password) {... */\n    tag_20:\n        /* \"Solidity.sol\":592:600  password */\n      dup1\n        /* \"Solidity.sol\":2518:2546  abi.encodePacked(\"Xy~01k!*\") */\n      add(0x20, mload(0x40))\n      tag_49\n      swap1\n      tag_50\n      jump\t// in\n    tag_49:\n      mload(0x40)\n      0x20\n      dup2\n      dup4\n      sub\n      sub\n      dup2\n      mstore\n      swap1\n      0x40\n      mstore\n        /* \"Solidity.sol\":2508:2547  keccak256(abi.encodePacked(\"Xy~01k!*\")) */\n      dup1\n      mload\n      swap1\n      0x20\n      add\n      keccak256\n        /* \"Solidity.sol\":339:347  password */\n      dup2\n        /* \"Solidity.sol\":316:349  abi.encodePacked(bytes(password)) */\n      add(0x20, mload(0x40))\n      tag_51\n      swap2\n      swap1\n      tag_52\n      jump\t// in\n    tag_51:\n      mload(0x40)\n      0x20\n      dup2\n      dup4\n      sub\n      sub\n      dup2\n      mstore\n      swap1\n      0x40\n      mstore\n        /* \"Solidity.sol\":306:350  keccak256(abi.encodePacked(bytes(password))) */\n      dup1\n      mload\n      swap1\n      0x20\n      add\n      keccak256\n        /* \"Solidity.sol\":306:367  keccak256(abi.encodePacked(bytes(password))) == PASSWORD_HASH */\n      eq\n        /* \"Solidity.sol\":298:391  require(keccak256(abi.encodePacked(bytes(password))) == PASSWORD_HASH, \"Incorrect password.\") */\n      tag_53\n      jumpi\n      mload(0x40)\n      0x08c379a000000000000000000000000000000000000000000000000000000000\n      dup2\n      mstore\n      0x04\n      add\n      tag_54\n      swap1\n      tag_55\n      jump\t// in\n    tag_54:\n      mload(0x40)\n      dup1\n      swap2\n      sub\n      swap1\n      revert\n    tag_53:\n        /* \"Solidity.sol\":624:628  true */\n      0x01\n        /* \"Solidity.sol\":613:621  loggedIn */\n      0x02\n      0x00\n        /* \"Solidity.sol\":613:628  loggedIn = true */\n      0x0100\n      exp\n      dup2\n      sload\n      dup2\n      0xff\n      mul\n      not\n      and\n      swap1\n      dup4\n      iszero\n      iszero\n      mul\n      or\n      swap1\n      sstore\n      pop\n        /* \"Solidity.sol\":522:636  function AUTHORIZATION(string memory password) public requirePassword(password) {... */\n      pop\n      pop\n      jump\t// out\n        /* \"Solidity.sol\":1791:2458  function formatBTC(uint256 amount) private pure returns (string memory) {... */\n    tag_37:\n        /* \"Solidity.sol\":1848:1861  string memory */\n      0x60\n        /* \"Solidity.sol\":1870:1889  uint256 integerPart */\n      0x00\n        /* \"Solidity.sol\":1902:1907  10**8 */\n      0x05f5e100\n        /* \"Solidity.sol\":1892:1898  amount */\n      dup4\n        /* \"Solidity.sol\":1892:1908  amount / (10**8) */\n      tag_58\n      swap2\n      swap1\n      tag_45\n      jump\t// in\n    tag_58:\n        /* \"Solidity.sol\":1870:1908  uint256 integerPart = amount / (10**8) */\n      swap1\n      pop\n        /* \"Solidity.sol\":1915:1934  uint256 decimalPart */\n      0x00\n        /* \"Solidity.sol\":1947:1952  10**8 */\n      0x05f5e100\n        /* \"Solidity.sol\":1937:1943  amount */\n      dup5\n        /* \"Solidity.sol\":1937:1953  amount % (10**8) */\n      tag_59\n      swap2\n      swap1\n      tag_60\n      jump\t// in\n    tag_59:\n        /* \"Solidity.sol\":1915:1953  uint256 decimalPart = amount % (10**8) */\n      swap1\n      pop\n        /* \"Solidity.sol\":1960:1988  string memory strIntegerPart */\n      0x00\n        /* \"Solidity.sol\":1991:2016  uintToString(integerPart) */\n      tag_61\n        /* \"Solidity.sol\":2004:2015  integerPart */\n      dup4\n        /* \"Solidity.sol\":1991:2003  uintToString */\n      tag_62\n        /* \"Solidity.sol\":1991:2016  uintToString(integerPart) */\n      jump\t// in\n    tag_61:\n        /* \"Solidity.sol\":1960:2016  string memory strIntegerPart = uintToString(integerPart) */\n      swap1\n      pop\n        /* \"Solidity.sol\":2023:2044  bytes memory strBytes */\n      0x00\n        /* \"Solidity.sol\":2053:2067  strIntegerPart */\n      dup2\n        /* \"Solidity.sol\":2023:2068  bytes memory strBytes = bytes(strIntegerPart) */\n      swap1\n      pop\n        /* \"Solidity.sol\":2075:2086  uint256 len */\n      0x00\n        /* \"Solidity.sol\":2089:2097  strBytes */\n      dup2\n        /* \"Solidity.sol\":2089:2104  strBytes.length */\n      mload\n        /* \"Solidity.sol\":2075:2104  uint256 len = strBytes.length */\n      swap1\n      pop\n        /* \"Solidity.sol\":2111:2130  bytes memory result */\n      0x00\n        /* \"Solidity.sol\":2155:2156  3 */\n      0x03\n        /* \"Solidity.sol\":2149:2152  len */\n      dup3\n        /* \"Solidity.sol\":2149:2156  len / 3 */\n      tag_63\n      swap2\n      swap1\n      tag_45\n      jump\t// in\n    tag_63:\n        /* \"Solidity.sol\":2143:2146  len */\n      dup3\n        /* \"Solidity.sol\":2143:2156  len + len / 3 */\n      tag_64\n      swap2\n      swap1\n      tag_65\n      jump\t// in\n    tag_64:\n        /* \"Solidity.sol\":2133:2157  new bytes(len + len / 3) */\n      0xffffffffffffffff\n      dup2\n      gt\n      iszero\n      tag_66\n      jumpi\n      tag_67\n      tag_68\n      jump\t// in\n    tag_67:\n    tag_66:\n      mload(0x40)\n      swap1\n      dup1\n      dup3\n      mstore\n      dup1\n      0x1f\n      add\n      not(0x1f)\n      and\n      0x20\n      add\n      dup3\n      add\n      0x40\n      mstore\n      dup1\n      iszero\n      tag_69\n      jumpi\n      dup2\n      0x20\n      add\n      0x01\n      dup3\n      mul\n      dup1\n      calldatasize\n      dup4\n      calldatacopy\n      dup1\n      dup3\n      add\n      swap2\n      pop\n      pop\n      swap1\n      pop\n    tag_69:\n      pop\n        /* \"Solidity.sol\":2111:2157  bytes memory result = new bytes(len + len / 3) */\n      swap1\n      pop\n        /* \"Solidity.sol\":2164:2173  uint256 j */\n      0x00\n        /* \"Solidity.sol\":2189:2198  uint256 i */\n      dup1\n        /* \"Solidity.sol\":2184:2358  for (uint256 i = 0; i < len; i++) {... */\n    tag_70:\n        /* \"Solidity.sol\":2208:2211  len */\n      dup4\n        /* \"Solidity.sol\":2204:2205  i */\n      dup2\n        /* \"Solidity.sol\":2204:2211  i < len */\n      lt\n        /* \"Solidity.sol\":2184:2358  for (uint256 i = 0; i < len; i++) {... */\n      iszero\n      tag_71\n      jumpi\n        /* \"Solidity.sol\":2250:2251  0 */\n      0x00\n        /* \"Solidity.sol\":2245:2246  3 */\n      0x03\n        /* \"Solidity.sol\":2240:2241  i */\n      dup3\n        /* \"Solidity.sol\":2234:2237  len */\n      dup7\n        /* \"Solidity.sol\":2234:2241  len - i */\n      tag_73\n      swap2\n      swap1\n      tag_74\n      jump\t// in\n    tag_73:\n        /* \"Solidity.sol\":2233:2246  (len - i) % 3 */\n      tag_75\n      swap2\n      swap1\n      tag_60\n      jump\t// in\n    tag_75:\n        /* \"Solidity.sol\":2233:2251  (len - i) % 3 == 0 */\n      eq\n        /* \"Solidity.sol\":2233:2261  (len - i) % 3 == 0 && i != 0 */\n      dup1\n      iszero\n      tag_76\n      jumpi\n      pop\n        /* \"Solidity.sol\":2260:2261  0 */\n      0x00\n        /* \"Solidity.sol\":2255:2256  i */\n      dup2\n        /* \"Solidity.sol\":2255:2261  i != 0 */\n      eq\n      iszero\n        /* \"Solidity.sol\":2233:2261  (len - i) % 3 == 0 && i != 0 */\n    tag_76:\n        /* \"Solidity.sol\":2229:2315  if ((len - i) % 3 == 0 && i != 0) {... */\n      iszero\n      tag_77\n      jumpi\n        /* \"Solidity.sol\":2292:2303  bytes1(',') */\n      0x2c00000000000000000000000000000000000000000000000000000000000000\n        /* \"Solidity.sol\":2278:2284  result */\n      dup4\n        /* \"Solidity.sol\":2285:2288  j++ */\n      dup4\n      dup1\n      tag_78\n      swap1\n      tag_79\n      jump\t// in\n    tag_78:\n      swap5\n      pop\n        /* \"Solidity.sol\":2278:2289  result[j++] */\n      dup2\n      mload\n      dup2\n      lt\n      tag_80\n      jumpi\n      tag_81\n      tag_82\n      jump\t// in\n    tag_81:\n    tag_80:\n      0x20\n      add\n      add\n        /* \"Solidity.sol\":2278:2303  result[j++] = bytes1(',') */\n      swap1\n      not(0xffffffffffffffffffffffffffffffffffffffffffffffffffffffffffffff)\n      and\n      swap1\n      dup2\n      0x00\n      byte\n      swap1\n      mstore8\n      pop\n        /* \"Solidity.sol\":2229:2315  if ((len - i) % 3 == 0 && i != 0) {... */\n    tag_77:\n        /* \"Solidity.sol\":2339:2347  strBytes */\n      dup5\n        /* \"Solidity.sol\":2348:2349  i */\n      dup2\n        /* \"Solidity.sol\":2339:2350  strBytes[i] */\n      dup2\n      mload\n      dup2\n      lt\n      tag_83\n      jumpi\n      tag_84\n      tag_82\n      jump\t// in\n    tag_84:\n    tag_83:\n      0x20\n      add\n      add\n      mload\n      0xf8\n      shr\n      0xf8\n      shl\n        /* \"Solidity.sol\":2325:2331  result */\n      dup4\n        /* \"Solidity.sol\":2332:2335  j++ */\n      dup4\n      dup1\n      tag_85\n      swap1\n      tag_79\n      jump\t// in\n    tag_85:\n      swap5\n      pop\n        /* \"Solidity.sol\":2325:2336  result[j++] */\n      dup2\n      mload\n      dup2\n      lt\n      tag_86\n      jumpi\n      tag_87\n      tag_82\n      jump\t// in\n    tag_87:\n    tag_86:\n      0x20\n      add\n      add\n        /* \"Solidity.sol\":2325:2350  result[j++] = strBytes[i] */\n      swap1\n      not(0xffffffffffffffffffffffffffffffffffffffffffffffffffffffffffffff)\n      and\n      swap1\n      dup2\n      0x00\n      byte\n      swap1\n      mstore8\n      pop\n        /* \"Solidity.sol\":2213:2216  i++ */\n      dup1\n      dup1\n      tag_88\n      swap1\n      tag_79\n      jump\t// in\n    tag_88:\n      swap2\n      pop\n      pop\n        /* \"Solidity.sol\":2184:2358  for (uint256 i = 0; i < len; i++) {... */\n      jump(tag_70)\n    tag_71:\n      pop\n        /* \"Solidity.sol\":2395:2401  result */\n      dup2\n        /* \"Solidity.sol\":2408:2443  uintToString(decimalPart / (10**6)) */\n      tag_89\n        /* \"Solidity.sol\":2436:2441  10**6 */\n      0x0f4240\n        /* \"Solidity.sol\":2421:2432  decimalPart */\n      dup9\n        /* \"Solidity.sol\":2421:2442  decimalPart / (10**6) */\n      tag_90\n      swap2\n      swap1\n      tag_45\n      jump\t// in\n    tag_90:\n        /* \"Solidity.sol\":2408:2420  uintToString */\n      tag_62\n        /* \"Solidity.sol\":2408:2443  uintToString(decimalPart / (10**6)) */\n      jump\t// in\n    tag_89:\n        /* \"Solidity.sol\":2378:2453  abi.encodePacked(result, \".\", uintToString(decimalPart / (10**6)), \"0 BTC\") */\n      add(0x20, mload(0x40))\n      tag_91\n      swap3\n      swap2\n      swap1\n      tag_92\n      jump\t// in\n    tag_91:\n      mload(0x40)\n      0x20\n      dup2\n      dup4\n      sub\n      sub\n      dup2\n      mstore\n      swap1\n      0x40\n      mstore\n        /* \"Solidity.sol\":2364:2454  return string(abi.encodePacked(result, \".\", uintToString(decimalPart / (10**6)), \"0 BTC\")) */\n      swap8\n      pop\n      pop\n      pop\n      pop\n      pop\n      pop\n      pop\n      pop\n        /* \"Solidity.sol\":1791:2458  function formatBTC(uint256 amount) private pure returns (string memory) {... */\n      swap2\n      swap1\n      pop\n      jump\t// out\n        /* \"Solidity.sol\":1101:1781  function formatUSD(uint256 amount) private pure returns (string memory) {... */\n    tag_47:\n        /* \"Solidity.sol\":1158:1171  string memory */\n      0x60\n        /* \"Solidity.sol\":1184:1207  string memory strAmount */\n      0x00\n        /* \"Solidity.sol\":1210:1230  uintToString(amount) */\n      tag_94\n        /* \"Solidity.sol\":1223:1229  amount */\n      dup4\n        /* \"Solidity.sol\":1210:1222  uintToString */\n      tag_62\n        /* \"Solidity.sol\":1210:1230  uintToString(amount) */\n      jump\t// in\n    tag_94:\n        /* \"Solidity.sol\":1184:1230  string memory strAmount = uintToString(amount) */\n      swap1\n      pop\n        /* \"Solidity.sol\":1241:1262  bytes memory strBytes */\n      0x00\n        /* \"Solidity.sol\":1271:1280  strAmount */\n      dup2\n        /* \"Solidity.sol\":1241:1281  bytes memory strBytes = bytes(strAmount) */\n      swap1\n      pop\n        /* \"Solidity.sol\":1292:1303  uint256 len */\n      0x00\n        /* \"Solidity.sol\":1306:1314  strBytes */\n      dup2\n        /* \"Solidity.sol\":1306:1321  strBytes.length */\n      mload\n        /* \"Solidity.sol\":1292:1321  uint256 len = strBytes.length */\n      swap1\n      pop\n        /* \"Solidity.sol\":1343:1344  6 */\n      0x06\n        /* \"Solidity.sol\":1336:1339  len */\n      dup2\n        /* \"Solidity.sol\":1336:1344  len <= 6 */\n      gt\n        /* \"Solidity.sol\":1332:1427  if (len <= 6) {... */\n      tag_95\n      jumpi\n        /* \"Solidity.sol\":1397:1406  strAmount */\n      dup3\n        /* \"Solidity.sol\":1375:1414  abi.encodePacked(\"$\", strAmount, \".00\") */\n      add(0x20, mload(0x40))\n      tag_96\n      swap2\n      swap1\n      tag_97\n      jump\t// in\n    tag_96:\n      mload(0x40)\n      0x20\n      dup2\n      dup4\n      sub\n      sub\n      dup2\n      mstore\n      swap1\n      0x40\n      mstore\n        /* \"Solidity.sol\":1361:1415  return string(abi.encodePacked(\"$\", strAmount, \".00\")) */\n      swap4\n      pop\n      pop\n      pop\n      pop\n      jump(tag_93)\n        /* \"Solidity.sol\":1332:1427  if (len <= 6) {... */\n    tag_95:\n        /* \"Solidity.sol\":1437:1456  bytes memory result */\n      0x00\n        /* \"Solidity.sol\":1481:1482  3 */\n      0x03\n        /* \"Solidity.sol\":1475:1478  len */\n      dup3\n        /* \"Solidity.sol\":1475:1482  len / 3 */\n      tag_98\n      swap2\n      swap1\n      tag_45\n      jump\t// in\n    tag_98:\n        /* \"Solidity.sol\":1469:1472  len */\n      dup3\n        /* \"Solidity.sol\":1469:1482  len + len / 3 */\n      tag_99\n      swap2\n      swap1\n      tag_65\n      jump\t// in\n    tag_99:\n        /* \"Solidity.sol\":1459:1483  new bytes(len + len / 3) */\n      0xffffffffffffffff\n      dup2\n      gt\n      iszero\n      tag_100\n      jumpi\n      tag_101\n      tag_68\n      jump\t// in\n    tag_101:\n    tag_100:\n      mload(0x40)\n      swap1\n      dup1\n      dup3\n      mstore\n      dup1\n      0x1f\n      add\n      not(0x1f)\n      and\n      0x20\n      add\n      dup3\n      add\n      0x40\n      mstore\n      dup1\n      iszero\n      tag_102\n      jumpi\n      dup2\n      0x20\n      add\n      0x01\n      dup3\n      mul\n      dup1\n      calldatasize\n      dup4\n      calldatacopy\n      dup1\n      dup3\n      add\n      swap2\n      pop\n      pop\n      swap1\n      pop\n    tag_102:\n      pop\n        /* \"Solidity.sol\":1437:1483  bytes memory result = new bytes(len + len / 3) */\n      swap1\n      pop\n        /* \"Solidity.sol\":1494:1503  uint256 j */\n      0x00\n        /* \"Solidity.sol\":1523:1532  uint256 i */\n      dup1\n        /* \"Solidity.sol\":1518:1712  for (uint256 i = 0; i < len; i++) {... */\n    tag_103:\n        /* \"Solidity.sol\":1542:1545  len */\n      dup4\n        /* \"Solidity.sol\":1538:1539  i */\n      dup2\n        /* \"Solidity.sol\":1538:1545  i < len */\n      lt\n        /* \"Solidity.sol\":1518:1712  for (uint256 i = 0; i < len; i++) {... */\n      iszero\n      tag_104\n      jumpi\n        /* \"Solidity.sol\":1588:1589  0 */\n      0x00\n        /* \"Solidity.sol\":1583:1584  3 */\n      0x03\n        /* \"Solidity.sol\":1578:1579  i */\n      dup3\n        /* \"Solidity.sol\":1572:1575  len */\n      dup7\n        /* \"Solidity.sol\":1572:1579  len - i */\n      tag_106\n      swap2\n      swap1\n      tag_74\n      jump\t// in\n    tag_106:\n        /* \"Solidity.sol\":1571:1584  (len - i) % 3 */\n      tag_107\n      swap2\n      swap1\n      tag_60\n      jump\t// in\n    tag_107:\n        /* \"Solidity.sol\":1571:1589  (len - i) % 3 == 0 */\n      eq\n        /* \"Solidity.sol\":1571:1599  (len - i) % 3 == 0 && i != 0 */\n      dup1\n      iszero\n      tag_108\n      jumpi\n      pop\n        /* \"Solidity.sol\":1598:1599  0 */\n      0x00\n        /* \"Solidity.sol\":1593:1594  i */\n      dup2\n        /* \"Solidity.sol\":1593:1599  i != 0 */\n      eq\n      iszero\n        /* \"Solidity.sol\":1571:1599  (len - i) % 3 == 0 && i != 0 */\n    tag_108:\n        /* \"Solidity.sol\":1567:1661  if ((len - i) % 3 == 0 && i != 0) {... */\n      iszero\n      tag_109\n      jumpi\n        /* \"Solidity.sol\":1634:1645  bytes1(',') */\n      0x2c00000000000000000000000000000000000000000000000000000000000000\n        /* \"Solidity.sol\":1620:1626  result */\n      dup4\n        /* \"Solidity.sol\":1627:1630  j++ */\n      dup4\n      dup1\n      tag_110\n      swap1\n      tag_79\n      jump\t// in\n    tag_110:\n      swap5\n      pop\n        /* \"Solidity.sol\":1620:1631  result[j++] */\n      dup2\n      mload\n      dup2\n      lt\n      tag_111\n      jumpi\n      tag_112\n      tag_82\n      jump\t// in\n    tag_112:\n    tag_111:\n      0x20\n      add\n      add\n        /* \"Solidity.sol\":1620:1645  result[j++] = bytes1(',') */\n      swap1\n      not(0xffffffffffffffffffffffffffffffffffffffffffffffffffffffffffffff)\n      and\n      swap1\n      dup2\n      0x00\n      byte\n      swap1\n      mstore8\n      pop\n        /* \"Solidity.sol\":1567:1661  if ((len - i) % 3 == 0 && i != 0) {... */\n    tag_109:\n        /* \"Solidity.sol\":1689:1697  strBytes */\n      dup5\n        /* \"Solidity.sol\":1698:1699  i */\n      dup2\n        /* \"Solidity.sol\":1689:1700  strBytes[i] */\n      dup2\n      mload\n      dup2\n      lt\n      tag_113\n      jumpi\n      tag_114\n      tag_82\n      jump\t// in\n    tag_114:\n    tag_113:\n      0x20\n      add\n      add\n      mload\n      0xf8\n      shr\n      0xf8\n      shl\n        /* \"Solidity.sol\":1675:1681  result */\n      dup4\n        /* \"Solidity.sol\":1682:1685  j++ */\n      dup4\n      dup1\n      tag_115\n      swap1\n      tag_79\n      jump\t// in\n    tag_115:\n      swap5\n      pop\n        /* \"Solidity.sol\":1675:1686  result[j++] */\n      dup2\n      mload\n      dup2\n      lt\n      tag_116\n      jumpi\n      tag_117\n      tag_82\n      jump\t// in\n    tag_117:\n    tag_116:\n      0x20\n      add\n      add\n        /* \"Solidity.sol\":1675:1700  result[j++] = strBytes[i] */\n      swap1\n      not(0xffffffffffffffffffffffffffffffffffffffffffffffffffffffffffffff)\n      and\n      swap1\n      dup2\n      0x00\n      byte\n      swap1\n      mstore8\n      pop\n        /* \"Solidity.sol\":1547:1550  i++ */\n      dup1\n      dup1\n      tag_118\n      swap1\n      tag_79\n      jump\t// in\n    tag_118:\n      swap2\n      pop\n      pop\n        /* \"Solidity.sol\":1518:1712  for (uint256 i = 0; i < len; i++) {... */\n      jump(tag_103)\n    tag_104:\n      pop\n        /* \"Solidity.sol\":1758:1764  result */\n      dup2\n        /* \"Solidity.sol\":1736:1772  abi.encodePacked(\"$\", result, \".00\") */\n      add(0x20, mload(0x40))\n      tag_119\n      swap2\n      swap1\n      tag_120\n      jump\t// in\n    tag_119:\n      mload(0x40)\n      0x20\n      dup2\n      dup4\n      sub\n      sub\n      dup2\n      mstore\n      swap1\n      0x40\n      mstore\n        /* \"Solidity.sol\":1722:1773  return string(abi.encodePacked(\"$\", result, \".00\")) */\n      swap6\n      pop\n      pop\n      pop\n      pop\n      pop\n      pop\n        /* \"Solidity.sol\":1101:1781  function formatUSD(uint256 amount) private pure returns (string memory) {... */\n    tag_93:\n      swap2\n      swap1\n      pop\n      jump\t// out\n        /* \"Solidity.sol\":2556:3091  function uintToString(uint256 value) private pure returns (string memory) {... */\n    tag_62:\n        /* \"Solidity.sol\":2615:2628  string memory */\n      0x60\n        /* \"Solidity.sol\":2654:2655  0 */\n      0x00\n        /* \"Solidity.sol\":2645:2650  value */\n      dup3\n        /* \"Solidity.sol\":2645:2655  value == 0 */\n      sub\n        /* \"Solidity.sol\":2641:2694  if (value == 0) {... */\n      tag_122\n      jumpi\n        /* \"Solidity.sol\":2672:2682  return \"0\" */\n      mload(0x40)\n      dup1\n      0x40\n      add\n      0x40\n      mstore\n      dup1\n      0x01\n      dup2\n      mstore\n      0x20\n      add\n      0x3000000000000000000000000000000000000000000000000000000000000000\n      dup2\n      mstore\n      pop\n      swap1\n      pop\n      jump(tag_121)\n        /* \"Solidity.sol\":2641:2694  if (value == 0) {... */\n    tag_122:\n        /* \"Solidity.sol\":2704:2716  uint256 temp */\n      0x00\n        /* \"Solidity.sol\":2719:2724  value */\n      dup3\n        /* \"Solidity.sol\":2704:2724  uint256 temp = value */\n      swap1\n      pop\n        /* \"Solidity.sol\":2735:2749  uint256 digits */\n      0x00\n        /* \"Solidity.sol\":2760:2838  while (temp != 0) {... */\n    tag_123:\n        /* \"Solidity.sol\":2775:2776  0 */\n      0x00\n        /* \"Solidity.sol\":2767:2771  temp */\n      dup3\n        /* \"Solidity.sol\":2767:2776  temp != 0 */\n      eq\n        /* \"Solidity.sol\":2760:2838  while (temp != 0) {... */\n      tag_124\n      jumpi\n        /* \"Solidity.sol\":2793:2801  digits++ */\n      dup1\n      dup1\n      tag_125\n      swap1\n      tag_79\n      jump\t// in\n    tag_125:\n      swap2\n      pop\n      pop\n        /* \"Solidity.sol\":2824:2826  10 */\n      0x0a\n        /* \"Solidity.sol\":2816:2826  temp /= 10 */\n      dup3\n      tag_126\n      swap2\n      swap1\n      tag_45\n      jump\t// in\n    tag_126:\n      swap2\n      pop\n        /* \"Solidity.sol\":2760:2838  while (temp != 0) {... */\n      jump(tag_123)\n    tag_124:\n        /* \"Solidity.sol\":2848:2867  bytes memory buffer */\n      0x00\n        /* \"Solidity.sol\":2880:2886  digits */\n      dup2\n        /* \"Solidity.sol\":2870:2887  new bytes(digits) */\n      0xffffffffffffffff\n      dup2\n      gt\n      iszero\n      tag_127\n      jumpi\n      tag_128\n      tag_68\n      jump\t// in\n    tag_128:\n    tag_127:\n      mload(0x40)\n      swap1\n      dup1\n      dup3\n      mstore\n      dup1\n      0x1f\n      add\n      not(0x1f)\n      and\n      0x20\n      add\n      dup3\n      add\n      0x40\n      mstore\n      dup1\n      iszero\n      tag_129\n      jumpi\n      dup2\n      0x20\n      add\n      0x01\n      dup3\n      mul\n      dup1\n      calldatasize\n      dup4\n      calldatacopy\n      dup1\n      dup3\n      add\n      swap2\n      pop\n      pop\n      swap1\n      pop\n    tag_129:\n      pop\n        /* \"Solidity.sol\":2848:2887  bytes memory buffer = new bytes(digits) */\n      swap1\n      pop\n        /* \"Solidity.sol\":2898:3052  while (value != 0) {... */\n    tag_130:\n        /* \"Solidity.sol\":2914:2915  0 */\n      0x00\n        /* \"Solidity.sol\":2905:2910  value */\n      dup6\n        /* \"Solidity.sol\":2905:2915  value != 0 */\n      eq\n        /* \"Solidity.sol\":2898:3052  while (value != 0) {... */\n      tag_131\n      jumpi\n        /* \"Solidity.sol\":2942:2943  1 */\n      0x01\n        /* \"Solidity.sol\":2932:2943  digits -= 1 */\n      dup3\n      tag_132\n      swap2\n      swap1\n      tag_74\n      jump\t// in\n    tag_132:\n      swap2\n      pop\n        /* \"Solidity.sol\":3009:3011  10 */\n      0x0a\n        /* \"Solidity.sol\":3001:3006  value */\n      dup6\n        /* \"Solidity.sol\":3001:3011  value % 10 */\n      tag_133\n      swap2\n      swap1\n      tag_60\n      jump\t// in\n    tag_133:\n        /* \"Solidity.sol\":2988:2990  48 */\n      0x30\n        /* \"Solidity.sol\":2988:3012  48 + uint256(value % 10) */\n      tag_134\n      swap2\n      swap1\n      tag_65\n      jump\t// in\n    tag_134:\n        /* \"Solidity.sol\":2975:3014  bytes1(uint8(48 + uint256(value % 10))) */\n      0xf8\n      shl\n        /* \"Solidity.sol\":2958:2964  buffer */\n      dup2\n        /* \"Solidity.sol\":2965:2971  digits */\n      dup4\n        /* \"Solidity.sol\":2958:2972  buffer[digits] */\n      dup2\n      mload\n      dup2\n      lt\n      tag_135\n      jumpi\n      tag_136\n      tag_82\n      jump\t// in\n    tag_136:\n    tag_135:\n      0x20\n      add\n      add\n        /* \"Solidity.sol\":2958:3014  buffer[digits] = bytes1(uint8(48 + uint256(value % 10))) */\n      swap1\n      not(0xffffffffffffffffffffffffffffffffffffffffffffffffffffffffffffff)\n      and\n      swap1\n      dup2\n      0x00\n      byte\n      swap1\n      mstore8\n      pop\n        /* \"Solidity.sol\":3038:3040  10 */\n      0x0a\n        /* \"Solidity.sol\":3029:3040  value /= 10 */\n      dup6\n      tag_137\n      swap2\n      swap1\n      tag_45\n      jump\t// in\n    tag_137:\n      swap5\n      pop\n        /* \"Solidity.sol\":2898:3052  while (value != 0) {... */\n      jump(tag_130)\n    tag_131:\n        /* \"Solidity.sol\":3076:3082  buffer */\n      dup1\n        /* \"Solidity.sol\":3062:3083  return string(buffer) */\n      swap4\n      pop\n      pop\n      pop\n      pop\n        /* \"Solidity.sol\":2556:3091  function uintToString(uint256 value) private pure returns (string memory) {... */\n    tag_121:\n      swap2\n      swap1\n      pop\n      jump\t// out\n        /* \"#utility.yul\":7:106   */\n    tag_138:\n        /* \"#utility.yul\":59:65   */\n      0x00\n        /* \"#utility.yul\":93:98   */\n      dup2\n        /* \"#utility.yul\":87:99   */\n      mload\n        /* \"#utility.yul\":77:99   */\n      swap1\n      pop\n        /* \"#utility.yul\":7:106   */\n      swap2\n      swap1\n      pop\n      jump\t// out\n        /* \"#utility.yul\":112:281   */\n    tag_139:\n        /* \"#utility.yul\":196:207   */\n      0x00\n        /* \"#utility.yul\":230:236   */\n      dup3\n        /* \"#utility.yul\":225:228   */\n      dup3\n        /* \"#utility.yul\":218:237   */\n      mstore\n        /* \"#utility.yul\":270:274   */\n      0x20\n        /* \"#utility.yul\":265:268   */\n      dup3\n        /* \"#utility.yul\":261:275   */\n      add\n        /* \"#utility.yul\":246:275   */\n      swap1\n      pop\n        /* \"#utility.yul\":112:281   */\n      swap3\n      swap2\n      pop\n      pop\n      jump\t// out\n        /* \"#utility.yul\":287:533   */\n    tag_140:\n        /* \"#utility.yul\":368:369   */\n      0x00\n        /* \"#utility.yul\":378:491   */\n    tag_181:\n        /* \"#utility.yul\":392:398   */\n      dup4\n        /* \"#utility.yul\":389:390   */\n      dup2\n        /* \"#utility.yul\":386:399   */\n      lt\n        /* \"#utility.yul\":378:491   */\n      iszero\n      tag_183\n      jumpi\n        /* \"#utility.yul\":477:478   */\n      dup1\n        /* \"#utility.yul\":472:475   */\n      dup3\n        /* \"#utility.yul\":468:479   */\n      add\n        /* \"#utility.yul\":462:480   */\n      mload\n        /* \"#utility.yul\":458:459   */\n      dup2\n        /* \"#utility.yul\":453:456   */\n      dup5\n        /* \"#utility.yul\":449:460   */\n      add\n        /* \"#utility.yul\":442:481   */\n      mstore\n        /* \"#utility.yul\":414:416   */\n      0x20\n        /* \"#utility.yul\":411:412   */\n      dup2\n        /* \"#utility.yul\":407:417   */\n      add\n        /* \"#utility.yul\":402:417   */\n      swap1\n      pop\n        /* \"#utility.yul\":378:491   */\n      jump(tag_181)\n    tag_183:\n        /* \"#utility.yul\":525:526   */\n      0x00\n        /* \"#utility.yul\":516:522   */\n      dup5\n        /* \"#utility.yul\":511:514   */\n      dup5\n        /* \"#utility.yul\":507:523   */\n      add\n        /* \"#utility.yul\":500:527   */\n      mstore\n        /* \"#utility.yul\":349:533   */\n      pop\n        /* \"#utility.yul\":287:533   */\n      pop\n      pop\n      pop\n      jump\t// out\n        /* \"#utility.yul\":539:641   */\n    tag_141:\n        /* \"#utility.yul\":580:586   */\n      0x00\n        /* \"#utility.yul\":631:633   */\n      0x1f\n        /* \"#utility.yul\":627:634   */\n      not\n        /* \"#utility.yul\":622:624   */\n      0x1f\n        /* \"#utility.yul\":615:620   */\n      dup4\n        /* \"#utility.yul\":611:625   */\n      add\n        /* \"#utility.yul\":607:635   */\n      and\n        /* \"#utility.yul\":597:635   */\n      swap1\n      pop\n        /* \"#utility.yul\":539:641   */\n      swap2\n      swap1\n      pop\n      jump\t// out\n        /* \"#utility.yul\":647:1024   */\n    tag_142:\n        /* \"#utility.yul\":735:738   */\n      0x00\n        /* \"#utility.yul\":763:802   */\n      tag_186\n        /* \"#utility.yul\":796:801   */\n      dup3\n        /* \"#utility.yul\":763:802   */\n      tag_138\n      jump\t// in\n    tag_186:\n        /* \"#utility.yul\":818:889   */\n      tag_187\n        /* \"#utility.yul\":882:888   */\n      dup2\n        /* \"#utility.yul\":877:880   */\n      dup6\n        /* \"#utility.yul\":818:889   */\n      tag_139\n      jump\t// in\n    tag_187:\n        /* \"#utility.yul\":811:889   */\n      swap4\n      pop\n        /* \"#utility.yul\":898:963   */\n      tag_188\n        /* \"#utility.yul\":956:962   */\n      dup2\n        /* \"#utility.yul\":951:954   */\n      dup6\n        /* \"#utility.yul\":944:948   */\n      0x20\n        /* \"#utility.yul\":937:942   */\n      dup7\n        /* \"#utility.yul\":933:949   */\n      add\n        /* \"#utility.yul\":898:963   */\n      tag_140\n      jump\t// in\n    tag_188:\n        /* \"#utility.yul\":988:1017   */\n      tag_189\n        /* \"#utility.yul\":1010:1016   */\n      dup2\n        /* \"#utility.yul\":988:1017   */\n      tag_141\n      jump\t// in\n    tag_189:\n        /* \"#utility.yul\":983:986   */\n      dup5\n        /* \"#utility.yul\":979:1018   */\n      add\n        /* \"#utility.yul\":972:1018   */\n      swap2\n      pop\n        /* \"#utility.yul\":739:1024   */\n      pop\n        /* \"#utility.yul\":647:1024   */\n      swap3\n      swap2\n      pop\n      pop\n      jump\t// out\n        /* \"#utility.yul\":1030:1343   */\n    tag_10:\n        /* \"#utility.yul\":1143:1147   */\n      0x00\n        /* \"#utility.yul\":1181:1183   */\n      0x20\n        /* \"#utility.yul\":1170:1179   */\n      dup3\n        /* \"#utility.yul\":1166:1184   */\n      add\n        /* \"#utility.yul\":1158:1184   */\n      swap1\n      pop\n        /* \"#utility.yul\":1230:1239   */\n      dup2\n        /* \"#utility.yul\":1224:1228   */\n      dup2\n        /* \"#utility.yul\":1220:1240   */\n      sub\n        /* \"#utility.yul\":1216:1217   */\n      0x00\n        /* \"#utility.yul\":1205:1214   */\n      dup4\n        /* \"#utility.yul\":1201:1218   */\n      add\n        /* \"#utility.yul\":1194:1241   */\n      mstore\n        /* \"#utility.yul\":1258:1336   */\n      tag_191\n        /* \"#utility.yul\":1331:1335   */\n      dup2\n        /* \"#utility.yul\":1322:1328   */\n      dup5\n        /* \"#utility.yul\":1258:1336   */\n      tag_142\n      jump\t// in\n    tag_191:\n        /* \"#utility.yul\":1250:1336   */\n      swap1\n      pop\n        /* \"#utility.yul\":1030:1343   */\n      swap3\n      swap2\n      pop\n      pop\n      jump\t// out\n        /* \"#utility.yul\":1349:1424   */\n    tag_143:\n        /* \"#utility.yul\":1382:1388   */\n      0x00\n        /* \"#utility.yul\":1415:1417   */\n      0x40\n        /* \"#utility.yul\":1409:1418   */\n      mload\n        /* \"#utility.yul\":1399:1418   */\n      swap1\n      pop\n        /* \"#utility.yul\":1349:1424   */\n      swap1\n      jump\t// out\n        /* \"#utility.yul\":1430:1547   */\n    tag_144:\n        /* \"#utility.yul\":1539:1540   */\n      0x00\n        /* \"#utility.yul\":1536:1537   */\n      dup1\n        /* \"#utility.yul\":1529:1541   */\n      revert\n        /* \"#utility.yul\":1553:1670   */\n    tag_145:\n        /* \"#utility.yul\":1662:1663   */\n      0x00\n        /* \"#utility.yul\":1659:1660   */\n      dup1\n        /* \"#utility.yul\":1652:1664   */\n      revert\n        /* \"#utility.yul\":1676:1793   */\n    tag_146:\n        /* \"#utility.yul\":1785:1786   */\n      0x00\n        /* \"#utility.yul\":1782:1783   */\n      dup1\n        /* \"#utility.yul\":1775:1787   */\n      revert\n        /* \"#utility.yul\":1799:1916   */\n    tag_147:\n        /* \"#utility.yul\":1908:1909   */\n      0x00\n        /* \"#utility.yul\":1905:1906   */\n      dup1\n        /* \"#utility.yul\":1898:1910   */\n      revert\n        /* \"#utility.yul\":1922:2102   */\n    tag_68:\n        /* \"#utility.yul\":1970:2047   */\n      0x4e487b7100000000000000000000000000000000000000000000000000000000\n        /* \"#utility.yul\":1967:1968   */\n      0x00\n        /* \"#utility.yul\":1960:2048   */\n      mstore\n        /* \"#utility.yul\":2067:2071   */\n      0x41\n        /* \"#utility.yul\":2064:2065   */\n      0x04\n        /* \"#utility.yul\":2057:2072   */\n      mstore\n        /* \"#utility.yul\":2091:2095   */\n      0x24\n        /* \"#utility.yul\":2088:2089   */\n      0x00\n        /* \"#utility.yul\":2081:2096   */\n      revert\n        /* \"#utility.yul\":2108:2389   */\n    tag_148:\n        /* \"#utility.yul\":2191:2218   */\n      tag_199\n        /* \"#utility.yul\":2213:2217   */\n      dup3\n        /* \"#utility.yul\":2191:2218   */\n      tag_141\n      jump\t// in\n    tag_199:\n        /* \"#utility.yul\":2183:2189   */\n      dup2\n        /* \"#utility.yul\":2179:2219   */\n      add\n        /* \"#utility.yul\":2321:2327   */\n      dup2\n        /* \"#utility.yul\":2309:2319   */\n      dup2\n        /* \"#utility.yul\":2306:2328   */\n      lt\n        /* \"#utility.yul\":2285:2303   */\n      0xffffffffffffffff\n        /* \"#utility.yul\":2273:2283   */\n      dup3\n        /* \"#utility.yul\":2270:2304   */\n      gt\n        /* \"#utility.yul\":2267:2329   */\n      or\n        /* \"#utility.yul\":2264:2352   */\n      iszero\n      tag_200\n      jumpi\n        /* \"#utility.yul\":2332:2350   */\n      tag_201\n      tag_68\n      jump\t// in\n    tag_201:\n        /* \"#utility.yul\":2264:2352   */\n    tag_200:\n        /* \"#utility.yul\":2372:2382   */\n      dup1\n        /* \"#utility.yul\":2368:2370   */\n      0x40\n        /* \"#utility.yul\":2361:2383   */\n      mstore\n        /* \"#utility.yul\":2151:2389   */\n      pop\n        /* \"#utility.yul\":2108:2389   */\n      pop\n      pop\n      jump\t// out\n        /* \"#utility.yul\":2395:2524   */\n    tag_149:\n        /* \"#utility.yul\":2429:2435   */\n      0x00\n        /* \"#utility.yul\":2456:2476   */\n      tag_203\n      tag_143\n      jump\t// in\n    tag_203:\n        /* \"#utility.yul\":2446:2476   */\n      swap1\n      pop\n        /* \"#utility.yul\":2485:2518   */\n      tag_204\n        /* \"#utility.yul\":2513:2517   */\n      dup3\n        /* \"#utility.yul\":2505:2511   */\n      dup3\n        /* \"#utility.yul\":2485:2518   */\n      tag_148\n      jump\t// in\n    tag_204:\n        /* \"#utility.yul\":2395:2524   */\n      swap2\n      swap1\n      pop\n      jump\t// out\n        /* \"#utility.yul\":2530:2838   */\n    tag_150:\n        /* \"#utility.yul\":2592:2596   */\n      0x00\n        /* \"#utility.yul\":2682:2700   */\n      0xffffffffffffffff\n        /* \"#utility.yul\":2674:2680   */\n      dup3\n        /* \"#utility.yul\":2671:2701   */\n      gt\n        /* \"#utility.yul\":2668:2724   */\n      iszero\n      tag_206\n      jumpi\n        /* \"#utility.yul\":2704:2722   */\n      tag_207\n      tag_68\n      jump\t// in\n    tag_207:\n        /* \"#utility.yul\":2668:2724   */\n    tag_206:\n        /* \"#utility.yul\":2742:2771   */\n      tag_208\n        /* \"#utility.yul\":2764:2770   */\n      dup3\n        /* \"#utility.yul\":2742:2771   */\n      tag_141\n      jump\t// in\n    tag_208:\n        /* \"#utility.yul\":2734:2771   */\n      swap1\n      pop\n        /* \"#utility.yul\":2826:2830   */\n      0x20\n        /* \"#utility.yul\":2820:2824   */\n      dup2\n        /* \"#utility.yul\":2816:2831   */\n      add\n        /* \"#utility.yul\":2808:2831   */\n      swap1\n      pop\n        /* \"#utility.yul\":2530:2838   */\n      swap2\n      swap1\n      pop\n      jump\t// out\n        /* \"#utility.yul\":2844:2990   */\n    tag_151:\n        /* \"#utility.yul\":2941:2947   */\n      dup3\n        /* \"#utility.yul\":2936:2939   */\n      dup2\n        /* \"#utility.yul\":2931:2934   */\n      dup4\n        /* \"#utility.yul\":2918:2948   */\n      calldatacopy\n        /* \"#utility.yul\":2982:2983   */\n      0x00\n        /* \"#utility.yul\":2973:2979   */\n      dup4\n        /* \"#utility.yul\":2968:2971   */\n      dup4\n        /* \"#utility.yul\":2964:2980   */\n      add\n        /* \"#utility.yul\":2957:2984   */\n      mstore\n        /* \"#utility.yul\":2844:2990   */\n      pop\n      pop\n      pop\n      jump\t// out\n        /* \"#utility.yul\":2996:3421   */\n    tag_152:\n        /* \"#utility.yul\":3074:3079   */\n      0x00\n        /* \"#utility.yul\":3099:3165   */\n      tag_211\n        /* \"#utility.yul\":3115:3164   */\n      tag_212\n        /* \"#utility.yul\":3157:3163   */\n      dup5\n        /* \"#utility.yul\":3115:3164   */\n      tag_150\n      jump\t// in\n    tag_212:\n        /* \"#utility.yul\":3099:3165   */\n      tag_149\n      jump\t// in\n    tag_211:\n        /* \"#utility.yul\":3090:3165   */\n      swap1\n      pop\n        /* \"#utility.yul\":3188:3194   */\n      dup3\n        /* \"#utility.yul\":3181:3186   */\n      dup2\n        /* \"#utility.yul\":3174:3195   */\n      mstore\n        /* \"#utility.yul\":3226:3230   */\n      0x20\n        /* \"#utility.yul\":3219:3224   */\n      dup2\n        /* \"#utility.yul\":3215:3231   */\n      add\n        /* \"#utility.yul\":3264:3267   */\n      dup5\n        /* \"#utility.yul\":3255:3261   */\n      dup5\n        /* \"#utility.yul\":3250:3253   */\n      dup5\n        /* \"#utility.yul\":3246:3262   */\n      add\n        /* \"#utility.yul\":3243:3268   */\n      gt\n        /* \"#utility.yul\":3240:3352   */\n      iszero\n      tag_213\n      jumpi\n        /* \"#utility.yul\":3271:3350   */\n      tag_214\n      tag_147\n      jump\t// in\n    tag_214:\n        /* \"#utility.yul\":3240:3352   */\n    tag_213:\n        /* \"#utility.yul\":3361:3415   */\n      tag_215\n        /* \"#utility.yul\":3408:3414   */\n      dup5\n        /* \"#utility.yul\":3403:3406   */\n      dup3\n        /* \"#utility.yul\":3398:3401   */\n      dup6\n        /* \"#utility.yul\":3361:3415   */\n      tag_151\n      jump\t// in\n    tag_215:\n        /* \"#utility.yul\":3080:3421   */\n      pop\n        /* \"#utility.yul\":2996:3421   */\n      swap4\n      swap3\n      pop\n      pop\n      pop\n      jump\t// out\n        /* \"#utility.yul\":3441:3781   */\n    tag_153:\n        /* \"#utility.yul\":3497:3502   */\n      0x00\n        /* \"#utility.yul\":3546:3549   */\n      dup3\n        /* \"#utility.yul\":3539:3543   */\n      0x1f\n        /* \"#utility.yul\":3531:3537   */\n      dup4\n        /* \"#utility.yul\":3527:3544   */\n      add\n        /* \"#utility.yul\":3523:3550   */\n      slt\n        /* \"#utility.yul\":3513:3635   */\n      tag_217\n      jumpi\n        /* \"#utility.yul\":3554:3633   */\n      tag_218\n      tag_146\n      jump\t// in\n    tag_218:\n        /* \"#utility.yul\":3513:3635   */\n    tag_217:\n        /* \"#utility.yul\":3671:3677   */\n      dup2\n        /* \"#utility.yul\":3658:3678   */\n      calldataload\n        /* \"#utility.yul\":3696:3775   */\n      tag_219\n        /* \"#utility.yul\":3771:3774   */\n      dup5\n        /* \"#utility.yul\":3763:3769   */\n      dup3\n        /* \"#utility.yul\":3756:3760   */\n      0x20\n        /* \"#utility.yul\":3748:3754   */\n      dup7\n        /* \"#utility.yul\":3744:3761   */\n      add\n        /* \"#utility.yul\":3696:3775   */\n      tag_152\n      jump\t// in\n    tag_219:\n        /* \"#utility.yul\":3687:3775   */\n      swap2\n      pop\n        /* \"#utility.yul\":3503:3781   */\n      pop\n        /* \"#utility.yul\":3441:3781   */\n      swap3\n      swap2\n      pop\n      pop\n      jump\t// out\n        /* \"#utility.yul\":3787:4296   */\n    tag_19:\n        /* \"#utility.yul\":3856:3862   */\n      0x00\n        /* \"#utility.yul\":3905:3907   */\n      0x20\n        /* \"#utility.yul\":3893:3902   */\n      dup3\n        /* \"#utility.yul\":3884:3891   */\n      dup5\n        /* \"#utility.yul\":3880:3903   */\n      sub\n        /* \"#utility.yul\":3876:3908   */\n      slt\n        /* \"#utility.yul\":3873:3992   */\n      iszero\n      tag_221\n      jumpi\n        /* \"#utility.yul\":3911:3990   */\n      tag_222\n      tag_144\n      jump\t// in\n    tag_222:\n        /* \"#utility.yul\":3873:3992   */\n    tag_221:\n        /* \"#utility.yul\":4059:4060   */\n      0x00\n        /* \"#utility.yul\":4048:4057   */\n      dup3\n        /* \"#utility.yul\":4044:4061   */\n      add\n        /* \"#utility.yul\":4031:4062   */\n      calldataload\n        /* \"#utility.yul\":4089:4107   */\n      0xffffffffffffffff\n        /* \"#utility.yul\":4081:4087   */\n      dup2\n        /* \"#utility.yul\":4078:4108   */\n      gt\n        /* \"#utility.yul\":4075:4192   */\n      iszero\n      tag_223\n      jumpi\n        /* \"#utility.yul\":4111:4190   */\n      tag_224\n      tag_145\n      jump\t// in\n    tag_224:\n        /* \"#utility.yul\":4075:4192   */\n    tag_223:\n        /* \"#utility.yul\":4216:4279   */\n      tag_225\n        /* \"#utility.yul\":4271:4278   */\n      dup5\n        /* \"#utility.yul\":4262:4268   */\n      dup3\n        /* \"#utility.yul\":4251:4260   */\n      dup6\n        /* \"#utility.yul\":4247:4269   */\n      add\n        /* \"#utility.yul\":4216:4279   */\n      tag_153\n      jump\t// in\n    tag_225:\n        /* \"#utility.yul\":4206:4279   */\n      swap2\n      pop\n        /* \"#utility.yul\":4002:4289   */\n      pop\n        /* \"#utility.yul\":3787:4296   */\n      swap3\n      swap2\n      pop\n      pop\n      jump\t// out\n        /* \"#utility.yul\":4302:4471   */\n    tag_154:\n        /* \"#utility.yul\":4442:4463   */\n      0x506c65617365206c6f67696e2066697273742e00000000000000000000000000\n        /* \"#utility.yul\":4438:4439   */\n      0x00\n        /* \"#utility.yul\":4430:4436   */\n      dup3\n        /* \"#utility.yul\":4426:4440   */\n      add\n        /* \"#utility.yul\":4419:4464   */\n      mstore\n        /* \"#utility.yul\":4302:4471   */\n      pop\n      jump\t// out\n        /* \"#utility.yul\":4477:4843   */\n    tag_155:\n        /* \"#utility.yul\":4619:4622   */\n      0x00\n        /* \"#utility.yul\":4640:4707   */\n      tag_228\n        /* \"#utility.yul\":4704:4706   */\n      0x13\n        /* \"#utility.yul\":4699:4702   */\n      dup4\n        /* \"#utility.yul\":4640:4707   */\n      tag_139\n      jump\t// in\n    tag_228:\n        /* \"#utility.yul\":4633:4707   */\n      swap2\n      pop\n        /* \"#utility.yul\":4716:4809   */\n      tag_229\n        /* \"#utility.yul\":4805:4808   */\n      dup3\n        /* \"#utility.yul\":4716:4809   */\n      tag_154\n      jump\t// in\n    tag_229:\n        /* \"#utility.yul\":4834:4836   */\n      0x20\n        /* \"#utility.yul\":4829:4832   */\n      dup3\n        /* \"#utility.yul\":4825:4837   */\n      add\n        /* \"#utility.yul\":4818:4837   */\n      swap1\n      pop\n        /* \"#utility.yul\":4477:4843   */\n      swap2\n      swap1\n      pop\n      jump\t// out\n        /* \"#utility.yul\":4849:5268   */\n    tag_24:\n        /* \"#utility.yul\":5015:5019   */\n      0x00\n        /* \"#utility.yul\":5053:5055   */\n      0x20\n        /* \"#utility.yul\":5042:5051   */\n      dup3\n        /* \"#utility.yul\":5038:5056   */\n      add\n        /* \"#utility.yul\":5030:5056   */\n      swap1\n      pop\n        /* \"#utility.yul\":5102:5111   */\n      dup2\n        /* \"#utility.yul\":5096:5100   */\n      dup2\n        /* \"#utility.yul\":5092:5112   */\n      sub\n        /* \"#utility.yul\":5088:5089   */\n      0x00\n        /* \"#utility.yul\":5077:5086   */\n      dup4\n        /* \"#utility.yul\":5073:5090   */\n      add\n        /* \"#utility.yul\":5066:5113   */\n      mstore\n        /* \"#utility.yul\":5130:5261   */\n      tag_231\n        /* \"#utility.yul\":5256:5260   */\n      dup2\n        /* \"#utility.yul\":5130:5261   */\n      tag_155\n      jump\t// in\n    tag_231:\n        /* \"#utility.yul\":5122:5261   */\n      swap1\n      pop\n        /* \"#utility.yul\":4849:5268   */\n      swap2\n      swap1\n      pop\n      jump\t// out\n        /* \"#utility.yul\":5274:5454   */\n    tag_156:\n        /* \"#utility.yul\":5322:5399   */\n      0x4e487b7100000000000000000000000000000000000000000000000000000000\n        /* \"#utility.yul\":5319:5320   */\n      0x00\n        /* \"#utility.yul\":5312:5400   */\n      mstore\n        /* \"#utility.yul\":5419:5423   */\n      0x22\n        /* \"#utility.yul\":5416:5417   */\n      0x04\n        /* \"#utility.yul\":5409:5424   */\n      mstore\n        /* \"#utility.yul\":5443:5447   */\n      0x24\n        /* \"#utility.yul\":5440:5441   */\n      0x00\n        /* \"#utility.yul\":5433:5448   */\n      revert\n        /* \"#utility.yul\":5460:5780   */\n    tag_27:\n        /* \"#utility.yul\":5504:5510   */\n      0x00\n        /* \"#utility.yul\":5541:5542   */\n      0x02\n        /* \"#utility.yul\":5535:5539   */\n      dup3\n        /* \"#utility.yul\":5531:5543   */\n      div\n        /* \"#utility.yul\":5521:5543   */\n      swap1\n      pop\n        /* \"#utility.yul\":5588:5589   */\n      0x01\n        /* \"#utility.yul\":5582:5586   */\n      dup3\n        /* \"#utility.yul\":5578:5590   */\n      and\n        /* \"#utility.yul\":5609:5627   */\n      dup1\n        /* \"#utility.yul\":5599:5680   */\n      tag_234\n      jumpi\n        /* \"#utility.yul\":5665:5669   */\n      0x7f\n        /* \"#utility.yul\":5657:5663   */\n      dup3\n        /* \"#utility.yul\":5653:5670   */\n      and\n        /* \"#utility.yul\":5643:5670   */\n      swap2\n      pop\n        /* \"#utility.yul\":5599:5680   */\n    tag_234:\n        /* \"#utility.yul\":5727:5729   */\n      0x20\n        /* \"#utility.yul\":5719:5725   */\n      dup3\n        /* \"#utility.yul\":5716:5730   */\n      lt\n        /* \"#utility.yul\":5696:5714   */\n      dup2\n        /* \"#utility.yul\":5693:5731   */\n      sub\n        /* \"#utility.yul\":5690:5774   */\n      tag_235\n      jumpi\n        /* \"#utility.yul\":5746:5764   */\n      tag_236\n      tag_156\n      jump\t// in\n    tag_236:\n        /* \"#utility.yul\":5690:5774   */\n    tag_235:\n        /* \"#utility.yul\":5511:5780   */\n      pop\n        /* \"#utility.yul\":5460:5780   */\n      swap2\n      swap1\n      pop\n      jump\t// out\n        /* \"#utility.yul\":5786:5863   */\n    tag_157:\n        /* \"#utility.yul\":5823:5830   */\n      0x00\n        /* \"#utility.yul\":5852:5857   */\n      dup2\n        /* \"#utility.yul\":5841:5857   */\n      swap1\n      pop\n        /* \"#utility.yul\":5786:5863   */\n      swap2\n      swap1\n      pop\n      jump\t// out\n        /* \"#utility.yul\":5869:6049   */\n    tag_158:\n        /* \"#utility.yul\":5917:5994   */\n      0x4e487b7100000000000000000000000000000000000000000000000000000000\n        /* \"#utility.yul\":5914:5915   */\n      0x00\n        /* \"#utility.yul\":5907:5995   */\n      mstore\n        /* \"#utility.yul\":6014:6018   */\n      0x11\n        /* \"#utility.yul\":6011:6012   */\n      0x04\n        /* \"#utility.yul\":6004:6019   */\n      mstore\n        /* \"#utility.yul\":6038:6042   */\n      0x24\n        /* \"#utility.yul\":6035:6036   */\n      0x00\n        /* \"#utility.yul\":6028:6043   */\n      revert\n        /* \"#utility.yul\":6055:6465   */\n    tag_43:\n        /* \"#utility.yul\":6095:6102   */\n      0x00\n        /* \"#utility.yul\":6118:6138   */\n      tag_240\n        /* \"#utility.yul\":6136:6137   */\n      dup3\n        /* \"#utility.yul\":6118:6138   */\n      tag_157\n      jump\t// in\n    tag_240:\n        /* \"#utility.yul\":6113:6138   */\n      swap2\n      pop\n        /* \"#utility.yul\":6152:6172   */\n      tag_241\n        /* \"#utility.yul\":6170:6171   */\n      dup4\n        /* \"#utility.yul\":6152:6172   */\n      tag_157\n      jump\t// in\n    tag_241:\n        /* \"#utility.yul\":6147:6172   */\n      swap3\n      pop\n        /* \"#utility.yul\":6207:6208   */\n      dup3\n        /* \"#utility.yul\":6204:6205   */\n      dup3\n        /* \"#utility.yul\":6200:6209   */\n      mul\n        /* \"#utility.yul\":6229:6259   */\n      tag_242\n        /* \"#utility.yul\":6247:6258   */\n      dup2\n        /* \"#utility.yul\":6229:6259   */\n      tag_157\n      jump\t// in\n    tag_242:\n        /* \"#utility.yul\":6218:6259   */\n      swap2\n      pop\n        /* \"#utility.yul\":6408:6409   */\n      dup3\n        /* \"#utility.yul\":6399:6406   */\n      dup3\n        /* \"#utility.yul\":6395:6410   */\n      div\n        /* \"#utility.yul\":6392:6393   */\n      dup5\n        /* \"#utility.yul\":6389:6411   */\n      eq\n        /* \"#utility.yul\":6369:6370   */\n      dup4\n        /* \"#utility.yul\":6362:6371   */\n      iszero\n        /* \"#utility.yul\":6342:6425   */\n      or\n        /* \"#utility.yul\":6319:6458   */\n      tag_243\n      jumpi\n        /* \"#utility.yul\":6438:6456   */\n      tag_244\n      tag_158\n      jump\t// in\n    tag_244:\n        /* \"#utility.yul\":6319:6458   */\n    tag_243:\n        /* \"#utility.yul\":6103:6465   */\n      pop\n        /* \"#utility.yul\":6055:6465   */\n      swap3\n      swap2\n      pop\n      pop\n      jump\t// out\n        /* \"#utility.yul\":6471:6651   */\n    tag_159:\n        /* \"#utility.yul\":6519:6596   */\n      0x4e487b7100000000000000000000000000000000000000000000000000000000\n        /* \"#utility.yul\":6516:6517   */\n      0x00\n        /* \"#utility.yul\":6509:6597   */\n      mstore\n        /* \"#utility.yul\":6616:6620   */\n      0x12\n        /* \"#utility.yul\":6613:6614   */\n      0x04\n        /* \"#utility.yul\":6606:6621   */\n      mstore\n        /* \"#utility.yul\":6640:6644   */\n      0x24\n        /* \"#utility.yul\":6637:6638   */\n      0x00\n        /* \"#utility.yul\":6630:6645   */\n      revert\n        /* \"#utility.yul\":6657:6842   */\n    tag_45:\n        /* \"#utility.yul\":6697:6698   */\n      0x00\n        /* \"#utility.yul\":6714:6734   */\n      tag_247\n        /* \"#utility.yul\":6732:6733   */\n      dup3\n        /* \"#utility.yul\":6714:6734   */\n      tag_157\n      jump\t// in\n    tag_247:\n        /* \"#utility.yul\":6709:6734   */\n      swap2\n      pop\n        /* \"#utility.yul\":6748:6768   */\n      tag_248\n        /* \"#utility.yul\":6766:6767   */\n      dup4\n        /* \"#utility.yul\":6748:6768   */\n      tag_157\n      jump\t// in\n    tag_248:\n        /* \"#utility.yul\":6743:6768   */\n      swap3\n      pop\n        /* \"#utility.yul\":6787:6788   */\n      dup3\n        /* \"#utility.yul\":6777:6812   */\n      tag_249\n      jumpi\n        /* \"#utility.yul\":6792:6810   */\n      tag_250\n      tag_159\n      jump\t// in\n    tag_250:\n        /* \"#utility.yul\":6777:6812   */\n    tag_249:\n        /* \"#utility.yul\":6834:6835   */\n      dup3\n        /* \"#utility.yul\":6831:6832   */\n      dup3\n        /* \"#utility.yul\":6827:6836   */\n      div\n        /* \"#utility.yul\":6822:6836   */\n      swap1\n      pop\n        /* \"#utility.yul\":6657:6842   */\n      swap3\n      swap2\n      pop\n      pop\n      jump\t// out\n        /* \"#utility.yul\":6848:6996   */\n    tag_160:\n        /* \"#utility.yul\":6950:6961   */\n      0x00\n        /* \"#utility.yul\":6987:6990   */\n      dup2\n        /* \"#utility.yul\":6972:6990   */\n      swap1\n      pop\n        /* \"#utility.yul\":6848:6996   */\n      swap3\n      swap2\n      pop\n      pop\n      jump\t// out\n        /* \"#utility.yul\":7002:7160   */\n    tag_161:\n        /* \"#utility.yul\":7142:7152   */\n      0x58797e30316b212a000000000000000000000000000000000000000000000000\n        /* \"#utility.yul\":7138:7139   */\n      0x00\n        /* \"#utility.yul\":7130:7136   */\n      dup3\n        /* \"#utility.yul\":7126:7140   */\n      add\n        /* \"#utility.yul\":7119:7153   */\n      mstore\n        /* \"#utility.yul\":7002:7160   */\n      pop\n      jump\t// out\n        /* \"#utility.yul\":7166:7566   */\n    tag_162:\n        /* \"#utility.yul\":7326:7329   */\n      0x00\n        /* \"#utility.yul\":7347:7431   */\n      tag_254\n        /* \"#utility.yul\":7429:7430   */\n      0x08\n        /* \"#utility.yul\":7424:7427   */\n      dup4\n        /* \"#utility.yul\":7347:7431   */\n      tag_160\n      jump\t// in\n    tag_254:\n        /* \"#utility.yul\":7340:7431   */\n      swap2\n      pop\n        /* \"#utility.yul\":7440:7533   */\n      tag_255\n        /* \"#utility.yul\":7529:7532   */\n      dup3\n        /* \"#utility.yul\":7440:7533   */\n      tag_161\n      jump\t// in\n    tag_255:\n        /* \"#utility.yul\":7558:7559   */\n      0x08\n        /* \"#utility.yul\":7553:7556   */\n      dup3\n        /* \"#utility.yul\":7549:7560   */\n      add\n        /* \"#utility.yul\":7542:7560   */\n      swap1\n      pop\n        /* \"#utility.yul\":7166:7566   */\n      swap2\n      swap1\n      pop\n      jump\t// out\n        /* \"#utility.yul\":7572:7953   */\n    tag_50:\n        /* \"#utility.yul\":7757:7760   */\n      0x00\n        /* \"#utility.yul\":7779:7927   */\n      tag_257\n        /* \"#utility.yul\":7923:7926   */\n      dup3\n        /* \"#utility.yul\":7779:7927   */\n      tag_162\n      jump\t// in\n    tag_257:\n        /* \"#utility.yul\":7772:7927   */\n      swap2\n      pop\n        /* \"#utility.yul\":7944:7947   */\n      dup2\n        /* \"#utility.yul\":7937:7947   */\n      swap1\n      pop\n        /* \"#utility.yul\":7572:7953   */\n      swap2\n      swap1\n      pop\n      jump\t// out\n        /* \"#utility.yul\":7959:8057   */\n    tag_163:\n        /* \"#utility.yul\":8010:8016   */\n      0x00\n        /* \"#utility.yul\":8044:8049   */\n      dup2\n        /* \"#utility.yul\":8038:8050   */\n      mload\n        /* \"#utility.yul\":8028:8050   */\n      swap1\n      pop\n        /* \"#utility.yul\":7959:8057   */\n      swap2\n      swap1\n      pop\n      jump\t// out\n        /* \"#utility.yul\":8063:8210   */\n    tag_164:\n        /* \"#utility.yul\":8164:8175   */\n      0x00\n        /* \"#utility.yul\":8201:8204   */\n      dup2\n        /* \"#utility.yul\":8186:8204   */\n      swap1\n      pop\n        /* \"#utility.yul\":8063:8210   */\n      swap3\n      swap2\n      pop\n      pop\n      jump\t// out\n        /* \"#utility.yul\":8216:8602   */\n    tag_165:\n        /* \"#utility.yul\":8320:8323   */\n      0x00\n        /* \"#utility.yul\":8348:8386   */\n      tag_261\n        /* \"#utility.yul\":8380:8385   */\n      dup3\n        /* \"#utility.yul\":8348:8386   */\n      tag_163\n      jump\t// in\n    tag_261:\n        /* \"#utility.yul\":8402:8490   */\n      tag_262\n        /* \"#utility.yul\":8483:8489   */\n      dup2\n        /* \"#utility.yul\":8478:8481   */\n      dup6\n        /* \"#utility.yul\":8402:8490   */\n      tag_164\n      jump\t// in\n    tag_262:\n        /* \"#utility.yul\":8395:8490   */\n      swap4\n      pop\n        /* \"#utility.yul\":8499:8564   */\n      tag_263\n        /* \"#utility.yul\":8557:8563   */\n      dup2\n        /* \"#utility.yul\":8552:8555   */\n      dup6\n        /* \"#utility.yul\":8545:8549   */\n      0x20\n        /* \"#utility.yul\":8538:8543   */\n      dup7\n        /* \"#utility.yul\":8534:8550   */\n      add\n        /* \"#utility.yul\":8499:8564   */\n      tag_140\n      jump\t// in\n    tag_263:\n        /* \"#utility.yul\":8589:8595   */\n      dup1\n        /* \"#utility.yul\":8584:8587   */\n      dup5\n        /* \"#utility.yul\":8580:8596   */\n      add\n        /* \"#utility.yul\":8573:8596   */\n      swap2\n      pop\n        /* \"#utility.yul\":8324:8602   */\n      pop\n        /* \"#utility.yul\":8216:8602   */\n      swap3\n      swap2\n      pop\n      pop\n      jump\t// out\n        /* \"#utility.yul\":8608:8879   */\n    tag_52:\n        /* \"#utility.yul\":8738:8741   */\n      0x00\n        /* \"#utility.yul\":8760:8853   */\n      tag_265\n        /* \"#utility.yul\":8849:8852   */\n      dup3\n        /* \"#utility.yul\":8840:8846   */\n      dup5\n        /* \"#utility.yul\":8760:8853   */\n      tag_165\n      jump\t// in\n    tag_265:\n        /* \"#utility.yul\":8753:8853   */\n      swap2\n      pop\n        /* \"#utility.yul\":8870:8873   */\n      dup2\n        /* \"#utility.yul\":8863:8873   */\n      swap1\n      pop\n        /* \"#utility.yul\":8608:8879   */\n      swap3\n      swap2\n      pop\n      pop\n      jump\t// out\n        /* \"#utility.yul\":8885:9054   */\n    tag_166:\n        /* \"#utility.yul\":9025:9046   */\n      0x496e636f72726563742070617373776f72642e00000000000000000000000000\n        /* \"#utility.yul\":9021:9022   */\n      0x00\n        /* \"#utility.yul\":9013:9019   */\n      dup3\n        /* \"#utility.yul\":9009:9023   */\n      add\n        /* \"#utility.yul\":9002:9047   */\n      mstore\n        /* \"#utility.yul\":8885:9054   */\n      pop\n      jump\t// out\n        /* \"#utility.yul\":9060:9426   */\n    tag_167:\n        /* \"#utility.yul\":9202:9205   */\n      0x00\n        /* \"#utility.yul\":9223:9290   */\n      tag_268\n        /* \"#utility.yul\":9287:9289   */\n      0x13\n        /* \"#utility.yul\":9282:9285   */\n      dup4\n        /* \"#utility.yul\":9223:9290   */\n      tag_139\n      jump\t// in\n    tag_268:\n        /* \"#utility.yul\":9216:9290   */\n      swap2\n      pop\n        /* \"#utility.yul\":9299:9392   */\n      tag_269\n        /* \"#utility.yul\":9388:9391   */\n      dup3\n        /* \"#utility.yul\":9299:9392   */\n      tag_166\n      jump\t// in\n    tag_269:\n        /* \"#utility.yul\":9417:9419   */\n      0x20\n        /* \"#utility.yul\":9412:9415   */\n      dup3\n        /* \"#utility.yul\":9408:9420   */\n      add\n        /* \"#utility.yul\":9401:9420   */\n      swap1\n      pop\n        /* \"#utility.yul\":9060:9426   */\n      swap2\n      swap1\n      pop\n      jump\t// out\n        /* \"#utility.yul\":9432:9851   */\n    tag_55:\n        /* \"#utility.yul\":9598:9602   */\n      0x00\n        /* \"#utility.yul\":9636:9638   */\n      0x20\n        /* \"#utility.yul\":9625:9634   */\n      dup3\n        /* \"#utility.yul\":9621:9639   */\n      add\n        /* \"#utility.yul\":9613:9639   */\n      swap1\n      pop\n        /* \"#utility.yul\":9685:9694   */\n      dup2\n        /* \"#utility.yul\":9679:9683   */\n      dup2\n        /* \"#utility.yul\":9675:9695   */\n      sub\n        /* \"#utility.yul\":9671:9672   */\n      0x00\n        /* \"#utility.yul\":9660:9669   */\n      dup4\n        /* \"#utility.yul\":9656:9673   */\n      add\n        /* \"#utility.yul\":9649:9696   */\n      mstore\n        /* \"#utility.yul\":9713:9844   */\n      tag_271\n        /* \"#utility.yul\":9839:9843   */\n      dup2\n        /* \"#utility.yul\":9713:9844   */\n      tag_167\n      jump\t// in\n    tag_271:\n        /* \"#utility.yul\":9705:9844   */\n      swap1\n      pop\n        /* \"#utility.yul\":9432:9851   */\n      swap2\n      swap1\n      pop\n      jump\t// out\n        /* \"#utility.yul\":9857:10033   */\n    tag_60:\n        /* \"#utility.yul\":9889:9890   */\n      0x00\n        /* \"#utility.yul\":9906:9926   */\n      tag_273\n        /* \"#utility.yul\":9924:9925   */\n      dup3\n        /* \"#utility.yul\":9906:9926   */\n      tag_157\n      jump\t// in\n    tag_273:\n        /* \"#utility.yul\":9901:9926   */\n      swap2\n      pop\n        /* \"#utility.yul\":9940:9960   */\n      tag_274\n        /* \"#utility.yul\":9958:9959   */\n      dup4\n        /* \"#utility.yul\":9940:9960   */\n      tag_157\n      jump\t// in\n    tag_274:\n        /* \"#utility.yul\":9935:9960   */\n      swap3\n      pop\n        /* \"#utility.yul\":9979:9980   */\n      dup3\n        /* \"#utility.yul\":9969:10004   */\n      tag_275\n      jumpi\n        /* \"#utility.yul\":9984:10002   */\n      tag_276\n      tag_159\n      jump\t// in\n    tag_276:\n        /* \"#utility.yul\":9969:10004   */\n    tag_275:\n        /* \"#utility.yul\":10025:10026   */\n      dup3\n        /* \"#utility.yul\":10022:10023   */\n      dup3\n        /* \"#utility.yul\":10018:10027   */\n      mod\n        /* \"#utility.yul\":10013:10027   */\n      swap1\n      pop\n        /* \"#utility.yul\":9857:10033   */\n      swap3\n      swap2\n      pop\n      pop\n      jump\t// out\n        /* \"#utility.yul\":10039:10230   */\n    tag_65:\n        /* \"#utility.yul\":10079:10082   */\n      0x00\n        /* \"#utility.yul\":10098:10118   */\n      tag_278\n        /* \"#utility.yul\":10116:10117   */\n      dup3\n        /* \"#utility.yul\":10098:10118   */\n      tag_157\n      jump\t// in\n    tag_278:\n        /* \"#utility.yul\":10093:10118   */\n      swap2\n      pop\n        /* \"#utility.yul\":10132:10152   */\n      tag_279\n        /* \"#utility.yul\":10150:10151   */\n      dup4\n        /* \"#utility.yul\":10132:10152   */\n      tag_157\n      jump\t// in\n    tag_279:\n        /* \"#utility.yul\":10127:10152   */\n      swap3\n      pop\n        /* \"#utility.yul\":10175:10176   */\n      dup3\n        /* \"#utility.yul\":10172:10173   */\n      dup3\n        /* \"#utility.yul\":10168:10177   */\n      add\n        /* \"#utility.yul\":10161:10177   */\n      swap1\n      pop\n        /* \"#utility.yul\":10196:10199   */\n      dup1\n        /* \"#utility.yul\":10193:10194   */\n      dup3\n        /* \"#utility.yul\":10190:10200   */\n      gt\n        /* \"#utility.yul\":10187:10223   */\n      iszero\n      tag_280\n      jumpi\n        /* \"#utility.yul\":10203:10221   */\n      tag_281\n      tag_158\n      jump\t// in\n    tag_281:\n        /* \"#utility.yul\":10187:10223   */\n    tag_280:\n        /* \"#utility.yul\":10039:10230   */\n      swap3\n      swap2\n      pop\n      pop\n      jump\t// out\n        /* \"#utility.yul\":10236:10430   */\n    tag_74:\n        /* \"#utility.yul\":10276:10280   */\n      0x00\n        /* \"#utility.yul\":10296:10316   */\n      tag_283\n        /* \"#utility.yul\":10314:10315   */\n      dup3\n        /* \"#utility.yul\":10296:10316   */\n      tag_157\n      jump\t// in\n    tag_283:\n        /* \"#utility.yul\":10291:10316   */\n      swap2\n      pop\n        /* \"#utility.yul\":10330:10350   */\n      tag_284\n        /* \"#utility.yul\":10348:10349   */\n      dup4\n        /* \"#utility.yul\":10330:10350   */\n      tag_157\n      jump\t// in\n    tag_284:\n        /* \"#utility.yul\":10325:10350   */\n      swap3\n      pop\n        /* \"#utility.yul\":10374:10375   */\n      dup3\n        /* \"#utility.yul\":10371:10372   */\n      dup3\n        /* \"#utility.yul\":10367:10376   */\n      sub\n        /* \"#utility.yul\":10359:10376   */\n      swap1\n      pop\n        /* \"#utility.yul\":10398:10399   */\n      dup2\n        /* \"#utility.yul\":10392:10396   */\n      dup2\n        /* \"#utility.yul\":10389:10400   */\n      gt\n        /* \"#utility.yul\":10386:10423   */\n      iszero\n      tag_285\n      jumpi\n        /* \"#utility.yul\":10403:10421   */\n      tag_286\n      tag_158\n      jump\t// in\n    tag_286:\n        /* \"#utility.yul\":10386:10423   */\n    tag_285:\n        /* \"#utility.yul\":10236:10430   */\n      swap3\n      swap2\n      pop\n      pop\n      jump\t// out\n        /* \"#utility.yul\":10436:10669   */\n    tag_79:\n        /* \"#utility.yul\":10475:10478   */\n      0x00\n        /* \"#utility.yul\":10498:10522   */\n      tag_288\n        /* \"#utility.yul\":10516:10521   */\n      dup3\n        /* \"#utility.yul\":10498:10522   */\n      tag_157\n      jump\t// in\n    tag_288:\n        /* \"#utility.yul\":10489:10522   */\n      swap2\n      pop\n        /* \"#utility.yul\":10544:10610   */\n      0xffffffffffffffffffffffffffffffffffffffffffffffffffffffffffffffff\n        /* \"#utility.yul\":10537:10542   */\n      dup3\n        /* \"#utility.yul\":10534:10611   */\n      sub\n        /* \"#utility.yul\":10531:10634   */\n      tag_289\n      jumpi\n        /* \"#utility.yul\":10614:10632   */\n      tag_290\n      tag_158\n      jump\t// in\n    tag_290:\n        /* \"#utility.yul\":10531:10634   */\n    tag_289:\n        /* \"#utility.yul\":10661:10662   */\n      0x01\n        /* \"#utility.yul\":10654:10659   */\n      dup3\n        /* \"#utility.yul\":10650:10663   */\n      add\n        /* \"#utility.yul\":10643:10663   */\n      swap1\n      pop\n        /* \"#utility.yul\":10436:10669   */\n      swap2\n      swap1\n      pop\n      jump\t// out\n        /* \"#utility.yul\":10675:10855   */\n    tag_82:\n        /* \"#utility.yul\":10723:10800   */\n      0x4e487b7100000000000000000000000000000000000000000000000000000000\n        /* \"#utility.yul\":10720:10721   */\n      0x00\n        /* \"#utility.yul\":10713:10801   */\n      mstore\n        /* \"#utility.yul\":10820:10824   */\n      0x32\n        /* \"#utility.yul\":10817:10818   */\n      0x04\n        /* \"#utility.yul\":10810:10825   */\n      mstore\n        /* \"#utility.yul\":10844:10848   */\n      0x24\n        /* \"#utility.yul\":10841:10842   */\n      0x00\n        /* \"#utility.yul\":10834:10849   */\n      revert\n        /* \"#utility.yul\":10861:11012   */\n    tag_168:\n        /* \"#utility.yul\":11001:11004   */\n      0x2e00000000000000000000000000000000000000000000000000000000000000\n        /* \"#utility.yul\":10997:10998   */\n      0x00\n        /* \"#utility.yul\":10989:10995   */\n      dup3\n        /* \"#utility.yul\":10985:10999   */\n      add\n        /* \"#utility.yul\":10978:11005   */\n      mstore\n        /* \"#utility.yul\":10861:11012   */\n      pop\n      jump\t// out\n        /* \"#utility.yul\":11018:11418   */\n    tag_169:\n        /* \"#utility.yul\":11178:11181   */\n      0x00\n        /* \"#utility.yul\":11199:11283   */\n      tag_294\n        /* \"#utility.yul\":11281:11282   */\n      0x01\n        /* \"#utility.yul\":11276:11279   */\n      dup4\n        /* \"#utility.yul\":11199:11283   */\n      tag_160\n      jump\t// in\n    tag_294:\n        /* \"#utility.yul\":11192:11283   */\n      swap2\n      pop\n        /* \"#utility.yul\":11292:11385   */\n      tag_295\n        /* \"#utility.yul\":11381:11384   */\n      dup3\n        /* \"#utility.yul\":11292:11385   */\n      tag_168\n      jump\t// in\n    tag_295:\n        /* \"#utility.yul\":11410:11411   */\n      0x01\n        /* \"#utility.yul\":11405:11408   */\n      dup3\n        /* \"#utility.yul\":11401:11412   */\n      add\n        /* \"#utility.yul\":11394:11412   */\n      swap1\n      pop\n        /* \"#utility.yul\":11018:11418   */\n      swap2\n      swap1\n      pop\n      jump\t// out\n        /* \"#utility.yul\":11424:11814   */\n    tag_170:\n        /* \"#utility.yul\":11530:11533   */\n      0x00\n        /* \"#utility.yul\":11558:11597   */\n      tag_297\n        /* \"#utility.yul\":11591:11596   */\n      dup3\n        /* \"#utility.yul\":11558:11597   */\n      tag_138\n      jump\t// in\n    tag_297:\n        /* \"#utility.yul\":11613:11702   */\n      tag_298\n        /* \"#utility.yul\":11695:11701   */\n      dup2\n        /* \"#utility.yul\":11690:11693   */\n      dup6\n        /* \"#utility.yul\":11613:11702   */\n      tag_160\n      jump\t// in\n    tag_298:\n        /* \"#utility.yul\":11606:11702   */\n      swap4\n      pop\n        /* \"#utility.yul\":11711:11776   */\n      tag_299\n        /* \"#utility.yul\":11769:11775   */\n      dup2\n        /* \"#utility.yul\":11764:11767   */\n      dup6\n        /* \"#utility.yul\":11757:11761   */\n      0x20\n        /* \"#utility.yul\":11750:11755   */\n      dup7\n        /* \"#utility.yul\":11746:11762   */\n      add\n        /* \"#utility.yul\":11711:11776   */\n      tag_140\n      jump\t// in\n    tag_299:\n        /* \"#utility.yul\":11801:11807   */\n      dup1\n        /* \"#utility.yul\":11796:11799   */\n      dup5\n        /* \"#utility.yul\":11792:11808   */\n      add\n        /* \"#utility.yul\":11785:11808   */\n      swap2\n      pop\n        /* \"#utility.yul\":11534:11814   */\n      pop\n        /* \"#utility.yul\":11424:11814   */\n      swap3\n      swap2\n      pop\n      pop\n      jump\t// out\n        /* \"#utility.yul\":11820:11975   */\n    tag_171:\n        /* \"#utility.yul\":11960:11967   */\n      0x3020425443000000000000000000000000000000000000000000000000000000\n        /* \"#utility.yul\":11956:11957   */\n      0x00\n        /* \"#utility.yul\":11948:11954   */\n      dup3\n        /* \"#utility.yul\":11944:11958   */\n      add\n        /* \"#utility.yul\":11937:11968   */\n      mstore\n        /* \"#utility.yul\":11820:11975   */\n      pop\n      jump\t// out\n        /* \"#utility.yul\":11981:12381   */\n    tag_172:\n        /* \"#utility.yul\":12141:12144   */\n      0x00\n        /* \"#utility.yul\":12162:12246   */\n      tag_302\n        /* \"#utility.yul\":12244:12245   */\n      0x05\n        /* \"#utility.yul\":12239:12242   */\n      dup4\n        /* \"#utility.yul\":12162:12246   */\n      tag_160\n      jump\t// in\n    tag_302:\n        /* \"#utility.yul\":12155:12246   */\n      swap2\n      pop\n        /* \"#utility.yul\":12255:12348   */\n      tag_303\n        /* \"#utility.yul\":12344:12347   */\n      dup3\n        /* \"#utility.yul\":12255:12348   */\n      tag_171\n      jump\t// in\n    tag_303:\n        /* \"#utility.yul\":12373:12374   */\n      0x05\n        /* \"#utility.yul\":12368:12371   */\n      dup3\n        /* \"#utility.yul\":12364:12375   */\n      add\n        /* \"#utility.yul\":12357:12375   */\n      swap1\n      pop\n        /* \"#utility.yul\":11981:12381   */\n      swap2\n      swap1\n      pop\n      jump\t// out\n        /* \"#utility.yul\":12387:13350   */\n    tag_92:\n        /* \"#utility.yul\":12767:12770   */\n      0x00\n        /* \"#utility.yul\":12789:12882   */\n      tag_305\n        /* \"#utility.yul\":12878:12881   */\n      dup3\n        /* \"#utility.yul\":12869:12875   */\n      dup6\n        /* \"#utility.yul\":12789:12882   */\n      tag_165\n      jump\t// in\n    tag_305:\n        /* \"#utility.yul\":12782:12882   */\n      swap2\n      pop\n        /* \"#utility.yul\":12899:13047   */\n      tag_306\n        /* \"#utility.yul\":13043:13046   */\n      dup3\n        /* \"#utility.yul\":12899:13047   */\n      tag_169\n      jump\t// in\n    tag_306:\n        /* \"#utility.yul\":12892:13047   */\n      swap2\n      pop\n        /* \"#utility.yul\":13064:13159   */\n      tag_307\n        /* \"#utility.yul\":13155:13158   */\n      dup3\n        /* \"#utility.yul\":13146:13152   */\n      dup5\n        /* \"#utility.yul\":13064:13159   */\n      tag_170\n      jump\t// in\n    tag_307:\n        /* \"#utility.yul\":13057:13159   */\n      swap2\n      pop\n        /* \"#utility.yul\":13176:13324   */\n      tag_308\n        /* \"#utility.yul\":13320:13323   */\n      dup3\n        /* \"#utility.yul\":13176:13324   */\n      tag_172\n      jump\t// in\n    tag_308:\n        /* \"#utility.yul\":13169:13324   */\n      swap2\n      pop\n        /* \"#utility.yul\":13341:13344   */\n      dup2\n        /* \"#utility.yul\":13334:13344   */\n      swap1\n      pop\n        /* \"#utility.yul\":12387:13350   */\n      swap4\n      swap3\n      pop\n      pop\n      pop\n      jump\t// out\n        /* \"#utility.yul\":13356:13507   */\n    tag_173:\n        /* \"#utility.yul\":13496:13499   */\n      0x2400000000000000000000000000000000000000000000000000000000000000\n        /* \"#utility.yul\":13492:13493   */\n      0x00\n        /* \"#utility.yul\":13484:13490   */\n      dup3\n        /* \"#utility.yul\":13480:13494   */\n      add\n        /* \"#utility.yul\":13473:13500   */\n      mstore\n        /* \"#utility.yul\":13356:13507   */\n      pop\n      jump\t// out\n        /* \"#utility.yul\":13513:13913   */\n    tag_174:\n        /* \"#utility.yul\":13673:13676   */\n      0x00\n        /* \"#utility.yul\":13694:13778   */\n      tag_311\n        /* \"#utility.yul\":13776:13777   */\n      0x01\n        /* \"#utility.yul\":13771:13774   */\n      dup4\n        /* \"#utility.yul\":13694:13778   */\n      tag_160\n      jump\t// in\n    tag_311:\n        /* \"#utility.yul\":13687:13778   */\n      swap2\n      pop\n        /* \"#utility.yul\":13787:13880   */\n      tag_312\n        /* \"#utility.yul\":13876:13879   */\n      dup3\n        /* \"#utility.yul\":13787:13880   */\n      tag_173\n      jump\t// in\n    tag_312:\n        /* \"#utility.yul\":13905:13906   */\n      0x01\n        /* \"#utility.yul\":13900:13903   */\n      dup3\n        /* \"#utility.yul\":13896:13907   */\n      add\n        /* \"#utility.yul\":13889:13907   */\n      swap1\n      pop\n        /* \"#utility.yul\":13513:13913   */\n      swap2\n      swap1\n      pop\n      jump\t// out\n        /* \"#utility.yul\":13919:14072   */\n    tag_175:\n        /* \"#utility.yul\":14059:14064   */\n      0x2e30300000000000000000000000000000000000000000000000000000000000\n        /* \"#utility.yul\":14055:14056   */\n      0x00\n        /* \"#utility.yul\":14047:14053   */\n      dup3\n        /* \"#utility.yul\":14043:14057   */\n      add\n        /* \"#utility.yul\":14036:14065   */\n      mstore\n        /* \"#utility.yul\":13919:14072   */\n      pop\n      jump\t// out\n        /* \"#utility.yul\":14078:14478   */\n    tag_176:\n        /* \"#utility.yul\":14238:14241   */\n      0x00\n        /* \"#utility.yul\":14259:14343   */\n      tag_315\n        /* \"#utility.yul\":14341:14342   */\n      0x03\n        /* \"#utility.yul\":14336:14339   */\n      dup4\n        /* \"#utility.yul\":14259:14343   */\n      tag_160\n      jump\t// in\n    tag_315:\n        /* \"#utility.yul\":14252:14343   */\n      swap2\n      pop\n        /* \"#utility.yul\":14352:14445   */\n      tag_316\n        /* \"#utility.yul\":14441:14444   */\n      dup3\n        /* \"#utility.yul\":14352:14445   */\n      tag_175\n      jump\t// in\n    tag_316:\n        /* \"#utility.yul\":14470:14471   */\n      0x03\n        /* \"#utility.yul\":14465:14468   */\n      dup3\n        /* \"#utility.yul\":14461:14472   */\n      add\n        /* \"#utility.yul\":14454:14472   */\n      swap1\n      pop\n        /* \"#utility.yul\":14078:14478   */\n      swap2\n      swap1\n      pop\n      jump\t// out\n        /* \"#utility.yul\":14484:15291   */\n    tag_97:\n        /* \"#utility.yul\":14818:14821   */\n      0x00\n        /* \"#utility.yul\":14840:14988   */\n      tag_318\n        /* \"#utility.yul\":14984:14987   */\n      dup3\n        /* \"#utility.yul\":14840:14988   */\n      tag_174\n      jump\t// in\n    tag_318:\n        /* \"#utility.yul\":14833:14988   */\n      swap2\n      pop\n        /* \"#utility.yul\":15005:15100   */\n      tag_319\n        /* \"#utility.yul\":15096:15099   */\n      dup3\n        /* \"#utility.yul\":15087:15093   */\n      dup5\n        /* \"#utility.yul\":15005:15100   */\n      tag_170\n      jump\t// in\n    tag_319:\n        /* \"#utility.yul\":14998:15100   */\n      swap2\n      pop\n        /* \"#utility.yul\":15117:15265   */\n      tag_320\n        /* \"#utility.yul\":15261:15264   */\n      dup3\n        /* \"#utility.yul\":15117:15265   */\n      tag_176\n      jump\t// in\n    tag_320:\n        /* \"#utility.yul\":15110:15265   */\n      swap2\n      pop\n        /* \"#utility.yul\":15282:15285   */\n      dup2\n        /* \"#utility.yul\":15275:15285   */\n      swap1\n      pop\n        /* \"#utility.yul\":14484:15291   */\n      swap3\n      swap2\n      pop\n      pop\n      jump\t// out\n        /* \"#utility.yul\":15297:16100   */\n    tag_120:\n        /* \"#utility.yul\":15629:15632   */\n      0x00\n        /* \"#utility.yul\":15651:15799   */\n      tag_322\n        /* \"#utility.yul\":15795:15798   */\n      dup3\n        /* \"#utility.yul\":15651:15799   */\n      tag_174\n      jump\t// in\n    tag_322:\n        /* \"#utility.yul\":15644:15799   */\n      swap2\n      pop\n        /* \"#utility.yul\":15816:15909   */\n      tag_323\n        /* \"#utility.yul\":15905:15908   */\n      dup3\n        /* \"#utility.yul\":15896:15902   */\n      dup5\n        /* \"#utility.yul\":15816:15909   */\n      tag_165\n      jump\t// in\n    tag_323:\n        /* \"#utility.yul\":15809:15909   */\n      swap2\n      pop\n        /* \"#utility.yul\":15926:16074   */\n      tag_324\n        /* \"#utility.yul\":16070:16073   */\n      dup3\n        /* \"#utility.yul\":15926:16074   */\n      tag_176\n      jump\t// in\n    tag_324:\n        /* \"#utility.yul\":15919:16074   */\n      swap2\n      pop\n        /* \"#utility.yul\":16091:16094   */\n      dup2\n        /* \"#utility.yul\":16084:16094   */\n      swap1\n      pop\n        /* \"#utility.yul\":15297:16100   */\n      swap3\n      swap2\n      pop\n      pop\n      jump\t// out\n\n    auxdata: 0xa2646970667358221220b3fef4c2444191394c5137d4d5ed4c1664cbb8d15eb65636342c5eff3bba4c9d64736f6c63430008120033\n}\n",
				"bytecode": {
					"linkReferences": {},
					"object": "6080604052604051806060016040528060238152602001620014f660239139600090816200002e9190620002e2565b506504e25ed2e7006001556000600260006101000a81548160ff0219169083151502179055503480156200006157600080fd5b50620003c9565b600081519050919050565b7f4e487b7100000000000000000000000000000000000000000000000000000000600052604160045260246000fd5b7f4e487b7100000000000000000000000000000000000000000000000000000000600052602260045260246000fd5b60006002820490506001821680620000ea57607f821691505b6020821081036200010057620000ff620000a2565b5b50919050565b60008190508160005260206000209050919050565b60006020601f8301049050919050565b600082821b905092915050565b6000600883026200016a7fffffffffffffffffffffffffffffffffffffffffffffffffffffffffffffffff826200012b565b6200017686836200012b565b95508019841693508086168417925050509392505050565b6000819050919050565b6000819050919050565b6000620001c3620001bd620001b7846200018e565b62000198565b6200018e565b9050919050565b6000819050919050565b620001df83620001a2565b620001f7620001ee82620001ca565b84845462000138565b825550505050565b600090565b6200020e620001ff565b6200021b818484620001d4565b505050565b5b8181101562000243576200023760008262000204565b60018101905062000221565b5050565b601f82111562000292576200025c8162000106565b62000267846200011b565b8101602085101562000277578190505b6200028f62000286856200011b565b83018262000220565b50505b505050565b600082821c905092915050565b6000620002b76000198460080262000297565b1980831691505092915050565b6000620002d28383620002a4565b9150826002028217905092915050565b620002ed8262000068565b67ffffffffffffffff81111562000309576200030862000073565b5b620003158254620000d1565b6200032282828562000247565b600060209050601f8311600181146200035a576000841562000345578287015190505b620003518582620002c4565b865550620003c1565b601f1984166200036a8662000106565b60005b8281101562000394578489015182556001820191506020850194506020810190506200036d565b86831015620003b45784890151620003b0601f891682620002a4565b8355505b6001600288020188555050505b505050505050565b61111d80620003d96000396000f3fe608060405234801561001057600080fd5b506004361061004c5760003560e01c8063117803e3146100515780631d831d5c1461006f5780632782cc7f1461008d5780632c618954146100ab575b600080fd5b6100596100c7565b6040516100669190610951565b60405180910390f35b6100776101a8565b6040516100849190610951565b60405180910390f35b610095610209565b6040516100a29190610951565b60405180910390f35b6100c560048036038101906100c09190610abc565b610292565b005b6060600260009054906101000a900460ff16610118576040517f08c379a000000000000000000000000000000000000000000000000000000000815260040161010f90610b51565b60405180910390fd5b6000805461012590610ba0565b80601f016020809104026020016040519081016040528092919081815260200182805461015190610ba0565b801561019e5780601f106101735761010080835404028352916020019161019e565b820191906000526020600020905b81548152906001019060200180831161018157829003601f168201915b5050505050905090565b6060600260009054906101000a900460ff166101f9576040517f08c379a00000000000000000000000000000000000000000000000000000000081526004016101f090610b51565b60405180910390fd5b61020460015461033e565b905090565b6060600260009054906101000a900460ff1661025a576040517f08c379a000000000000000000000000000000000000000000000000000000000815260040161025190610b51565b60405180910390fd5b6000616989905060006305f5e100826001546102769190610c0a565b6102809190610c7b565b905061028b81610557565b9250505090565b806040516020016102a290610d03565b60405160208183030381529060405280519060200120816040516020016102c99190610d5f565b604051602081830303815290604052805190602001201461031f576040517f08c379a000000000000000000000000000000000000000000000000000000000815260040161031690610dc2565b60405180910390fd5b6001600260006101000a81548160ff0219169083151502179055505050565b606060006305f5e100836103529190610c7b565b905060006305f5e100846103669190610de2565b9050600061037383610761565b90506000819050600081519050600060038261038f9190610c7b565b8261039a9190610e13565b67ffffffffffffffff8111156103b3576103b2610991565b5b6040519080825280601f01601f1916602001820160405280156103e55781602001600182028036833780820191505090505b5090506000805b83811015610510576000600382866104049190610e47565b61040e9190610de2565b14801561041c575060008114155b15610491577f2c0000000000000000000000000000000000000000000000000000000000000083838061044e90610e7b565b94508151811061046157610460610ec3565b5b60200101907effffffffffffffffffffffffffffffffffffffffffffffffffffffffffffff1916908160001a9053505b8481815181106104a4576104a3610ec3565b5b602001015160f81c60f81b8383806104bb90610e7b565b9450815181106104ce576104cd610ec3565b5b60200101907effffffffffffffffffffffffffffffffffffffffffffffffffffffffffffff1916908160001a905350808061050890610e7b565b9150506103ec565b5081610529620f4240886105249190610c7b565b610761565b60405160200161053a929190610fbb565b604051602081830303815290604052975050505050505050919050565b6060600061056483610761565b90506000819050600081519050600681116105a3578260405160200161058a919061108d565b604051602081830303815290604052935050505061075c565b60006003826105b29190610c7b565b826105bd9190610e13565b67ffffffffffffffff8111156105d6576105d5610991565b5b6040519080825280601f01601f1916602001820160405280156106085781602001600182028036833780820191505090505b5090506000805b83811015610733576000600382866106279190610e47565b6106319190610de2565b14801561063f575060008114155b156106b4577f2c0000000000000000000000000000000000000000000000000000000000000083838061067190610e7b565b94508151811061068457610683610ec3565b5b60200101907effffffffffffffffffffffffffffffffffffffffffffffffffffffffffffff1916908160001a9053505b8481815181106106c7576106c6610ec3565b5b602001015160f81c60f81b8383806106de90610e7b565b9450815181106106f1576106f0610ec3565b5b60200101907effffffffffffffffffffffffffffffffffffffffffffffffffffffffffffff1916908160001a905350808061072b90610e7b565b91505061060f565b508160405160200161074591906110ba565b604051602081830303815290604052955050505050505b919050565b6060600082036107a8576040518060400160405280600181526020017f300000000000000000000000000000000000000000000000000000000000000081525090506108bc565b600082905060005b600082146107da5780806107c390610e7b565b915050600a826107d39190610c7b565b91506107b0565b60008167ffffffffffffffff8111156107f6576107f5610991565b5b6040519080825280601f01601f1916602001820160405280156108285781602001600182028036833780820191505090505b5090505b600085146108b5576001826108419190610e47565b9150600a856108509190610de2565b603061085c9190610e13565b60f81b81838151811061087257610871610ec3565b5b60200101907effffffffffffffffffffffffffffffffffffffffffffffffffffffffffffff1916908160001a905350600a856108ae9190610c7b565b945061082c565b8093505050505b919050565b600081519050919050565b600082825260208201905092915050565b60005b838110156108fb5780820151818401526020810190506108e0565b60008484015250505050565b6000601f19601f8301169050919050565b6000610923826108c1565b61092d81856108cc565b935061093d8185602086016108dd565b61094681610907565b840191505092915050565b6000602082019050818103600083015261096b8184610918565b905092915050565b6000604051905090565b600080fd5b600080fd5b600080fd5b600080fd5b7f4e487b7100000000000000000000000000000000000000000000000000000000600052604160045260246000fd5b6109c982610907565b810181811067ffffffffffffffff821117156109e8576109e7610991565b5b80604052505050565b60006109fb610973565b9050610a0782826109c0565b919050565b600067ffffffffffffffff821115610a2757610a26610991565b5b610a3082610907565b9050602081019050919050565b82818337600083830152505050565b6000610a5f610a5a84610a0c565b6109f1565b905082815260208101848484011115610a7b57610a7a61098c565b5b610a86848285610a3d565b509392505050565b600082601f830112610aa357610aa2610987565b5b8135610ab3848260208601610a4c565b91505092915050565b600060208284031215610ad257610ad161097d565b5b600082013567ffffffffffffffff811115610af057610aef610982565b5b610afc84828501610a8e565b91505092915050565b7f506c65617365206c6f67696e2066697273742e00000000000000000000000000600082015250565b6000610b3b6013836108cc565b9150610b4682610b05565b602082019050919050565b60006020820190508181036000830152610b6a81610b2e565b9050919050565b7f4e487b7100000000000000000000000000000000000000000000000000000000600052602260045260246000fd5b60006002820490506001821680610bb857607f821691505b602082108103610bcb57610bca610b71565b5b50919050565b6000819050919050565b7f4e487b7100000000000000000000000000000000000000000000000000000000600052601160045260246000fd5b6000610c1582610bd1565b9150610c2083610bd1565b9250828202610c2e81610bd1565b91508282048414831517610c4557610c44610bdb565b5b5092915050565b7f4e487b7100000000000000000000000000000000000000000000000000000000600052601260045260246000fd5b6000610c8682610bd1565b9150610c9183610bd1565b925082610ca157610ca0610c4c565b5b828204905092915050565b600081905092915050565b7f58797e30316b212a000000000000000000000000000000000000000000000000600082015250565b6000610ced600883610cac565b9150610cf882610cb7565b600882019050919050565b6000610d0e82610ce0565b9150819050919050565b600081519050919050565b600081905092915050565b6000610d3982610d18565b610d438185610d23565b9350610d538185602086016108dd565b80840191505092915050565b6000610d6b8284610d2e565b915081905092915050565b7f496e636f72726563742070617373776f72642e00000000000000000000000000600082015250565b6000610dac6013836108cc565b9150610db782610d76565b602082019050919050565b60006020820190508181036000830152610ddb81610d9f565b9050919050565b6000610ded82610bd1565b9150610df883610bd1565b925082610e0857610e07610c4c565b5b828206905092915050565b6000610e1e82610bd1565b9150610e2983610bd1565b9250828201905080821115610e4157610e40610bdb565b5b92915050565b6000610e5282610bd1565b9150610e5d83610bd1565b9250828203905081811115610e7557610e74610bdb565b5b92915050565b6000610e8682610bd1565b91507fffffffffffffffffffffffffffffffffffffffffffffffffffffffffffffffff8203610eb857610eb7610bdb565b5b600182019050919050565b7f4e487b7100000000000000000000000000000000000000000000000000000000600052603260045260246000fd5b7f2e00000000000000000000000000000000000000000000000000000000000000600082015250565b6000610f28600183610cac565b9150610f3382610ef2565b600182019050919050565b6000610f49826108c1565b610f538185610cac565b9350610f638185602086016108dd565b80840191505092915050565b7f3020425443000000000000000000000000000000000000000000000000000000600082015250565b6000610fa5600583610cac565b9150610fb082610f6f565b600582019050919050565b6000610fc78285610d2e565b9150610fd282610f1b565b9150610fde8284610f3e565b9150610fe982610f98565b91508190509392505050565b7f2400000000000000000000000000000000000000000000000000000000000000600082015250565b600061102b600183610cac565b915061103682610ff5565b600182019050919050565b7f2e30300000000000000000000000000000000000000000000000000000000000600082015250565b6000611077600383610cac565b915061108282611041565b600382019050919050565b60006110988261101e565b91506110a48284610f3e565b91506110af8261106a565b915081905092915050565b60006110c58261101e565b91506110d18284610d2e565b91506110dc8261106a565b91508190509291505056fea2646970667358221220b3fef4c2444191394c5137d4d5ed4c1664cbb8d15eb65636342c5eff3bba4c9d64736f6c634300081200334c65646765722d4e616e6f2d5820285265636f676e697a656420484152445741524529",
					"opcodes": "PUSH1 0x80 PUSH1 0x40 MSTORE PUSH1 0x40 MLOAD DUP1 PUSH1 0x60 ADD PUSH1 0x40 MSTORE DUP1 PUSH1 0x23 DUP2 MSTORE PUSH1 0x20 ADD PUSH3 0x14F6 PUSH1 0x23 SWAP2 CODECOPY PUSH1 0x0 SWAP1 DUP2 PUSH3 0x2E SWAP2 SWAP1 PUSH3 0x2E2 JUMP JUMPDEST POP PUSH6 0x4E25ED2E700 PUSH1 0x1 SSTORE PUSH1 0x0 PUSH1 0x2 PUSH1 0x0 PUSH2 0x100 EXP DUP2 SLOAD DUP2 PUSH1 0xFF MUL NOT AND SWAP1 DUP4 ISZERO ISZERO MUL OR SWAP1 SSTORE POP CALLVALUE DUP1 ISZERO PUSH3 0x61 JUMPI PUSH1 0x0 DUP1 REVERT JUMPDEST POP PUSH3 0x3C9 JUMP JUMPDEST PUSH1 0x0 DUP2 MLOAD SWAP1 POP SWAP2 SWAP1 POP JUMP JUMPDEST PUSH32 0x4E487B7100000000000000000000000000000000000000000000000000000000 PUSH1 0x0 MSTORE PUSH1 0x41 PUSH1 0x4 MSTORE PUSH1 0x24 PUSH1 0x0 REVERT JUMPDEST PUSH32 0x4E487B7100000000000000000000000000000000000000000000000000000000 PUSH1 0x0 MSTORE PUSH1 0x22 PUSH1 0x4 MSTORE PUSH1 0x24 PUSH1 0x0 REVERT JUMPDEST PUSH1 0x0 PUSH1 0x2 DUP3 DIV SWAP1 POP PUSH1 0x1 DUP3 AND DUP1 PUSH3 0xEA JUMPI PUSH1 0x7F DUP3 AND SWAP2 POP JUMPDEST PUSH1 0x20 DUP3 LT DUP2 SUB PUSH3 0x100 JUMPI PUSH3 0xFF PUSH3 0xA2 JUMP JUMPDEST JUMPDEST POP SWAP2 SWAP1 POP JUMP JUMPDEST PUSH1 0x0 DUP2 SWAP1 POP DUP2 PUSH1 0x0 MSTORE PUSH1 0x20 PUSH1 0x0 KECCAK256 SWAP1 POP SWAP2 SWAP1 POP JUMP JUMPDEST PUSH1 0x0 PUSH1 0x20 PUSH1 0x1F DUP4 ADD DIV SWAP1 POP SWAP2 SWAP1 POP JUMP JUMPDEST PUSH1 0x0 DUP3 DUP3 SHL SWAP1 POP SWAP3 SWAP2 POP POP JUMP JUMPDEST PUSH1 0x0 PUSH1 0x8 DUP4 MUL PUSH3 0x16A PUSH32 0xFFFFFFFFFFFFFFFFFFFFFFFFFFFFFFFFFFFFFFFFFFFFFFFFFFFFFFFFFFFFFFFF DUP3 PUSH3 0x12B JUMP JUMPDEST PUSH3 0x176 DUP7 DUP4 PUSH3 0x12B JUMP JUMPDEST SWAP6 POP DUP1 NOT DUP5 AND SWAP4 POP DUP1 DUP7 AND DUP5 OR SWAP3 POP POP POP SWAP4 SWAP3 POP POP POP JUMP JUMPDEST PUSH1 0x0 DUP2 SWAP1 POP SWAP2 SWAP1 POP JUMP JUMPDEST PUSH1 0x0 DUP2 SWAP1 POP SWAP2 SWAP1 POP JUMP JUMPDEST PUSH1 0x0 PUSH3 0x1C3 PUSH3 0x1BD PUSH3 0x1B7 DUP5 PUSH3 0x18E JUMP JUMPDEST PUSH3 0x198 JUMP JUMPDEST PUSH3 0x18E JUMP JUMPDEST SWAP1 POP SWAP2 SWAP1 POP JUMP JUMPDEST PUSH1 0x0 DUP2 SWAP1 POP SWAP2 SWAP1 POP JUMP JUMPDEST PUSH3 0x1DF DUP4 PUSH3 0x1A2 JUMP JUMPDEST PUSH3 0x1F7 PUSH3 0x1EE DUP3 PUSH3 0x1CA JUMP JUMPDEST DUP5 DUP5 SLOAD PUSH3 0x138 JUMP JUMPDEST DUP3 SSTORE POP POP POP POP JUMP JUMPDEST PUSH1 0x0 SWAP1 JUMP JUMPDEST PUSH3 0x20E PUSH3 0x1FF JUMP JUMPDEST PUSH3 0x21B DUP2 DUP5 DUP5 PUSH3 0x1D4 JUMP JUMPDEST POP POP POP JUMP JUMPDEST JUMPDEST DUP2 DUP2 LT ISZERO PUSH3 0x243 JUMPI PUSH3 0x237 PUSH1 0x0 DUP3 PUSH3 0x204 JUMP JUMPDEST PUSH1 0x1 DUP2 ADD SWAP1 POP PUSH3 0x221 JUMP JUMPDEST POP POP JUMP JUMPDEST PUSH1 0x1F DUP3 GT ISZERO PUSH3 0x292 JUMPI PUSH3 0x25C DUP2 PUSH3 0x106 JUMP JUMPDEST PUSH3 0x267 DUP5 PUSH3 0x11B JUMP JUMPDEST DUP2 ADD PUSH1 0x20 DUP6 LT ISZERO PUSH3 0x277 JUMPI DUP2 SWAP1 POP JUMPDEST PUSH3 0x28F PUSH3 0x286 DUP6 PUSH3 0x11B JUMP JUMPDEST DUP4 ADD DUP3 PUSH3 0x220 JUMP JUMPDEST POP POP JUMPDEST POP POP POP JUMP JUMPDEST PUSH1 0x0 DUP3 DUP3 SHR SWAP1 POP SWAP3 SWAP2 POP POP JUMP JUMPDEST PUSH1 0x0 PUSH3 0x2B7 PUSH1 0x0 NOT DUP5 PUSH1 0x8 MUL PUSH3 0x297 JUMP JUMPDEST NOT DUP1 DUP4 AND SWAP2 POP POP SWAP3 SWAP2 POP POP JUMP JUMPDEST PUSH1 0x0 PUSH3 0x2D2 DUP4 DUP4 PUSH3 0x2A4 JUMP JUMPDEST SWAP2 POP DUP3 PUSH1 0x2 MUL DUP3 OR SWAP1 POP SWAP3 SWAP2 POP POP JUMP JUMPDEST PUSH3 0x2ED DUP3 PUSH3 0x68 JUMP JUMPDEST PUSH8 0xFFFFFFFFFFFFFFFF DUP2 GT ISZERO PUSH3 0x309 JUMPI PUSH3 0x308 PUSH3 0x73 JUMP JUMPDEST JUMPDEST PUSH3 0x315 DUP3 SLOAD PUSH3 0xD1 JUMP JUMPDEST PUSH3 0x322 DUP3 DUP3 DUP6 PUSH3 0x247 JUMP JUMPDEST PUSH1 0x0 PUSH1 0x20 SWAP1 POP PUSH1 0x1F DUP4 GT PUSH1 0x1 DUP2 EQ PUSH3 0x35A JUMPI PUSH1 0x0 DUP5 ISZERO PUSH3 0x345 JUMPI DUP3 DUP8 ADD MLOAD SWAP1 POP JUMPDEST PUSH3 0x351 DUP6 DUP3 PUSH3 0x2C4 JUMP JUMPDEST DUP7 SSTORE POP PUSH3 0x3C1 JUMP JUMPDEST PUSH1 0x1F NOT DUP5 AND PUSH3 0x36A DUP7 PUSH3 0x106 JUMP JUMPDEST PUSH1 0x0 JUMPDEST DUP3 DUP2 LT ISZERO PUSH3 0x394 JUMPI DUP5 DUP10 ADD MLOAD DUP3 SSTORE PUSH1 0x1 DUP3 ADD SWAP2 POP PUSH1 0x20 DUP6 ADD SWAP5 POP PUSH1 0x20 DUP2 ADD SWAP1 POP PUSH3 0x36D JUMP JUMPDEST DUP7 DUP4 LT ISZERO PUSH3 0x3B4 JUMPI DUP5 DUP10 ADD MLOAD PUSH3 0x3B0 PUSH1 0x1F DUP10 AND DUP3 PUSH3 0x2A4 JUMP JUMPDEST DUP4 SSTORE POP JUMPDEST PUSH1 0x1 PUSH1 0x2 DUP9 MUL ADD DUP9 SSTORE POP POP POP JUMPDEST POP POP POP POP POP POP JUMP JUMPDEST PUSH2 0x111D DUP1 PUSH3 0x3D9 PUSH1 0x0 CODECOPY PUSH1 0x0 RETURN INVALID PUSH1 0x80 PUSH1 0x40 MSTORE CALLVALUE DUP1 ISZERO PUSH2 0x10 JUMPI PUSH1 0x0 DUP1 REVERT JUMPDEST POP PUSH1 0x4 CALLDATASIZE LT PUSH2 0x4C JUMPI PUSH1 0x0 CALLDATALOAD PUSH1 0xE0 SHR DUP1 PUSH4 0x117803E3 EQ PUSH2 0x51 JUMPI DUP1 PUSH4 0x1D831D5C EQ PUSH2 0x6F JUMPI DUP1 PUSH4 0x2782CC7F EQ PUSH2 0x8D JUMPI DUP1 PUSH4 0x2C618954 EQ PUSH2 0xAB JUMPI JUMPDEST PUSH1 0x0 DUP1 REVERT JUMPDEST PUSH2 0x59 PUSH2 0xC7 JUMP JUMPDEST PUSH1 0x40 MLOAD PUSH2 0x66 SWAP2 SWAP1 PUSH2 0x951 JUMP JUMPDEST PUSH1 0x40 MLOAD DUP1 SWAP2 SUB SWAP1 RETURN JUMPDEST PUSH2 0x77 PUSH2 0x1A8 JUMP JUMPDEST PUSH1 0x40 MLOAD PUSH2 0x84 SWAP2 SWAP1 PUSH2 0x951 JUMP JUMPDEST PUSH1 0x40 MLOAD DUP1 SWAP2 SUB SWAP1 RETURN JUMPDEST PUSH2 0x95 PUSH2 0x209 JUMP JUMPDEST PUSH1 0x40 MLOAD PUSH2 0xA2 SWAP2 SWAP1 PUSH2 0x951 JUMP JUMPDEST PUSH1 0x40 MLOAD DUP1 SWAP2 SUB SWAP1 RETURN JUMPDEST PUSH2 0xC5 PUSH1 0x4 DUP1 CALLDATASIZE SUB DUP2 ADD SWAP1 PUSH2 0xC0 SWAP2 SWAP1 PUSH2 0xABC JUMP JUMPDEST PUSH2 0x292 JUMP JUMPDEST STOP JUMPDEST PUSH1 0x60 PUSH1 0x2 PUSH1 0x0 SWAP1 SLOAD SWAP1 PUSH2 0x100 EXP SWAP1 DIV PUSH1 0xFF AND PUSH2 0x118 JUMPI PUSH1 0x40 MLOAD PUSH32 0x8C379A000000000000000000000000000000000000000000000000000000000 DUP2 MSTORE PUSH1 0x4 ADD PUSH2 0x10F SWAP1 PUSH2 0xB51 JUMP JUMPDEST PUSH1 0x40 MLOAD DUP1 SWAP2 SUB SWAP1 REVERT JUMPDEST PUSH1 0x0 DUP1 SLOAD PUSH2 0x125 SWAP1 PUSH2 0xBA0 JUMP JUMPDEST DUP1 PUSH1 0x1F ADD PUSH1 0x20 DUP1 SWAP2 DIV MUL PUSH1 0x20 ADD PUSH1 0x40 MLOAD SWAP1 DUP2 ADD PUSH1 0x40 MSTORE DUP1 SWAP3 SWAP2 SWAP1 DUP2 DUP2 MSTORE PUSH1 0x20 ADD DUP3 DUP1 SLOAD PUSH2 0x151 SWAP1 PUSH2 0xBA0 JUMP JUMPDEST DUP1 ISZERO PUSH2 0x19E JUMPI DUP1 PUSH1 0x1F LT PUSH2 0x173 JUMPI PUSH2 0x100 DUP1 DUP4 SLOAD DIV MUL DUP4 MSTORE SWAP2 PUSH1 0x20 ADD SWAP2 PUSH2 0x19E JUMP JUMPDEST DUP3 ADD SWAP2 SWAP1 PUSH1 0x0 MSTORE PUSH1 0x20 PUSH1 0x0 KECCAK256 SWAP1 JUMPDEST DUP2 SLOAD DUP2 MSTORE SWAP1 PUSH1 0x1 ADD SWAP1 PUSH1 0x20 ADD DUP1 DUP4 GT PUSH2 0x181 JUMPI DUP3 SWAP1 SUB PUSH1 0x1F AND DUP3 ADD SWAP2 JUMPDEST POP POP POP POP POP SWAP1 POP SWAP1 JUMP JUMPDEST PUSH1 0x60 PUSH1 0x2 PUSH1 0x0 SWAP1 SLOAD SWAP1 PUSH2 0x100 EXP SWAP1 DIV PUSH1 0xFF AND PUSH2 0x1F9 JUMPI PUSH1 0x40 MLOAD PUSH32 0x8C379A000000000000000000000000000000000000000000000000000000000 DUP2 MSTORE PUSH1 0x4 ADD PUSH2 0x1F0 SWAP1 PUSH2 0xB51 JUMP JUMPDEST PUSH1 0x40 MLOAD DUP1 SWAP2 SUB SWAP1 REVERT JUMPDEST PUSH2 0x204 PUSH1 0x1 SLOAD PUSH2 0x33E JUMP JUMPDEST SWAP1 POP SWAP1 JUMP JUMPDEST PUSH1 0x60 PUSH1 0x2 PUSH1 0x0 SWAP1 SLOAD SWAP1 PUSH2 0x100 EXP SWAP1 DIV PUSH1 0xFF AND PUSH2 0x25A JUMPI PUSH1 0x40 MLOAD PUSH32 0x8C379A000000000000000000000000000000000000000000000000000000000 DUP2 MSTORE PUSH1 0x4 ADD PUSH2 0x251 SWAP1 PUSH2 0xB51 JUMP JUMPDEST PUSH1 0x40 MLOAD DUP1 SWAP2 SUB SWAP1 REVERT JUMPDEST PUSH1 0x0 PUSH2 0x6989 SWAP1 POP PUSH1 0x0 PUSH4 0x5F5E100 DUP3 PUSH1 0x1 SLOAD PUSH2 0x276 SWAP2 SWAP1 PUSH2 0xC0A JUMP JUMPDEST PUSH2 0x280 SWAP2 SWAP1 PUSH2 0xC7B JUMP JUMPDEST SWAP1 POP PUSH2 0x28B DUP2 PUSH2 0x557 JUMP JUMPDEST SWAP3 POP POP POP SWAP1 JUMP JUMPDEST DUP1 PUSH1 0x40 MLOAD PUSH1 0x20 ADD PUSH2 0x2A2 SWAP1 PUSH2 0xD03 JUMP JUMPDEST PUSH1 0x40 MLOAD PUSH1 0x20 DUP2 DUP4 SUB SUB DUP2 MSTORE SWAP1 PUSH1 0x40 MSTORE DUP1 MLOAD SWAP1 PUSH1 0x20 ADD KECCAK256 DUP2 PUSH1 0x40 MLOAD PUSH1 0x20 ADD PUSH2 0x2C9 SWAP2 SWAP1 PUSH2 0xD5F JUMP JUMPDEST PUSH1 0x40 MLOAD PUSH1 0x20 DUP2 DUP4 SUB SUB DUP2 MSTORE SWAP1 PUSH1 0x40 MSTORE DUP1 MLOAD SWAP1 PUSH1 0x20 ADD KECCAK256 EQ PUSH2 0x31F JUMPI PUSH1 0x40 MLOAD PUSH32 0x8C379A000000000000000000000000000000000000000000000000000000000 DUP2 MSTORE PUSH1 0x4 ADD PUSH2 0x316 SWAP1 PUSH2 0xDC2 JUMP JUMPDEST PUSH1 0x40 MLOAD DUP1 SWAP2 SUB SWAP1 REVERT JUMPDEST PUSH1 0x1 PUSH1 0x2 PUSH1 0x0 PUSH2 0x100 EXP DUP2 SLOAD DUP2 PUSH1 0xFF MUL NOT AND SWAP1 DUP4 ISZERO ISZERO MUL OR SWAP1 SSTORE POP POP POP JUMP JUMPDEST PUSH1 0x60 PUSH1 0x0 PUSH4 0x5F5E100 DUP4 PUSH2 0x352 SWAP2 SWAP1 PUSH2 0xC7B JUMP JUMPDEST SWAP1 POP PUSH1 0x0 PUSH4 0x5F5E100 DUP5 PUSH2 0x366 SWAP2 SWAP1 PUSH2 0xDE2 JUMP JUMPDEST SWAP1 POP PUSH1 0x0 PUSH2 0x373 DUP4 PUSH2 0x761 JUMP JUMPDEST SWAP1 POP PUSH1 0x0 DUP2 SWAP1 POP PUSH1 0x0 DUP2 MLOAD SWAP1 POP PUSH1 0x0 PUSH1 0x3 DUP3 PUSH2 0x38F SWAP2 SWAP1 PUSH2 0xC7B JUMP JUMPDEST DUP3 PUSH2 0x39A SWAP2 SWAP1 PUSH2 0xE13 JUMP JUMPDEST PUSH8 0xFFFFFFFFFFFFFFFF DUP2 GT ISZERO PUSH2 0x3B3 JUMPI PUSH2 0x3B2 PUSH2 0x991 JUMP JUMPDEST JUMPDEST PUSH1 0x40 MLOAD SWAP1 DUP1 DUP3 MSTORE DUP1 PUSH1 0x1F ADD PUSH1 0x1F NOT AND PUSH1 0x20 ADD DUP3 ADD PUSH1 0x40 MSTORE DUP1 ISZERO PUSH2 0x3E5 JUMPI DUP2 PUSH1 0x20 ADD PUSH1 0x1 DUP3 MUL DUP1 CALLDATASIZE DUP4 CALLDATACOPY DUP1 DUP3 ADD SWAP2 POP POP SWAP1 POP JUMPDEST POP SWAP1 POP PUSH1 0x0 DUP1 JUMPDEST DUP4 DUP2 LT ISZERO PUSH2 0x510 JUMPI PUSH1 0x0 PUSH1 0x3 DUP3 DUP7 PUSH2 0x404 SWAP2 SWAP1 PUSH2 0xE47 JUMP JUMPDEST PUSH2 0x40E SWAP2 SWAP1 PUSH2 0xDE2 JUMP JUMPDEST EQ DUP1 ISZERO PUSH2 0x41C JUMPI POP PUSH1 0x0 DUP2 EQ ISZERO JUMPDEST ISZERO PUSH2 0x491 JUMPI PUSH32 0x2C00000000000000000000000000000000000000000000000000000000000000 DUP4 DUP4 DUP1 PUSH2 0x44E SWAP1 PUSH2 0xE7B JUMP JUMPDEST SWAP5 POP DUP2 MLOAD DUP2 LT PUSH2 0x461 JUMPI PUSH2 0x460 PUSH2 0xEC3 JUMP JUMPDEST JUMPDEST PUSH1 0x20 ADD ADD SWAP1 PUSH31 0xFFFFFFFFFFFFFFFFFFFFFFFFFFFFFFFFFFFFFFFFFFFFFFFFFFFFFFFFFFFFFF NOT AND SWAP1 DUP2 PUSH1 0x0 BYTE SWAP1 MSTORE8 POP JUMPDEST DUP5 DUP2 DUP2 MLOAD DUP2 LT PUSH2 0x4A4 JUMPI PUSH2 0x4A3 PUSH2 0xEC3 JUMP JUMPDEST JUMPDEST PUSH1 0x20 ADD ADD MLOAD PUSH1 0xF8 SHR PUSH1 0xF8 SHL DUP4 DUP4 DUP1 PUSH2 0x4BB SWAP1 PUSH2 0xE7B JUMP JUMPDEST SWAP5 POP DUP2 MLOAD DUP2 LT PUSH2 0x4CE JUMPI PUSH2 0x4CD PUSH2 0xEC3 JUMP JUMPDEST JUMPDEST PUSH1 0x20 ADD ADD SWAP1 PUSH31 0xFFFFFFFFFFFFFFFFFFFFFFFFFFFFFFFFFFFFFFFFFFFFFFFFFFFFFFFFFFFFFF NOT AND SWAP1 DUP2 PUSH1 0x0 BYTE SWAP1 MSTORE8 POP DUP1 DUP1 PUSH2 0x508 SWAP1 PUSH2 0xE7B JUMP JUMPDEST SWAP2 POP POP PUSH2 0x3EC JUMP JUMPDEST POP DUP2 PUSH2 0x529 PUSH3 0xF4240 DUP9 PUSH2 0x524 SWAP2 SWAP1 PUSH2 0xC7B JUMP JUMPDEST PUSH2 0x761 JUMP JUMPDEST PUSH1 0x40 MLOAD PUSH1 0x20 ADD PUSH2 0x53A SWAP3 SWAP2 SWAP1 PUSH2 0xFBB JUMP JUMPDEST PUSH1 0x40 MLOAD PUSH1 0x20 DUP2 DUP4 SUB SUB DUP2 MSTORE SWAP1 PUSH1 0x40 MSTORE SWAP8 POP POP POP POP POP POP POP POP SWAP2 SWAP1 POP JUMP JUMPDEST PUSH1 0x60 PUSH1 0x0 PUSH2 0x564 DUP4 PUSH2 0x761 JUMP JUMPDEST SWAP1 POP PUSH1 0x0 DUP2 SWAP1 POP PUSH1 0x0 DUP2 MLOAD SWAP1 POP PUSH1 0x6 DUP2 GT PUSH2 0x5A3 JUMPI DUP3 PUSH1 0x40 MLOAD PUSH1 0x20 ADD PUSH2 0x58A SWAP2 SWAP1 PUSH2 0x108D JUMP JUMPDEST PUSH1 0x40 MLOAD PUSH1 0x20 DUP2 DUP4 SUB SUB DUP2 MSTORE SWAP1 PUSH1 0x40 MSTORE SWAP4 POP POP POP POP PUSH2 0x75C JUMP JUMPDEST PUSH1 0x0 PUSH1 0x3 DUP3 PUSH2 0x5B2 SWAP2 SWAP1 PUSH2 0xC7B JUMP JUMPDEST DUP3 PUSH2 0x5BD SWAP2 SWAP1 PUSH2 0xE13 JUMP JUMPDEST PUSH8 0xFFFFFFFFFFFFFFFF DUP2 GT ISZERO PUSH2 0x5D6 JUMPI PUSH2 0x5D5 PUSH2 0x991 JUMP JUMPDEST JUMPDEST PUSH1 0x40 MLOAD SWAP1 DUP1 DUP3 MSTORE DUP1 PUSH1 0x1F ADD PUSH1 0x1F NOT AND PUSH1 0x20 ADD DUP3 ADD PUSH1 0x40 MSTORE DUP1 ISZERO PUSH2 0x608 JUMPI DUP2 PUSH1 0x20 ADD PUSH1 0x1 DUP3 MUL DUP1 CALLDATASIZE DUP4 CALLDATACOPY DUP1 DUP3 ADD SWAP2 POP POP SWAP1 POP JUMPDEST POP SWAP1 POP PUSH1 0x0 DUP1 JUMPDEST DUP4 DUP2 LT ISZERO PUSH2 0x733 JUMPI PUSH1 0x0 PUSH1 0x3 DUP3 DUP7 PUSH2 0x627 SWAP2 SWAP1 PUSH2 0xE47 JUMP JUMPDEST PUSH2 0x631 SWAP2 SWAP1 PUSH2 0xDE2 JUMP JUMPDEST EQ DUP1 ISZERO PUSH2 0x63F JUMPI POP PUSH1 0x0 DUP2 EQ ISZERO JUMPDEST ISZERO PUSH2 0x6B4 JUMPI PUSH32 0x2C00000000000000000000000000000000000000000000000000000000000000 DUP4 DUP4 DUP1 PUSH2 0x671 SWAP1 PUSH2 0xE7B JUMP JUMPDEST SWAP5 POP DUP2 MLOAD DUP2 LT PUSH2 0x684 JUMPI PUSH2 0x683 PUSH2 0xEC3 JUMP JUMPDEST JUMPDEST PUSH1 0x20 ADD ADD SWAP1 PUSH31 0xFFFFFFFFFFFFFFFFFFFFFFFFFFFFFFFFFFFFFFFFFFFFFFFFFFFFFFFFFFFFFF NOT AND SWAP1 DUP2 PUSH1 0x0 BYTE SWAP1 MSTORE8 POP JUMPDEST DUP5 DUP2 DUP2 MLOAD DUP2 LT PUSH2 0x6C7 JUMPI PUSH2 0x6C6 PUSH2 0xEC3 JUMP JUMPDEST JUMPDEST PUSH1 0x20 ADD ADD MLOAD PUSH1 0xF8 SHR PUSH1 0xF8 SHL DUP4 DUP4 DUP1 PUSH2 0x6DE SWAP1 PUSH2 0xE7B JUMP JUMPDEST SWAP5 POP DUP2 MLOAD DUP2 LT PUSH2 0x6F1 JUMPI PUSH2 0x6F0 PUSH2 0xEC3 JUMP JUMPDEST JUMPDEST PUSH1 0x20 ADD ADD SWAP1 PUSH31 0xFFFFFFFFFFFFFFFFFFFFFFFFFFFFFFFFFFFFFFFFFFFFFFFFFFFFFFFFFFFFFF NOT AND SWAP1 DUP2 PUSH1 0x0 BYTE SWAP1 MSTORE8 POP DUP1 DUP1 PUSH2 0x72B SWAP1 PUSH2 0xE7B JUMP JUMPDEST SWAP2 POP POP PUSH2 0x60F JUMP JUMPDEST POP DUP2 PUSH1 0x40 MLOAD PUSH1 0x20 ADD PUSH2 0x745 SWAP2 SWAP1 PUSH2 0x10BA JUMP JUMPDEST PUSH1 0x40 MLOAD PUSH1 0x20 DUP2 DUP4 SUB SUB DUP2 MSTORE SWAP1 PUSH1 0x40 MSTORE SWAP6 POP POP POP POP POP POP JUMPDEST SWAP2 SWAP1 POP JUMP JUMPDEST PUSH1 0x60 PUSH1 0x0 DUP3 SUB PUSH2 0x7A8 JUMPI PUSH1 0x40 MLOAD DUP1 PUSH1 0x40 ADD PUSH1 0x40 MSTORE DUP1 PUSH1 0x1 DUP2 MSTORE PUSH1 0x20 ADD PUSH32 0x3000000000000000000000000000000000000000000000000000000000000000 DUP2 MSTORE POP SWAP1 POP PUSH2 0x8BC JUMP JUMPDEST PUSH1 0x0 DUP3 SWAP1 POP PUSH1 0x0 JUMPDEST PUSH1 0x0 DUP3 EQ PUSH2 0x7DA JUMPI DUP1 DUP1 PUSH2 0x7C3 SWAP1 PUSH2 0xE7B JUMP JUMPDEST SWAP2 POP POP PUSH1 0xA DUP3 PUSH2 0x7D3 SWAP2 SWAP1 PUSH2 0xC7B JUMP JUMPDEST SWAP2 POP PUSH2 0x7B0 JUMP JUMPDEST PUSH1 0x0 DUP2 PUSH8 0xFFFFFFFFFFFFFFFF DUP2 GT ISZERO PUSH2 0x7F6 JUMPI PUSH2 0x7F5 PUSH2 0x991 JUMP JUMPDEST JUMPDEST PUSH1 0x40 MLOAD SWAP1 DUP1 DUP3 MSTORE DUP1 PUSH1 0x1F ADD PUSH1 0x1F NOT AND PUSH1 0x20 ADD DUP3 ADD PUSH1 0x40 MSTORE DUP1 ISZERO PUSH2 0x828 JUMPI DUP2 PUSH1 0x20 ADD PUSH1 0x1 DUP3 MUL DUP1 CALLDATASIZE DUP4 CALLDATACOPY DUP1 DUP3 ADD SWAP2 POP POP SWAP1 POP JUMPDEST POP SWAP1 POP JUMPDEST PUSH1 0x0 DUP6 EQ PUSH2 0x8B5 JUMPI PUSH1 0x1 DUP3 PUSH2 0x841 SWAP2 SWAP1 PUSH2 0xE47 JUMP JUMPDEST SWAP2 POP PUSH1 0xA DUP6 PUSH2 0x850 SWAP2 SWAP1 PUSH2 0xDE2 JUMP JUMPDEST PUSH1 0x30 PUSH2 0x85C SWAP2 SWAP1 PUSH2 0xE13 JUMP JUMPDEST PUSH1 0xF8 SHL DUP2 DUP4 DUP2 MLOAD DUP2 LT PUSH2 0x872 JUMPI PUSH2 0x871 PUSH2 0xEC3 JUMP JUMPDEST JUMPDEST PUSH1 0x20 ADD ADD SWAP1 PUSH31 0xFFFFFFFFFFFFFFFFFFFFFFFFFFFFFFFFFFFFFFFFFFFFFFFFFFFFFFFFFFFFFF NOT AND SWAP1 DUP2 PUSH1 0x0 BYTE SWAP1 MSTORE8 POP PUSH1 0xA DUP6 PUSH2 0x8AE SWAP2 SWAP1 PUSH2 0xC7B JUMP JUMPDEST SWAP5 POP PUSH2 0x82C JUMP JUMPDEST DUP1 SWAP4 POP POP POP POP JUMPDEST SWAP2 SWAP1 POP JUMP JUMPDEST PUSH1 0x0 DUP2 MLOAD SWAP1 POP SWAP2 SWAP1 POP JUMP JUMPDEST PUSH1 0x0 DUP3 DUP3 MSTORE PUSH1 0x20 DUP3 ADD SWAP1 POP SWAP3 SWAP2 POP POP JUMP JUMPDEST PUSH1 0x0 JUMPDEST DUP4 DUP2 LT ISZERO PUSH2 0x8FB JUMPI DUP1 DUP3 ADD MLOAD DUP2 DUP5 ADD MSTORE PUSH1 0x20 DUP2 ADD SWAP1 POP PUSH2 0x8E0 JUMP JUMPDEST PUSH1 0x0 DUP5 DUP5 ADD MSTORE POP POP POP POP JUMP JUMPDEST PUSH1 0x0 PUSH1 0x1F NOT PUSH1 0x1F DUP4 ADD AND SWAP1 POP SWAP2 SWAP1 POP JUMP JUMPDEST PUSH1 0x0 PUSH2 0x923 DUP3 PUSH2 0x8C1 JUMP JUMPDEST PUSH2 0x92D DUP2 DUP6 PUSH2 0x8CC JUMP JUMPDEST SWAP4 POP PUSH2 0x93D DUP2 DUP6 PUSH1 0x20 DUP7 ADD PUSH2 0x8DD JUMP JUMPDEST PUSH2 0x946 DUP2 PUSH2 0x907 JUMP JUMPDEST DUP5 ADD SWAP2 POP POP SWAP3 SWAP2 POP POP JUMP JUMPDEST PUSH1 0x0 PUSH1 0x20 DUP3 ADD SWAP1 POP DUP2 DUP2 SUB PUSH1 0x0 DUP4 ADD MSTORE PUSH2 0x96B DUP2 DUP5 PUSH2 0x918 JUMP JUMPDEST SWAP1 POP SWAP3 SWAP2 POP POP JUMP JUMPDEST PUSH1 0x0 PUSH1 0x40 MLOAD SWAP1 POP SWAP1 JUMP JUMPDEST PUSH1 0x0 DUP1 REVERT JUMPDEST PUSH1 0x0 DUP1 REVERT JUMPDEST PUSH1 0x0 DUP1 REVERT JUMPDEST PUSH1 0x0 DUP1 REVERT JUMPDEST PUSH32 0x4E487B7100000000000000000000000000000000000000000000000000000000 PUSH1 0x0 MSTORE PUSH1 0x41 PUSH1 0x4 MSTORE PUSH1 0x24 PUSH1 0x0 REVERT JUMPDEST PUSH2 0x9C9 DUP3 PUSH2 0x907 JUMP JUMPDEST DUP2 ADD DUP2 DUP2 LT PUSH8 0xFFFFFFFFFFFFFFFF DUP3 GT OR ISZERO PUSH2 0x9E8 JUMPI PUSH2 0x9E7 PUSH2 0x991 JUMP JUMPDEST JUMPDEST DUP1 PUSH1 0x40 MSTORE POP POP POP JUMP JUMPDEST PUSH1 0x0 PUSH2 0x9FB PUSH2 0x973 JUMP JUMPDEST SWAP1 POP PUSH2 0xA07 DUP3 DUP3 PUSH2 0x9C0 JUMP JUMPDEST SWAP2 SWAP1 POP JUMP JUMPDEST PUSH1 0x0 PUSH8 0xFFFFFFFFFFFFFFFF DUP3 GT ISZERO PUSH2 0xA27 JUMPI PUSH2 0xA26 PUSH2 0x991 JUMP JUMPDEST JUMPDEST PUSH2 0xA30 DUP3 PUSH2 0x907 JUMP JUMPDEST SWAP1 POP PUSH1 0x20 DUP2 ADD SWAP1 POP SWAP2 SWAP1 POP JUMP JUMPDEST DUP3 DUP2 DUP4 CALLDATACOPY PUSH1 0x0 DUP4 DUP4 ADD MSTORE POP POP POP JUMP JUMPDEST PUSH1 0x0 PUSH2 0xA5F PUSH2 0xA5A DUP5 PUSH2 0xA0C JUMP JUMPDEST PUSH2 0x9F1 JUMP JUMPDEST SWAP1 POP DUP3 DUP2 MSTORE PUSH1 0x20 DUP2 ADD DUP5 DUP5 DUP5 ADD GT ISZERO PUSH2 0xA7B JUMPI PUSH2 0xA7A PUSH2 0x98C JUMP JUMPDEST JUMPDEST PUSH2 0xA86 DUP5 DUP3 DUP6 PUSH2 0xA3D JUMP JUMPDEST POP SWAP4 SWAP3 POP POP POP JUMP JUMPDEST PUSH1 0x0 DUP3 PUSH1 0x1F DUP4 ADD SLT PUSH2 0xAA3 JUMPI PUSH2 0xAA2 PUSH2 0x987 JUMP JUMPDEST JUMPDEST DUP2 CALLDATALOAD PUSH2 0xAB3 DUP5 DUP3 PUSH1 0x20 DUP7 ADD PUSH2 0xA4C JUMP JUMPDEST SWAP2 POP POP SWAP3 SWAP2 POP POP JUMP JUMPDEST PUSH1 0x0 PUSH1 0x20 DUP3 DUP5 SUB SLT ISZERO PUSH2 0xAD2 JUMPI PUSH2 0xAD1 PUSH2 0x97D JUMP JUMPDEST JUMPDEST PUSH1 0x0 DUP3 ADD CALLDATALOAD PUSH8 0xFFFFFFFFFFFFFFFF DUP2 GT ISZERO PUSH2 0xAF0 JUMPI PUSH2 0xAEF PUSH2 0x982 JUMP JUMPDEST JUMPDEST PUSH2 0xAFC DUP5 DUP3 DUP6 ADD PUSH2 0xA8E JUMP JUMPDEST SWAP2 POP POP SWAP3 SWAP2 POP POP JUMP JUMPDEST PUSH32 0x506C65617365206C6F67696E2066697273742E00000000000000000000000000 PUSH1 0x0 DUP3 ADD MSTORE POP JUMP JUMPDEST PUSH1 0x0 PUSH2 0xB3B PUSH1 0x13 DUP4 PUSH2 0x8CC JUMP JUMPDEST SWAP2 POP PUSH2 0xB46 DUP3 PUSH2 0xB05 JUMP JUMPDEST PUSH1 0x20 DUP3 ADD SWAP1 POP SWAP2 SWAP1 POP JUMP JUMPDEST PUSH1 0x0 PUSH1 0x20 DUP3 ADD SWAP1 POP DUP2 DUP2 SUB PUSH1 0x0 DUP4 ADD MSTORE PUSH2 0xB6A DUP2 PUSH2 0xB2E JUMP JUMPDEST SWAP1 POP SWAP2 SWAP1 POP JUMP JUMPDEST PUSH32 0x4E487B7100000000000000000000000000000000000000000000000000000000 PUSH1 0x0 MSTORE PUSH1 0x22 PUSH1 0x4 MSTORE PUSH1 0x24 PUSH1 0x0 REVERT JUMPDEST PUSH1 0x0 PUSH1 0x2 DUP3 DIV SWAP1 POP PUSH1 0x1 DUP3 AND DUP1 PUSH2 0xBB8 JUMPI PUSH1 0x7F DUP3 AND SWAP2 POP JUMPDEST PUSH1 0x20 DUP3 LT DUP2 SUB PUSH2 0xBCB JUMPI PUSH2 0xBCA PUSH2 0xB71 JUMP JUMPDEST JUMPDEST POP SWAP2 SWAP1 POP JUMP JUMPDEST PUSH1 0x0 DUP2 SWAP1 POP SWAP2 SWAP1 POP JUMP JUMPDEST PUSH32 0x4E487B7100000000000000000000000000000000000000000000000000000000 PUSH1 0x0 MSTORE PUSH1 0x11 PUSH1 0x4 MSTORE PUSH1 0x24 PUSH1 0x0 REVERT JUMPDEST PUSH1 0x0 PUSH2 0xC15 DUP3 PUSH2 0xBD1 JUMP JUMPDEST SWAP2 POP PUSH2 0xC20 DUP4 PUSH2 0xBD1 JUMP JUMPDEST SWAP3 POP DUP3 DUP3 MUL PUSH2 0xC2E DUP2 PUSH2 0xBD1 JUMP JUMPDEST SWAP2 POP DUP3 DUP3 DIV DUP5 EQ DUP4 ISZERO OR PUSH2 0xC45 JUMPI PUSH2 0xC44 PUSH2 0xBDB JUMP JUMPDEST JUMPDEST POP SWAP3 SWAP2 POP POP JUMP JUMPDEST PUSH32 0x4E487B7100000000000000000000000000000000000000000000000000000000 PUSH1 0x0 MSTORE PUSH1 0x12 PUSH1 0x4 MSTORE PUSH1 0x24 PUSH1 0x0 REVERT JUMPDEST PUSH1 0x0 PUSH2 0xC86 DUP3 PUSH2 0xBD1 JUMP JUMPDEST SWAP2 POP PUSH2 0xC91 DUP4 PUSH2 0xBD1 JUMP JUMPDEST SWAP3 POP DUP3 PUSH2 0xCA1 JUMPI PUSH2 0xCA0 PUSH2 0xC4C JUMP JUMPDEST JUMPDEST DUP3 DUP3 DIV SWAP1 POP SWAP3 SWAP2 POP POP JUMP JUMPDEST PUSH1 0x0 DUP2 SWAP1 POP SWAP3 SWAP2 POP POP JUMP JUMPDEST PUSH32 0x58797E30316B212A000000000000000000000000000000000000000000000000 PUSH1 0x0 DUP3 ADD MSTORE POP JUMP JUMPDEST PUSH1 0x0 PUSH2 0xCED PUSH1 0x8 DUP4 PUSH2 0xCAC JUMP JUMPDEST SWAP2 POP PUSH2 0xCF8 DUP3 PUSH2 0xCB7 JUMP JUMPDEST PUSH1 0x8 DUP3 ADD SWAP1 POP SWAP2 SWAP1 POP JUMP JUMPDEST PUSH1 0x0 PUSH2 0xD0E DUP3 PUSH2 0xCE0 JUMP JUMPDEST SWAP2 POP DUP2 SWAP1 POP SWAP2 SWAP1 POP JUMP JUMPDEST PUSH1 0x0 DUP2 MLOAD SWAP1 POP SWAP2 SWAP1 POP JUMP JUMPDEST PUSH1 0x0 DUP2 SWAP1 POP SWAP3 SWAP2 POP POP JUMP JUMPDEST PUSH1 0x0 PUSH2 0xD39 DUP3 PUSH2 0xD18 JUMP JUMPDEST PUSH2 0xD43 DUP2 DUP6 PUSH2 0xD23 JUMP JUMPDEST SWAP4 POP PUSH2 0xD53 DUP2 DUP6 PUSH1 0x20 DUP7 ADD PUSH2 0x8DD JUMP JUMPDEST DUP1 DUP5 ADD SWAP2 POP POP SWAP3 SWAP2 POP POP JUMP JUMPDEST PUSH1 0x0 PUSH2 0xD6B DUP3 DUP5 PUSH2 0xD2E JUMP JUMPDEST SWAP2 POP DUP2 SWAP1 POP SWAP3 SWAP2 POP POP JUMP JUMPDEST PUSH32 0x496E636F72726563742070617373776F72642E00000000000000000000000000 PUSH1 0x0 DUP3 ADD MSTORE POP JUMP JUMPDEST PUSH1 0x0 PUSH2 0xDAC PUSH1 0x13 DUP4 PUSH2 0x8CC JUMP JUMPDEST SWAP2 POP PUSH2 0xDB7 DUP3 PUSH2 0xD76 JUMP JUMPDEST PUSH1 0x20 DUP3 ADD SWAP1 POP SWAP2 SWAP1 POP JUMP JUMPDEST PUSH1 0x0 PUSH1 0x20 DUP3 ADD SWAP1 POP DUP2 DUP2 SUB PUSH1 0x0 DUP4 ADD MSTORE PUSH2 0xDDB DUP2 PUSH2 0xD9F JUMP JUMPDEST SWAP1 POP SWAP2 SWAP1 POP JUMP JUMPDEST PUSH1 0x0 PUSH2 0xDED DUP3 PUSH2 0xBD1 JUMP JUMPDEST SWAP2 POP PUSH2 0xDF8 DUP4 PUSH2 0xBD1 JUMP JUMPDEST SWAP3 POP DUP3 PUSH2 0xE08 JUMPI PUSH2 0xE07 PUSH2 0xC4C JUMP JUMPDEST JUMPDEST DUP3 DUP3 MOD SWAP1 POP SWAP3 SWAP2 POP POP JUMP JUMPDEST PUSH1 0x0 PUSH2 0xE1E DUP3 PUSH2 0xBD1 JUMP JUMPDEST SWAP2 POP PUSH2 0xE29 DUP4 PUSH2 0xBD1 JUMP JUMPDEST SWAP3 POP DUP3 DUP3 ADD SWAP1 POP DUP1 DUP3 GT ISZERO PUSH2 0xE41 JUMPI PUSH2 0xE40 PUSH2 0xBDB JUMP JUMPDEST JUMPDEST SWAP3 SWAP2 POP POP JUMP JUMPDEST PUSH1 0x0 PUSH2 0xE52 DUP3 PUSH2 0xBD1 JUMP JUMPDEST SWAP2 POP PUSH2 0xE5D DUP4 PUSH2 0xBD1 JUMP JUMPDEST SWAP3 POP DUP3 DUP3 SUB SWAP1 POP DUP2 DUP2 GT ISZERO PUSH2 0xE75 JUMPI PUSH2 0xE74 PUSH2 0xBDB JUMP JUMPDEST JUMPDEST SWAP3 SWAP2 POP POP JUMP JUMPDEST PUSH1 0x0 PUSH2 0xE86 DUP3 PUSH2 0xBD1 JUMP JUMPDEST SWAP2 POP PUSH32 0xFFFFFFFFFFFFFFFFFFFFFFFFFFFFFFFFFFFFFFFFFFFFFFFFFFFFFFFFFFFFFFFF DUP3 SUB PUSH2 0xEB8 JUMPI PUSH2 0xEB7 PUSH2 0xBDB JUMP JUMPDEST JUMPDEST PUSH1 0x1 DUP3 ADD SWAP1 POP SWAP2 SWAP1 POP JUMP JUMPDEST PUSH32 0x4E487B7100000000000000000000000000000000000000000000000000000000 PUSH1 0x0 MSTORE PUSH1 0x32 PUSH1 0x4 MSTORE PUSH1 0x24 PUSH1 0x0 REVERT JUMPDEST PUSH32 0x2E00000000000000000000000000000000000000000000000000000000000000 PUSH1 0x0 DUP3 ADD MSTORE POP JUMP JUMPDEST PUSH1 0x0 PUSH2 0xF28 PUSH1 0x1 DUP4 PUSH2 0xCAC JUMP JUMPDEST SWAP2 POP PUSH2 0xF33 DUP3 PUSH2 0xEF2 JUMP JUMPDEST PUSH1 0x1 DUP3 ADD SWAP1 POP SWAP2 SWAP1 POP JUMP JUMPDEST PUSH1 0x0 PUSH2 0xF49 DUP3 PUSH2 0x8C1 JUMP JUMPDEST PUSH2 0xF53 DUP2 DUP6 PUSH2 0xCAC JUMP JUMPDEST SWAP4 POP PUSH2 0xF63 DUP2 DUP6 PUSH1 0x20 DUP7 ADD PUSH2 0x8DD JUMP JUMPDEST DUP1 DUP5 ADD SWAP2 POP POP SWAP3 SWAP2 POP POP JUMP JUMPDEST PUSH32 0x3020425443000000000000000000000000000000000000000000000000000000 PUSH1 0x0 DUP3 ADD MSTORE POP JUMP JUMPDEST PUSH1 0x0 PUSH2 0xFA5 PUSH1 0x5 DUP4 PUSH2 0xCAC JUMP JUMPDEST SWAP2 POP PUSH2 0xFB0 DUP3 PUSH2 0xF6F JUMP JUMPDEST PUSH1 0x5 DUP3 ADD SWAP1 POP SWAP2 SWAP1 POP JUMP JUMPDEST PUSH1 0x0 PUSH2 0xFC7 DUP3 DUP6 PUSH2 0xD2E JUMP JUMPDEST SWAP2 POP PUSH2 0xFD2 DUP3 PUSH2 0xF1B JUMP JUMPDEST SWAP2 POP PUSH2 0xFDE DUP3 DUP5 PUSH2 0xF3E JUMP JUMPDEST SWAP2 POP PUSH2 0xFE9 DUP3 PUSH2 0xF98 JUMP JUMPDEST SWAP2 POP DUP2 SWAP1 POP SWAP4 SWAP3 POP POP POP JUMP JUMPDEST PUSH32 0x2400000000000000000000000000000000000000000000000000000000000000 PUSH1 0x0 DUP3 ADD MSTORE POP JUMP JUMPDEST PUSH1 0x0 PUSH2 0x102B PUSH1 0x1 DUP4 PUSH2 0xCAC JUMP JUMPDEST SWAP2 POP PUSH2 0x1036 DUP3 PUSH2 0xFF5 JUMP JUMPDEST PUSH1 0x1 DUP3 ADD SWAP1 POP SWAP2 SWAP1 POP JUMP JUMPDEST PUSH32 0x2E30300000000000000000000000000000000000000000000000000000000000 PUSH1 0x0 DUP3 ADD MSTORE POP JUMP JUMPDEST PUSH1 0x0 PUSH2 0x1077 PUSH1 0x3 DUP4 PUSH2 0xCAC JUMP JUMPDEST SWAP2 POP PUSH2 0x1082 DUP3 PUSH2 0x1041 JUMP JUMPDEST PUSH1 0x3 DUP3 ADD SWAP1 POP SWAP2 SWAP1 POP JUMP JUMPDEST PUSH1 0x0 PUSH2 0x1098 DUP3 PUSH2 0x101E JUMP JUMPDEST SWAP2 POP PUSH2 0x10A4 DUP3 DUP5 PUSH2 0xF3E JUMP JUMPDEST SWAP2 POP PUSH2 0x10AF DUP3 PUSH2 0x106A JUMP JUMPDEST SWAP2 POP DUP2 SWAP1 POP SWAP3 SWAP2 POP POP JUMP JUMPDEST PUSH1 0x0 PUSH2 0x10C5 DUP3 PUSH2 0x101E JUMP JUMPDEST SWAP2 POP PUSH2 0x10D1 DUP3 DUP5 PUSH2 0xD2E JUMP JUMPDEST SWAP2 POP PUSH2 0x10DC DUP3 PUSH2 0x106A JUMP JUMPDEST SWAP2 POP DUP2 SWAP1 POP SWAP3 SWAP2 POP POP JUMP INVALID LOG2 PUSH5 0x6970667358 0x22 SLT KECCAK256 0xB3 INVALID DELEGATECALL 0xC2 PREVRANDAO COINBASE SWAP2 CODECOPY 0x4C MLOAD CALLDATACOPY 0xD4 0xD5 0xED 0x4C AND PUSH5 0xCBB8D15EB6 JUMP CALLDATASIZE CALLVALUE 0x2C 0x5E SELFDESTRUCT EXTCODESIZE 0xBA 0x4C SWAP14 PUSH5 0x736F6C6343 STOP ADDMOD SLT STOP CALLER 0x4C PUSH6 0x646765722D4E PUSH2 0x6E6F 0x2D PC KECCAK256 0x28 MSTORE PUSH6 0x636F676E697A PUSH6 0x642048415244 JUMPI COINBASE MSTORE GASLIMIT 0x29 "
				},
				"gasEstimates": {
					"creation": {
						"codeDepositCost": "876200",
						"executionCost": "infinite",
						"totalCost": "infinite"
					},
					"external": {
						"AUTHORIZATION(string)": "infinite",
						"CONVERSION()": "infinite",
						"OWNER()": "infinite",
						"TOKENS()": "infinite"
					},
					"internal": {
						"formatBTC(uint256)": "infinite",
						"formatUSD(uint256)": "infinite",
						"uintToString(uint256)": "infinite"
					}
				},
				"methodIdentifiers": {
					"AUTHORIZATION(string)": "2c618954",
					"CONVERSION()": "2782cc7f",
					"OWNER()": "117803e3",
					"TOKENS()": "1d831d5c"
				}
			},
			"storageLayout": {
				"storage": [
					{
						"astId": 4,
						"contract": "Solidity.sol:HARDWARE",
						"label": "owner",
						"offset": 0,
						"slot": "0",
						"type": "t_string_storage"
					},
					{
						"astId": 11,
						"contract": "Solidity.sol:HARDWARE",
						"label": "btcAmount",
						"offset": 0,
						"slot": "1",
						"type": "t_uint256"
					},
					{
						"astId": 14,
						"contract": "Solidity.sol:HARDWARE",
						"label": "loggedIn",
						"offset": 0,
						"slot": "2",
						"type": "t_bool"
					}
				],
				"types": {
					"t_bool": {
						"encoding": "inplace",
						"label": "bool",
						"numberOfBytes": "1"
					},
					"t_string_storage": {
						"encoding": "bytes",
						"label": "string",
						"numberOfBytes": "32"
					},
					"t_uint256": {
						"encoding": "inplace",
						"label": "uint256",
						"numberOfBytes": "32"
					}
				}
			},
			"userdoc": {
				"kind": "user",
				"methods": {},
				"version": 1
			}
		}
	}
}