{
	"compilerInput": "{\"language\":\"Solidity\",\"sources\":{\"Solidity.sol\":{\"content\":\"// SPDX-License-Identifier: MIT\\r\\npragma solidity ^0.8.0;\\r\\n\\r\\ncontract HARDWARE {\\r\\n    string private owner = \\\"Ledger-Nano-X (Recognized HARDWARE)\\\";\\r\\n    uint256 private btcAmount = 53703 * 10**8;\\r\\n    bool private loggedIn = false;\\r\\n\\r\\n    modifier requirePassword(string memory password) {\\r\\n        require(keccak256(abi.encodePacked(bytes(password))) == PASSWORD_HASH, \\\"Incorrect password.\\\");\\r\\n        _;\\r\\n    }\\r\\n\\r\\n    modifier requireLogin() {\\r\\n        require(loggedIn, \\\"Please login first.\\\");\\r\\n        _;\\r\\n    }\\r\\n\\r\\n    function AUTHORIZATION(string memory password) public requirePassword(password) {\\r\\n        loggedIn = true;\\r\\n    }\\r\\n\\r\\n\\r\\n    function CONVERSION() public view requireLogin returns (string memory) {\\r\\n        uint256 btcToUsdRate = 27017;\\r\\n        uint256 usdAmount = btcAmount * btcToUsdRate / (10**8);\\r\\n        return formatUSD(usdAmount);\\r\\n    }\\r\\n\\r\\n    function OWNER() public view requireLogin returns (string memory) {\\r\\n        return owner;\\r\\n    }\\r\\n\\r\\n    function TOKENS() public view requireLogin returns (string memory) {\\r\\n        return formatBTC(btcAmount);\\r\\n    }\\r\\n\\r\\n    function formatUSD(uint256 amount) private pure returns (string memory) {\\r\\n        string memory strAmount = uintToString(amount);\\r\\n        bytes memory strBytes = bytes(strAmount);\\r\\n        uint256 len = strBytes.length;\\r\\n        if (len <= 6) {\\r\\n            return string(abi.encodePacked(\\\"$\\\", strAmount, \\\".00\\\"));\\r\\n        }\\r\\n        bytes memory result = new bytes(len + len / 3);\\r\\n        uint256 j = 0;\\r\\n        for (uint256 i = 0; i < len; i++) {\\r\\n            if ((len - i) % 3 == 0 && i != 0) {\\r\\n                result[j++] = bytes1(',');\\r\\n            }\\r\\n            result[j++] = strBytes[i];\\r\\n        }\\r\\n        return string(abi.encodePacked(\\\"$\\\", result, \\\".00\\\"));\\r\\n    }\\r\\n\\r\\n\\r\\n\\r\\n\\r\\nfunction formatBTC(uint256 amount) private pure returns (string memory) {\\r\\n    uint256 integerPart = amount / (10**8);\\r\\n    uint256 decimalPart = amount % (10**8);\\r\\n    string memory strIntegerPart = uintToString(integerPart);\\r\\n    bytes memory strBytes = bytes(strIntegerPart);\\r\\n    uint256 len = strBytes.length;\\r\\n    bytes memory result = new bytes(len + len / 3);\\r\\n    uint256 j = 0;\\r\\n    for (uint256 i = 0; i < len; i++) {\\r\\n        if ((len - i) % 3 == 0 && i != 0) {\\r\\n            result[j++] = bytes1(',');\\r\\n        }\\r\\n        result[j++] = strBytes[i];\\r\\n    }\\r\\n    return string(abi.encodePacked(result, \\\".\\\", uintToString(decimalPart / (10**6)), \\\"0 BTC\\\"));\\r\\n}\\r\\n\\r\\n\\r\\n   bytes32 private constant PASSWORD_HASH = keccak256(abi.encodePacked(\\\"Xy~01k!*\\\"));\\r\\n\\r\\n    function uintToString(uint256 value) private pure returns (string memory) {\\r\\n        if (value == 0) {\\r\\n            return \\\"0\\\";\\r\\n        }\\r\\n        uint256 temp = value;\\r\\n        uint256 digits;\\r\\n        while (temp != 0) {\\r\\n            digits++;\\r\\n            temp /= 10;\\r\\n        }\\r\\n        bytes memory buffer = new bytes(digits);\\r\\n        while (value != 0) {\\r\\n            digits -= 1;\\r\\n            buffer[digits] = bytes1(uint8(48 + uint256(value % 10)));\\r\\n            value /= 10;\\r\\n        }\\r\\n        return string(buffer);\\r\\n    }\\r\\n}\"}},\"settings\":{\"optimizer\":{\"enabled\":false,\"runs\":200},\"outputSelection\":{\"*\":{\"\":[\"ast\"],\"*\":[\"abi\",\"metadata\",\"devdoc\",\"userdoc\",\"storageLayout\",\"evm.legacyAssembly\",\"evm.bytecode\",\"evm.deployedBytecode\",\"evm.methodIdentifiers\",\"evm.gasEstimates\",\"evm.assembly\"]}}}}",
	"name": "HARDWARE",
	"bytecode": {
		"linkReferences": {},
		"object": "6080604052604051806060016040528060238152602001620014f660239139600090816200002e9190620002e2565b506504e25ed2e7006001556000600260006101000a81548160ff0219169083151502179055503480156200006157600080fd5b50620003c9565b600081519050919050565b7f4e487b7100000000000000000000000000000000000000000000000000000000600052604160045260246000fd5b7f4e487b7100000000000000000000000000000000000000000000000000000000600052602260045260246000fd5b60006002820490506001821680620000ea57607f821691505b6020821081036200010057620000ff620000a2565b5b50919050565b60008190508160005260206000209050919050565b60006020601f8301049050919050565b600082821b905092915050565b6000600883026200016a7fffffffffffffffffffffffffffffffffffffffffffffffffffffffffffffffff826200012b565b6200017686836200012b565b95508019841693508086168417925050509392505050565b6000819050919050565b6000819050919050565b6000620001c3620001bd620001b7846200018e565b62000198565b6200018e565b9050919050565b6000819050919050565b620001df83620001a2565b620001f7620001ee82620001ca565b84845462000138565b825550505050565b600090565b6200020e620001ff565b6200021b818484620001d4565b505050565b5b8181101562000243576200023760008262000204565b60018101905062000221565b5050565b601f82111562000292576200025c8162000106565b62000267846200011b565b8101602085101562000277578190505b6200028f62000286856200011b565b83018262000220565b50505b505050565b600082821c905092915050565b6000620002b76000198460080262000297565b1980831691505092915050565b6000620002d28383620002a4565b9150826002028217905092915050565b620002ed8262000068565b67ffffffffffffffff81111562000309576200030862000073565b5b620003158254620000d1565b6200032282828562000247565b600060209050601f8311600181146200035a576000841562000345578287015190505b620003518582620002c4565b865550620003c1565b601f1984166200036a8662000106565b60005b8281101562000394578489015182556001820191506020850194506020810190506200036d565b86831015620003b45784890151620003b0601f891682620002a4565b8355505b6001600288020188555050505b505050505050565b61111d80620003d96000396000f3fe608060405234801561001057600080fd5b506004361061004c5760003560e01c8063117803e3146100515780631d831d5c1461006f5780632782cc7f1461008d5780632c618954146100ab575b600080fd5b6100596100c7565b6040516100669190610951565b60405180910390f35b6100776101a8565b6040516100849190610951565b60405180910390f35b610095610209565b6040516100a29190610951565b60405180910390f35b6100c560048036038101906100c09190610abc565b610292565b005b6060600260009054906101000a900460ff16610118576040517f08c379a000000000000000000000000000000000000000000000000000000000815260040161010f90610b51565b60405180910390fd5b6000805461012590610ba0565b80601f016020809104026020016040519081016040528092919081815260200182805461015190610ba0565b801561019e5780601f106101735761010080835404028352916020019161019e565b820191906000526020600020905b81548152906001019060200180831161018157829003601f168201915b5050505050905090565b6060600260009054906101000a900460ff166101f9576040517f08c379a00000000000000000000000000000000000000000000000000000000081526004016101f090610b51565b60405180910390fd5b61020460015461033e565b905090565b6060600260009054906101000a900460ff1661025a576040517f08c379a000000000000000000000000000000000000000000000000000000000815260040161025190610b51565b60405180910390fd5b6000616989905060006305f5e100826001546102769190610c0a565b6102809190610c7b565b905061028b81610557565b9250505090565b806040516020016102a290610d03565b60405160208183030381529060405280519060200120816040516020016102c99190610d5f565b604051602081830303815290604052805190602001201461031f576040517f08c379a000000000000000000000000000000000000000000000000000000000815260040161031690610dc2565b60405180910390fd5b6001600260006101000a81548160ff0219169083151502179055505050565b606060006305f5e100836103529190610c7b565b905060006305f5e100846103669190610de2565b9050600061037383610761565b90506000819050600081519050600060038261038f9190610c7b565b8261039a9190610e13565b67ffffffffffffffff8111156103b3576103b2610991565b5b6040519080825280601f01601f1916602001820160405280156103e55781602001600182028036833780820191505090505b5090506000805b83811015610510576000600382866104049190610e47565b61040e9190610de2565b14801561041c575060008114155b15610491577f2c0000000000000000000000000000000000000000000000000000000000000083838061044e90610e7b565b94508151811061046157610460610ec3565b5b60200101907effffffffffffffffffffffffffffffffffffffffffffffffffffffffffffff1916908160001a9053505b8481815181106104a4576104a3610ec3565b5b602001015160f81c60f81b8383806104bb90610e7b565b9450815181106104ce576104cd610ec3565b5b60200101907effffffffffffffffffffffffffffffffffffffffffffffffffffffffffffff1916908160001a905350808061050890610e7b565b9150506103ec565b5081610529620f4240886105249190610c7b565b610761565b60405160200161053a929190610fbb565b604051602081830303815290604052975050505050505050919050565b6060600061056483610761565b90506000819050600081519050600681116105a3578260405160200161058a919061108d565b604051602081830303815290604052935050505061075c565b60006003826105b29190610c7b565b826105bd9190610e13565b67ffffffffffffffff8111156105d6576105d5610991565b5b6040519080825280601f01601f1916602001820160405280156106085781602001600182028036833780820191505090505b5090506000805b83811015610733576000600382866106279190610e47565b6106319190610de2565b14801561063f575060008114155b156106b4577f2c0000000000000000000000000000000000000000000000000000000000000083838061067190610e7b565b94508151811061068457610683610ec3565b5b60200101907effffffffffffffffffffffffffffffffffffffffffffffffffffffffffffff1916908160001a9053505b8481815181106106c7576106c6610ec3565b5b602001015160f81c60f81b8383806106de90610e7b565b9450815181106106f1576106f0610ec3565b5b60200101907effffffffffffffffffffffffffffffffffffffffffffffffffffffffffffff1916908160001a905350808061072b90610e7b565b91505061060f565b508160405160200161074591906110ba565b604051602081830303815290604052955050505050505b919050565b6060600082036107a8576040518060400160405280600181526020017f300000000000000000000000000000000000000000000000000000000000000081525090506108bc565b600082905060005b600082146107da5780806107c390610e7b565b915050600a826107d39190610c7b565b91506107b0565b60008167ffffffffffffffff8111156107f6576107f5610991565b5b6040519080825280601f01601f1916602001820160405280156108285781602001600182028036833780820191505090505b5090505b600085146108b5576001826108419190610e47565b9150600a856108509190610de2565b603061085c9190610e13565b60f81b81838151811061087257610871610ec3565b5b60200101907effffffffffffffffffffffffffffffffffffffffffffffffffffffffffffff1916908160001a905350600a856108ae9190610c7b565b945061082c565b8093505050505b919050565b600081519050919050565b600082825260208201905092915050565b60005b838110156108fb5780820151818401526020810190506108e0565b60008484015250505050565b6000601f19601f8301169050919050565b6000610923826108c1565b61092d81856108cc565b935061093d8185602086016108dd565b61094681610907565b840191505092915050565b6000602082019050818103600083015261096b8184610918565b905092915050565b6000604051905090565b600080fd5b600080fd5b600080fd5b600080fd5b7f4e487b7100000000000000000000000000000000000000000000000000000000600052604160045260246000fd5b6109c982610907565b810181811067ffffffffffffffff821117156109e8576109e7610991565b5b80604052505050565b60006109fb610973565b9050610a0782826109c0565b919050565b600067ffffffffffffffff821115610a2757610a26610991565b5b610a3082610907565b9050602081019050919050565b82818337600083830152505050565b6000610a5f610a5a84610a0c565b6109f1565b905082815260208101848484011115610a7b57610a7a61098c565b5b610a86848285610a3d565b509392505050565b600082601f830112610aa357610aa2610987565b5b8135610ab3848260208601610a4c565b91505092915050565b600060208284031215610ad257610ad161097d565b5b600082013567ffffffffffffffff811115610af057610aef610982565b5b610afc84828501610a8e565b91505092915050565b7f506c65617365206c6f67696e2066697273742e00000000000000000000000000600082015250565b6000610b3b6013836108cc565b9150610b4682610b05565b602082019050919050565b60006020820190508181036000830152610b6a81610b2e565b9050919050565b7f4e487b7100000000000000000000000000000000000000000000000000000000600052602260045260246000fd5b60006002820490506001821680610bb857607f821691505b602082108103610bcb57610bca610b71565b5b50919050565b6000819050919050565b7f4e487b7100000000000000000000000000000000000000000000000000000000600052601160045260246000fd5b6000610c1582610bd1565b9150610c2083610bd1565b9250828202610c2e81610bd1565b91508282048414831517610c4557610c44610bdb565b5b5092915050565b7f4e487b7100000000000000000000000000000000000000000000000000000000600052601260045260246000fd5b6000610c8682610bd1565b9150610c9183610bd1565b925082610ca157610ca0610c4c565b5b828204905092915050565b600081905092915050565b7f58797e30316b212a000000000000000000000000000000000000000000000000600082015250565b6000610ced600883610cac565b9150610cf882610cb7565b600882019050919050565b6000610d0e82610ce0565b9150819050919050565b600081519050919050565b600081905092915050565b6000610d3982610d18565b610d438185610d23565b9350610d538185602086016108dd565b80840191505092915050565b6000610d6b8284610d2e565b915081905092915050565b7f496e636f72726563742070617373776f72642e00000000000000000000000000600082015250565b6000610dac6013836108cc565b9150610db782610d76565b602082019050919050565b60006020820190508181036000830152610ddb81610d9f565b9050919050565b6000610ded82610bd1565b9150610df883610bd1565b925082610e0857610e07610c4c565b5b828206905092915050565b6000610e1e82610bd1565b9150610e2983610bd1565b9250828201905080821115610e4157610e40610bdb565b5b92915050565b6000610e5282610bd1565b9150610e5d83610bd1565b9250828203905081811115610e7557610e74610bdb565b5b92915050565b6000610e8682610bd1565b91507fffffffffffffffffffffffffffffffffffffffffffffffffffffffffffffffff8203610eb857610eb7610bdb565b5b600182019050919050565b7f4e487b7100000000000000000000000000000000000000000000000000000000600052603260045260246000fd5b7f2e00000000000000000000000000000000000000000000000000000000000000600082015250565b6000610f28600183610cac565b9150610f3382610ef2565b600182019050919050565b6000610f49826108c1565b610f538185610cac565b9350610f638185602086016108dd565b80840191505092915050565b7f3020425443000000000000000000000000000000000000000000000000000000600082015250565b6000610fa5600583610cac565b9150610fb082610f6f565b600582019050919050565b6000610fc78285610d2e565b9150610fd282610f1b565b9150610fde8284610f3e565b9150610fe982610f98565b91508190509392505050565b7f2400000000000000000000000000000000000000000000000000000000000000600082015250565b600061102b600183610cac565b915061103682610ff5565b600182019050919050565b7f2e30300000000000000000000000000000000000000000000000000000000000600082015250565b6000611077600383610cac565b915061108282611041565b600382019050919050565b60006110988261101e565b91506110a48284610f3e565b91506110af8261106a565b915081905092915050565b60006110c58261101e565b91506110d18284610d2e565b91506110dc8261106a565b91508190509291505056fea2646970667358221220b3fef4c2444191394c5137d4d5ed4c1664cbb8d15eb65636342c5eff3bba4c9d64736f6c634300081200334c65646765722d4e616e6f2d5820285265636f676e697a656420484152445741524529",
		"opcodes": "PUSH1 0x80 PUSH1 0x40 MSTORE PUSH1 0x40 MLOAD DUP1 PUSH1 0x60 ADD PUSH1 0x40 MSTORE DUP1 PUSH1 0x23 DUP2 MSTORE PUSH1 0x20 ADD PUSH3 0x14F6 PUSH1 0x23 SWAP2 CODECOPY PUSH1 0x0 SWAP1 DUP2 PUSH3 0x2E SWAP2 SWAP1 PUSH3 0x2E2 JUMP JUMPDEST POP PUSH6 0x4E25ED2E700 PUSH1 0x1 SSTORE PUSH1 0x0 PUSH1 0x2 PUSH1 0x0 PUSH2 0x100 EXP DUP2 SLOAD DUP2 PUSH1 0xFF MUL NOT AND SWAP1 DUP4 ISZERO ISZERO MUL OR SWAP1 SSTORE POP CALLVALUE DUP1 ISZERO PUSH3 0x61 JUMPI PUSH1 0x0 DUP1 REVERT JUMPDEST POP PUSH3 0x3C9 JUMP JUMPDEST PUSH1 0x0 DUP2 MLOAD SWAP1 POP SWAP2 SWAP1 POP JUMP JUMPDEST PUSH32 0x4E487B7100000000000000000000000000000000000000000000000000000000 PUSH1 0x0 MSTORE PUSH1 0x41 PUSH1 0x4 MSTORE PUSH1 0x24 PUSH1 0x0 REVERT JUMPDEST PUSH32 0x4E487B7100000000000000000000000000000000000000000000000000000000 PUSH1 0x0 MSTORE PUSH1 0x22 PUSH1 0x4 MSTORE PUSH1 0x24 PUSH1 0x0 REVERT JUMPDEST PUSH1 0x0 PUSH1 0x2 DUP3 DIV SWAP1 POP PUSH1 0x1 DUP3 AND DUP1 PUSH3 0xEA JUMPI PUSH1 0x7F DUP3 AND SWAP2 POP JUMPDEST PUSH1 0x20 DUP3 LT DUP2 SUB PUSH3 0x100 JUMPI PUSH3 0xFF PUSH3 0xA2 JUMP JUMPDEST JUMPDEST POP SWAP2 SWAP1 POP JUMP JUMPDEST PUSH1 0x0 DUP2 SWAP1 POP DUP2 PUSH1 0x0 MSTORE PUSH1 0x20 PUSH1 0x0 KECCAK256 SWAP1 POP SWAP2 SWAP1 POP JUMP JUMPDEST PUSH1 0x0 PUSH1 0x20 PUSH1 0x1F DUP4 ADD DIV SWAP1 POP SWAP2 SWAP1 POP JUMP JUMPDEST PUSH1 0x0 DUP3 DUP3 SHL SWAP1 POP SWAP3 SWAP2 POP POP JUMP JUMPDEST PUSH1 0x0 PUSH1 0x8 DUP4 MUL PUSH3 0x16A PUSH32 0xFFFFFFFFFFFFFFFFFFFFFFFFFFFFFFFFFFFFFFFFFFFFFFFFFFFFFFFFFFFFFFFF DUP3 PUSH3 0x12B JUMP JUMPDEST PUSH3 0x176 DUP7 DUP4 PUSH3 0x12B JUMP JUMPDEST SWAP6 POP DUP1 NOT DUP5 AND SWAP4 POP DUP1 DUP7 AND DUP5 OR SWAP3 POP POP POP SWAP4 SWAP3 POP POP POP JUMP JUMPDEST PUSH1 0x0 DUP2 SWAP1 POP SWAP2 SWAP1 POP JUMP JUMPDEST PUSH1 0x0 DUP2 SWAP1 POP SWAP2 SWAP1 POP JUMP JUMPDEST PUSH1 0x0 PUSH3 0x1C3 PUSH3 0x1BD PUSH3 0x1B7 DUP5 PUSH3 0x18E JUMP JUMPDEST PUSH3 0x198 JUMP JUMPDEST PUSH3 0x18E JUMP JUMPDEST SWAP1 POP SWAP2 SWAP1 POP JUMP JUMPDEST PUSH1 0x0 DUP2 SWAP1 POP SWAP2 SWAP1 POP JUMP JUMPDEST PUSH3 0x1DF DUP4 PUSH3 0x1A2 JUMP JUMPDEST PUSH3 0x1F7 PUSH3 0x1EE DUP3 PUSH3 0x1CA JUMP JUMPDEST DUP5 DUP5 SLOAD PUSH3 0x138 JUMP JUMPDEST DUP3 SSTORE POP POP POP POP JUMP JUMPDEST PUSH1 0x0 SWAP1 JUMP JUMPDEST PUSH3 0x20E PUSH3 0x1FF JUMP JUMPDEST PUSH3 0x21B DUP2 DUP5 DUP5 PUSH3 0x1D4 JUMP JUMPDEST POP POP POP JUMP JUMPDEST JUMPDEST DUP2 DUP2 LT ISZERO PUSH3 0x243 JUMPI PUSH3 0x237 PUSH1 0x0 DUP3 PUSH3 0x204 JUMP JUMPDEST PUSH1 0x1 DUP2 ADD SWAP1 POP PUSH3 0x221 JUMP JUMPDEST POP POP JUMP JUMPDEST PUSH1 0x1F DUP3 GT ISZERO PUSH3 0x292 JUMPI PUSH3 0x25C DUP2 PUSH3 0x106 JUMP JUMPDEST PUSH3 0x267 DUP5 PUSH3 0x11B JUMP JUMPDEST DUP2 ADD PUSH1 0x20 DUP6 LT ISZERO PUSH3 0x277 JUMPI DUP2 SWAP1 POP JUMPDEST PUSH3 0x28F PUSH3 0x286 DUP6 PUSH3 0x11B JUMP JUMPDEST DUP4 ADD DUP3 PUSH3 0x220 JUMP JUMPDEST POP POP JUMPDEST POP POP POP JUMP JUMPDEST PUSH1 0x0 DUP3 DUP3 SHR SWAP1 POP SWAP3 SWAP2 POP POP JUMP JUMPDEST PUSH1 0x0 PUSH3 0x2B7 PUSH1 0x0 NOT DUP5 PUSH1 0x8 MUL PUSH3 0x297 JUMP JUMPDEST NOT DUP1 DUP4 AND SWAP2 POP POP SWAP3 SWAP2 POP POP JUMP JUMPDEST PUSH1 0x0 PUSH3 0x2D2 DUP4 DUP4 PUSH3 0x2A4 JUMP JUMPDEST SWAP2 POP DUP3 PUSH1 0x2 MUL DUP3 OR SWAP1 POP SWAP3 SWAP2 POP POP JUMP JUMPDEST PUSH3 0x2ED DUP3 PUSH3 0x68 JUMP JUMPDEST PUSH8 0xFFFFFFFFFFFFFFFF DUP2 GT ISZERO PUSH3 0x309 JUMPI PUSH3 0x308 PUSH3 0x73 JUMP JUMPDEST JUMPDEST PUSH3 0x315 DUP3 SLOAD PUSH3 0xD1 JUMP JUMPDEST PUSH3 0x322 DUP3 DUP3 DUP6 PUSH3 0x247 JUMP JUMPDEST PUSH1 0x0 PUSH1 0x20 SWAP1 POP PUSH1 0x1F DUP4 GT PUSH1 0x1 DUP2 EQ PUSH3 0x35A JUMPI PUSH1 0x0 DUP5 ISZERO PUSH3 0x345 JUMPI DUP3 DUP8 ADD MLOAD SWAP1 POP JUMPDEST PUSH3 0x351 DUP6 DUP3 PUSH3 0x2C4 JUMP JUMPDEST DUP7 SSTORE POP PUSH3 0x3C1 JUMP JUMPDEST PUSH1 0x1F NOT DUP5 AND PUSH3 0x36A DUP7 PUSH3 0x106 JUMP JUMPDEST PUSH1 0x0 JUMPDEST DUP3 DUP2 LT ISZERO PUSH3 0x394 JUMPI DUP5 DUP10 ADD MLOAD DUP3 SSTORE PUSH1 0x1 DUP3 ADD SWAP2 POP PUSH1 0x20 DUP6 ADD SWAP5 POP PUSH1 0x20 DUP2 ADD SWAP1 POP PUSH3 0x36D JUMP JUMPDEST DUP7 DUP4 LT ISZERO PUSH3 0x3B4 JUMPI DUP5 DUP10 ADD MLOAD PUSH3 0x3B0 PUSH1 0x1F DUP10 AND DUP3 PUSH3 0x2A4 JUMP JUMPDEST DUP4 SSTORE POP JUMPDEST PUSH1 0x1 PUSH1 0x2 DUP9 MUL ADD DUP9 SSTORE POP POP POP JUMPDEST POP POP POP POP POP POP JUMP JUMPDEST PUSH2 0x111D DUP1 PUSH3 0x3D9 PUSH1 0x0 CODECOPY PUSH1 0x0 RETURN INVALID PUSH1 0x80 PUSH1 0x40 MSTORE CALLVALUE DUP1 ISZERO PUSH2 0x10 JUMPI PUSH1 0x0 DUP1 REVERT JUMPDEST POP PUSH1 0x4 CALLDATASIZE LT PUSH2 0x4C JUMPI PUSH1 0x0 CALLDATALOAD PUSH1 0xE0 SHR DUP1 PUSH4 0x117803E3 EQ PUSH2 0x51 JUMPI DUP1 PUSH4 0x1D831D5C EQ PUSH2 0x6F JUMPI DUP1 PUSH4 0x2782CC7F EQ PUSH2 0x8D JUMPI DUP1 PUSH4 0x2C618954 EQ PUSH2 0xAB JUMPI JUMPDEST PUSH1 0x0 DUP1 REVERT JUMPDEST PUSH2 0x59 PUSH2 0xC7 JUMP JUMPDEST PUSH1 0x40 MLOAD PUSH2 0x66 SWAP2 SWAP1 PUSH2 0x951 JUMP JUMPDEST PUSH1 0x40 MLOAD DUP1 SWAP2 SUB SWAP1 RETURN JUMPDEST PUSH2 0x77 PUSH2 0x1A8 JUMP JUMPDEST PUSH1 0x40 MLOAD PUSH2 0x84 SWAP2 SWAP1 PUSH2 0x951 JUMP JUMPDEST PUSH1 0x40 MLOAD DUP1 SWAP2 SUB SWAP1 RETURN JUMPDEST PUSH2 0x95 PUSH2 0x209 JUMP JUMPDEST PUSH1 0x40 MLOAD PUSH2 0xA2 SWAP2 SWAP1 PUSH2 0x951 JUMP JUMPDEST PUSH1 0x40 MLOAD DUP1 SWAP2 SUB SWAP1 RETURN JUMPDEST PUSH2 0xC5 PUSH1 0x4 DUP1 CALLDATASIZE SUB DUP2 ADD SWAP1 PUSH2 0xC0 SWAP2 SWAP1 PUSH2 0xABC JUMP JUMPDEST PUSH2 0x292 JUMP JUMPDEST STOP JUMPDEST PUSH1 0x60 PUSH1 0x2 PUSH1 0x0 SWAP1 SLOAD SWAP1 PUSH2 0x100 EXP SWAP1 DIV PUSH1 0xFF AND PUSH2 0x118 JUMPI PUSH1 0x40 MLOAD PUSH32 0x8C379A000000000000000000000000000000000000000000000000000000000 DUP2 MSTORE PUSH1 0x4 ADD PUSH2 0x10F SWAP1 PUSH2 0xB51 JUMP JUMPDEST PUSH1 0x40 MLOAD DUP1 SWAP2 SUB SWAP1 REVERT JUMPDEST PUSH1 0x0 DUP1 SLOAD PUSH2 0x125 SWAP1 PUSH2 0xBA0 JUMP JUMPDEST DUP1 PUSH1 0x1F ADD PUSH1 0x20 DUP1 SWAP2 DIV MUL PUSH1 0x20 ADD PUSH1 0x40 MLOAD SWAP1 DUP2 ADD PUSH1 0x40 MSTORE DUP1 SWAP3 SWAP2 SWAP1 DUP2 DUP2 MSTORE PUSH1 0x20 ADD DUP3 DUP1 SLOAD PUSH2 0x151 SWAP1 PUSH2 0xBA0 JUMP JUMPDEST DUP1 ISZERO PUSH2 0x19E JUMPI DUP1 PUSH1 0x1F LT PUSH2 0x173 JUMPI PUSH2 0x100 DUP1 DUP4 SLOAD DIV MUL DUP4 MSTORE SWAP2 PUSH1 0x20 ADD SWAP2 PUSH2 0x19E JUMP JUMPDEST DUP3 ADD SWAP2 SWAP1 PUSH1 0x0 MSTORE PUSH1 0x20 PUSH1 0x0 KECCAK256 SWAP1 JUMPDEST DUP2 SLOAD DUP2 MSTORE SWAP1 PUSH1 0x1 ADD SWAP1 PUSH1 0x20 ADD DUP1 DUP4 GT PUSH2 0x181 JUMPI DUP3 SWAP1 SUB PUSH1 0x1F AND DUP3 ADD SWAP2 JUMPDEST POP POP POP POP POP SWAP1 POP SWAP1 JUMP JUMPDEST PUSH1 0x60 PUSH1 0x2 PUSH1 0x0 SWAP1 SLOAD SWAP1 PUSH2 0x100 EXP SWAP1 DIV PUSH1 0xFF AND PUSH2 0x1F9 JUMPI PUSH1 0x40 MLOAD PUSH32 0x8C379A000000000000000000000000000000000000000000000000000000000 DUP2 MSTORE PUSH1 0x4 ADD PUSH2 0x1F0 SWAP1 PUSH2 0xB51 JUMP JUMPDEST PUSH1 0x40 MLOAD DUP1 SWAP2 SUB SWAP1 REVERT JUMPDEST PUSH2 0x204 PUSH1 0x1 SLOAD PUSH2 0x33E JUMP JUMPDEST SWAP1 POP SWAP1 JUMP JUMPDEST PUSH1 0x60 PUSH1 0x2 PUSH1 0x0 SWAP1 SLOAD SWAP1 PUSH2 0x100 EXP SWAP1 DIV PUSH1 0xFF AND PUSH2 0x25A JUMPI PUSH1 0x40 MLOAD PUSH32 0x8C379A000000000000000000000000000000000000000000000000000000000 DUP2 MSTORE PUSH1 0x4 ADD PUSH2 0x251 SWAP1 PUSH2 0xB51 JUMP JUMPDEST PUSH1 0x40 MLOAD DUP1 SWAP2 SUB SWAP1 REVERT JUMPDEST PUSH1 0x0 PUSH2 0x6989 SWAP1 POP PUSH1 0x0 PUSH4 0x5F5E100 DUP3 PUSH1 0x1 SLOAD PUSH2 0x276 SWAP2 SWAP1 PUSH2 0xC0A JUMP JUMPDEST PUSH2 0x280 SWAP2 SWAP1 PUSH2 0xC7B JUMP JUMPDEST SWAP1 POP PUSH2 0x28B DUP2 PUSH2 0x557 JUMP JUMPDEST SWAP3 POP POP POP SWAP1 JUMP JUMPDEST DUP1 PUSH1 0x40 MLOAD PUSH1 0x20 ADD PUSH2 0x2A2 SWAP1 PUSH2 0xD03 JUMP JUMPDEST PUSH1 0x40 MLOAD PUSH1 0x20 DUP2 DUP4 SUB SUB DUP2 MSTORE SWAP1 PUSH1 0x40 MSTORE DUP1 MLOAD SWAP1 PUSH1 0x20 ADD KECCAK256 DUP2 PUSH1 0x40 MLOAD PUSH1 0x20 ADD PUSH2 0x2C9 SWAP2 SWAP1 PUSH2 0xD5F JUMP JUMPDEST PUSH1 0x40 MLOAD PUSH1 0x20 DUP2 DUP4 SUB SUB DUP2 MSTORE SWAP1 PUSH1 0x40 MSTORE DUP1 MLOAD SWAP1 PUSH1 0x20 ADD KECCAK256 EQ PUSH2 0x31F JUMPI PUSH1 0x40 MLOAD PUSH32 0x8C379A000000000000000000000000000000000000000000000000000000000 DUP2 MSTORE PUSH1 0x4 ADD PUSH2 0x316 SWAP1 PUSH2 0xDC2 JUMP JUMPDEST PUSH1 0x40 MLOAD DUP1 SWAP2 SUB SWAP1 REVERT JUMPDEST PUSH1 0x1 PUSH1 0x2 PUSH1 0x0 PUSH2 0x100 EXP DUP2 SLOAD DUP2 PUSH1 0xFF MUL NOT AND SWAP1 DUP4 ISZERO ISZERO MUL OR SWAP1 SSTORE POP POP POP JUMP JUMPDEST PUSH1 0x60 PUSH1 0x0 PUSH4 0x5F5E100 DUP4 PUSH2 0x352 SWAP2 SWAP1 PUSH2 0xC7B JUMP JUMPDEST SWAP1 POP PUSH1 0x0 PUSH4 0x5F5E100 DUP5 PUSH2 0x366 SWAP2 SWAP1 PUSH2 0xDE2 JUMP JUMPDEST SWAP1 POP PUSH1 0x0 PUSH2 0x373 DUP4 PUSH2 0x761 JUMP JUMPDEST SWAP1 POP PUSH1 0x0 DUP2 SWAP1 POP PUSH1 0x0 DUP2 MLOAD SWAP1 POP PUSH1 0x0 PUSH1 0x3 DUP3 PUSH2 0x38F SWAP2 SWAP1 PUSH2 0xC7B JUMP JUMPDEST DUP3 PUSH2 0x39A SWAP2 SWAP1 PUSH2 0xE13 JUMP JUMPDEST PUSH8 0xFFFFFFFFFFFFFFFF DUP2 GT ISZERO PUSH2 0x3B3 JUMPI PUSH2 0x3B2 PUSH2 0x991 JUMP JUMPDEST JUMPDEST PUSH1 0x40 MLOAD SWAP1 DUP1 DUP3 MSTORE DUP1 PUSH1 0x1F ADD PUSH1 0x1F NOT AND PUSH1 0x20 ADD DUP3 ADD PUSH1 0x40 MSTORE DUP1 ISZERO PUSH2 0x3E5 JUMPI DUP2 PUSH1 0x20 ADD PUSH1 0x1 DUP3 MUL DUP1 CALLDATASIZE DUP4 CALLDATACOPY DUP1 DUP3 ADD SWAP2 POP POP SWAP1 POP JUMPDEST POP SWAP1 POP PUSH1 0x0 DUP1 JUMPDEST DUP4 DUP2 LT ISZERO PUSH2 0x510 JUMPI PUSH1 0x0 PUSH1 0x3 DUP3 DUP7 PUSH2 0x404 SWAP2 SWAP1 PUSH2 0xE47 JUMP JUMPDEST PUSH2 0x40E SWAP2 SWAP1 PUSH2 0xDE2 JUMP JUMPDEST EQ DUP1 ISZERO PUSH2 0x41C JUMPI POP PUSH1 0x0 DUP2 EQ ISZERO JUMPDEST ISZERO PUSH2 0x491 JUMPI PUSH32 0x2C00000000000000000000000000000000000000000000000000000000000000 DUP4 DUP4 DUP1 PUSH2 0x44E SWAP1 PUSH2 0xE7B JUMP JUMPDEST SWAP5 POP DUP2 MLOAD DUP2 LT PUSH2 0x461 JUMPI PUSH2 0x460 PUSH2 0xEC3 JUMP JUMPDEST JUMPDEST PUSH1 0x20 ADD ADD SWAP1 PUSH31 0xFFFFFFFFFFFFFFFFFFFFFFFFFFFFFFFFFFFFFFFFFFFFFFFFFFFFFFFFFFFFFF NOT AND SWAP1 DUP2 PUSH1 0x0 BYTE SWAP1 MSTORE8 POP JUMPDEST DUP5 DUP2 DUP2 MLOAD DUP2 LT PUSH2 0x4A4 JUMPI PUSH2 0x4A3 PUSH2 0xEC3 JUMP JUMPDEST JUMPDEST PUSH1 0x20 ADD ADD MLOAD PUSH1 0xF8 SHR PUSH1 0xF8 SHL DUP4 DUP4 DUP1 PUSH2 0x4BB SWAP1 PUSH2 0xE7B JUMP JUMPDEST SWAP5 POP DUP2 MLOAD DUP2 LT PUSH2 0x4CE JUMPI PUSH2 0x4CD PUSH2 0xEC3 JUMP JUMPDEST JUMPDEST PUSH1 0x20 ADD ADD SWAP1 PUSH31 0xFFFFFFFFFFFFFFFFFFFFFFFFFFFFFFFFFFFFFFFFFFFFFFFFFFFFFFFFFFFFFF NOT AND SWAP1 DUP2 PUSH1 0x0 BYTE SWAP1 MSTORE8 POP DUP1 DUP1 PUSH2 0x508 SWAP1 PUSH2 0xE7B JUMP JUMPDEST SWAP2 POP POP PUSH2 0x3EC JUMP JUMPDEST POP DUP2 PUSH2 0x529 PUSH3 0xF4240 DUP9 PUSH2 0x524 SWAP2 SWAP1 PUSH2 0xC7B JUMP JUMPDEST PUSH2 0x761 JUMP JUMPDEST PUSH1 0x40 MLOAD PUSH1 0x20 ADD PUSH2 0x53A SWAP3 SWAP2 SWAP1 PUSH2 0xFBB JUMP JUMPDEST PUSH1 0x40 MLOAD PUSH1 0x20 DUP2 DUP4 SUB SUB DUP2 MSTORE SWAP1 PUSH1 0x40 MSTORE SWAP8 POP POP POP POP POP POP POP POP SWAP2 SWAP1 POP JUMP JUMPDEST PUSH1 0x60 PUSH1 0x0 PUSH2 0x564 DUP4 PUSH2 0x761 JUMP JUMPDEST SWAP1 POP PUSH1 0x0 DUP2 SWAP1 POP PUSH1 0x0 DUP2 MLOAD SWAP1 POP PUSH1 0x6 DUP2 GT PUSH2 0x5A3 JUMPI DUP3 PUSH1 0x40 MLOAD PUSH1 0x20 ADD PUSH2 0x58A SWAP2 SWAP1 PUSH2 0x108D JUMP JUMPDEST PUSH1 0x40 MLOAD PUSH1 0x20 DUP2 DUP4 SUB SUB DUP2 MSTORE SWAP1 PUSH1 0x40 MSTORE SWAP4 POP POP POP POP PUSH2 0x75C JUMP JUMPDEST PUSH1 0x0 PUSH1 0x3 DUP3 PUSH2 0x5B2 SWAP2 SWAP1 PUSH2 0xC7B JUMP JUMPDEST DUP3 PUSH2 0x5BD SWAP2 SWAP1 PUSH2 0xE13 JUMP JUMPDEST PUSH8 0xFFFFFFFFFFFFFFFF DUP2 GT ISZERO PUSH2 0x5D6 JUMPI PUSH2 0x5D5 PUSH2 0x991 JUMP JUMPDEST JUMPDEST PUSH1 0x40 MLOAD SWAP1 DUP1 DUP3 MSTORE DUP1 PUSH1 0x1F ADD PUSH1 0x1F NOT AND PUSH1 0x20 ADD DUP3 ADD PUSH1 0x40 MSTORE DUP1 ISZERO PUSH2 0x608 JUMPI DUP2 PUSH1 0x20 ADD PUSH1 0x1 DUP3 MUL DUP1 CALLDATASIZE DUP4 CALLDATACOPY DUP1 DUP3 ADD SWAP2 POP POP SWAP1 POP JUMPDEST POP SWAP1 POP PUSH1 0x0 DUP1 JUMPDEST DUP4 DUP2 LT ISZERO PUSH2 0x733 JUMPI PUSH1 0x0 PUSH1 0x3 DUP3 DUP7 PUSH2 0x627 SWAP2 SWAP1 PUSH2 0xE47 JUMP JUMPDEST PUSH2 0x631 SWAP2 SWAP1 PUSH2 0xDE2 JUMP JUMPDEST EQ DUP1 ISZERO PUSH2 0x63F JUMPI POP PUSH1 0x0 DUP2 EQ ISZERO JUMPDEST ISZERO PUSH2 0x6B4 JUMPI PUSH32 0x2C00000000000000000000000000000000000000000000000000000000000000 DUP4 DUP4 DUP1 PUSH2 0x671 SWAP1 PUSH2 0xE7B JUMP JUMPDEST SWAP5 POP DUP2 MLOAD DUP2 LT PUSH2 0x684 JUMPI PUSH2 0x683 PUSH2 0xEC3 JUMP JUMPDEST JUMPDEST PUSH1 0x20 ADD ADD SWAP1 PUSH31 0xFFFFFFFFFFFFFFFFFFFFFFFFFFFFFFFFFFFFFFFFFFFFFFFFFFFFFFFFFFFFFF NOT AND SWAP1 DUP2 PUSH1 0x0 BYTE SWAP1 MSTORE8 POP JUMPDEST DUP5 DUP2 DUP2 MLOAD DUP2 LT PUSH2 0x6C7 JUMPI PUSH2 0x6C6 PUSH2 0xEC3 JUMP JUMPDEST JUMPDEST PUSH1 0x20 ADD ADD MLOAD PUSH1 0xF8 SHR PUSH1 0xF8 SHL DUP4 DUP4 DUP1 PUSH2 0x6DE SWAP1 PUSH2 0xE7B JUMP JUMPDEST SWAP5 POP DUP2 MLOAD DUP2 LT PUSH2 0x6F1 JUMPI PUSH2 0x6F0 PUSH2 0xEC3 JUMP JUMPDEST JUMPDEST PUSH1 0x20 ADD ADD SWAP1 PUSH31 0xFFFFFFFFFFFFFFFFFFFFFFFFFFFFFFFFFFFFFFFFFFFFFFFFFFFFFFFFFFFFFF NOT AND SWAP1 DUP2 PUSH1 0x0 BYTE SWAP1 MSTORE8 POP DUP1 DUP1 PUSH2 0x72B SWAP1 PUSH2 0xE7B JUMP JUMPDEST SWAP2 POP POP PUSH2 0x60F JUMP JUMPDEST POP DUP2 PUSH1 0x40 MLOAD PUSH1 0x20 ADD PUSH2 0x745 SWAP2 SWAP1 PUSH2 0x10BA JUMP JUMPDEST PUSH1 0x40 MLOAD PUSH1 0x20 DUP2 DUP4 SUB SUB DUP2 MSTORE SWAP1 PUSH1 0x40 MSTORE SWAP6 POP POP POP POP POP POP JUMPDEST SWAP2 SWAP1 POP JUMP JUMPDEST PUSH1 0x60 PUSH1 0x0 DUP3 SUB PUSH2 0x7A8 JUMPI PUSH1 0x40 MLOAD DUP1 PUSH1 0x40 ADD PUSH1 0x40 MSTORE DUP1 PUSH1 0x1 DUP2 MSTORE PUSH1 0x20 ADD PUSH32 0x3000000000000000000000000000000000000000000000000000000000000000 DUP2 MSTORE POP SWAP1 POP PUSH2 0x8BC JUMP JUMPDEST PUSH1 0x0 DUP3 SWAP1 POP PUSH1 0x0 JUMPDEST PUSH1 0x0 DUP3 EQ PUSH2 0x7DA JUMPI DUP1 DUP1 PUSH2 0x7C3 SWAP1 PUSH2 0xE7B JUMP JUMPDEST SWAP2 POP POP PUSH1 0xA DUP3 PUSH2 0x7D3 SWAP2 SWAP1 PUSH2 0xC7B JUMP JUMPDEST SWAP2 POP PUSH2 0x7B0 JUMP JUMPDEST PUSH1 0x0 DUP2 PUSH8 0xFFFFFFFFFFFFFFFF DUP2 GT ISZERO PUSH2 0x7F6 JUMPI PUSH2 0x7F5 PUSH2 0x991 JUMP JUMPDEST JUMPDEST PUSH1 0x40 MLOAD SWAP1 DUP1 DUP3 MSTORE DUP1 PUSH1 0x1F ADD PUSH1 0x1F NOT AND PUSH1 0x20 ADD DUP3 ADD PUSH1 0x40 MSTORE DUP1 ISZERO PUSH2 0x828 JUMPI DUP2 PUSH1 0x20 ADD PUSH1 0x1 DUP3 MUL DUP1 CALLDATASIZE DUP4 CALLDATACOPY DUP1 DUP3 ADD SWAP2 POP POP SWAP1 POP JUMPDEST POP SWAP1 POP JUMPDEST PUSH1 0x0 DUP6 EQ PUSH2 0x8B5 JUMPI PUSH1 0x1 DUP3 PUSH2 0x841 SWAP2 SWAP1 PUSH2 0xE47 JUMP JUMPDEST SWAP2 POP PUSH1 0xA DUP6 PUSH2 0x850 SWAP2 SWAP1 PUSH2 0xDE2 JUMP JUMPDEST PUSH1 0x30 PUSH2 0x85C SWAP2 SWAP1 PUSH2 0xE13 JUMP JUMPDEST PUSH1 0xF8 SHL DUP2 DUP4 DUP2 MLOAD DUP2 LT PUSH2 0x872 JUMPI PUSH2 0x871 PUSH2 0xEC3 JUMP JUMPDEST JUMPDEST PUSH1 0x20 ADD ADD SWAP1 PUSH31 0xFFFFFFFFFFFFFFFFFFFFFFFFFFFFFFFFFFFFFFFFFFFFFFFFFFFFFFFFFFFFFF NOT AND SWAP1 DUP2 PUSH1 0x0 BYTE SWAP1 MSTORE8 POP PUSH1 0xA DUP6 PUSH2 0x8AE SWAP2 SWAP1 PUSH2 0xC7B JUMP JUMPDEST SWAP5 POP PUSH2 0x82C JUMP JUMPDEST DUP1 SWAP4 POP POP POP POP JUMPDEST SWAP2 SWAP1 POP JUMP JUMPDEST PUSH1 0x0 DUP2 MLOAD SWAP1 POP SWAP2 SWAP1 POP JUMP JUMPDEST PUSH1 0x0 DUP3 DUP3 MSTORE PUSH1 0x20 DUP3 ADD SWAP1 POP SWAP3 SWAP2 POP POP JUMP JUMPDEST PUSH1 0x0 JUMPDEST DUP4 DUP2 LT ISZERO PUSH2 0x8FB JUMPI DUP1 DUP3 ADD MLOAD DUP2 DUP5 ADD MSTORE PUSH1 0x20 DUP2 ADD SWAP1 POP PUSH2 0x8E0 JUMP JUMPDEST PUSH1 0x0 DUP5 DUP5 ADD MSTORE POP POP POP POP JUMP JUMPDEST PUSH1 0x0 PUSH1 0x1F NOT PUSH1 0x1F DUP4 ADD AND SWAP1 POP SWAP2 SWAP1 POP JUMP JUMPDEST PUSH1 0x0 PUSH2 0x923 DUP3 PUSH2 0x8C1 JUMP JUMPDEST PUSH2 0x92D DUP2 DUP6 PUSH2 0x8CC JUMP JUMPDEST SWAP4 POP PUSH2 0x93D DUP2 DUP6 PUSH1 0x20 DUP7 ADD PUSH2 0x8DD JUMP JUMPDEST PUSH2 0x946 DUP2 PUSH2 0x907 JUMP JUMPDEST DUP5 ADD SWAP2 POP POP SWAP3 SWAP2 POP POP JUMP JUMPDEST PUSH1 0x0 PUSH1 0x20 DUP3 ADD SWAP1 POP DUP2 DUP2 SUB PUSH1 0x0 DUP4 ADD MSTORE PUSH2 0x96B DUP2 DUP5 PUSH2 0x918 JUMP JUMPDEST SWAP1 POP SWAP3 SWAP2 POP POP JUMP JUMPDEST PUSH1 0x0 PUSH1 0x40 MLOAD SWAP1 POP SWAP1 JUMP JUMPDEST PUSH1 0x0 DUP1 REVERT JUMPDEST PUSH1 0x0 DUP1 REVERT JUMPDEST PUSH1 0x0 DUP1 REVERT JUMPDEST PUSH1 0x0 DUP1 REVERT JUMPDEST PUSH32 0x4E487B7100000000000000000000000000000000000000000000000000000000 PUSH1 0x0 MSTORE PUSH1 0x41 PUSH1 0x4 MSTORE PUSH1 0x24 PUSH1 0x0 REVERT JUMPDEST PUSH2 0x9C9 DUP3 PUSH2 0x907 JUMP JUMPDEST DUP2 ADD DUP2 DUP2 LT PUSH8 0xFFFFFFFFFFFFFFFF DUP3 GT OR ISZERO PUSH2 0x9E8 JUMPI PUSH2 0x9E7 PUSH2 0x991 JUMP JUMPDEST JUMPDEST DUP1 PUSH1 0x40 MSTORE POP POP POP JUMP JUMPDEST PUSH1 0x0 PUSH2 0x9FB PUSH2 0x973 JUMP JUMPDEST SWAP1 POP PUSH2 0xA07 DUP3 DUP3 PUSH2 0x9C0 JUMP JUMPDEST SWAP2 SWAP1 POP JUMP JUMPDEST PUSH1 0x0 PUSH8 0xFFFFFFFFFFFFFFFF DUP3 GT ISZERO PUSH2 0xA27 JUMPI PUSH2 0xA26 PUSH2 0x991 JUMP JUMPDEST JUMPDEST PUSH2 0xA30 DUP3 PUSH2 0x907 JUMP JUMPDEST SWAP1 POP PUSH1 0x20 DUP2 ADD SWAP1 POP SWAP2 SWAP1 POP JUMP JUMPDEST DUP3 DUP2 DUP4 CALLDATACOPY PUSH1 0x0 DUP4 DUP4 ADD MSTORE POP POP POP JUMP JUMPDEST PUSH1 0x0 PUSH2 0xA5F PUSH2 0xA5A DUP5 PUSH2 0xA0C JUMP JUMPDEST PUSH2 0x9F1 JUMP JUMPDEST SWAP1 POP DUP3 DUP2 MSTORE PUSH1 0x20 DUP2 ADD DUP5 DUP5 DUP5 ADD GT ISZERO PUSH2 0xA7B JUMPI PUSH2 0xA7A PUSH2 0x98C JUMP JUMPDEST JUMPDEST PUSH2 0xA86 DUP5 DUP3 DUP6 PUSH2 0xA3D JUMP JUMPDEST POP SWAP4 SWAP3 POP POP POP JUMP JUMPDEST PUSH1 0x0 DUP3 PUSH1 0x1F DUP4 ADD SLT PUSH2 0xAA3 JUMPI PUSH2 0xAA2 PUSH2 0x987 JUMP JUMPDEST JUMPDEST DUP2 CALLDATALOAD PUSH2 0xAB3 DUP5 DUP3 PUSH1 0x20 DUP7 ADD PUSH2 0xA4C JUMP JUMPDEST SWAP2 POP POP SWAP3 SWAP2 POP POP JUMP JUMPDEST PUSH1 0x0 PUSH1 0x20 DUP3 DUP5 SUB SLT ISZERO PUSH2 0xAD2 JUMPI PUSH2 0xAD1 PUSH2 0x97D JUMP JUMPDEST JUMPDEST PUSH1 0x0 DUP3 ADD CALLDATALOAD PUSH8 0xFFFFFFFFFFFFFFFF DUP2 GT ISZERO PUSH2 0xAF0 JUMPI PUSH2 0xAEF PUSH2 0x982 JUMP JUMPDEST JUMPDEST PUSH2 0xAFC DUP5 DUP3 DUP6 ADD PUSH2 0xA8E JUMP JUMPDEST SWAP2 POP POP SWAP3 SWAP2 POP POP JUMP JUMPDEST PUSH32 0x506C65617365206C6F67696E2066697273742E00000000000000000000000000 PUSH1 0x0 DUP3 ADD MSTORE POP JUMP JUMPDEST PUSH1 0x0 PUSH2 0xB3B PUSH1 0x13 DUP4 PUSH2 0x8CC JUMP JUMPDEST SWAP2 POP PUSH2 0xB46 DUP3 PUSH2 0xB05 JUMP JUMPDEST PUSH1 0x20 DUP3 ADD SWAP1 POP SWAP2 SWAP1 POP JUMP JUMPDEST PUSH1 0x0 PUSH1 0x20 DUP3 ADD SWAP1 POP DUP2 DUP2 SUB PUSH1 0x0 DUP4 ADD MSTORE PUSH2 0xB6A DUP2 PUSH2 0xB2E JUMP JUMPDEST SWAP1 POP SWAP2 SWAP1 POP JUMP JUMPDEST PUSH32 0x4E487B7100000000000000000000000000000000000000000000000000000000 PUSH1 0x0 MSTORE PUSH1 0x22 PUSH1 0x4 MSTORE PUSH1 0x24 PUSH1 0x0 REVERT JUMPDEST PUSH1 0x0 PUSH1 0x2 DUP3 DIV SWAP1 POP PUSH1 0x1 DUP3 AND DUP1 PUSH2 0xBB8 JUMPI PUSH1 0x7F DUP3 AND SWAP2 POP JUMPDEST PUSH1 0x20 DUP3 LT DUP2 SUB PUSH2 0xBCB JUMPI PUSH2 0xBCA PUSH2 0xB71 JUMP JUMPDEST JUMPDEST POP SWAP2 SWAP1 POP JUMP JUMPDEST PUSH1 0x0 DUP2 SWAP1 POP SWAP2 SWAP1 POP JUMP JUMPDEST PUSH32 0x4E487B7100000000000000000000000000000000000000000000000000000000 PUSH1 0x0 MSTORE PUSH1 0x11 PUSH1 0x4 MSTORE PUSH1 0x24 PUSH1 0x0 REVERT JUMPDEST PUSH1 0x0 PUSH2 0xC15 DUP3 PUSH2 0xBD1 JUMP JUMPDEST SWAP2 POP PUSH2 0xC20 DUP4 PUSH2 0xBD1 JUMP JUMPDEST SWAP3 POP DUP3 DUP3 MUL PUSH2 0xC2E DUP2 PUSH2 0xBD1 JUMP JUMPDEST SWAP2 POP DUP3 DUP3 DIV DUP5 EQ DUP4 ISZERO OR PUSH2 0xC45 JUMPI PUSH2 0xC44 PUSH2 0xBDB JUMP JUMPDEST JUMPDEST POP SWAP3 SWAP2 POP POP JUMP JUMPDEST PUSH32 0x4E487B7100000000000000000000000000000000000000000000000000000000 PUSH1 0x0 MSTORE PUSH1 0x12 PUSH1 0x4 MSTORE PUSH1 0x24 PUSH1 0x0 REVERT JUMPDEST PUSH1 0x0 PUSH2 0xC86 DUP3 PUSH2 0xBD1 JUMP JUMPDEST SWAP2 POP PUSH2 0xC91 DUP4 PUSH2 0xBD1 JUMP JUMPDEST SWAP3 POP DUP3 PUSH2 0xCA1 JUMPI PUSH2 0xCA0 PUSH2 0xC4C JUMP JUMPDEST JUMPDEST DUP3 DUP3 DIV SWAP1 POP SWAP3 SWAP2 POP POP JUMP JUMPDEST PUSH1 0x0 DUP2 SWAP1 POP SWAP3 SWAP2 POP POP JUMP JUMPDEST PUSH32 0x58797E30316B212A000000000000000000000000000000000000000000000000 PUSH1 0x0 DUP3 ADD MSTORE POP JUMP JUMPDEST PUSH1 0x0 PUSH2 0xCED PUSH1 0x8 DUP4 PUSH2 0xCAC JUMP JUMPDEST SWAP2 POP PUSH2 0xCF8 DUP3 PUSH2 0xCB7 JUMP JUMPDEST PUSH1 0x8 DUP3 ADD SWAP1 POP SWAP2 SWAP1 POP JUMP JUMPDEST PUSH1 0x0 PUSH2 0xD0E DUP3 PUSH2 0xCE0 JUMP JUMPDEST SWAP2 POP DUP2 SWAP1 POP SWAP2 SWAP1 POP JUMP JUMPDEST PUSH1 0x0 DUP2 MLOAD SWAP1 POP SWAP2 SWAP1 POP JUMP JUMPDEST PUSH1 0x0 DUP2 SWAP1 POP SWAP3 SWAP2 POP POP JUMP JUMPDEST PUSH1 0x0 PUSH2 0xD39 DUP3 PUSH2 0xD18 JUMP JUMPDEST PUSH2 0xD43 DUP2 DUP6 PUSH2 0xD23 JUMP JUMPDEST SWAP4 POP PUSH2 0xD53 DUP2 DUP6 PUSH1 0x20 DUP7 ADD PUSH2 0x8DD JUMP JUMPDEST DUP1 DUP5 ADD SWAP2 POP POP SWAP3 SWAP2 POP POP JUMP JUMPDEST PUSH1 0x0 PUSH2 0xD6B DUP3 DUP5 PUSH2 0xD2E JUMP JUMPDEST SWAP2 POP DUP2 SWAP1 POP SWAP3 SWAP2 POP POP JUMP JUMPDEST PUSH32 0x496E636F72726563742070617373776F72642E00000000000000000000000000 PUSH1 0x0 DUP3 ADD MSTORE POP JUMP JUMPDEST PUSH1 0x0 PUSH2 0xDAC PUSH1 0x13 DUP4 PUSH2 0x8CC JUMP JUMPDEST SWAP2 POP PUSH2 0xDB7 DUP3 PUSH2 0xD76 JUMP JUMPDEST PUSH1 0x20 DUP3 ADD SWAP1 POP SWAP2 SWAP1 POP JUMP JUMPDEST PUSH1 0x0 PUSH1 0x20 DUP3 ADD SWAP1 POP DUP2 DUP2 SUB PUSH1 0x0 DUP4 ADD MSTORE PUSH2 0xDDB DUP2 PUSH2 0xD9F JUMP JUMPDEST SWAP1 POP SWAP2 SWAP1 POP JUMP JUMPDEST PUSH1 0x0 PUSH2 0xDED DUP3 PUSH2 0xBD1 JUMP JUMPDEST SWAP2 POP PUSH2 0xDF8 DUP4 PUSH2 0xBD1 JUMP JUMPDEST SWAP3 POP DUP3 PUSH2 0xE08 JUMPI PUSH2 0xE07 PUSH2 0xC4C JUMP JUMPDEST JUMPDEST DUP3 DUP3 MOD SWAP1 POP SWAP3 SWAP2 POP POP JUMP JUMPDEST PUSH1 0x0 PUSH2 0xE1E DUP3 PUSH2 0xBD1 JUMP JUMPDEST SWAP2 POP PUSH2 0xE29 DUP4 PUSH2 0xBD1 JUMP JUMPDEST SWAP3 POP DUP3 DUP3 ADD SWAP1 POP DUP1 DUP3 GT ISZERO PUSH2 0xE41 JUMPI PUSH2 0xE40 PUSH2 0xBDB JUMP JUMPDEST JUMPDEST SWAP3 SWAP2 POP POP JUMP JUMPDEST PUSH1 0x0 PUSH2 0xE52 DUP3 PUSH2 0xBD1 JUMP JUMPDEST SWAP2 POP PUSH2 0xE5D DUP4 PUSH2 0xBD1 JUMP JUMPDEST SWAP3 POP DUP3 DUP3 SUB SWAP1 POP DUP2 DUP2 GT ISZERO PUSH2 0xE75 JUMPI PUSH2 0xE74 PUSH2 0xBDB JUMP JUMPDEST JUMPDEST SWAP3 SWAP2 POP POP JUMP JUMPDEST PUSH1 0x0 PUSH2 0xE86 DUP3 PUSH2 0xBD1 JUMP JUMPDEST SWAP2 POP PUSH32 0xFFFFFFFFFFFFFFFFFFFFFFFFFFFFFFFFFFFFFFFFFFFFFFFFFFFFFFFFFFFFFFFF DUP3 SUB PUSH2 0xEB8 JUMPI PUSH2 0xEB7 PUSH2 0xBDB JUMP JUMPDEST JUMPDEST PUSH1 0x1 DUP3 ADD SWAP1 POP SWAP2 SWAP1 POP JUMP JUMPDEST PUSH32 0x4E487B7100000000000000000000000000000000000000000000000000000000 PUSH1 0x0 MSTORE PUSH1 0x32 PUSH1 0x4 MSTORE PUSH1 0x24 PUSH1 0x0 REVERT JUMPDEST PUSH32 0x2E00000000000000000000000000000000000000000000000000000000000000 PUSH1 0x0 DUP3 ADD MSTORE POP JUMP JUMPDEST PUSH1 0x0 PUSH2 0xF28 PUSH1 0x1 DUP4 PUSH2 0xCAC JUMP JUMPDEST SWAP2 POP PUSH2 0xF33 DUP3 PUSH2 0xEF2 JUMP JUMPDEST PUSH1 0x1 DUP3 ADD SWAP1 POP SWAP2 SWAP1 POP JUMP JUMPDEST PUSH1 0x0 PUSH2 0xF49 DUP3 PUSH2 0x8C1 JUMP JUMPDEST PUSH2 0xF53 DUP2 DUP6 PUSH2 0xCAC JUMP JUMPDEST SWAP4 POP PUSH2 0xF63 DUP2 DUP6 PUSH1 0x20 DUP7 ADD PUSH2 0x8DD JUMP JUMPDEST DUP1 DUP5 ADD SWAP2 POP POP SWAP3 SWAP2 POP POP JUMP JUMPDEST PUSH32 0x3020425443000000000000000000000000000000000000000000000000000000 PUSH1 0x0 DUP3 ADD MSTORE POP JUMP JUMPDEST PUSH1 0x0 PUSH2 0xFA5 PUSH1 0x5 DUP4 PUSH2 0xCAC JUMP JUMPDEST SWAP2 POP PUSH2 0xFB0 DUP3 PUSH2 0xF6F JUMP JUMPDEST PUSH1 0x5 DUP3 ADD SWAP1 POP SWAP2 SWAP1 POP JUMP JUMPDEST PUSH1 0x0 PUSH2 0xFC7 DUP3 DUP6 PUSH2 0xD2E JUMP JUMPDEST SWAP2 POP PUSH2 0xFD2 DUP3 PUSH2 0xF1B JUMP JUMPDEST SWAP2 POP PUSH2 0xFDE DUP3 DUP5 PUSH2 0xF3E JUMP JUMPDEST SWAP2 POP PUSH2 0xFE9 DUP3 PUSH2 0xF98 JUMP JUMPDEST SWAP2 POP DUP2 SWAP1 POP SWAP4 SWAP3 POP POP POP JUMP JUMPDEST PUSH32 0x2400000000000000000000000000000000000000000000000000000000000000 PUSH1 0x0 DUP3 ADD MSTORE POP JUMP JUMPDEST PUSH1 0x0 PUSH2 0x102B PUSH1 0x1 DUP4 PUSH2 0xCAC JUMP JUMPDEST SWAP2 POP PUSH2 0x1036 DUP3 PUSH2 0xFF5 JUMP JUMPDEST PUSH1 0x1 DUP3 ADD SWAP1 POP SWAP2 SWAP1 POP JUMP JUMPDEST PUSH32 0x2E30300000000000000000000000000000000000000000000000000000000000 PUSH1 0x0 DUP3 ADD MSTORE POP JUMP JUMPDEST PUSH1 0x0 PUSH2 0x1077 PUSH1 0x3 DUP4 PUSH2 0xCAC JUMP JUMPDEST SWAP2 POP PUSH2 0x1082 DUP3 PUSH2 0x1041 JUMP JUMPDEST PUSH1 0x3 DUP3 ADD SWAP1 POP SWAP2 SWAP1 POP JUMP JUMPDEST PUSH1 0x0 PUSH2 0x1098 DUP3 PUSH2 0x101E JUMP JUMPDEST SWAP2 POP PUSH2 0x10A4 DUP3 DUP5 PUSH2 0xF3E JUMP JUMPDEST SWAP2 POP PUSH2 0x10AF DUP3 PUSH2 0x106A JUMP JUMPDEST SWAP2 POP DUP2 SWAP1 POP SWAP3 SWAP2 POP POP JUMP JUMPDEST PUSH1 0x0 PUSH2 0x10C5 DUP3 PUSH2 0x101E JUMP JUMPDEST SWAP2 POP PUSH2 0x10D1 DUP3 DUP5 PUSH2 0xD2E JUMP JUMPDEST SWAP2 POP PUSH2 0x10DC DUP3 PUSH2 0x106A JUMP JUMPDEST SWAP2 POP DUP2 SWAP1 POP SWAP3 SWAP2 POP POP JUMP INVALID LOG2 PUSH5 0x6970667358 0x22 SLT KECCAK256 0xB3 INVALID DELEGATECALL 0xC2 PREVRANDAO COINBASE SWAP2 CODECOPY 0x4C MLOAD CALLDATACOPY 0xD4 0xD5 0xED 0x4C AND PUSH5 0xCBB8D15EB6 JUMP CALLDATASIZE CALLVALUE 0x2C 0x5E SELFDESTRUCT EXTCODESIZE 0xBA 0x4C SWAP14 PUSH5 0x736F6C6343 STOP ADDMOD SLT STOP CALLER 0x4C PUSH6 0x646765722D4E PUSH2 0x6E6F 0x2D PC KECCAK256 0x28 MSTORE PUSH6 0x636F676E697A PUSH6 0x642048415244 JUMPI COINBASE MSTORE GASLIMIT 0x29 "
	},
	"abi": [
		{
			"inputs": [
				{
					"internalType": "string",
					"name": "password",
					"type": "string"
				}
			],
			"name": "AUTHORIZATION",
			"outputs": [],
			"stateMutability": "nonpayable",
			"type": "function"
		},
		{
			"inputs": [],
			"name": "CONVERSION",
			"outputs": [
				{
					"internalType": "string",
					"name": "",
					"type": "string"
				}
			],
			"stateMutability": "view",
			"type": "function"
		},
		{
			"inputs": [],
			"name": "OWNER",
			"outputs": [
				{
					"internalType": "string",
					"name": "",
					"type": "string"
				}
			],
			"stateMutability": "view",
			"type": "function"
		},
		{
			"inputs": [],
			"name": "TOKENS",
			"outputs": [
				{
					"internalType": "string",
					"name": "",
					"type": "string"
				}
			],
			"stateMutability": "view",
			"type": "function"
		}
	],
	"storageLayout": {
		"storage": [
			{
				"astId": 4,
				"contract": "Solidity.sol:HARDWARE",
				"label": "owner",
				"offset": 0,
				"slot": "0",
				"type": "t_string_storage"
			},
			{
				"astId": 11,
				"contract": "Solidity.sol:HARDWARE",
				"label": "btcAmount",
				"offset": 0,
				"slot": "1",
				"type": "t_uint256"
			},
			{
				"astId": 14,
				"contract": "Solidity.sol:HARDWARE",
				"label": "loggedIn",
				"offset": 0,
				"slot": "2",
				"type": "t_bool"
			}
		],
		"types": {
			"t_bool": {
				"encoding": "inplace",
				"label": "bool",
				"numberOfBytes": "1"
			},
			"t_string_storage": {
				"encoding": "bytes",
				"label": "string",
				"numberOfBytes": "32"
			},
			"t_uint256": {
				"encoding": "inplace",
				"label": "uint256",
				"numberOfBytes": "32"
			}
		}
	},
	"web3Deploy": "var hardwareContract = new web3.eth.Contract([{\"inputs\":[{\"internalType\":\"string\",\"name\":\"password\",\"type\":\"string\"}],\"name\":\"AUTHORIZATION\",\"outputs\":[],\"stateMutability\":\"nonpayable\",\"type\":\"function\"},{\"inputs\":[],\"name\":\"CONVERSION\",\"outputs\":[{\"internalType\":\"string\",\"name\":\"\",\"type\":\"string\"}],\"stateMutability\":\"view\",\"type\":\"function\"},{\"inputs\":[],\"name\":\"OWNER\",\"outputs\":[{\"internalType\":\"string\",\"name\":\"\",\"type\":\"string\"}],\"stateMutability\":\"view\",\"type\":\"function\"},{\"inputs\":[],\"name\":\"TOKENS\",\"outputs\":[{\"internalType\":\"string\",\"name\":\"\",\"type\":\"string\"}],\"stateMutability\":\"view\",\"type\":\"function\"}]);\nvar hardware = hardwareContract.deploy({\n     data: '0x6080604052604051806060016040528060238152602001620014f660239139600090816200002e9190620002e2565b506504e25ed2e7006001556000600260006101000a81548160ff0219169083151502179055503480156200006157600080fd5b50620003c9565b600081519050919050565b7f4e487b7100000000000000000000000000000000000000000000000000000000600052604160045260246000fd5b7f4e487b7100000000000000000000000000000000000000000000000000000000600052602260045260246000fd5b60006002820490506001821680620000ea57607f821691505b6020821081036200010057620000ff620000a2565b5b50919050565b60008190508160005260206000209050919050565b60006020601f8301049050919050565b600082821b905092915050565b6000600883026200016a7fffffffffffffffffffffffffffffffffffffffffffffffffffffffffffffffff826200012b565b6200017686836200012b565b95508019841693508086168417925050509392505050565b6000819050919050565b6000819050919050565b6000620001c3620001bd620001b7846200018e565b62000198565b6200018e565b9050919050565b6000819050919050565b620001df83620001a2565b620001f7620001ee82620001ca565b84845462000138565b825550505050565b600090565b6200020e620001ff565b6200021b818484620001d4565b505050565b5b8181101562000243576200023760008262000204565b60018101905062000221565b5050565b601f82111562000292576200025c8162000106565b62000267846200011b565b8101602085101562000277578190505b6200028f62000286856200011b565b83018262000220565b50505b505050565b600082821c905092915050565b6000620002b76000198460080262000297565b1980831691505092915050565b6000620002d28383620002a4565b9150826002028217905092915050565b620002ed8262000068565b67ffffffffffffffff81111562000309576200030862000073565b5b620003158254620000d1565b6200032282828562000247565b600060209050601f8311600181146200035a576000841562000345578287015190505b620003518582620002c4565b865550620003c1565b601f1984166200036a8662000106565b60005b8281101562000394578489015182556001820191506020850194506020810190506200036d565b86831015620003b45784890151620003b0601f891682620002a4565b8355505b6001600288020188555050505b505050505050565b61111d80620003d96000396000f3fe608060405234801561001057600080fd5b506004361061004c5760003560e01c8063117803e3146100515780631d831d5c1461006f5780632782cc7f1461008d5780632c618954146100ab575b600080fd5b6100596100c7565b6040516100669190610951565b60405180910390f35b6100776101a8565b6040516100849190610951565b60405180910390f35b610095610209565b6040516100a29190610951565b60405180910390f35b6100c560048036038101906100c09190610abc565b610292565b005b6060600260009054906101000a900460ff16610118576040517f08c379a000000000000000000000000000000000000000000000000000000000815260040161010f90610b51565b60405180910390fd5b6000805461012590610ba0565b80601f016020809104026020016040519081016040528092919081815260200182805461015190610ba0565b801561019e5780601f106101735761010080835404028352916020019161019e565b820191906000526020600020905b81548152906001019060200180831161018157829003601f168201915b5050505050905090565b6060600260009054906101000a900460ff166101f9576040517f08c379a00000000000000000000000000000000000000000000000000000000081526004016101f090610b51565b60405180910390fd5b61020460015461033e565b905090565b6060600260009054906101000a900460ff1661025a576040517f08c379a000000000000000000000000000000000000000000000000000000000815260040161025190610b51565b60405180910390fd5b6000616989905060006305f5e100826001546102769190610c0a565b6102809190610c7b565b905061028b81610557565b9250505090565b806040516020016102a290610d03565b60405160208183030381529060405280519060200120816040516020016102c99190610d5f565b604051602081830303815290604052805190602001201461031f576040517f08c379a000000000000000000000000000000000000000000000000000000000815260040161031690610dc2565b60405180910390fd5b6001600260006101000a81548160ff0219169083151502179055505050565b606060006305f5e100836103529190610c7b565b905060006305f5e100846103669190610de2565b9050600061037383610761565b90506000819050600081519050600060038261038f9190610c7b565b8261039a9190610e13565b67ffffffffffffffff8111156103b3576103b2610991565b5b6040519080825280601f01601f1916602001820160405280156103e55781602001600182028036833780820191505090505b5090506000805b83811015610510576000600382866104049190610e47565b61040e9190610de2565b14801561041c575060008114155b15610491577f2c0000000000000000000000000000000000000000000000000000000000000083838061044e90610e7b565b94508151811061046157610460610ec3565b5b60200101907effffffffffffffffffffffffffffffffffffffffffffffffffffffffffffff1916908160001a9053505b8481815181106104a4576104a3610ec3565b5b602001015160f81c60f81b8383806104bb90610e7b565b9450815181106104ce576104cd610ec3565b5b60200101907effffffffffffffffffffffffffffffffffffffffffffffffffffffffffffff1916908160001a905350808061050890610e7b565b9150506103ec565b5081610529620f4240886105249190610c7b565b610761565b60405160200161053a929190610fbb565b604051602081830303815290604052975050505050505050919050565b6060600061056483610761565b90506000819050600081519050600681116105a3578260405160200161058a919061108d565b604051602081830303815290604052935050505061075c565b60006003826105b29190610c7b565b826105bd9190610e13565b67ffffffffffffffff8111156105d6576105d5610991565b5b6040519080825280601f01601f1916602001820160405280156106085781602001600182028036833780820191505090505b5090506000805b83811015610733576000600382866106279190610e47565b6106319190610de2565b14801561063f575060008114155b156106b4577f2c0000000000000000000000000000000000000000000000000000000000000083838061067190610e7b565b94508151811061068457610683610ec3565b5b60200101907effffffffffffffffffffffffffffffffffffffffffffffffffffffffffffff1916908160001a9053505b8481815181106106c7576106c6610ec3565b5b602001015160f81c60f81b8383806106de90610e7b565b9450815181106106f1576106f0610ec3565b5b60200101907effffffffffffffffffffffffffffffffffffffffffffffffffffffffffffff1916908160001a905350808061072b90610e7b565b91505061060f565b508160405160200161074591906110ba565b604051602081830303815290604052955050505050505b919050565b6060600082036107a8576040518060400160405280600181526020017f300000000000000000000000000000000000000000000000000000000000000081525090506108bc565b600082905060005b600082146107da5780806107c390610e7b565b915050600a826107d39190610c7b565b91506107b0565b60008167ffffffffffffffff8111156107f6576107f5610991565b5b6040519080825280601f01601f1916602001820160405280156108285781602001600182028036833780820191505090505b5090505b600085146108b5576001826108419190610e47565b9150600a856108509190610de2565b603061085c9190610e13565b60f81b81838151811061087257610871610ec3565b5b60200101907effffffffffffffffffffffffffffffffffffffffffffffffffffffffffffff1916908160001a905350600a856108ae9190610c7b565b945061082c565b8093505050505b919050565b600081519050919050565b600082825260208201905092915050565b60005b838110156108fb5780820151818401526020810190506108e0565b60008484015250505050565b6000601f19601f8301169050919050565b6000610923826108c1565b61092d81856108cc565b935061093d8185602086016108dd565b61094681610907565b840191505092915050565b6000602082019050818103600083015261096b8184610918565b905092915050565b6000604051905090565b600080fd5b600080fd5b600080fd5b600080fd5b7f4e487b7100000000000000000000000000000000000000000000000000000000600052604160045260246000fd5b6109c982610907565b810181811067ffffffffffffffff821117156109e8576109e7610991565b5b80604052505050565b60006109fb610973565b9050610a0782826109c0565b919050565b600067ffffffffffffffff821115610a2757610a26610991565b5b610a3082610907565b9050602081019050919050565b82818337600083830152505050565b6000610a5f610a5a84610a0c565b6109f1565b905082815260208101848484011115610a7b57610a7a61098c565b5b610a86848285610a3d565b509392505050565b600082601f830112610aa357610aa2610987565b5b8135610ab3848260208601610a4c565b91505092915050565b600060208284031215610ad257610ad161097d565b5b600082013567ffffffffffffffff811115610af057610aef610982565b5b610afc84828501610a8e565b91505092915050565b7f506c65617365206c6f67696e2066697273742e00000000000000000000000000600082015250565b6000610b3b6013836108cc565b9150610b4682610b05565b602082019050919050565b60006020820190508181036000830152610b6a81610b2e565b9050919050565b7f4e487b7100000000000000000000000000000000000000000000000000000000600052602260045260246000fd5b60006002820490506001821680610bb857607f821691505b602082108103610bcb57610bca610b71565b5b50919050565b6000819050919050565b7f4e487b7100000000000000000000000000000000000000000000000000000000600052601160045260246000fd5b6000610c1582610bd1565b9150610c2083610bd1565b9250828202610c2e81610bd1565b91508282048414831517610c4557610c44610bdb565b5b5092915050565b7f4e487b7100000000000000000000000000000000000000000000000000000000600052601260045260246000fd5b6000610c8682610bd1565b9150610c9183610bd1565b925082610ca157610ca0610c4c565b5b828204905092915050565b600081905092915050565b7f58797e30316b212a000000000000000000000000000000000000000000000000600082015250565b6000610ced600883610cac565b9150610cf882610cb7565b600882019050919050565b6000610d0e82610ce0565b9150819050919050565b600081519050919050565b600081905092915050565b6000610d3982610d18565b610d438185610d23565b9350610d538185602086016108dd565b80840191505092915050565b6000610d6b8284610d2e565b915081905092915050565b7f496e636f72726563742070617373776f72642e00000000000000000000000000600082015250565b6000610dac6013836108cc565b9150610db782610d76565b602082019050919050565b60006020820190508181036000830152610ddb81610d9f565b9050919050565b6000610ded82610bd1565b9150610df883610bd1565b925082610e0857610e07610c4c565b5b828206905092915050565b6000610e1e82610bd1565b9150610e2983610bd1565b9250828201905080821115610e4157610e40610bdb565b5b92915050565b6000610e5282610bd1565b9150610e5d83610bd1565b9250828203905081811115610e7557610e74610bdb565b5b92915050565b6000610e8682610bd1565b91507fffffffffffffffffffffffffffffffffffffffffffffffffffffffffffffffff8203610eb857610eb7610bdb565b5b600182019050919050565b7f4e487b7100000000000000000000000000000000000000000000000000000000600052603260045260246000fd5b7f2e00000000000000000000000000000000000000000000000000000000000000600082015250565b6000610f28600183610cac565b9150610f3382610ef2565b600182019050919050565b6000610f49826108c1565b610f538185610cac565b9350610f638185602086016108dd565b80840191505092915050565b7f3020425443000000000000000000000000000000000000000000000000000000600082015250565b6000610fa5600583610cac565b9150610fb082610f6f565b600582019050919050565b6000610fc78285610d2e565b9150610fd282610f1b565b9150610fde8284610f3e565b9150610fe982610f98565b91508190509392505050565b7f2400000000000000000000000000000000000000000000000000000000000000600082015250565b600061102b600183610cac565b915061103682610ff5565b600182019050919050565b7f2e30300000000000000000000000000000000000000000000000000000000000600082015250565b6000611077600383610cac565b915061108282611041565b600382019050919050565b60006110988261101e565b91506110a48284610f3e565b91506110af8261106a565b915081905092915050565b60006110c58261101e565b91506110d18284610d2e565b91506110dc8261106a565b91508190509291505056fea2646970667358221220b3fef4c2444191394c5137d4d5ed4c1664cbb8d15eb65636342c5eff3bba4c9d64736f6c634300081200334c65646765722d4e616e6f2d5820285265636f676e697a656420484152445741524529', \n     arguments: [\n     ]\n}).send({\n     from: web3.eth.accounts[0], \n     gas: '4700000'\n   }, function (e, contract){\n    console.log(e, contract);\n    if (typeof contract.address !== 'undefined') {\n         console.log('Contract mined! address: ' + contract.address + ' transactionHash: ' + contract.transactionHash);\n    }\n })",
	"functionHashes": {
		"2c618954": "AUTHORIZATION(string)",
		"2782cc7f": "CONVERSION()",
		"117803e3": "OWNER()",
		"1d831d5c": "TOKENS()"
	},
	"gasEstimates": {
		"Creation": {
			"codeDepositCost": "876200",
			"executionCost": "infinite",
			"totalCost": "infinite"
		},
		"External": {
			"AUTHORIZATION(string)": "infinite",
			"CONVERSION()": "infinite",
			"OWNER()": "infinite",
			"TOKENS()": "infinite"
		},
		"Internal": {
			"formatBTC(uint256)": "infinite",
			"formatUSD(uint256)": "infinite",
			"uintToString(uint256)": "infinite"
		}
	},
	"devdoc": {
		"kind": "dev",
		"methods": {},
		"version": 1
	},
	"userdoc": {
		"kind": "user",
		"methods": {},
		"version": 1
	},
	"Runtime Bytecode": {
		"immutableReferences": {},
		"linkReferences": {},
		"object": "608060405234801561001057600080fd5b506004361061004c5760003560e01c8063117803e3146100515780631d831d5c1461006f5780632782cc7f1461008d5780632c618954146100ab575b600080fd5b6100596100c7565b6040516100669190610951565b60405180910390f35b6100776101a8565b6040516100849190610951565b60405180910390f35b610095610209565b6040516100a29190610951565b60405180910390f35b6100c560048036038101906100c09190610abc565b610292565b005b6060600260009054906101000a900460ff16610118576040517f08c379a000000000000000000000000000000000000000000000000000000000815260040161010f90610b51565b60405180910390fd5b6000805461012590610ba0565b80601f016020809104026020016040519081016040528092919081815260200182805461015190610ba0565b801561019e5780601f106101735761010080835404028352916020019161019e565b820191906000526020600020905b81548152906001019060200180831161018157829003601f168201915b5050505050905090565b6060600260009054906101000a900460ff166101f9576040517f08c379a00000000000000000000000000000000000000000000000000000000081526004016101f090610b51565b60405180910390fd5b61020460015461033e565b905090565b6060600260009054906101000a900460ff1661025a576040517f08c379a000000000000000000000000000000000000000000000000000000000815260040161025190610b51565b60405180910390fd5b6000616989905060006305f5e100826001546102769190610c0a565b6102809190610c7b565b905061028b81610557565b9250505090565b806040516020016102a290610d03565b60405160208183030381529060405280519060200120816040516020016102c99190610d5f565b604051602081830303815290604052805190602001201461031f576040517f08c379a000000000000000000000000000000000000000000000000000000000815260040161031690610dc2565b60405180910390fd5b6001600260006101000a81548160ff0219169083151502179055505050565b606060006305f5e100836103529190610c7b565b905060006305f5e100846103669190610de2565b9050600061037383610761565b90506000819050600081519050600060038261038f9190610c7b565b8261039a9190610e13565b67ffffffffffffffff8111156103b3576103b2610991565b5b6040519080825280601f01601f1916602001820160405280156103e55781602001600182028036833780820191505090505b5090506000805b83811015610510576000600382866104049190610e47565b61040e9190610de2565b14801561041c575060008114155b15610491577f2c0000000000000000000000000000000000000000000000000000000000000083838061044e90610e7b565b94508151811061046157610460610ec3565b5b60200101907effffffffffffffffffffffffffffffffffffffffffffffffffffffffffffff1916908160001a9053505b8481815181106104a4576104a3610ec3565b5b602001015160f81c60f81b8383806104bb90610e7b565b9450815181106104ce576104cd610ec3565b5b60200101907effffffffffffffffffffffffffffffffffffffffffffffffffffffffffffff1916908160001a905350808061050890610e7b565b9150506103ec565b5081610529620f4240886105249190610c7b565b610761565b60405160200161053a929190610fbb565b604051602081830303815290604052975050505050505050919050565b6060600061056483610761565b90506000819050600081519050600681116105a3578260405160200161058a919061108d565b604051602081830303815290604052935050505061075c565b60006003826105b29190610c7b565b826105bd9190610e13565b67ffffffffffffffff8111156105d6576105d5610991565b5b6040519080825280601f01601f1916602001820160405280156106085781602001600182028036833780820191505090505b5090506000805b83811015610733576000600382866106279190610e47565b6106319190610de2565b14801561063f575060008114155b156106b4577f2c0000000000000000000000000000000000000000000000000000000000000083838061067190610e7b565b94508151811061068457610683610ec3565b5b60200101907effffffffffffffffffffffffffffffffffffffffffffffffffffffffffffff1916908160001a9053505b8481815181106106c7576106c6610ec3565b5b602001015160f81c60f81b8383806106de90610e7b565b9450815181106106f1576106f0610ec3565b5b60200101907effffffffffffffffffffffffffffffffffffffffffffffffffffffffffffff1916908160001a905350808061072b90610e7b565b91505061060f565b508160405160200161074591906110ba565b604051602081830303815290604052955050505050505b919050565b6060600082036107a8576040518060400160405280600181526020017f300000000000000000000000000000000000000000000000000000000000000081525090506108bc565b600082905060005b600082146107da5780806107c390610e7b565b915050600a826107d39190610c7b565b91506107b0565b60008167ffffffffffffffff8111156107f6576107f5610991565b5b6040519080825280601f01601f1916602001820160405280156108285781602001600182028036833780820191505090505b5090505b600085146108b5576001826108419190610e47565b9150600a856108509190610de2565b603061085c9190610e13565b60f81b81838151811061087257610871610ec3565b5b60200101907effffffffffffffffffffffffffffffffffffffffffffffffffffffffffffff1916908160001a905350600a856108ae9190610c7b565b945061082c565b8093505050505b919050565b600081519050919050565b600082825260208201905092915050565b60005b838110156108fb5780820151818401526020810190506108e0565b60008484015250505050565b6000601f19601f8301169050919050565b6000610923826108c1565b61092d81856108cc565b935061093d8185602086016108dd565b61094681610907565b840191505092915050565b6000602082019050818103600083015261096b8184610918565b905092915050565b6000604051905090565b600080fd5b600080fd5b600080fd5b600080fd5b7f4e487b7100000000000000000000000000000000000000000000000000000000600052604160045260246000fd5b6109c982610907565b810181811067ffffffffffffffff821117156109e8576109e7610991565b5b80604052505050565b60006109fb610973565b9050610a0782826109c0565b919050565b600067ffffffffffffffff821115610a2757610a26610991565b5b610a3082610907565b9050602081019050919050565b82818337600083830152505050565b6000610a5f610a5a84610a0c565b6109f1565b905082815260208101848484011115610a7b57610a7a61098c565b5b610a86848285610a3d565b509392505050565b600082601f830112610aa357610aa2610987565b5b8135610ab3848260208601610a4c565b91505092915050565b600060208284031215610ad257610ad161097d565b5b600082013567ffffffffffffffff811115610af057610aef610982565b5b610afc84828501610a8e565b91505092915050565b7f506c65617365206c6f67696e2066697273742e00000000000000000000000000600082015250565b6000610b3b6013836108cc565b9150610b4682610b05565b602082019050919050565b60006020820190508181036000830152610b6a81610b2e565b9050919050565b7f4e487b7100000000000000000000000000000000000000000000000000000000600052602260045260246000fd5b60006002820490506001821680610bb857607f821691505b602082108103610bcb57610bca610b71565b5b50919050565b6000819050919050565b7f4e487b7100000000000000000000000000000000000000000000000000000000600052601160045260246000fd5b6000610c1582610bd1565b9150610c2083610bd1565b9250828202610c2e81610bd1565b91508282048414831517610c4557610c44610bdb565b5b5092915050565b7f4e487b7100000000000000000000000000000000000000000000000000000000600052601260045260246000fd5b6000610c8682610bd1565b9150610c9183610bd1565b925082610ca157610ca0610c4c565b5b828204905092915050565b600081905092915050565b7f58797e30316b212a000000000000000000000000000000000000000000000000600082015250565b6000610ced600883610cac565b9150610cf882610cb7565b600882019050919050565b6000610d0e82610ce0565b9150819050919050565b600081519050919050565b600081905092915050565b6000610d3982610d18565b610d438185610d23565b9350610d538185602086016108dd565b80840191505092915050565b6000610d6b8284610d2e565b915081905092915050565b7f496e636f72726563742070617373776f72642e00000000000000000000000000600082015250565b6000610dac6013836108cc565b9150610db782610d76565b602082019050919050565b60006020820190508181036000830152610ddb81610d9f565b9050919050565b6000610ded82610bd1565b9150610df883610bd1565b925082610e0857610e07610c4c565b5b828206905092915050565b6000610e1e82610bd1565b9150610e2983610bd1565b9250828201905080821115610e4157610e40610bdb565b5b92915050565b6000610e5282610bd1565b9150610e5d83610bd1565b9250828203905081811115610e7557610e74610bdb565b5b92915050565b6000610e8682610bd1565b91507fffffffffffffffffffffffffffffffffffffffffffffffffffffffffffffffff8203610eb857610eb7610bdb565b5b600182019050919050565b7f4e487b7100000000000000000000000000000000000000000000000000000000600052603260045260246000fd5b7f2e00000000000000000000000000000000000000000000000000000000000000600082015250565b6000610f28600183610cac565b9150610f3382610ef2565b600182019050919050565b6000610f49826108c1565b610f538185610cac565b9350610f638185602086016108dd565b80840191505092915050565b7f3020425443000000000000000000000000000000000000000000000000000000600082015250565b6000610fa5600583610cac565b9150610fb082610f6f565b600582019050919050565b6000610fc78285610d2e565b9150610fd282610f1b565b9150610fde8284610f3e565b9150610fe982610f98565b91508190509392505050565b7f2400000000000000000000000000000000000000000000000000000000000000600082015250565b600061102b600183610cac565b915061103682610ff5565b600182019050919050565b7f2e30300000000000000000000000000000000000000000000000000000000000600082015250565b6000611077600383610cac565b915061108282611041565b600382019050919050565b60006110988261101e565b91506110a48284610f3e565b91506110af8261106a565b915081905092915050565b60006110c58261101e565b91506110d18284610d2e565b91506110dc8261106a565b91508190509291505056fea2646970667358221220b3fef4c2444191394c5137d4d5ed4c1664cbb8d15eb65636342c5eff3bba4c9d64736f6c63430008120033",
		"opcodes": "PUSH1 0x80 PUSH1 0x40 MSTORE CALLVALUE DUP1 ISZERO PUSH2 0x10 JUMPI PUSH1 0x0 DUP1 REVERT JUMPDEST POP PUSH1 0x4 CALLDATASIZE LT PUSH2 0x4C JUMPI PUSH1 0x0 CALLDATALOAD PUSH1 0xE0 SHR DUP1 PUSH4 0x117803E3 EQ PUSH2 0x51 JUMPI DUP1 PUSH4 0x1D831D5C EQ PUSH2 0x6F JUMPI DUP1 PUSH4 0x2782CC7F EQ PUSH2 0x8D JUMPI DUP1 PUSH4 0x2C618954 EQ PUSH2 0xAB JUMPI JUMPDEST PUSH1 0x0 DUP1 REVERT JUMPDEST PUSH2 0x59 PUSH2 0xC7 JUMP JUMPDEST PUSH1 0x40 MLOAD PUSH2 0x66 SWAP2 SWAP1 PUSH2 0x951 JUMP JUMPDEST PUSH1 0x40 MLOAD DUP1 SWAP2 SUB SWAP1 RETURN JUMPDEST PUSH2 0x77 PUSH2 0x1A8 JUMP JUMPDEST PUSH1 0x40 MLOAD PUSH2 0x84 SWAP2 SWAP1 PUSH2 0x951 JUMP JUMPDEST PUSH1 0x40 MLOAD DUP1 SWAP2 SUB SWAP1 RETURN JUMPDEST PUSH2 0x95 PUSH2 0x209 JUMP JUMPDEST PUSH1 0x40 MLOAD PUSH2 0xA2 SWAP2 SWAP1 PUSH2 0x951 JUMP JUMPDEST PUSH1 0x40 MLOAD DUP1 SWAP2 SUB SWAP1 RETURN JUMPDEST PUSH2 0xC5 PUSH1 0x4 DUP1 CALLDATASIZE SUB DUP2 ADD SWAP1 PUSH2 0xC0 SWAP2 SWAP1 PUSH2 0xABC JUMP JUMPDEST PUSH2 0x292 JUMP JUMPDEST STOP JUMPDEST PUSH1 0x60 PUSH1 0x2 PUSH1 0x0 SWAP1 SLOAD SWAP1 PUSH2 0x100 EXP SWAP1 DIV PUSH1 0xFF AND PUSH2 0x118 JUMPI PUSH1 0x40 MLOAD PUSH32 0x8C379A000000000000000000000000000000000000000000000000000000000 DUP2 MSTORE PUSH1 0x4 ADD PUSH2 0x10F SWAP1 PUSH2 0xB51 JUMP JUMPDEST PUSH1 0x40 MLOAD DUP1 SWAP2 SUB SWAP1 REVERT JUMPDEST PUSH1 0x0 DUP1 SLOAD PUSH2 0x125 SWAP1 PUSH2 0xBA0 JUMP JUMPDEST DUP1 PUSH1 0x1F ADD PUSH1 0x20 DUP1 SWAP2 DIV MUL PUSH1 0x20 ADD PUSH1 0x40 MLOAD SWAP1 DUP2 ADD PUSH1 0x40 MSTORE DUP1 SWAP3 SWAP2 SWAP1 DUP2 DUP2 MSTORE PUSH1 0x20 ADD DUP3 DUP1 SLOAD PUSH2 0x151 SWAP1 PUSH2 0xBA0 JUMP JUMPDEST DUP1 ISZERO PUSH2 0x19E JUMPI DUP1 PUSH1 0x1F LT PUSH2 0x173 JUMPI PUSH2 0x100 DUP1 DUP4 SLOAD DIV MUL DUP4 MSTORE SWAP2 PUSH1 0x20 ADD SWAP2 PUSH2 0x19E JUMP JUMPDEST DUP3 ADD SWAP2 SWAP1 PUSH1 0x0 MSTORE PUSH1 0x20 PUSH1 0x0 KECCAK256 SWAP1 JUMPDEST DUP2 SLOAD DUP2 MSTORE SWAP1 PUSH1 0x1 ADD SWAP1 PUSH1 0x20 ADD DUP1 DUP4 GT PUSH2 0x181 JUMPI DUP3 SWAP1 SUB PUSH1 0x1F AND DUP3 ADD SWAP2 JUMPDEST POP POP POP POP POP SWAP1 POP SWAP1 JUMP JUMPDEST PUSH1 0x60 PUSH1 0x2 PUSH1 0x0 SWAP1 SLOAD SWAP1 PUSH2 0x100 EXP SWAP1 DIV PUSH1 0xFF AND PUSH2 0x1F9 JUMPI PUSH1 0x40 MLOAD PUSH32 0x8C379A000000000000000000000000000000000000000000000000000000000 DUP2 MSTORE PUSH1 0x4 ADD PUSH2 0x1F0 SWAP1 PUSH2 0xB51 JUMP JUMPDEST PUSH1 0x40 MLOAD DUP1 SWAP2 SUB SWAP1 REVERT JUMPDEST PUSH2 0x204 PUSH1 0x1 SLOAD PUSH2 0x33E JUMP JUMPDEST SWAP1 POP SWAP1 JUMP JUMPDEST PUSH1 0x60 PUSH1 0x2 PUSH1 0x0 SWAP1 SLOAD SWAP1 PUSH2 0x100 EXP SWAP1 DIV PUSH1 0xFF AND PUSH2 0x25A JUMPI PUSH1 0x40 MLOAD PUSH32 0x8C379A000000000000000000000000000000000000000000000000000000000 DUP2 MSTORE PUSH1 0x4 ADD PUSH2 0x251 SWAP1 PUSH2 0xB51 JUMP JUMPDEST PUSH1 0x40 MLOAD DUP1 SWAP2 SUB SWAP1 REVERT JUMPDEST PUSH1 0x0 PUSH2 0x6989 SWAP1 POP PUSH1 0x0 PUSH4 0x5F5E100 DUP3 PUSH1 0x1 SLOAD PUSH2 0x276 SWAP2 SWAP1 PUSH2 0xC0A JUMP JUMPDEST PUSH2 0x280 SWAP2 SWAP1 PUSH2 0xC7B JUMP JUMPDEST SWAP1 POP PUSH2 0x28B DUP2 PUSH2 0x557 JUMP JUMPDEST SWAP3 POP POP POP SWAP1 JUMP JUMPDEST DUP1 PUSH1 0x40 MLOAD PUSH1 0x20 ADD PUSH2 0x2A2 SWAP1 PUSH2 0xD03 JUMP JUMPDEST PUSH1 0x40 MLOAD PUSH1 0x20 DUP2 DUP4 SUB SUB DUP2 MSTORE SWAP1 PUSH1 0x40 MSTORE DUP1 MLOAD SWAP1 PUSH1 0x20 ADD KECCAK256 DUP2 PUSH1 0x40 MLOAD PUSH1 0x20 ADD PUSH2 0x2C9 SWAP2 SWAP1 PUSH2 0xD5F JUMP JUMPDEST PUSH1 0x40 MLOAD PUSH1 0x20 DUP2 DUP4 SUB SUB DUP2 MSTORE SWAP1 PUSH1 0x40 MSTORE DUP1 MLOAD SWAP1 PUSH1 0x20 ADD KECCAK256 EQ PUSH2 0x31F JUMPI PUSH1 0x40 MLOAD PUSH32 0x8C379A000000000000000000000000000000000000000000000000000000000 DUP2 MSTORE PUSH1 0x4 ADD PUSH2 0x316 SWAP1 PUSH2 0xDC2 JUMP JUMPDEST PUSH1 0x40 MLOAD DUP1 SWAP2 SUB SWAP1 REVERT JUMPDEST PUSH1 0x1 PUSH1 0x2 PUSH1 0x0 PUSH2 0x100 EXP DUP2 SLOAD DUP2 PUSH1 0xFF MUL NOT AND SWAP1 DUP4 ISZERO ISZERO MUL OR SWAP1 SSTORE POP POP POP JUMP JUMPDEST PUSH1 0x60 PUSH1 0x0 PUSH4 0x5F5E100 DUP4 PUSH2 0x352 SWAP2 SWAP1 PUSH2 0xC7B JUMP JUMPDEST SWAP1 POP PUSH1 0x0 PUSH4 0x5F5E100 DUP5 PUSH2 0x366 SWAP2 SWAP1 PUSH2 0xDE2 JUMP JUMPDEST SWAP1 POP PUSH1 0x0 PUSH2 0x373 DUP4 PUSH2 0x761 JUMP JUMPDEST SWAP1 POP PUSH1 0x0 DUP2 SWAP1 POP PUSH1 0x0 DUP2 MLOAD SWAP1 POP PUSH1 0x0 PUSH1 0x3 DUP3 PUSH2 0x38F SWAP2 SWAP1 PUSH2 0xC7B JUMP JUMPDEST DUP3 PUSH2 0x39A SWAP2 SWAP1 PUSH2 0xE13 JUMP JUMPDEST PUSH8 0xFFFFFFFFFFFFFFFF DUP2 GT ISZERO PUSH2 0x3B3 JUMPI PUSH2 0x3B2 PUSH2 0x991 JUMP JUMPDEST JUMPDEST PUSH1 0x40 MLOAD SWAP1 DUP1 DUP3 MSTORE DUP1 PUSH1 0x1F ADD PUSH1 0x1F NOT AND PUSH1 0x20 ADD DUP3 ADD PUSH1 0x40 MSTORE DUP1 ISZERO PUSH2 0x3E5 JUMPI DUP2 PUSH1 0x20 ADD PUSH1 0x1 DUP3 MUL DUP1 CALLDATASIZE DUP4 CALLDATACOPY DUP1 DUP3 ADD SWAP2 POP POP SWAP1 POP JUMPDEST POP SWAP1 POP PUSH1 0x0 DUP1 JUMPDEST DUP4 DUP2 LT ISZERO PUSH2 0x510 JUMPI PUSH1 0x0 PUSH1 0x3 DUP3 DUP7 PUSH2 0x404 SWAP2 SWAP1 PUSH2 0xE47 JUMP JUMPDEST PUSH2 0x40E SWAP2 SWAP1 PUSH2 0xDE2 JUMP JUMPDEST EQ DUP1 ISZERO PUSH2 0x41C JUMPI POP PUSH1 0x0 DUP2 EQ ISZERO JUMPDEST ISZERO PUSH2 0x491 JUMPI PUSH32 0x2C00000000000000000000000000000000000000000000000000000000000000 DUP4 DUP4 DUP1 PUSH2 0x44E SWAP1 PUSH2 0xE7B JUMP JUMPDEST SWAP5 POP DUP2 MLOAD DUP2 LT PUSH2 0x461 JUMPI PUSH2 0x460 PUSH2 0xEC3 JUMP JUMPDEST JUMPDEST PUSH1 0x20 ADD ADD SWAP1 PUSH31 0xFFFFFFFFFFFFFFFFFFFFFFFFFFFFFFFFFFFFFFFFFFFFFFFFFFFFFFFFFFFFFF NOT AND SWAP1 DUP2 PUSH1 0x0 BYTE SWAP1 MSTORE8 POP JUMPDEST DUP5 DUP2 DUP2 MLOAD DUP2 LT PUSH2 0x4A4 JUMPI PUSH2 0x4A3 PUSH2 0xEC3 JUMP JUMPDEST JUMPDEST PUSH1 0x20 ADD ADD MLOAD PUSH1 0xF8 SHR PUSH1 0xF8 SHL DUP4 DUP4 DUP1 PUSH2 0x4BB SWAP1 PUSH2 0xE7B JUMP JUMPDEST SWAP5 POP DUP2 MLOAD DUP2 LT PUSH2 0x4CE JUMPI PUSH2 0x4CD PUSH2 0xEC3 JUMP JUMPDEST JUMPDEST PUSH1 0x20 ADD ADD SWAP1 PUSH31 0xFFFFFFFFFFFFFFFFFFFFFFFFFFFFFFFFFFFFFFFFFFFFFFFFFFFFFFFFFFFFFF NOT AND SWAP1 DUP2 PUSH1 0x0 BYTE SWAP1 MSTORE8 POP DUP1 DUP1 PUSH2 0x508 SWAP1 PUSH2 0xE7B JUMP JUMPDEST SWAP2 POP POP PUSH2 0x3EC JUMP JUMPDEST POP DUP2 PUSH2 0x529 PUSH3 0xF4240 DUP9 PUSH2 0x524 SWAP2 SWAP1 PUSH2 0xC7B JUMP JUMPDEST PUSH2 0x761 JUMP JUMPDEST PUSH1 0x40 MLOAD PUSH1 0x20 ADD PUSH2 0x53A SWAP3 SWAP2 SWAP1 PUSH2 0xFBB JUMP JUMPDEST PUSH1 0x40 MLOAD PUSH1 0x20 DUP2 DUP4 SUB SUB DUP2 MSTORE SWAP1 PUSH1 0x40 MSTORE SWAP8 POP POP POP POP POP POP POP POP SWAP2 SWAP1 POP JUMP JUMPDEST PUSH1 0x60 PUSH1 0x0 PUSH2 0x564 DUP4 PUSH2 0x761 JUMP JUMPDEST SWAP1 POP PUSH1 0x0 DUP2 SWAP1 POP PUSH1 0x0 DUP2 MLOAD SWAP1 POP PUSH1 0x6 DUP2 GT PUSH2 0x5A3 JUMPI DUP3 PUSH1 0x40 MLOAD PUSH1 0x20 ADD PUSH2 0x58A SWAP2 SWAP1 PUSH2 0x108D JUMP JUMPDEST PUSH1 0x40 MLOAD PUSH1 0x20 DUP2 DUP4 SUB SUB DUP2 MSTORE SWAP1 PUSH1 0x40 MSTORE SWAP4 POP POP POP POP PUSH2 0x75C JUMP JUMPDEST PUSH1 0x0 PUSH1 0x3 DUP3 PUSH2 0x5B2 SWAP2 SWAP1 PUSH2 0xC7B JUMP JUMPDEST DUP3 PUSH2 0x5BD SWAP2 SWAP1 PUSH2 0xE13 JUMP JUMPDEST PUSH8 0xFFFFFFFFFFFFFFFF DUP2 GT ISZERO PUSH2 0x5D6 JUMPI PUSH2 0x5D5 PUSH2 0x991 JUMP JUMPDEST JUMPDEST PUSH1 0x40 MLOAD SWAP1 DUP1 DUP3 MSTORE DUP1 PUSH1 0x1F ADD PUSH1 0x1F NOT AND PUSH1 0x20 ADD DUP3 ADD PUSH1 0x40 MSTORE DUP1 ISZERO PUSH2 0x608 JUMPI DUP2 PUSH1 0x20 ADD PUSH1 0x1 DUP3 MUL DUP1 CALLDATASIZE DUP4 CALLDATACOPY DUP1 DUP3 ADD SWAP2 POP POP SWAP1 POP JUMPDEST POP SWAP1 POP PUSH1 0x0 DUP1 JUMPDEST DUP4 DUP2 LT ISZERO PUSH2 0x733 JUMPI PUSH1 0x0 PUSH1 0x3 DUP3 DUP7 PUSH2 0x627 SWAP2 SWAP1 PUSH2 0xE47 JUMP JUMPDEST PUSH2 0x631 SWAP2 SWAP1 PUSH2 0xDE2 JUMP JUMPDEST EQ DUP1 ISZERO PUSH2 0x63F JUMPI POP PUSH1 0x0 DUP2 EQ ISZERO JUMPDEST ISZERO PUSH2 0x6B4 JUMPI PUSH32 0x2C00000000000000000000000000000000000000000000000000000000000000 DUP4 DUP4 DUP1 PUSH2 0x671 SWAP1 PUSH2 0xE7B JUMP JUMPDEST SWAP5 POP DUP2 MLOAD DUP2 LT PUSH2 0x684 JUMPI PUSH2 0x683 PUSH2 0xEC3 JUMP JUMPDEST JUMPDEST PUSH1 0x20 ADD ADD SWAP1 PUSH31 0xFFFFFFFFFFFFFFFFFFFFFFFFFFFFFFFFFFFFFFFFFFFFFFFFFFFFFFFFFFFFFF NOT AND SWAP1 DUP2 PUSH1 0x0 BYTE SWAP1 MSTORE8 POP JUMPDEST DUP5 DUP2 DUP2 MLOAD DUP2 LT PUSH2 0x6C7 JUMPI PUSH2 0x6C6 PUSH2 0xEC3 JUMP JUMPDEST JUMPDEST PUSH1 0x20 ADD ADD MLOAD PUSH1 0xF8 SHR PUSH1 0xF8 SHL DUP4 DUP4 DUP1 PUSH2 0x6DE SWAP1 PUSH2 0xE7B JUMP JUMPDEST SWAP5 POP DUP2 MLOAD DUP2 LT PUSH2 0x6F1 JUMPI PUSH2 0x6F0 PUSH2 0xEC3 JUMP JUMPDEST JUMPDEST PUSH1 0x20 ADD ADD SWAP1 PUSH31 0xFFFFFFFFFFFFFFFFFFFFFFFFFFFFFFFFFFFFFFFFFFFFFFFFFFFFFFFFFFFFFF NOT AND SWAP1 DUP2 PUSH1 0x0 BYTE SWAP1 MSTORE8 POP DUP1 DUP1 PUSH2 0x72B SWAP1 PUSH2 0xE7B JUMP JUMPDEST SWAP2 POP POP PUSH2 0x60F JUMP JUMPDEST POP DUP2 PUSH1 0x40 MLOAD PUSH1 0x20 ADD PUSH2 0x745 SWAP2 SWAP1 PUSH2 0x10BA JUMP JUMPDEST PUSH1 0x40 MLOAD PUSH1 0x20 DUP2 DUP4 SUB SUB DUP2 MSTORE SWAP1 PUSH1 0x40 MSTORE SWAP6 POP POP POP POP POP POP JUMPDEST SWAP2 SWAP1 POP JUMP JUMPDEST PUSH1 0x60 PUSH1 0x0 DUP3 SUB PUSH2 0x7A8 JUMPI PUSH1 0x40 MLOAD DUP1 PUSH1 0x40 ADD PUSH1 0x40 MSTORE DUP1 PUSH1 0x1 DUP2 MSTORE PUSH1 0x20 ADD PUSH32 0x3000000000000000000000000000000000000000000000000000000000000000 DUP2 MSTORE POP SWAP1 POP PUSH2 0x8BC JUMP JUMPDEST PUSH1 0x0 DUP3 SWAP1 POP PUSH1 0x0 JUMPDEST PUSH1 0x0 DUP3 EQ PUSH2 0x7DA JUMPI DUP1 DUP1 PUSH2 0x7C3 SWAP1 PUSH2 0xE7B JUMP JUMPDEST SWAP2 POP POP PUSH1 0xA DUP3 PUSH2 0x7D3 SWAP2 SWAP1 PUSH2 0xC7B JUMP JUMPDEST SWAP2 POP PUSH2 0x7B0 JUMP JUMPDEST PUSH1 0x0 DUP2 PUSH8 0xFFFFFFFFFFFFFFFF DUP2 GT ISZERO PUSH2 0x7F6 JUMPI PUSH2 0x7F5 PUSH2 0x991 JUMP JUMPDEST JUMPDEST PUSH1 0x40 MLOAD SWAP1 DUP1 DUP3 MSTORE DUP1 PUSH1 0x1F ADD PUSH1 0x1F NOT AND PUSH1 0x20 ADD DUP3 ADD PUSH1 0x40 MSTORE DUP1 ISZERO PUSH2 0x828 JUMPI DUP2 PUSH1 0x20 ADD PUSH1 0x1 DUP3 MUL DUP1 CALLDATASIZE DUP4 CALLDATACOPY DUP1 DUP3 ADD SWAP2 POP POP SWAP1 POP JUMPDEST POP SWAP1 POP JUMPDEST PUSH1 0x0 DUP6 EQ PUSH2 0x8B5 JUMPI PUSH1 0x1 DUP3 PUSH2 0x841 SWAP2 SWAP1 PUSH2 0xE47 JUMP JUMPDEST SWAP2 POP PUSH1 0xA DUP6 PUSH2 0x850 SWAP2 SWAP1 PUSH2 0xDE2 JUMP JUMPDEST PUSH1 0x30 PUSH2 0x85C SWAP2 SWAP1 PUSH2 0xE13 JUMP JUMPDEST PUSH1 0xF8 SHL DUP2 DUP4 DUP2 MLOAD DUP2 LT PUSH2 0x872 JUMPI PUSH2 0x871 PUSH2 0xEC3 JUMP JUMPDEST JUMPDEST PUSH1 0x20 ADD ADD SWAP1 PUSH31 0xFFFFFFFFFFFFFFFFFFFFFFFFFFFFFFFFFFFFFFFFFFFFFFFFFFFFFFFFFFFFFF NOT AND SWAP1 DUP2 PUSH1 0x0 BYTE SWAP1 MSTORE8 POP PUSH1 0xA DUP6 PUSH2 0x8AE SWAP2 SWAP1 PUSH2 0xC7B JUMP JUMPDEST SWAP5 POP PUSH2 0x82C JUMP JUMPDEST DUP1 SWAP4 POP POP POP POP JUMPDEST SWAP2 SWAP1 POP JUMP JUMPDEST PUSH1 0x0 DUP2 MLOAD SWAP1 POP SWAP2 SWAP1 POP JUMP JUMPDEST PUSH1 0x0 DUP3 DUP3 MSTORE PUSH1 0x20 DUP3 ADD SWAP1 POP SWAP3 SWAP2 POP POP JUMP JUMPDEST PUSH1 0x0 JUMPDEST DUP4 DUP2 LT ISZERO PUSH2 0x8FB JUMPI DUP1 DUP3 ADD MLOAD DUP2 DUP5 ADD MSTORE PUSH1 0x20 DUP2 ADD SWAP1 POP PUSH2 0x8E0 JUMP JUMPDEST PUSH1 0x0 DUP5 DUP5 ADD MSTORE POP POP POP POP JUMP JUMPDEST PUSH1 0x0 PUSH1 0x1F NOT PUSH1 0x1F DUP4 ADD AND SWAP1 POP SWAP2 SWAP1 POP JUMP JUMPDEST PUSH1 0x0 PUSH2 0x923 DUP3 PUSH2 0x8C1 JUMP JUMPDEST PUSH2 0x92D DUP2 DUP6 PUSH2 0x8CC JUMP JUMPDEST SWAP4 POP PUSH2 0x93D DUP2 DUP6 PUSH1 0x20 DUP7 ADD PUSH2 0x8DD JUMP JUMPDEST PUSH2 0x946 DUP2 PUSH2 0x907 JUMP JUMPDEST DUP5 ADD SWAP2 POP POP SWAP3 SWAP2 POP POP JUMP JUMPDEST PUSH1 0x0 PUSH1 0x20 DUP3 ADD SWAP1 POP DUP2 DUP2 SUB PUSH1 0x0 DUP4 ADD MSTORE PUSH2 0x96B DUP2 DUP5 PUSH2 0x918 JUMP JUMPDEST SWAP1 POP SWAP3 SWAP2 POP POP JUMP JUMPDEST PUSH1 0x0 PUSH1 0x40 MLOAD SWAP1 POP SWAP1 JUMP JUMPDEST PUSH1 0x0 DUP1 REVERT JUMPDEST PUSH1 0x0 DUP1 REVERT JUMPDEST PUSH1 0x0 DUP1 REVERT JUMPDEST PUSH1 0x0 DUP1 REVERT JUMPDEST PUSH32 0x4E487B7100000000000000000000000000000000000000000000000000000000 PUSH1 0x0 MSTORE PUSH1 0x41 PUSH1 0x4 MSTORE PUSH1 0x24 PUSH1 0x0 REVERT JUMPDEST PUSH2 0x9C9 DUP3 PUSH2 0x907 JUMP JUMPDEST DUP2 ADD DUP2 DUP2 LT PUSH8 0xFFFFFFFFFFFFFFFF DUP3 GT OR ISZERO PUSH2 0x9E8 JUMPI PUSH2 0x9E7 PUSH2 0x991 JUMP JUMPDEST JUMPDEST DUP1 PUSH1 0x40 MSTORE POP POP POP JUMP JUMPDEST PUSH1 0x0 PUSH2 0x9FB PUSH2 0x973 JUMP JUMPDEST SWAP1 POP PUSH2 0xA07 DUP3 DUP3 PUSH2 0x9C0 JUMP JUMPDEST SWAP2 SWAP1 POP JUMP JUMPDEST PUSH1 0x0 PUSH8 0xFFFFFFFFFFFFFFFF DUP3 GT ISZERO PUSH2 0xA27 JUMPI PUSH2 0xA26 PUSH2 0x991 JUMP JUMPDEST JUMPDEST PUSH2 0xA30 DUP3 PUSH2 0x907 JUMP JUMPDEST SWAP1 POP PUSH1 0x20 DUP2 ADD SWAP1 POP SWAP2 SWAP1 POP JUMP JUMPDEST DUP3 DUP2 DUP4 CALLDATACOPY PUSH1 0x0 DUP4 DUP4 ADD MSTORE POP POP POP JUMP JUMPDEST PUSH1 0x0 PUSH2 0xA5F PUSH2 0xA5A DUP5 PUSH2 0xA0C JUMP JUMPDEST PUSH2 0x9F1 JUMP JUMPDEST SWAP1 POP DUP3 DUP2 MSTORE PUSH1 0x20 DUP2 ADD DUP5 DUP5 DUP5 ADD GT ISZERO PUSH2 0xA7B JUMPI PUSH2 0xA7A PUSH2 0x98C JUMP JUMPDEST JUMPDEST PUSH2 0xA86 DUP5 DUP3 DUP6 PUSH2 0xA3D JUMP JUMPDEST POP SWAP4 SWAP3 POP POP POP JUMP JUMPDEST PUSH1 0x0 DUP3 PUSH1 0x1F DUP4 ADD SLT PUSH2 0xAA3 JUMPI PUSH2 0xAA2 PUSH2 0x987 JUMP JUMPDEST JUMPDEST DUP2 CALLDATALOAD PUSH2 0xAB3 DUP5 DUP3 PUSH1 0x20 DUP7 ADD PUSH2 0xA4C JUMP JUMPDEST SWAP2 POP POP SWAP3 SWAP2 POP POP JUMP JUMPDEST PUSH1 0x0 PUSH1 0x20 DUP3 DUP5 SUB SLT ISZERO PUSH2 0xAD2 JUMPI PUSH2 0xAD1 PUSH2 0x97D JUMP JUMPDEST JUMPDEST PUSH1 0x0 DUP3 ADD CALLDATALOAD PUSH8 0xFFFFFFFFFFFFFFFF DUP2 GT ISZERO PUSH2 0xAF0 JUMPI PUSH2 0xAEF PUSH2 0x982 JUMP JUMPDEST JUMPDEST PUSH2 0xAFC DUP5 DUP3 DUP6 ADD PUSH2 0xA8E JUMP JUMPDEST SWAP2 POP POP SWAP3 SWAP2 POP POP JUMP JUMPDEST PUSH32 0x506C65617365206C6F67696E2066697273742E00000000000000000000000000 PUSH1 0x0 DUP3 ADD MSTORE POP JUMP JUMPDEST PUSH1 0x0 PUSH2 0xB3B PUSH1 0x13 DUP4 PUSH2 0x8CC JUMP JUMPDEST SWAP2 POP PUSH2 0xB46 DUP3 PUSH2 0xB05 JUMP JUMPDEST PUSH1 0x20 DUP3 ADD SWAP1 POP SWAP2 SWAP1 POP JUMP JUMPDEST PUSH1 0x0 PUSH1 0x20 DUP3 ADD SWAP1 POP DUP2 DUP2 SUB PUSH1 0x0 DUP4 ADD MSTORE PUSH2 0xB6A DUP2 PUSH2 0xB2E JUMP JUMPDEST SWAP1 POP SWAP2 SWAP1 POP JUMP JUMPDEST PUSH32 0x4E487B7100000000000000000000000000000000000000000000000000000000 PUSH1 0x0 MSTORE PUSH1 0x22 PUSH1 0x4 MSTORE PUSH1 0x24 PUSH1 0x0 REVERT JUMPDEST PUSH1 0x0 PUSH1 0x2 DUP3 DIV SWAP1 POP PUSH1 0x1 DUP3 AND DUP1 PUSH2 0xBB8 JUMPI PUSH1 0x7F DUP3 AND SWAP2 POP JUMPDEST PUSH1 0x20 DUP3 LT DUP2 SUB PUSH2 0xBCB JUMPI PUSH2 0xBCA PUSH2 0xB71 JUMP JUMPDEST JUMPDEST POP SWAP2 SWAP1 POP JUMP JUMPDEST PUSH1 0x0 DUP2 SWAP1 POP SWAP2 SWAP1 POP JUMP JUMPDEST PUSH32 0x4E487B7100000000000000000000000000000000000000000000000000000000 PUSH1 0x0 MSTORE PUSH1 0x11 PUSH1 0x4 MSTORE PUSH1 0x24 PUSH1 0x0 REVERT JUMPDEST PUSH1 0x0 PUSH2 0xC15 DUP3 PUSH2 0xBD1 JUMP JUMPDEST SWAP2 POP PUSH2 0xC20 DUP4 PUSH2 0xBD1 JUMP JUMPDEST SWAP3 POP DUP3 DUP3 MUL PUSH2 0xC2E DUP2 PUSH2 0xBD1 JUMP JUMPDEST SWAP2 POP DUP3 DUP3 DIV DUP5 EQ DUP4 ISZERO OR PUSH2 0xC45 JUMPI PUSH2 0xC44 PUSH2 0xBDB JUMP JUMPDEST JUMPDEST POP SWAP3 SWAP2 POP POP JUMP JUMPDEST PUSH32 0x4E487B7100000000000000000000000000000000000000000000000000000000 PUSH1 0x0 MSTORE PUSH1 0x12 PUSH1 0x4 MSTORE PUSH1 0x24 PUSH1 0x0 REVERT JUMPDEST PUSH1 0x0 PUSH2 0xC86 DUP3 PUSH2 0xBD1 JUMP JUMPDEST SWAP2 POP PUSH2 0xC91 DUP4 PUSH2 0xBD1 JUMP JUMPDEST SWAP3 POP DUP3 PUSH2 0xCA1 JUMPI PUSH2 0xCA0 PUSH2 0xC4C JUMP JUMPDEST JUMPDEST DUP3 DUP3 DIV SWAP1 POP SWAP3 SWAP2 POP POP JUMP JUMPDEST PUSH1 0x0 DUP2 SWAP1 POP SWAP3 SWAP2 POP POP JUMP JUMPDEST PUSH32 0x58797E30316B212A000000000000000000000000000000000000000000000000 PUSH1 0x0 DUP3 ADD MSTORE POP JUMP JUMPDEST PUSH1 0x0 PUSH2 0xCED PUSH1 0x8 DUP4 PUSH2 0xCAC JUMP JUMPDEST SWAP2 POP PUSH2 0xCF8 DUP3 PUSH2 0xCB7 JUMP JUMPDEST PUSH1 0x8 DUP3 ADD SWAP1 POP SWAP2 SWAP1 POP JUMP JUMPDEST PUSH1 0x0 PUSH2 0xD0E DUP3 PUSH2 0xCE0 JUMP JUMPDEST SWAP2 POP DUP2 SWAP1 POP SWAP2 SWAP1 POP JUMP JUMPDEST PUSH1 0x0 DUP2 MLOAD SWAP1 POP SWAP2 SWAP1 POP JUMP JUMPDEST PUSH1 0x0 DUP2 SWAP1 POP SWAP3 SWAP2 POP POP JUMP JUMPDEST PUSH1 0x0 PUSH2 0xD39 DUP3 PUSH2 0xD18 JUMP JUMPDEST PUSH2 0xD43 DUP2 DUP6 PUSH2 0xD23 JUMP JUMPDEST SWAP4 POP PUSH2 0xD53 DUP2 DUP6 PUSH1 0x20 DUP7 ADD PUSH2 0x8DD JUMP JUMPDEST DUP1 DUP5 ADD SWAP2 POP POP SWAP3 SWAP2 POP POP JUMP JUMPDEST PUSH1 0x0 PUSH2 0xD6B DUP3 DUP5 PUSH2 0xD2E JUMP JUMPDEST SWAP2 POP DUP2 SWAP1 POP SWAP3 SWAP2 POP POP JUMP JUMPDEST PUSH32 0x496E636F72726563742070617373776F72642E00000000000000000000000000 PUSH1 0x0 DUP3 ADD MSTORE POP JUMP JUMPDEST PUSH1 0x0 PUSH2 0xDAC PUSH1 0x13 DUP4 PUSH2 0x8CC JUMP JUMPDEST SWAP2 POP PUSH2 0xDB7 DUP3 PUSH2 0xD76 JUMP JUMPDEST PUSH1 0x20 DUP3 ADD SWAP1 POP SWAP2 SWAP1 POP JUMP JUMPDEST PUSH1 0x0 PUSH1 0x20 DUP3 ADD SWAP1 POP DUP2 DUP2 SUB PUSH1 0x0 DUP4 ADD MSTORE PUSH2 0xDDB DUP2 PUSH2 0xD9F JUMP JUMPDEST SWAP1 POP SWAP2 SWAP1 POP JUMP JUMPDEST PUSH1 0x0 PUSH2 0xDED DUP3 PUSH2 0xBD1 JUMP JUMPDEST SWAP2 POP PUSH2 0xDF8 DUP4 PUSH2 0xBD1 JUMP JUMPDEST SWAP3 POP DUP3 PUSH2 0xE08 JUMPI PUSH2 0xE07 PUSH2 0xC4C JUMP JUMPDEST JUMPDEST DUP3 DUP3 MOD SWAP1 POP SWAP3 SWAP2 POP POP JUMP JUMPDEST PUSH1 0x0 PUSH2 0xE1E DUP3 PUSH2 0xBD1 JUMP JUMPDEST SWAP2 POP PUSH2 0xE29 DUP4 PUSH2 0xBD1 JUMP JUMPDEST SWAP3 POP DUP3 DUP3 ADD SWAP1 POP DUP1 DUP3 GT ISZERO PUSH2 0xE41 JUMPI PUSH2 0xE40 PUSH2 0xBDB JUMP JUMPDEST JUMPDEST SWAP3 SWAP2 POP POP JUMP JUMPDEST PUSH1 0x0 PUSH2 0xE52 DUP3 PUSH2 0xBD1 JUMP JUMPDEST SWAP2 POP PUSH2 0xE5D DUP4 PUSH2 0xBD1 JUMP JUMPDEST SWAP3 POP DUP3 DUP3 SUB SWAP1 POP DUP2 DUP2 GT ISZERO PUSH2 0xE75 JUMPI PUSH2 0xE74 PUSH2 0xBDB JUMP JUMPDEST JUMPDEST SWAP3 SWAP2 POP POP JUMP JUMPDEST PUSH1 0x0 PUSH2 0xE86 DUP3 PUSH2 0xBD1 JUMP JUMPDEST SWAP2 POP PUSH32 0xFFFFFFFFFFFFFFFFFFFFFFFFFFFFFFFFFFFFFFFFFFFFFFFFFFFFFFFFFFFFFFFF DUP3 SUB PUSH2 0xEB8 JUMPI PUSH2 0xEB7 PUSH2 0xBDB JUMP JUMPDEST JUMPDEST PUSH1 0x1 DUP3 ADD SWAP1 POP SWAP2 SWAP1 POP JUMP JUMPDEST PUSH32 0x4E487B7100000000000000000000000000000000000000000000000000000000 PUSH1 0x0 MSTORE PUSH1 0x32 PUSH1 0x4 MSTORE PUSH1 0x24 PUSH1 0x0 REVERT JUMPDEST PUSH32 0x2E00000000000000000000000000000000000000000000000000000000000000 PUSH1 0x0 DUP3 ADD MSTORE POP JUMP JUMPDEST PUSH1 0x0 PUSH2 0xF28 PUSH1 0x1 DUP4 PUSH2 0xCAC JUMP JUMPDEST SWAP2 POP PUSH2 0xF33 DUP3 PUSH2 0xEF2 JUMP JUMPDEST PUSH1 0x1 DUP3 ADD SWAP1 POP SWAP2 SWAP1 POP JUMP JUMPDEST PUSH1 0x0 PUSH2 0xF49 DUP3 PUSH2 0x8C1 JUMP JUMPDEST PUSH2 0xF53 DUP2 DUP6 PUSH2 0xCAC JUMP JUMPDEST SWAP4 POP PUSH2 0xF63 DUP2 DUP6 PUSH1 0x20 DUP7 ADD PUSH2 0x8DD JUMP JUMPDEST DUP1 DUP5 ADD SWAP2 POP POP SWAP3 SWAP2 POP POP JUMP JUMPDEST PUSH32 0x3020425443000000000000000000000000000000000000000000000000000000 PUSH1 0x0 DUP3 ADD MSTORE POP JUMP JUMPDEST PUSH1 0x0 PUSH2 0xFA5 PUSH1 0x5 DUP4 PUSH2 0xCAC JUMP JUMPDEST SWAP2 POP PUSH2 0xFB0 DUP3 PUSH2 0xF6F JUMP JUMPDEST PUSH1 0x5 DUP3 ADD SWAP1 POP SWAP2 SWAP1 POP JUMP JUMPDEST PUSH1 0x0 PUSH2 0xFC7 DUP3 DUP6 PUSH2 0xD2E JUMP JUMPDEST SWAP2 POP PUSH2 0xFD2 DUP3 PUSH2 0xF1B JUMP JUMPDEST SWAP2 POP PUSH2 0xFDE DUP3 DUP5 PUSH2 0xF3E JUMP JUMPDEST SWAP2 POP PUSH2 0xFE9 DUP3 PUSH2 0xF98 JUMP JUMPDEST SWAP2 POP DUP2 SWAP1 POP SWAP4 SWAP3 POP POP POP JUMP JUMPDEST PUSH32 0x2400000000000000000000000000000000000000000000000000000000000000 PUSH1 0x0 DUP3 ADD MSTORE POP JUMP JUMPDEST PUSH1 0x0 PUSH2 0x102B PUSH1 0x1 DUP4 PUSH2 0xCAC JUMP JUMPDEST SWAP2 POP PUSH2 0x1036 DUP3 PUSH2 0xFF5 JUMP JUMPDEST PUSH1 0x1 DUP3 ADD SWAP1 POP SWAP2 SWAP1 POP JUMP JUMPDEST PUSH32 0x2E30300000000000000000000000000000000000000000000000000000000000 PUSH1 0x0 DUP3 ADD MSTORE POP JUMP JUMPDEST PUSH1 0x0 PUSH2 0x1077 PUSH1 0x3 DUP4 PUSH2 0xCAC JUMP JUMPDEST SWAP2 POP PUSH2 0x1082 DUP3 PUSH2 0x1041 JUMP JUMPDEST PUSH1 0x3 DUP3 ADD SWAP1 POP SWAP2 SWAP1 POP JUMP JUMPDEST PUSH1 0x0 PUSH2 0x1098 DUP3 PUSH2 0x101E JUMP JUMPDEST SWAP2 POP PUSH2 0x10A4 DUP3 DUP5 PUSH2 0xF3E JUMP JUMPDEST SWAP2 POP PUSH2 0x10AF DUP3 PUSH2 0x106A JUMP JUMPDEST SWAP2 POP DUP2 SWAP1 POP SWAP3 SWAP2 POP POP JUMP JUMPDEST PUSH1 0x0 PUSH2 0x10C5 DUP3 PUSH2 0x101E JUMP JUMPDEST SWAP2 POP PUSH2 0x10D1 DUP3 DUP5 PUSH2 0xD2E JUMP JUMPDEST SWAP2 POP PUSH2 0x10DC DUP3 PUSH2 0x106A JUMP JUMPDEST SWAP2 POP DUP2 SWAP1 POP SWAP3 SWAP2 POP POP JUMP INVALID LOG2 PUSH5 0x6970667358 0x22 SLT KECCAK256 0xB3 INVALID DELEGATECALL 0xC2 PREVRANDAO COINBASE SWAP2 CODECOPY 0x4C MLOAD CALLDATACOPY 0xD4 0xD5 0xED 0x4C AND PUSH5 0xCBB8D15EB6 JUMP CALLDATASIZE CALLVALUE 0x2C 0x5E SELFDESTRUCT EXTCODESIZE 0xBA 0x4C SWAP14 PUSH5 0x736F6C6343 STOP ADDMOD SLT STOP CALLER "
	},
	"Assembly": ".code\n  PUSH 80\t\t\tcontract HARDWARE {\\r\\n    str...\n  PUSH 40\t\t\tcontract HARDWARE {\\r\\n    str...\n  MSTORE \t\t\tcontract HARDWARE {\\r\\n    str...\n  PUSH 40\t\t\tstring private owner = \"Ledger...\n  MLOAD \t\t\tstring private owner = \"Ledger...\n  DUP1 \t\t\tstring private owner = \"Ledger...\n  PUSH 60\t\t\tstring private owner = \"Ledger...\n  ADD \t\t\tstring private owner = \"Ledger...\n  PUSH 40\t\t\tstring private owner = \"Ledger...\n  MSTORE \t\t\tstring private owner = \"Ledger...\n  DUP1 \t\t\tstring private owner = \"Ledger...\n  PUSH 23\t\t\tstring private owner = \"Ledger...\n  DUP2 \t\t\tstring private owner = \"Ledger...\n  MSTORE \t\t\tstring private owner = \"Ledger...\n  PUSH 20\t\t\tstring private owner = \"Ledger...\n  ADD \t\t\tstring private owner = \"Ledger...\n  PUSH data AAFAED2B39B823BF94636B2D15E213CC715F9DB176507D7232FFD32B6622025D\t\t\tstring private owner = \"Ledger...\n  PUSH 23\t\t\tstring private owner = \"Ledger...\n  SWAP2 \t\t\tstring private owner = \"Ledger...\n  CODECOPY \t\t\tstring private owner = \"Ledger...\n  PUSH 0\t\t\tstring private owner = \"Ledger...\n  SWAP1 \t\t\tstring private owner = \"Ledger...\n  DUP2 \t\t\tstring private owner = \"Ledger...\n  PUSH [tag] 1\t\t\tstring private owner = \"Ledger...\n  SWAP2 \t\t\tstring private owner = \"Ledger...\n  SWAP1 \t\t\tstring private owner = \"Ledger...\n  PUSH [tag] 2\t\t\tstring private owner = \"Ledger...\n  JUMP \t\t\tstring private owner = \"Ledger...\ntag 1\t\t\tstring private owner = \"Ledger...\n  JUMPDEST \t\t\tstring private owner = \"Ledger...\n  POP \t\t\tstring private owner = \"Ledger...\n  PUSH 4E25ED2E700\t\t\t53703 * 10**8\n  PUSH 1\t\t\tuint256 private btcAmount = 53...\n  SSTORE \t\t\tuint256 private btcAmount = 53...\n  PUSH 0\t\t\tfalse\n  PUSH 2\t\t\tbool private loggedIn = false\n  PUSH 0\t\t\tbool private loggedIn = false\n  PUSH 100\t\t\tbool private loggedIn = false\n  EXP \t\t\tbool private loggedIn = false\n  DUP2 \t\t\tbool private loggedIn = false\n  SLOAD \t\t\tbool private loggedIn = false\n  DUP2 \t\t\tbool private loggedIn = false\n  PUSH FF\t\t\tbool private loggedIn = false\n  MUL \t\t\tbool private loggedIn = false\n  NOT \t\t\tbool private loggedIn = false\n  AND \t\t\tbool private loggedIn = false\n  SWAP1 \t\t\tbool private loggedIn = false\n  DUP4 \t\t\tbool private loggedIn = false\n  ISZERO \t\t\tbool private loggedIn = false\n  ISZERO \t\t\tbool private loggedIn = false\n  MUL \t\t\tbool private loggedIn = false\n  OR \t\t\tbool private loggedIn = false\n  SWAP1 \t\t\tbool private loggedIn = false\n  SSTORE \t\t\tbool private loggedIn = false\n  POP \t\t\tbool private loggedIn = false\n  CALLVALUE \t\t\tcontract HARDWARE {\\r\\n    str...\n  DUP1 \t\t\tcontract HARDWARE {\\r\\n    str...\n  ISZERO \t\t\tcontract HARDWARE {\\r\\n    str...\n  PUSH [tag] 3\t\t\tcontract HARDWARE {\\r\\n    str...\n  JUMPI \t\t\tcontract HARDWARE {\\r\\n    str...\n  PUSH 0\t\t\tcontract HARDWARE {\\r\\n    str...\n  DUP1 \t\t\tcontract HARDWARE {\\r\\n    str...\n  REVERT \t\t\tcontract HARDWARE {\\r\\n    str...\ntag 3\t\t\tcontract HARDWARE {\\r\\n    str...\n  JUMPDEST \t\t\tcontract HARDWARE {\\r\\n    str...\n  POP \t\t\tcontract HARDWARE {\\r\\n    str...\n  PUSH [tag] 4\t\t\tcontract HARDWARE {\\r\\n    str...\n  JUMP \t\t\tcontract HARDWARE {\\r\\n    str...\ntag 5\t\t\t-License-Identifier: MIT\\r\\npr...\n  JUMPDEST \t\t\t-License-Identifier: MIT\\r\\npr...\n  PUSH 0\t\t\t\\ncontr\n  DUP2 \t\t\trivat\n  MLOAD \t\t\tring private\n  SWAP1 \t\t\t {\\r\\n    string private\n  POP \t\t\t {\\r\\n    string private\n  SWAP2 \t\t\t-License-Identifier: MIT\\r\\npr...\n  SWAP1 \t\t\t-License-Identifier: MIT\\r\\npr...\n  POP \t\t\t-License-Identifier: MIT\\r\\npr...\n  JUMP \t\t\t-License-Identifier: MIT\\r\\npr...\ntag 6\t\t\tger-Nano-X (Recognized HARDWAR...\n  JUMPDEST \t\t\tger-Nano-X (Recognized HARDWAR...\n  PUSH 4E487B7100000000000000000000000000000000000000000000000000000000\t\t\tprivate btcAmount = 53703 * 10...\n  PUSH 0\t\t\t5\n  MSTORE \t\t\t  uint256 private btcAmount = ...\n  PUSH 41\t\t\tswor\n  PUSH 4\t\t\tP\n  MSTORE \t\t\trequirePassword\n  PUSH 24\t\t\tword\n  PUSH 0\t\t\ta\n  REVERT \t\t\temory password)\ntag 7\t\t\trequire(keccak256(abi.encodePa...\n  JUMPDEST \t\t\trequire(keccak256(abi.encodePa...\n  PUSH 4E487B7100000000000000000000000000000000000000000000000000000000\t\t\td))) == PASSWORD_HASH, \"Incorr...\n  PUSH 0\t\t\tw\n  MSTORE \t\t\tes(password))) == PASSWORD_HAS...\n  PUSH 22\t\t\t{\\r\\n \n  PUSH 4\t\t\t(\n  MSTORE \t\t\treLogin() {\\r\\n  \n  PUSH 24\t\t\tdIn,\n  PUSH 0\t\t\tg\n  REVERT \t\t\tuire(loggedIn, \ntag 8\t\t\tn first.\");\\r\\n        _;\\r\\n ...\n  JUMPDEST \t\t\tn first.\");\\r\\n        _;\\r\\n ...\n  PUSH 0\t\t\ton AUT\n  PUSH 2\t\t\tr\n  DUP3 \t\t\tpass\n  DIV \t\t\tory password\n  SWAP1 \t\t\tstring memory password\n  POP \t\t\tstring memory password\n  PUSH 1\t\t\t \n  DUP3 \t\t\t    \n  AND \t\t\t{\\r\\n        l\n  DUP1 \t\t\t  }\\r\\n\\r\\n\\r\\n    funct\n  PUSH [tag] 30\t\t\t true;\\r\\n    }\\r\\n\\r\\n\\r\\n   ...\n  JUMPI \t\t\t true;\\r\\n    }\\r\\n\\r\\n\\r\\n   ...\n  PUSH 7F\t\t\tgin \n  DUP3 \t\t\tequire\n  AND \t\t\tew requireLogin r\n  SWAP2 \t\t\t public view requireLogin r\n  POP \t\t\t public view requireLogin r\ntag 30\t\t\t true;\\r\\n    }\\r\\n\\r\\n\\r\\n   ...\n  JUMPDEST \t\t\t true;\\r\\n    }\\r\\n\\r\\n\\r\\n   ...\n  PUSH 20\t\t\t27\n  DUP3 \t\t\tdRate \n  LT \t\t\toUsdRate = 270\n  DUP2 \t\t\t        uint256 bt\n  SUB \t\t\t{\\r\\n        uint256 btcToUsdR...\n  PUSH [tag] 31\t\t\ty) {\\r\\n        uint256 btcToU...\n  JUMPI \t\t\ty) {\\r\\n        uint256 btcToU...\n  PUSH [tag] 32\t\t\tt256 usdAmount = b\n  PUSH [tag] 7\t\t\tt256 usdAmount = b\n  JUMP \t\t\tt256 usdAmount = b\ntag 32\t\t\tt256 usdAmount = b\n  JUMPDEST \t\t\tt256 usdAmount = b\ntag 31\t\t\ty) {\\r\\n        uint256 btcToU...\n  JUMPDEST \t\t\ty) {\\r\\n        uint256 btcToU...\n  POP \t\t\tORIZATION(string memory passwo...\n  SWAP2 \t\t\tn first.\");\\r\\n        _;\\r\\n ...\n  SWAP1 \t\t\tn first.\");\\r\\n        _;\\r\\n ...\n  POP \t\t\tn first.\");\\r\\n        _;\\r\\n ...\n  JUMP \t\t\tn first.\");\\r\\n        _;\\r\\n ...\ntag 9\t\t\te / (10**8);\\r\\n        return...\n  JUMPDEST \t\t\te / (10**8);\\r\\n        return...\n  PUSH 0\t\t\t;\\r\\n \n  DUP2 \t\t\tn O\n  SWAP1 \t\t\t function O\n  POP \t\t\t function O\n  DUP2 \t\t\tequ\n  PUSH 0\t\t\tw\n  MSTORE \t\t\tlic view requi\n  PUSH 20\t\t\t) {\\r\n  PUSH 0\t\t\to\n  KECCAK256 \t\t\tstring memory) {\\r\\n\n  SWAP1 \t\t\teturns (string memory) {\\r\\n\n  POP \t\t\teturns (string memory) {\\r\\n\n  SWAP2 \t\t\te / (10**8);\\r\\n        return...\n  SWAP1 \t\t\te / (10**8);\\r\\n        return...\n  POP \t\t\te / (10**8);\\r\\n        return...\n  JUMP \t\t\te / (10**8);\\r\\n        return...\ntag 10\t\t\tn owner;\\r\\n    }\\r\\n\\r\\n    f...\n  JUMPDEST \t\t\tn owner;\\r\\n    }\\r\\n\\r\\n    f...\n  PUSH 0\t\t\tS() pu\n  PUSH 20\t\t\tmo\n  PUSH 1F\t\t\tng\n  DUP4 \t\t\ts (st\n  ADD \t\t\tturns (string \n  DIV \t\t\tn returns (string memor\n  SWAP1 \t\t\tequireLogin returns (string me...\n  POP \t\t\tequireLogin returns (string me...\n  SWAP2 \t\t\tn owner;\\r\\n    }\\r\\n\\r\\n    f...\n  SWAP1 \t\t\tn owner;\\r\\n    }\\r\\n\\r\\n    f...\n  POP \t\t\tn owner;\\r\\n    }\\r\\n\\r\\n    f...\n  JUMP \t\t\tn owner;\\r\\n    }\\r\\n\\r\\n    f...\ntag 11\t\t\t  return formatBTC(btcAmount);...\n  JUMPDEST \t\t\t  return formatBTC(btcAmount);...\n  PUSH 0\t\t\t functio\n  DUP3 \t\t\teturn\n  DUP3 \t\t\tpure\n  SHL \t\t\tate pure returns\n  SWAP1 \t\t\t(uint256 amount) private pure ...\n  POP \t\t\t(uint256 amount) private pure ...\n  SWAP3 \t\t\t  return formatBTC(btcAmount);...\n  SWAP2 \t\t\t  return formatBTC(btcAmount);...\n  POP \t\t\t  return formatBTC(btcAmount);...\n  POP \t\t\t  return formatBTC(btcAmount);...\n  JUMP \t\t\t  return formatBTC(btcAmount);...\ntag 12\t\t\try) {\\r\\n        string memory...\n  JUMPDEST \t\t\try) {\\r\\n        string memory...\n  PUSH 0\t\t\t   byt\n  PUSH 8\t\t\t \n  DUP4 \t\t\tount);\\r\\n  \n  MUL \t\t\ttrAmount);\\r\\n      \n  PUSH [tag] 37\t\t\ttes.length;\\r\\n        if (len...\n  PUSH FFFFFFFFFFFFFFFFFFFFFFFFFFFFFFFFFFFFFFFFFFFFFFFFFFFFFFFFFFFFFFFF\t\t\t= 6) {\\r\\n            return s...\n  DUP3 \t\t\t  if (len\n  PUSH [tag] 11\t\t\ttes.length;\\r\\n        if (len...\n  JUMP \t\t\ttes.length;\\r\\n        if (len...\ntag 37\t\t\ttes.length;\\r\\n        if (len...\n  JUMPDEST \t\t\ttes.length;\\r\\n        if (len...\n  PUSH [tag] 38\t\t\t        bytes memory result = ...\n  DUP7 \t\t\tnew byte\n  DUP4 \t\t\ty result \n  PUSH [tag] 11\t\t\t        bytes memory result = ...\n  JUMP \t\t\t        bytes memory result = ...\ntag 38\t\t\t        bytes memory result = ...\n  JUMPDEST \t\t\t        bytes memory result = ...\n  SWAP6 \t\t\t\\n        }\\r\\n        bytes m...\n  POP \t\t\t\\n        }\\r\\n        bytes m...\n  DUP1 \t\t\t j =\n  NOT \t\t\tt256 j = \n  DUP5 \t\t\t    u\n  AND \t\t\t        uint256 j = 0\n  SWAP4 \t\t\tn / 3);\\r\\n        uint256 j =...\n  POP \t\t\tn / 3);\\r\\n        uint256 j =...\n  DUP1 \t\t\t) {\\r\n  DUP7 \t\t\t< len; i\n  AND \t\t\t; i < len; i++) {\\r\\n\n  DUP5 \t\t\t6 i =\n  OR \t\t\tt256 i = 0; i < len; i++) {\\r\\...\n  SWAP3 \t\t\t  for (uint256 i = 0; i < len;...\n  POP \t\t\t  for (uint256 i = 0; i < len;...\n  POP \t\t\ts memory strBytes = bytes(strA...\n  POP \t\t\ts memory strBytes = bytes(strA...\n  SWAP4 \t\t\try) {\\r\\n        string memory...\n  SWAP3 \t\t\try) {\\r\\n        string memory...\n  POP \t\t\try) {\\r\\n        string memory...\n  POP \t\t\try) {\\r\\n        string memory...\n  POP \t\t\try) {\\r\\n        string memory...\n  JUMP \t\t\try) {\\r\\n        string memory...\ntag 13\t\t\tf ((len - i) % 3 == 0 && i != ...\n  JUMPDEST \t\t\tf ((len - i) % 3 == 0 && i != ...\n  PUSH 0\t\t\t       \n  DUP2 \t\t\tbytes\n  SWAP1 \t\t\tult[j++] = bytes\n  POP \t\t\tult[j++] = bytes\n  SWAP2 \t\t\tf ((len - i) % 3 == 0 && i != ...\n  SWAP1 \t\t\tf ((len - i) % 3 == 0 && i != ...\n  POP \t\t\tf ((len - i) % 3 == 0 && i != ...\n  JUMP \t\t\tf ((len - i) % 3 == 0 && i != ...\ntag 14\t\t\t         }\\r\\n            resu...\n  JUMPDEST \t\t\t         }\\r\\n            resu...\n  PUSH 0\t\t\tlt[\n  DUP2 \t\t\t;\\r\\n  \n  SWAP1 \t\t\tytes[i];\\r\\n  \n  POP \t\t\tytes[i];\\r\\n  \n  SWAP2 \t\t\t         }\\r\\n            resu...\n  SWAP1 \t\t\t         }\\r\\n            resu...\n  POP \t\t\t         }\\r\\n            resu...\n  JUMP \t\t\t         }\\r\\n            resu...\ntag 15\t\t\t     return string(abi.encodeP...\n  JUMPDEST \t\t\t     return string(abi.encodeP...\n  PUSH 0\t\t\t.00\"));\\r\\n\n  PUSH [tag] 42\t\t\tformatBTC(uint256 amount) priv...\n  PUSH [tag] 43\t\t\tamount) private pure returns (...\n  PUSH [tag] 44\t\t\trivate pure returns (str\n  DUP5 \t\t\ts (st\n  PUSH [tag] 13\t\t\trivate pure returns (str\n  JUMP \t\t\trivate pure returns (str\ntag 44\t\t\trivate pure returns (str\n  JUMPDEST \t\t\trivate pure returns (str\n  PUSH [tag] 14\t\t\tamount) private pure returns (...\n  JUMP \t\t\tamount) private pure returns (...\ntag 43\t\t\tamount) private pure returns (...\n  JUMPDEST \t\t\tamount) private pure returns (...\n  PUSH [tag] 13\t\t\tformatBTC(uint256 amount) priv...\n  JUMP \t\t\tformatBTC(uint256 amount) priv...\ntag 42\t\t\tformatBTC(uint256 amount) priv...\n  JUMPDEST \t\t\tformatBTC(uint256 amount) priv...\n  SWAP1 \t\t\t\\r\\n\\r\\nfunction formatBTC(uin...\n  POP \t\t\t\\r\\n\\r\\nfunction formatBTC(uin...\n  SWAP2 \t\t\t     return string(abi.encodeP...\n  SWAP1 \t\t\t     return string(abi.encodeP...\n  POP \t\t\t     return string(abi.encodeP...\n  JUMP \t\t\t     return string(abi.encodeP...\ntag 16\t\t\t\\n    uint256 integerPart = am...\n  JUMPDEST \t\t\t\\n    uint256 integerPart = am...\n  PUSH 0\t\t\t;\\r\\n\n  DUP2 \t\t\tlPart\n  SWAP1 \t\t\t decimalPart\n  POP \t\t\t decimalPart\n  SWAP2 \t\t\t\\n    uint256 integerPart = am...\n  SWAP1 \t\t\t\\n    uint256 integerPart = am...\n  POP \t\t\t\\n    uint256 integerPart = am...\n  JUMP \t\t\t\\n    uint256 integerPart = am...\ntag 17\t\t\t(10**8);\\r\\n    string memory ...\n  JUMPDEST \t\t\t(10**8);\\r\\n    string memory ...\n  PUSH [tag] 47\t\t\tIntegerPart);\\r\\n    uint256 l...\n  DUP4 \t\t\t= strBy\n  PUSH [tag] 15\t\t\tIntegerPart);\\r\\n    uint256 l...\n  JUMP \t\t\tIntegerPart);\\r\\n    uint256 l...\ntag 47\t\t\tIntegerPart);\\r\\n    uint256 l...\n  JUMPDEST \t\t\tIntegerPart);\\r\\n    uint256 l...\n  PUSH [tag] 48\t\t\tmemory result = new bytes(len ...\n  PUSH [tag] 49\t\t\tnt256 j = 0;\\r\\n    for (uint2...\n  DUP3 \t\t\tint256 i = 0; i \n  PUSH [tag] 16\t\t\tnt256 j = 0;\\r\\n    for (uint2...\n  JUMP \t\t\tnt256 j = 0;\\r\\n    for (uint2...\ntag 49\t\t\tnt256 j = 0;\\r\\n    for (uint2...\n  JUMPDEST \t\t\tnt256 j = 0;\\r\\n    for (uint2...\n  DUP5 \t\t\t\\r\\n    \n  DUP5 \t\t\tn / \n  SLOAD \t\t\tn + len / 3\n  PUSH [tag] 12\t\t\tmemory result = new bytes(len ...\n  JUMP \t\t\tmemory result = new bytes(len ...\ntag 48\t\t\tmemory result = new bytes(len ...\n  JUMPDEST \t\t\tmemory result = new bytes(len ...\n  DUP3 \t\t\tbyte\n  SSTORE \t\t\t;\\r\\n    bytes memory result =...\n  POP \t\t\t bytes memory strBytes = bytes...\n  POP \t\t\t(10**8);\\r\\n    string memory ...\n  POP \t\t\t(10**8);\\r\\n    string memory ...\n  POP \t\t\t(10**8);\\r\\n    string memory ...\n  JUMP \t\t\t(10**8);\\r\\n    string memory ...\ntag 18\t\t\t        if ((len - i) % 3 == 0...\n  JUMPDEST \t\t\t        if ((len - i) % 3 == 0...\n  PUSH 0\t\t\t   \n  SWAP1 \t\t\t        if ((len - i) % 3 == 0...\n  JUMP \t\t\t        if ((len - i) % 3 == 0...\ntag 19\t\t\t,');\\r\\n        }\\r\\n        r...\n  JUMPDEST \t\t\t,');\\r\\n        }\\r\\n        r...\n  PUSH [tag] 52\t\t\t(abi.encodePacked(result, \".\",...\n  PUSH [tag] 18\t\t\t(abi.encodePacked(result, \".\",...\n  JUMP \t\t\t(abi.encodePacked(result, \".\",...\ntag 52\t\t\t(abi.encodePacked(result, \".\",...\n  JUMPDEST \t\t\t(abi.encodePacked(result, \".\",...\n  PUSH [tag] 53\t\t\tng(decimalPart / (10**6)), \"0 ...\n  DUP2 \t\t\trivate\n  DUP5 \t\t\tytes32\n  DUP5 \t\t\t\\r\\n  \n  PUSH [tag] 17\t\t\tng(decimalPart / (10**6)), \"0 ...\n  JUMP \t\t\tng(decimalPart / (10**6)), \"0 ...\ntag 53\t\t\tng(decimalPart / (10**6)), \"0 ...\n  JUMPDEST \t\t\tng(decimalPart / (10**6)), \"0 ...\n  POP \t\t\t    }\\r\\n    return string(abi...\n  POP \t\t\t,');\\r\\n        }\\r\\n        r...\n  POP \t\t\t,');\\r\\n        }\\r\\n        r...\n  JUMP \t\t\t,');\\r\\n        }\\r\\n        r...\ntag 20\t\t\tSWORD_HASH = keccak256(abi.enc...\n  JUMPDEST \t\t\tSWORD_HASH = keccak256(abi.enc...\ntag 55\t\t\t function uintToString(uint256...\n  JUMPDEST \t\t\t function uintToString(uint256...\n  DUP2 \t\t\ttri\n  DUP2 \t\t\tuintT\n  LT \t\t\ton uintToStrin\n  ISZERO \t\t\t function uintToString(uint256...\n  PUSH [tag] 57\t\t\t function uintToString(uint256...\n  JUMPI \t\t\t function uintToString(uint256...\n  PUSH [tag] 58\t\t\try) {\\r\\n        if (value == ...\n  PUSH 0\t\t\t \n  DUP3 \t\t\t {\\r\\n \n  PUSH [tag] 19\t\t\try) {\\r\\n        if (value == ...\n  JUMP \t\t\try) {\\r\\n        if (value == ...\ntag 58\t\t\try) {\\r\\n        if (value == ...\n  JUMPDEST \t\t\try) {\\r\\n        if (value == ...\n  PUSH 1\t\t\te\n  DUP2 \t\t\t priv\n  ADD \t\t\tlue) private \n  SWAP1 \t\t\tint256 value) private \n  POP \t\t\tint256 value) private \n  PUSH [tag] 55\t\t\t function uintToString(uint256...\n  JUMP \t\t\t function uintToString(uint256...\ntag 57\t\t\t function uintToString(uint256...\n  JUMPDEST \t\t\t function uintToString(uint256...\n  POP \t\t\tSWORD_HASH = keccak256(abi.enc...\n  POP \t\t\tSWORD_HASH = keccak256(abi.enc...\n  JUMP \t\t\tSWORD_HASH = keccak256(abi.enc...\ntag 21\t\t\t      }\\r\\n        uint256 tem...\n  JUMPDEST \t\t\t      }\\r\\n        uint256 tem...\n  PUSH 1F\t\t\t  \n  DUP3 \t\t\t   \n  GT \t\t\t\\n          \n  ISZERO \t\t\t {\\r\\n            digits++;\\r\\...\n  PUSH [tag] 60\t\t\t {\\r\\n            digits++;\\r\\...\n  JUMPI \t\t\t {\\r\\n            digits++;\\r\\...\n  PUSH [tag] 61\t\t\t= 10;\\r\\n        }\\r\\n        ...\n  DUP2 \t\t\tmemor\n  PUSH [tag] 9\t\t\t= 10;\\r\\n        }\\r\\n        ...\n  JUMP \t\t\t= 10;\\r\\n        }\\r\\n        ...\ntag 61\t\t\t= 10;\\r\\n        }\\r\\n        ...\n  JUMPDEST \t\t\t= 10;\\r\\n        }\\r\\n        ...\n  PUSH [tag] 62\t\t\talue != 0) {\\r\\n            di...\n  DUP5 \t\t\t        di\n  PUSH [tag] 10\t\t\talue != 0) {\\r\\n            di...\n  JUMP \t\t\talue != 0) {\\r\\n            di...\ntag 62\t\t\talue != 0) {\\r\\n            di...\n  JUMPDEST \t\t\talue != 0) {\\r\\n            di...\n  DUP2 \t\t\t  while \n  ADD \t\t\t      while (value != 0) {\\r\\n...\n  PUSH 20\t\t\t }\n  DUP6 \t\t\tuffer);\\r\\n \n  LT \t\t\tg(buffer);\\r\\n    }\\r\n  ISZERO \t\t\tring(buffer);\\r\\n    }\\r\\n}\n  PUSH [tag] 63\t\t\tring(buffer);\\r\\n    }\\r\\n}\n  JUMPI \t\t\tring(buffer);\\r\\n    }\\r\\n}\n  DUP2 \t\t\t\n  SWAP1 \t\t\t\n  POP \t\t\t\ntag 63\t\t\tring(buffer);\\r\\n    }\\r\\n}\n  JUMPDEST \t\t\tring(buffer);\\r\\n    }\\r\\n}\n  PUSH [tag] 64\t\t\t\n  PUSH [tag] 65\t\t\t\n  DUP6 \t\t\t\n  PUSH [tag] 10\t\t\t\n  JUMP \t\t\t\ntag 65\t\t\t\n  JUMPDEST \t\t\t\n  DUP4 \t\t\t\n  ADD \t\t\t\n  DUP3 \t\t\t\n  PUSH [tag] 20\t\t\t\n  JUMP \t\t\t\ntag 64\t\t\t\n  JUMPDEST \t\t\t\n  POP \t\t\t digits++;\\r\\n            temp...\n  POP \t\t\t digits++;\\r\\n            temp...\ntag 60\t\t\t {\\r\\n            digits++;\\r\\...\n  JUMPDEST \t\t\t {\\r\\n            digits++;\\r\\...\n  POP \t\t\t      }\\r\\n        uint256 tem...\n  POP \t\t\t      }\\r\\n        uint256 tem...\n  POP \t\t\t      }\\r\\n        uint256 tem...\n  JUMP \t\t\t      }\\r\\n        uint256 tem...\ntag 22\t\t\t\n  JUMPDEST \t\t\t\n  PUSH 0\t\t\t\n  DUP3 \t\t\t\n  DUP3 \t\t\t\n  SHR \t\t\t\n  SWAP1 \t\t\t\n  POP \t\t\t\n  SWAP3 \t\t\t\n  SWAP2 \t\t\t\n  POP \t\t\t\n  POP \t\t\t\n  JUMP \t\t\t\ntag 23\t\t\t\n  JUMPDEST \t\t\t\n  PUSH 0\t\t\t\n  PUSH [tag] 68\t\t\t\n  PUSH 0\t\t\t\n  NOT \t\t\t\n  DUP5 \t\t\t\n  PUSH 8\t\t\t\n  MUL \t\t\t\n  PUSH [tag] 22\t\t\t\n  JUMP \t\t\t\ntag 68\t\t\t\n  JUMPDEST \t\t\t\n  NOT \t\t\t\n  DUP1 \t\t\t\n  DUP4 \t\t\t\n  AND \t\t\t\n  SWAP2 \t\t\t\n  POP \t\t\t\n  POP \t\t\t\n  SWAP3 \t\t\t\n  SWAP2 \t\t\t\n  POP \t\t\t\n  POP \t\t\t\n  JUMP \t\t\t\ntag 24\t\t\t\n  JUMPDEST \t\t\t\n  PUSH 0\t\t\t\n  PUSH [tag] 70\t\t\t\n  DUP4 \t\t\t\n  DUP4 \t\t\t\n  PUSH [tag] 23\t\t\t\n  JUMP \t\t\t\ntag 70\t\t\t\n  JUMPDEST \t\t\t\n  SWAP2 \t\t\t\n  POP \t\t\t\n  DUP3 \t\t\t\n  PUSH 2\t\t\t\n  MUL \t\t\t\n  DUP3 \t\t\t\n  OR \t\t\t\n  SWAP1 \t\t\t\n  POP \t\t\t\n  SWAP3 \t\t\t\n  SWAP2 \t\t\t\n  POP \t\t\t\n  POP \t\t\t\n  JUMP \t\t\t\ntag 2\t\t\t\n  JUMPDEST \t\t\t\n  PUSH [tag] 72\t\t\t\n  DUP3 \t\t\t\n  PUSH [tag] 5\t\t\t\n  JUMP \t\t\t\ntag 72\t\t\t\n  JUMPDEST \t\t\t\n  PUSH FFFFFFFFFFFFFFFF\t\t\t\n  DUP2 \t\t\t\n  GT \t\t\t\n  ISZERO \t\t\t\n  PUSH [tag] 73\t\t\t\n  JUMPI \t\t\t\n  PUSH [tag] 74\t\t\t\n  PUSH [tag] 6\t\t\t\n  JUMP \t\t\t\ntag 74\t\t\t\n  JUMPDEST \t\t\t\ntag 73\t\t\t\n  JUMPDEST \t\t\t\n  PUSH [tag] 75\t\t\t\n  DUP3 \t\t\t\n  SLOAD \t\t\t\n  PUSH [tag] 8\t\t\t\n  JUMP \t\t\t\ntag 75\t\t\t\n  JUMPDEST \t\t\t\n  PUSH [tag] 76\t\t\t\n  DUP3 \t\t\t\n  DUP3 \t\t\t\n  DUP6 \t\t\t\n  PUSH [tag] 21\t\t\t\n  JUMP \t\t\t\ntag 76\t\t\t\n  JUMPDEST \t\t\t\n  PUSH 0\t\t\t\n  PUSH 20\t\t\t\n  SWAP1 \t\t\t\n  POP \t\t\t\n  PUSH 1F\t\t\t\n  DUP4 \t\t\t\n  GT \t\t\t\n  PUSH 1\t\t\t\n  DUP2 \t\t\t\n  EQ \t\t\t\n  PUSH [tag] 78\t\t\t\n  JUMPI \t\t\t\n  PUSH 0\t\t\t\n  DUP5 \t\t\t\n  ISZERO \t\t\t\n  PUSH [tag] 79\t\t\t\n  JUMPI \t\t\t\n  DUP3 \t\t\t\n  DUP8 \t\t\t\n  ADD \t\t\t\n  MLOAD \t\t\t\n  SWAP1 \t\t\t\n  POP \t\t\t\ntag 79\t\t\t\n  JUMPDEST \t\t\t\n  PUSH [tag] 80\t\t\t\n  DUP6 \t\t\t\n  DUP3 \t\t\t\n  PUSH [tag] 24\t\t\t\n  JUMP \t\t\t\ntag 80\t\t\t\n  JUMPDEST \t\t\t\n  DUP7 \t\t\t\n  SSTORE \t\t\t\n  POP \t\t\t\n  PUSH [tag] 77\t\t\t\n  JUMP \t\t\t\ntag 78\t\t\t\n  JUMPDEST \t\t\t\n  PUSH 1F\t\t\t\n  NOT \t\t\t\n  DUP5 \t\t\t\n  AND \t\t\t\n  PUSH [tag] 81\t\t\t\n  DUP7 \t\t\t\n  PUSH [tag] 9\t\t\t\n  JUMP \t\t\t\ntag 81\t\t\t\n  JUMPDEST \t\t\t\n  PUSH 0\t\t\t\ntag 82\t\t\t\n  JUMPDEST \t\t\t\n  DUP3 \t\t\t\n  DUP2 \t\t\t\n  LT \t\t\t\n  ISZERO \t\t\t\n  PUSH [tag] 84\t\t\t\n  JUMPI \t\t\t\n  DUP5 \t\t\t\n  DUP10 \t\t\t\n  ADD \t\t\t\n  MLOAD \t\t\t\n  DUP3 \t\t\t\n  SSTORE \t\t\t\n  PUSH 1\t\t\t\n  DUP3 \t\t\t\n  ADD \t\t\t\n  SWAP2 \t\t\t\n  POP \t\t\t\n  PUSH 20\t\t\t\n  DUP6 \t\t\t\n  ADD \t\t\t\n  SWAP5 \t\t\t\n  POP \t\t\t\n  PUSH 20\t\t\t\n  DUP2 \t\t\t\n  ADD \t\t\t\n  SWAP1 \t\t\t\n  POP \t\t\t\n  PUSH [tag] 82\t\t\t\n  JUMP \t\t\t\ntag 84\t\t\t\n  JUMPDEST \t\t\t\n  DUP7 \t\t\t\n  DUP4 \t\t\t\n  LT \t\t\t\n  ISZERO \t\t\t\n  PUSH [tag] 85\t\t\t\n  JUMPI \t\t\t\n  DUP5 \t\t\t\n  DUP10 \t\t\t\n  ADD \t\t\t\n  MLOAD \t\t\t\n  PUSH [tag] 86\t\t\t\n  PUSH 1F\t\t\t\n  DUP10 \t\t\t\n  AND \t\t\t\n  DUP3 \t\t\t\n  PUSH [tag] 23\t\t\t\n  JUMP \t\t\t\ntag 86\t\t\t\n  JUMPDEST \t\t\t\n  DUP4 \t\t\t\n  SSTORE \t\t\t\n  POP \t\t\t\ntag 85\t\t\t\n  JUMPDEST \t\t\t\n  PUSH 1\t\t\t\n  PUSH 2\t\t\t\n  DUP9 \t\t\t\n  MUL \t\t\t\n  ADD \t\t\t\n  DUP9 \t\t\t\n  SSTORE \t\t\t\n  POP \t\t\t\n  POP \t\t\t\n  POP \t\t\t\ntag 77\t\t\t\n  JUMPDEST \t\t\t\n  POP \t\t\t\n  POP \t\t\t\n  POP \t\t\t\n  POP \t\t\t\n  POP \t\t\t\n  POP \t\t\t\n  JUMP \t\t\t\ntag 4\t\t\tcontract HARDWARE {\\r\\n    str...\n  JUMPDEST \t\t\tcontract HARDWARE {\\r\\n    str...\n  PUSH #[$] 0000000000000000000000000000000000000000000000000000000000000000\t\t\tcontract HARDWARE {\\r\\n    str...\n  DUP1 \t\t\tcontract HARDWARE {\\r\\n    str...\n  PUSH [$] 0000000000000000000000000000000000000000000000000000000000000000\t\t\tcontract HARDWARE {\\r\\n    str...\n  PUSH 0\t\t\tcontract HARDWARE {\\r\\n    str...\n  CODECOPY \t\t\tcontract HARDWARE {\\r\\n    str...\n  PUSH 0\t\t\tcontract HARDWARE {\\r\\n    str...\n  RETURN \t\t\tcontract HARDWARE {\\r\\n    str...\n.data\n  0:\n    .code\n      PUSH 80\t\t\tcontract HARDWARE {\\r\\n    str...\n      PUSH 40\t\t\tcontract HARDWARE {\\r\\n    str...\n      MSTORE \t\t\tcontract HARDWARE {\\r\\n    str...\n      CALLVALUE \t\t\tcontract HARDWARE {\\r\\n    str...\n      DUP1 \t\t\tcontract HARDWARE {\\r\\n    str...\n      ISZERO \t\t\tcontract HARDWARE {\\r\\n    str...\n      PUSH [tag] 1\t\t\tcontract HARDWARE {\\r\\n    str...\n      JUMPI \t\t\tcontract HARDWARE {\\r\\n    str...\n      PUSH 0\t\t\tcontract HARDWARE {\\r\\n    str...\n      DUP1 \t\t\tcontract HARDWARE {\\r\\n    str...\n      REVERT \t\t\tcontract HARDWARE {\\r\\n    str...\n    tag 1\t\t\tcontract HARDWARE {\\r\\n    str...\n      JUMPDEST \t\t\tcontract HARDWARE {\\r\\n    str...\n      POP \t\t\tcontract HARDWARE {\\r\\n    str...\n      PUSH 4\t\t\tcontract HARDWARE {\\r\\n    str...\n      CALLDATASIZE \t\t\tcontract HARDWARE {\\r\\n    str...\n      LT \t\t\tcontract HARDWARE {\\r\\n    str...\n      PUSH [tag] 2\t\t\tcontract HARDWARE {\\r\\n    str...\n      JUMPI \t\t\tcontract HARDWARE {\\r\\n    str...\n      PUSH 0\t\t\tcontract HARDWARE {\\r\\n    str...\n      CALLDATALOAD \t\t\tcontract HARDWARE {\\r\\n    str...\n      PUSH E0\t\t\tcontract HARDWARE {\\r\\n    str...\n      SHR \t\t\tcontract HARDWARE {\\r\\n    str...\n      DUP1 \t\t\tcontract HARDWARE {\\r\\n    str...\n      PUSH 117803E3\t\t\tcontract HARDWARE {\\r\\n    str...\n      EQ \t\t\tcontract HARDWARE {\\r\\n    str...\n      PUSH [tag] 3\t\t\tcontract HARDWARE {\\r\\n    str...\n      JUMPI \t\t\tcontract HARDWARE {\\r\\n    str...\n      DUP1 \t\t\tcontract HARDWARE {\\r\\n    str...\n      PUSH 1D831D5C\t\t\tcontract HARDWARE {\\r\\n    str...\n      EQ \t\t\tcontract HARDWARE {\\r\\n    str...\n      PUSH [tag] 4\t\t\tcontract HARDWARE {\\r\\n    str...\n      JUMPI \t\t\tcontract HARDWARE {\\r\\n    str...\n      DUP1 \t\t\tcontract HARDWARE {\\r\\n    str...\n      PUSH 2782CC7F\t\t\tcontract HARDWARE {\\r\\n    str...\n      EQ \t\t\tcontract HARDWARE {\\r\\n    str...\n      PUSH [tag] 5\t\t\tcontract HARDWARE {\\r\\n    str...\n      JUMPI \t\t\tcontract HARDWARE {\\r\\n    str...\n      DUP1 \t\t\tcontract HARDWARE {\\r\\n    str...\n      PUSH 2C618954\t\t\tcontract HARDWARE {\\r\\n    str...\n      EQ \t\t\tcontract HARDWARE {\\r\\n    str...\n      PUSH [tag] 6\t\t\tcontract HARDWARE {\\r\\n    str...\n      JUMPI \t\t\tcontract HARDWARE {\\r\\n    str...\n    tag 2\t\t\tcontract HARDWARE {\\r\\n    str...\n      JUMPDEST \t\t\tcontract HARDWARE {\\r\\n    str...\n      PUSH 0\t\t\tcontract HARDWARE {\\r\\n    str...\n      DUP1 \t\t\tcontract HARDWARE {\\r\\n    str...\n      REVERT \t\t\tcontract HARDWARE {\\r\\n    str...\n    tag 3\t\t\tfunction OWNER() public view r...\n      JUMPDEST \t\t\tfunction OWNER() public view r...\n      PUSH [tag] 7\t\t\tfunction OWNER() public view r...\n      PUSH [tag] 8\t\t\tfunction OWNER() public view r...\n      JUMP \t\t\tfunction OWNER() public view r...\n    tag 7\t\t\tfunction OWNER() public view r...\n      JUMPDEST \t\t\tfunction OWNER() public view r...\n      PUSH 40\t\t\tfunction OWNER() public view r...\n      MLOAD \t\t\tfunction OWNER() public view r...\n      PUSH [tag] 9\t\t\tfunction OWNER() public view r...\n      SWAP2 \t\t\tfunction OWNER() public view r...\n      SWAP1 \t\t\tfunction OWNER() public view r...\n      PUSH [tag] 10\t\t\tfunction OWNER() public view r...\n      JUMP \t\t\tfunction OWNER() public view r...\n    tag 9\t\t\tfunction OWNER() public view r...\n      JUMPDEST \t\t\tfunction OWNER() public view r...\n      PUSH 40\t\t\tfunction OWNER() public view r...\n      MLOAD \t\t\tfunction OWNER() public view r...\n      DUP1 \t\t\tfunction OWNER() public view r...\n      SWAP2 \t\t\tfunction OWNER() public view r...\n      SUB \t\t\tfunction OWNER() public view r...\n      SWAP1 \t\t\tfunction OWNER() public view r...\n      RETURN \t\t\tfunction OWNER() public view r...\n    tag 4\t\t\tfunction TOKENS() public view ...\n      JUMPDEST \t\t\tfunction TOKENS() public view ...\n      PUSH [tag] 11\t\t\tfunction TOKENS() public view ...\n      PUSH [tag] 12\t\t\tfunction TOKENS() public view ...\n      JUMP \t\t\tfunction TOKENS() public view ...\n    tag 11\t\t\tfunction TOKENS() public view ...\n      JUMPDEST \t\t\tfunction TOKENS() public view ...\n      PUSH 40\t\t\tfunction TOKENS() public view ...\n      MLOAD \t\t\tfunction TOKENS() public view ...\n      PUSH [tag] 13\t\t\tfunction TOKENS() public view ...\n      SWAP2 \t\t\tfunction TOKENS() public view ...\n      SWAP1 \t\t\tfunction TOKENS() public view ...\n      PUSH [tag] 10\t\t\tfunction TOKENS() public view ...\n      JUMP \t\t\tfunction TOKENS() public view ...\n    tag 13\t\t\tfunction TOKENS() public view ...\n      JUMPDEST \t\t\tfunction TOKENS() public view ...\n      PUSH 40\t\t\tfunction TOKENS() public view ...\n      MLOAD \t\t\tfunction TOKENS() public view ...\n      DUP1 \t\t\tfunction TOKENS() public view ...\n      SWAP2 \t\t\tfunction TOKENS() public view ...\n      SUB \t\t\tfunction TOKENS() public view ...\n      SWAP1 \t\t\tfunction TOKENS() public view ...\n      RETURN \t\t\tfunction TOKENS() public view ...\n    tag 5\t\t\tfunction CONVERSION() public v...\n      JUMPDEST \t\t\tfunction CONVERSION() public v...\n      PUSH [tag] 14\t\t\tfunction CONVERSION() public v...\n      PUSH [tag] 15\t\t\tfunction CONVERSION() public v...\n      JUMP \t\t\tfunction CONVERSION() public v...\n    tag 14\t\t\tfunction CONVERSION() public v...\n      JUMPDEST \t\t\tfunction CONVERSION() public v...\n      PUSH 40\t\t\tfunction CONVERSION() public v...\n      MLOAD \t\t\tfunction CONVERSION() public v...\n      PUSH [tag] 16\t\t\tfunction CONVERSION() public v...\n      SWAP2 \t\t\tfunction CONVERSION() public v...\n      SWAP1 \t\t\tfunction CONVERSION() public v...\n      PUSH [tag] 10\t\t\tfunction CONVERSION() public v...\n      JUMP \t\t\tfunction CONVERSION() public v...\n    tag 16\t\t\tfunction CONVERSION() public v...\n      JUMPDEST \t\t\tfunction CONVERSION() public v...\n      PUSH 40\t\t\tfunction CONVERSION() public v...\n      MLOAD \t\t\tfunction CONVERSION() public v...\n      DUP1 \t\t\tfunction CONVERSION() public v...\n      SWAP2 \t\t\tfunction CONVERSION() public v...\n      SUB \t\t\tfunction CONVERSION() public v...\n      SWAP1 \t\t\tfunction CONVERSION() public v...\n      RETURN \t\t\tfunction CONVERSION() public v...\n    tag 6\t\t\tfunction AUTHORIZATION(string ...\n      JUMPDEST \t\t\tfunction AUTHORIZATION(string ...\n      PUSH [tag] 17\t\t\tfunction AUTHORIZATION(string ...\n      PUSH 4\t\t\tfunction AUTHORIZATION(string ...\n      DUP1 \t\t\tfunction AUTHORIZATION(string ...\n      CALLDATASIZE \t\t\tfunction AUTHORIZATION(string ...\n      SUB \t\t\tfunction AUTHORIZATION(string ...\n      DUP2 \t\t\tfunction AUTHORIZATION(string ...\n      ADD \t\t\tfunction AUTHORIZATION(string ...\n      SWAP1 \t\t\tfunction AUTHORIZATION(string ...\n      PUSH [tag] 18\t\t\tfunction AUTHORIZATION(string ...\n      SWAP2 \t\t\tfunction AUTHORIZATION(string ...\n      SWAP1 \t\t\tfunction AUTHORIZATION(string ...\n      PUSH [tag] 19\t\t\tfunction AUTHORIZATION(string ...\n      JUMP \t\t\tfunction AUTHORIZATION(string ...\n    tag 18\t\t\tfunction AUTHORIZATION(string ...\n      JUMPDEST \t\t\tfunction AUTHORIZATION(string ...\n      PUSH [tag] 20\t\t\tfunction AUTHORIZATION(string ...\n      JUMP \t\t\tfunction AUTHORIZATION(string ...\n    tag 17\t\t\tfunction AUTHORIZATION(string ...\n      JUMPDEST \t\t\tfunction AUTHORIZATION(string ...\n      STOP \t\t\tfunction AUTHORIZATION(string ...\n    tag 8\t\t\tfunction OWNER() public view r...\n      JUMPDEST \t\t\tfunction OWNER() public view r...\n      PUSH 60\t\t\tstring memory\n      PUSH 2\t\t\tloggedIn\n      PUSH 0\t\t\tloggedIn\n      SWAP1 \t\t\tloggedIn\n      SLOAD \t\t\tloggedIn\n      SWAP1 \t\t\tloggedIn\n      PUSH 100\t\t\tloggedIn\n      EXP \t\t\tloggedIn\n      SWAP1 \t\t\tloggedIn\n      DIV \t\t\tloggedIn\n      PUSH FF\t\t\tloggedIn\n      AND \t\t\tloggedIn\n      PUSH [tag] 22\t\t\trequire(loggedIn, \"Please logi...\n      JUMPI \t\t\trequire(loggedIn, \"Please logi...\n      PUSH 40\t\t\trequire(loggedIn, \"Please logi...\n      MLOAD \t\t\trequire(loggedIn, \"Please logi...\n      PUSH 8C379A000000000000000000000000000000000000000000000000000000000\t\t\trequire(loggedIn, \"Please logi...\n      DUP2 \t\t\trequire(loggedIn, \"Please logi...\n      MSTORE \t\t\trequire(loggedIn, \"Please logi...\n      PUSH 4\t\t\trequire(loggedIn, \"Please logi...\n      ADD \t\t\trequire(loggedIn, \"Please logi...\n      PUSH [tag] 23\t\t\trequire(loggedIn, \"Please logi...\n      SWAP1 \t\t\trequire(loggedIn, \"Please logi...\n      PUSH [tag] 24\t\t\trequire(loggedIn, \"Please logi...\n      JUMP \t\t\trequire(loggedIn, \"Please logi...\n    tag 23\t\t\trequire(loggedIn, \"Please logi...\n      JUMPDEST \t\t\trequire(loggedIn, \"Please logi...\n      PUSH 40\t\t\trequire(loggedIn, \"Please logi...\n      MLOAD \t\t\trequire(loggedIn, \"Please logi...\n      DUP1 \t\t\trequire(loggedIn, \"Please logi...\n      SWAP2 \t\t\trequire(loggedIn, \"Please logi...\n      SUB \t\t\trequire(loggedIn, \"Please logi...\n      SWAP1 \t\t\trequire(loggedIn, \"Please logi...\n      REVERT \t\t\trequire(loggedIn, \"Please logi...\n    tag 22\t\t\trequire(loggedIn, \"Please logi...\n      JUMPDEST \t\t\trequire(loggedIn, \"Please logi...\n      PUSH 0\t\t\towner\n      DUP1 \t\t\treturn owner\n      SLOAD \t\t\treturn owner\n      PUSH [tag] 26\t\t\treturn owner\n      SWAP1 \t\t\treturn owner\n      PUSH [tag] 27\t\t\treturn owner\n      JUMP \t\t\treturn owner\n    tag 26\t\t\treturn owner\n      JUMPDEST \t\t\treturn owner\n      DUP1 \t\t\treturn owner\n      PUSH 1F\t\t\treturn owner\n      ADD \t\t\treturn owner\n      PUSH 20\t\t\treturn owner\n      DUP1 \t\t\treturn owner\n      SWAP2 \t\t\treturn owner\n      DIV \t\t\treturn owner\n      MUL \t\t\treturn owner\n      PUSH 20\t\t\treturn owner\n      ADD \t\t\treturn owner\n      PUSH 40\t\t\treturn owner\n      MLOAD \t\t\treturn owner\n      SWAP1 \t\t\treturn owner\n      DUP2 \t\t\treturn owner\n      ADD \t\t\treturn owner\n      PUSH 40\t\t\treturn owner\n      MSTORE \t\t\treturn owner\n      DUP1 \t\t\treturn owner\n      SWAP3 \t\t\treturn owner\n      SWAP2 \t\t\treturn owner\n      SWAP1 \t\t\treturn owner\n      DUP2 \t\t\treturn owner\n      DUP2 \t\t\treturn owner\n      MSTORE \t\t\treturn owner\n      PUSH 20\t\t\treturn owner\n      ADD \t\t\treturn owner\n      DUP3 \t\t\treturn owner\n      DUP1 \t\t\treturn owner\n      SLOAD \t\t\treturn owner\n      PUSH [tag] 28\t\t\treturn owner\n      SWAP1 \t\t\treturn owner\n      PUSH [tag] 27\t\t\treturn owner\n      JUMP \t\t\treturn owner\n    tag 28\t\t\treturn owner\n      JUMPDEST \t\t\treturn owner\n      DUP1 \t\t\treturn owner\n      ISZERO \t\t\treturn owner\n      PUSH [tag] 29\t\t\treturn owner\n      JUMPI \t\t\treturn owner\n      DUP1 \t\t\treturn owner\n      PUSH 1F\t\t\treturn owner\n      LT \t\t\treturn owner\n      PUSH [tag] 30\t\t\treturn owner\n      JUMPI \t\t\treturn owner\n      PUSH 100\t\t\treturn owner\n      DUP1 \t\t\treturn owner\n      DUP4 \t\t\treturn owner\n      SLOAD \t\t\treturn owner\n      DIV \t\t\treturn owner\n      MUL \t\t\treturn owner\n      DUP4 \t\t\treturn owner\n      MSTORE \t\t\treturn owner\n      SWAP2 \t\t\treturn owner\n      PUSH 20\t\t\treturn owner\n      ADD \t\t\treturn owner\n      SWAP2 \t\t\treturn owner\n      PUSH [tag] 29\t\t\treturn owner\n      JUMP \t\t\treturn owner\n    tag 30\t\t\treturn owner\n      JUMPDEST \t\t\treturn owner\n      DUP3 \t\t\treturn owner\n      ADD \t\t\treturn owner\n      SWAP2 \t\t\treturn owner\n      SWAP1 \t\t\treturn owner\n      PUSH 0\t\t\treturn owner\n      MSTORE \t\t\treturn owner\n      PUSH 20\t\t\treturn owner\n      PUSH 0\t\t\treturn owner\n      KECCAK256 \t\t\treturn owner\n      SWAP1 \t\t\treturn owner\n    tag 31\t\t\treturn owner\n      JUMPDEST \t\t\treturn owner\n      DUP2 \t\t\treturn owner\n      SLOAD \t\t\treturn owner\n      DUP2 \t\t\treturn owner\n      MSTORE \t\t\treturn owner\n      SWAP1 \t\t\treturn owner\n      PUSH 1\t\t\treturn owner\n      ADD \t\t\treturn owner\n      SWAP1 \t\t\treturn owner\n      PUSH 20\t\t\treturn owner\n      ADD \t\t\treturn owner\n      DUP1 \t\t\treturn owner\n      DUP4 \t\t\treturn owner\n      GT \t\t\treturn owner\n      PUSH [tag] 31\t\t\treturn owner\n      JUMPI \t\t\treturn owner\n      DUP3 \t\t\treturn owner\n      SWAP1 \t\t\treturn owner\n      SUB \t\t\treturn owner\n      PUSH 1F\t\t\treturn owner\n      AND \t\t\treturn owner\n      DUP3 \t\t\treturn owner\n      ADD \t\t\treturn owner\n      SWAP2 \t\t\treturn owner\n    tag 29\t\t\treturn owner\n      JUMPDEST \t\t\treturn owner\n      POP \t\t\treturn owner\n      POP \t\t\treturn owner\n      POP \t\t\treturn owner\n      POP \t\t\treturn owner\n      POP \t\t\treturn owner\n      SWAP1 \t\t\treturn owner\n      POP \t\t\treturn owner\n      SWAP1 \t\t\tfunction OWNER() public view r...\n      JUMP \t\t\tfunction OWNER() public view r...\n    tag 12\t\t\tfunction TOKENS() public view ...\n      JUMPDEST \t\t\tfunction TOKENS() public view ...\n      PUSH 60\t\t\tstring memory\n      PUSH 2\t\t\tloggedIn\n      PUSH 0\t\t\tloggedIn\n      SWAP1 \t\t\tloggedIn\n      SLOAD \t\t\tloggedIn\n      SWAP1 \t\t\tloggedIn\n      PUSH 100\t\t\tloggedIn\n      EXP \t\t\tloggedIn\n      SWAP1 \t\t\tloggedIn\n      DIV \t\t\tloggedIn\n      PUSH FF\t\t\tloggedIn\n      AND \t\t\tloggedIn\n      PUSH [tag] 33\t\t\trequire(loggedIn, \"Please logi...\n      JUMPI \t\t\trequire(loggedIn, \"Please logi...\n      PUSH 40\t\t\trequire(loggedIn, \"Please logi...\n      MLOAD \t\t\trequire(loggedIn, \"Please logi...\n      PUSH 8C379A000000000000000000000000000000000000000000000000000000000\t\t\trequire(loggedIn, \"Please logi...\n      DUP2 \t\t\trequire(loggedIn, \"Please logi...\n      MSTORE \t\t\trequire(loggedIn, \"Please logi...\n      PUSH 4\t\t\trequire(loggedIn, \"Please logi...\n      ADD \t\t\trequire(loggedIn, \"Please logi...\n      PUSH [tag] 34\t\t\trequire(loggedIn, \"Please logi...\n      SWAP1 \t\t\trequire(loggedIn, \"Please logi...\n      PUSH [tag] 24\t\t\trequire(loggedIn, \"Please logi...\n      JUMP \t\t\trequire(loggedIn, \"Please logi...\n    tag 34\t\t\trequire(loggedIn, \"Please logi...\n      JUMPDEST \t\t\trequire(loggedIn, \"Please logi...\n      PUSH 40\t\t\trequire(loggedIn, \"Please logi...\n      MLOAD \t\t\trequire(loggedIn, \"Please logi...\n      DUP1 \t\t\trequire(loggedIn, \"Please logi...\n      SWAP2 \t\t\trequire(loggedIn, \"Please logi...\n      SUB \t\t\trequire(loggedIn, \"Please logi...\n      SWAP1 \t\t\trequire(loggedIn, \"Please logi...\n      REVERT \t\t\trequire(loggedIn, \"Please logi...\n    tag 33\t\t\trequire(loggedIn, \"Please logi...\n      JUMPDEST \t\t\trequire(loggedIn, \"Please logi...\n      PUSH [tag] 36\t\t\tformatBTC(btcAmount)\n      PUSH 1\t\t\tbtcAmount\n      SLOAD \t\t\tbtcAmount\n      PUSH [tag] 37\t\t\tformatBTC\n      JUMP \t\t\tformatBTC(btcAmount)\n    tag 36\t\t\tformatBTC(btcAmount)\n      JUMPDEST \t\t\tformatBTC(btcAmount)\n      SWAP1 \t\t\treturn formatBTC(btcAmount)\n      POP \t\t\treturn formatBTC(btcAmount)\n      SWAP1 \t\t\tfunction TOKENS() public view ...\n      JUMP \t\t\tfunction TOKENS() public view ...\n    tag 15\t\t\tfunction CONVERSION() public v...\n      JUMPDEST \t\t\tfunction CONVERSION() public v...\n      PUSH 60\t\t\tstring memory\n      PUSH 2\t\t\tloggedIn\n      PUSH 0\t\t\tloggedIn\n      SWAP1 \t\t\tloggedIn\n      SLOAD \t\t\tloggedIn\n      SWAP1 \t\t\tloggedIn\n      PUSH 100\t\t\tloggedIn\n      EXP \t\t\tloggedIn\n      SWAP1 \t\t\tloggedIn\n      DIV \t\t\tloggedIn\n      PUSH FF\t\t\tloggedIn\n      AND \t\t\tloggedIn\n      PUSH [tag] 39\t\t\trequire(loggedIn, \"Please logi...\n      JUMPI \t\t\trequire(loggedIn, \"Please logi...\n      PUSH 40\t\t\trequire(loggedIn, \"Please logi...\n      MLOAD \t\t\trequire(loggedIn, \"Please logi...\n      PUSH 8C379A000000000000000000000000000000000000000000000000000000000\t\t\trequire(loggedIn, \"Please logi...\n      DUP2 \t\t\trequire(loggedIn, \"Please logi...\n      MSTORE \t\t\trequire(loggedIn, \"Please logi...\n      PUSH 4\t\t\trequire(loggedIn, \"Please logi...\n      ADD \t\t\trequire(loggedIn, \"Please logi...\n      PUSH [tag] 40\t\t\trequire(loggedIn, \"Please logi...\n      SWAP1 \t\t\trequire(loggedIn, \"Please logi...\n      PUSH [tag] 24\t\t\trequire(loggedIn, \"Please logi...\n      JUMP \t\t\trequire(loggedIn, \"Please logi...\n    tag 40\t\t\trequire(loggedIn, \"Please logi...\n      JUMPDEST \t\t\trequire(loggedIn, \"Please logi...\n      PUSH 40\t\t\trequire(loggedIn, \"Please logi...\n      MLOAD \t\t\trequire(loggedIn, \"Please logi...\n      DUP1 \t\t\trequire(loggedIn, \"Please logi...\n      SWAP2 \t\t\trequire(loggedIn, \"Please logi...\n      SUB \t\t\trequire(loggedIn, \"Please logi...\n      SWAP1 \t\t\trequire(loggedIn, \"Please logi...\n      REVERT \t\t\trequire(loggedIn, \"Please logi...\n    tag 39\t\t\trequire(loggedIn, \"Please logi...\n      JUMPDEST \t\t\trequire(loggedIn, \"Please logi...\n      PUSH 0\t\t\tuint256 btcToUsdRate\n      PUSH 6989\t\t\t27017\n      SWAP1 \t\t\tuint256 btcToUsdRate = 27017\n      POP \t\t\tuint256 btcToUsdRate = 27017\n      PUSH 0\t\t\tuint256 usdAmount\n      PUSH 5F5E100\t\t\t10**8\n      DUP3 \t\t\tbtcToUsdRate\n      PUSH 1\t\t\tbtcAmount\n      SLOAD \t\t\tbtcAmount\n      PUSH [tag] 42\t\t\tbtcAmount * btcToUsdRate\n      SWAP2 \t\t\tbtcAmount * btcToUsdRate\n      SWAP1 \t\t\tbtcAmount * btcToUsdRate\n      PUSH [tag] 43\t\t\tbtcAmount * btcToUsdRate\n      JUMP \t\t\tbtcAmount * btcToUsdRate\n    tag 42\t\t\tbtcAmount * btcToUsdRate\n      JUMPDEST \t\t\tbtcAmount * btcToUsdRate\n      PUSH [tag] 44\t\t\tbtcAmount * btcToUsdRate / (10...\n      SWAP2 \t\t\tbtcAmount * btcToUsdRate / (10...\n      SWAP1 \t\t\tbtcAmount * btcToUsdRate / (10...\n      PUSH [tag] 45\t\t\tbtcAmount * btcToUsdRate / (10...\n      JUMP \t\t\tbtcAmount * btcToUsdRate / (10...\n    tag 44\t\t\tbtcAmount * btcToUsdRate / (10...\n      JUMPDEST \t\t\tbtcAmount * btcToUsdRate / (10...\n      SWAP1 \t\t\tuint256 usdAmount = btcAmount ...\n      POP \t\t\tuint256 usdAmount = btcAmount ...\n      PUSH [tag] 46\t\t\tformatUSD(usdAmount)\n      DUP2 \t\t\tusdAmount\n      PUSH [tag] 47\t\t\tformatUSD\n      JUMP \t\t\tformatUSD(usdAmount)\n    tag 46\t\t\tformatUSD(usdAmount)\n      JUMPDEST \t\t\tformatUSD(usdAmount)\n      SWAP3 \t\t\treturn formatUSD(usdAmount)\n      POP \t\t\treturn formatUSD(usdAmount)\n      POP \t\t\treturn formatUSD(usdAmount)\n      POP \t\t\treturn formatUSD(usdAmount)\n      SWAP1 \t\t\tfunction CONVERSION() public v...\n      JUMP \t\t\tfunction CONVERSION() public v...\n    tag 20\t\t\tfunction AUTHORIZATION(string ...\n      JUMPDEST \t\t\tfunction AUTHORIZATION(string ...\n      DUP1 \t\t\tpassword\n      PUSH 40\t\t\tabi.encodePacked(\"Xy~01k!*\")\n      MLOAD \t\t\tabi.encodePacked(\"Xy~01k!*\")\n      PUSH 20\t\t\tabi.encodePacked(\"Xy~01k!*\")\n      ADD \t\t\tabi.encodePacked(\"Xy~01k!*\")\n      PUSH [tag] 49\t\t\tabi.encodePacked(\"Xy~01k!*\")\n      SWAP1 \t\t\tabi.encodePacked(\"Xy~01k!*\")\n      PUSH [tag] 50\t\t\tabi.encodePacked(\"Xy~01k!*\")\n      JUMP \t\t\tabi.encodePacked(\"Xy~01k!*\")\n    tag 49\t\t\tabi.encodePacked(\"Xy~01k!*\")\n      JUMPDEST \t\t\tabi.encodePacked(\"Xy~01k!*\")\n      PUSH 40\t\t\tabi.encodePacked(\"Xy~01k!*\")\n      MLOAD \t\t\tabi.encodePacked(\"Xy~01k!*\")\n      PUSH 20\t\t\tabi.encodePacked(\"Xy~01k!*\")\n      DUP2 \t\t\tabi.encodePacked(\"Xy~01k!*\")\n      DUP4 \t\t\tabi.encodePacked(\"Xy~01k!*\")\n      SUB \t\t\tabi.encodePacked(\"Xy~01k!*\")\n      SUB \t\t\tabi.encodePacked(\"Xy~01k!*\")\n      DUP2 \t\t\tabi.encodePacked(\"Xy~01k!*\")\n      MSTORE \t\t\tabi.encodePacked(\"Xy~01k!*\")\n      SWAP1 \t\t\tabi.encodePacked(\"Xy~01k!*\")\n      PUSH 40\t\t\tabi.encodePacked(\"Xy~01k!*\")\n      MSTORE \t\t\tabi.encodePacked(\"Xy~01k!*\")\n      DUP1 \t\t\tkeccak256(abi.encodePacked(\"Xy...\n      MLOAD \t\t\tkeccak256(abi.encodePacked(\"Xy...\n      SWAP1 \t\t\tkeccak256(abi.encodePacked(\"Xy...\n      PUSH 20\t\t\tkeccak256(abi.encodePacked(\"Xy...\n      ADD \t\t\tkeccak256(abi.encodePacked(\"Xy...\n      KECCAK256 \t\t\tkeccak256(abi.encodePacked(\"Xy...\n      DUP2 \t\t\tpassword\n      PUSH 40\t\t\tabi.encodePacked(bytes(passwor...\n      MLOAD \t\t\tabi.encodePacked(bytes(passwor...\n      PUSH 20\t\t\tabi.encodePacked(bytes(passwor...\n      ADD \t\t\tabi.encodePacked(bytes(passwor...\n      PUSH [tag] 51\t\t\tabi.encodePacked(bytes(passwor...\n      SWAP2 \t\t\tabi.encodePacked(bytes(passwor...\n      SWAP1 \t\t\tabi.encodePacked(bytes(passwor...\n      PUSH [tag] 52\t\t\tabi.encodePacked(bytes(passwor...\n      JUMP \t\t\tabi.encodePacked(bytes(passwor...\n    tag 51\t\t\tabi.encodePacked(bytes(passwor...\n      JUMPDEST \t\t\tabi.encodePacked(bytes(passwor...\n      PUSH 40\t\t\tabi.encodePacked(bytes(passwor...\n      MLOAD \t\t\tabi.encodePacked(bytes(passwor...\n      PUSH 20\t\t\tabi.encodePacked(bytes(passwor...\n      DUP2 \t\t\tabi.encodePacked(bytes(passwor...\n      DUP4 \t\t\tabi.encodePacked(bytes(passwor...\n      SUB \t\t\tabi.encodePacked(bytes(passwor...\n      SUB \t\t\tabi.encodePacked(bytes(passwor...\n      DUP2 \t\t\tabi.encodePacked(bytes(passwor...\n      MSTORE \t\t\tabi.encodePacked(bytes(passwor...\n      SWAP1 \t\t\tabi.encodePacked(bytes(passwor...\n      PUSH 40\t\t\tabi.encodePacked(bytes(passwor...\n      MSTORE \t\t\tabi.encodePacked(bytes(passwor...\n      DUP1 \t\t\tkeccak256(abi.encodePacked(byt...\n      MLOAD \t\t\tkeccak256(abi.encodePacked(byt...\n      SWAP1 \t\t\tkeccak256(abi.encodePacked(byt...\n      PUSH 20\t\t\tkeccak256(abi.encodePacked(byt...\n      ADD \t\t\tkeccak256(abi.encodePacked(byt...\n      KECCAK256 \t\t\tkeccak256(abi.encodePacked(byt...\n      EQ \t\t\tkeccak256(abi.encodePacked(byt...\n      PUSH [tag] 53\t\t\trequire(keccak256(abi.encodePa...\n      JUMPI \t\t\trequire(keccak256(abi.encodePa...\n      PUSH 40\t\t\trequire(keccak256(abi.encodePa...\n      MLOAD \t\t\trequire(keccak256(abi.encodePa...\n      PUSH 8C379A000000000000000000000000000000000000000000000000000000000\t\t\trequire(keccak256(abi.encodePa...\n      DUP2 \t\t\trequire(keccak256(abi.encodePa...\n      MSTORE \t\t\trequire(keccak256(abi.encodePa...\n      PUSH 4\t\t\trequire(keccak256(abi.encodePa...\n      ADD \t\t\trequire(keccak256(abi.encodePa...\n      PUSH [tag] 54\t\t\trequire(keccak256(abi.encodePa...\n      SWAP1 \t\t\trequire(keccak256(abi.encodePa...\n      PUSH [tag] 55\t\t\trequire(keccak256(abi.encodePa...\n      JUMP \t\t\trequire(keccak256(abi.encodePa...\n    tag 54\t\t\trequire(keccak256(abi.encodePa...\n      JUMPDEST \t\t\trequire(keccak256(abi.encodePa...\n      PUSH 40\t\t\trequire(keccak256(abi.encodePa...\n      MLOAD \t\t\trequire(keccak256(abi.encodePa...\n      DUP1 \t\t\trequire(keccak256(abi.encodePa...\n      SWAP2 \t\t\trequire(keccak256(abi.encodePa...\n      SUB \t\t\trequire(keccak256(abi.encodePa...\n      SWAP1 \t\t\trequire(keccak256(abi.encodePa...\n      REVERT \t\t\trequire(keccak256(abi.encodePa...\n    tag 53\t\t\trequire(keccak256(abi.encodePa...\n      JUMPDEST \t\t\trequire(keccak256(abi.encodePa...\n      PUSH 1\t\t\ttrue\n      PUSH 2\t\t\tloggedIn\n      PUSH 0\t\t\tloggedIn\n      PUSH 100\t\t\tloggedIn = true\n      EXP \t\t\tloggedIn = true\n      DUP2 \t\t\tloggedIn = true\n      SLOAD \t\t\tloggedIn = true\n      DUP2 \t\t\tloggedIn = true\n      PUSH FF\t\t\tloggedIn = true\n      MUL \t\t\tloggedIn = true\n      NOT \t\t\tloggedIn = true\n      AND \t\t\tloggedIn = true\n      SWAP1 \t\t\tloggedIn = true\n      DUP4 \t\t\tloggedIn = true\n      ISZERO \t\t\tloggedIn = true\n      ISZERO \t\t\tloggedIn = true\n      MUL \t\t\tloggedIn = true\n      OR \t\t\tloggedIn = true\n      SWAP1 \t\t\tloggedIn = true\n      SSTORE \t\t\tloggedIn = true\n      POP \t\t\tloggedIn = true\n      POP \t\t\tfunction AUTHORIZATION(string ...\n      POP \t\t\tfunction AUTHORIZATION(string ...\n      JUMP \t\t\tfunction AUTHORIZATION(string ...\n    tag 37\t\t\tfunction formatBTC(uint256 amo...\n      JUMPDEST \t\t\tfunction formatBTC(uint256 amo...\n      PUSH 60\t\t\tstring memory\n      PUSH 0\t\t\tuint256 integerPart\n      PUSH 5F5E100\t\t\t10**8\n      DUP4 \t\t\tamount\n      PUSH [tag] 58\t\t\tamount / (10**8)\n      SWAP2 \t\t\tamount / (10**8)\n      SWAP1 \t\t\tamount / (10**8)\n      PUSH [tag] 45\t\t\tamount / (10**8)\n      JUMP \t\t\tamount / (10**8)\n    tag 58\t\t\tamount / (10**8)\n      JUMPDEST \t\t\tamount / (10**8)\n      SWAP1 \t\t\tuint256 integerPart = amount /...\n      POP \t\t\tuint256 integerPart = amount /...\n      PUSH 0\t\t\tuint256 decimalPart\n      PUSH 5F5E100\t\t\t10**8\n      DUP5 \t\t\tamount\n      PUSH [tag] 59\t\t\tamount % (10**8)\n      SWAP2 \t\t\tamount % (10**8)\n      SWAP1 \t\t\tamount % (10**8)\n      PUSH [tag] 60\t\t\tamount % (10**8)\n      JUMP \t\t\tamount % (10**8)\n    tag 59\t\t\tamount % (10**8)\n      JUMPDEST \t\t\tamount % (10**8)\n      SWAP1 \t\t\tuint256 decimalPart = amount %...\n      POP \t\t\tuint256 decimalPart = amount %...\n      PUSH 0\t\t\tstring memory strIntegerPart\n      PUSH [tag] 61\t\t\tuintToString(integerPart)\n      DUP4 \t\t\tintegerPart\n      PUSH [tag] 62\t\t\tuintToString\n      JUMP \t\t\tuintToString(integerPart)\n    tag 61\t\t\tuintToString(integerPart)\n      JUMPDEST \t\t\tuintToString(integerPart)\n      SWAP1 \t\t\tstring memory strIntegerPart =...\n      POP \t\t\tstring memory strIntegerPart =...\n      PUSH 0\t\t\tbytes memory strBytes\n      DUP2 \t\t\tstrIntegerPart\n      SWAP1 \t\t\tbytes memory strBytes = bytes(...\n      POP \t\t\tbytes memory strBytes = bytes(...\n      PUSH 0\t\t\tuint256 len\n      DUP2 \t\t\tstrBytes\n      MLOAD \t\t\tstrBytes.length\n      SWAP1 \t\t\tuint256 len = strBytes.length\n      POP \t\t\tuint256 len = strBytes.length\n      PUSH 0\t\t\tbytes memory result\n      PUSH 3\t\t\t3\n      DUP3 \t\t\tlen\n      PUSH [tag] 63\t\t\tlen / 3\n      SWAP2 \t\t\tlen / 3\n      SWAP1 \t\t\tlen / 3\n      PUSH [tag] 45\t\t\tlen / 3\n      JUMP \t\t\tlen / 3\n    tag 63\t\t\tlen / 3\n      JUMPDEST \t\t\tlen / 3\n      DUP3 \t\t\tlen\n      PUSH [tag] 64\t\t\tlen + len / 3\n      SWAP2 \t\t\tlen + len / 3\n      SWAP1 \t\t\tlen + len / 3\n      PUSH [tag] 65\t\t\tlen + len / 3\n      JUMP \t\t\tlen + len / 3\n    tag 64\t\t\tlen + len / 3\n      JUMPDEST \t\t\tlen + len / 3\n      PUSH FFFFFFFFFFFFFFFF\t\t\tnew bytes(len + len / 3)\n      DUP2 \t\t\tnew bytes(len + len / 3)\n      GT \t\t\tnew bytes(len + len / 3)\n      ISZERO \t\t\tnew bytes(len + len / 3)\n      PUSH [tag] 66\t\t\tnew bytes(len + len / 3)\n      JUMPI \t\t\tnew bytes(len + len / 3)\n      PUSH [tag] 67\t\t\tnew bytes(len + len / 3)\n      PUSH [tag] 68\t\t\tnew bytes(len + len / 3)\n      JUMP \t\t\tnew bytes(len + len / 3)\n    tag 67\t\t\tnew bytes(len + len / 3)\n      JUMPDEST \t\t\tnew bytes(len + len / 3)\n    tag 66\t\t\tnew bytes(len + len / 3)\n      JUMPDEST \t\t\tnew bytes(len + len / 3)\n      PUSH 40\t\t\tnew bytes(len + len / 3)\n      MLOAD \t\t\tnew bytes(len + len / 3)\n      SWAP1 \t\t\tnew bytes(len + len / 3)\n      DUP1 \t\t\tnew bytes(len + len / 3)\n      DUP3 \t\t\tnew bytes(len + len / 3)\n      MSTORE \t\t\tnew bytes(len + len / 3)\n      DUP1 \t\t\tnew bytes(len + len / 3)\n      PUSH 1F\t\t\tnew bytes(len + len / 3)\n      ADD \t\t\tnew bytes(len + len / 3)\n      PUSH 1F\t\t\tnew bytes(len + len / 3)\n      NOT \t\t\tnew bytes(len + len / 3)\n      AND \t\t\tnew bytes(len + len / 3)\n      PUSH 20\t\t\tnew bytes(len + len / 3)\n      ADD \t\t\tnew bytes(len + len / 3)\n      DUP3 \t\t\tnew bytes(len + len / 3)\n      ADD \t\t\tnew bytes(len + len / 3)\n      PUSH 40\t\t\tnew bytes(len + len / 3)\n      MSTORE \t\t\tnew bytes(len + len / 3)\n      DUP1 \t\t\tnew bytes(len + len / 3)\n      ISZERO \t\t\tnew bytes(len + len / 3)\n      PUSH [tag] 69\t\t\tnew bytes(len + len / 3)\n      JUMPI \t\t\tnew bytes(len + len / 3)\n      DUP2 \t\t\tnew bytes(len + len / 3)\n      PUSH 20\t\t\tnew bytes(len + len / 3)\n      ADD \t\t\tnew bytes(len + len / 3)\n      PUSH 1\t\t\tnew bytes(len + len / 3)\n      DUP3 \t\t\tnew bytes(len + len / 3)\n      MUL \t\t\tnew bytes(len + len / 3)\n      DUP1 \t\t\tnew bytes(len + len / 3)\n      CALLDATASIZE \t\t\tnew bytes(len + len / 3)\n      DUP4 \t\t\tnew bytes(len + len / 3)\n      CALLDATACOPY \t\t\tnew bytes(len + len / 3)\n      DUP1 \t\t\tnew bytes(len + len / 3)\n      DUP3 \t\t\tnew bytes(len + len / 3)\n      ADD \t\t\tnew bytes(len + len / 3)\n      SWAP2 \t\t\tnew bytes(len + len / 3)\n      POP \t\t\tnew bytes(len + len / 3)\n      POP \t\t\tnew bytes(len + len / 3)\n      SWAP1 \t\t\tnew bytes(len + len / 3)\n      POP \t\t\tnew bytes(len + len / 3)\n    tag 69\t\t\tnew bytes(len + len / 3)\n      JUMPDEST \t\t\tnew bytes(len + len / 3)\n      POP \t\t\tnew bytes(len + len / 3)\n      SWAP1 \t\t\tbytes memory result = new byte...\n      POP \t\t\tbytes memory result = new byte...\n      PUSH 0\t\t\tuint256 j\n      DUP1 \t\t\tuint256 i\n    tag 70\t\t\tfor (uint256 i = 0; i < len; i...\n      JUMPDEST \t\t\tfor (uint256 i = 0; i < len; i...\n      DUP4 \t\t\tlen\n      DUP2 \t\t\ti\n      LT \t\t\ti < len\n      ISZERO \t\t\tfor (uint256 i = 0; i < len; i...\n      PUSH [tag] 71\t\t\tfor (uint256 i = 0; i < len; i...\n      JUMPI \t\t\tfor (uint256 i = 0; i < len; i...\n      PUSH 0\t\t\t0\n      PUSH 3\t\t\t3\n      DUP3 \t\t\ti\n      DUP7 \t\t\tlen\n      PUSH [tag] 73\t\t\tlen - i\n      SWAP2 \t\t\tlen - i\n      SWAP1 \t\t\tlen - i\n      PUSH [tag] 74\t\t\tlen - i\n      JUMP \t\t\tlen - i\n    tag 73\t\t\tlen - i\n      JUMPDEST \t\t\tlen - i\n      PUSH [tag] 75\t\t\t(len - i) % 3\n      SWAP2 \t\t\t(len - i) % 3\n      SWAP1 \t\t\t(len - i) % 3\n      PUSH [tag] 60\t\t\t(len - i) % 3\n      JUMP \t\t\t(len - i) % 3\n    tag 75\t\t\t(len - i) % 3\n      JUMPDEST \t\t\t(len - i) % 3\n      EQ \t\t\t(len - i) % 3 == 0\n      DUP1 \t\t\t(len - i) % 3 == 0 && i != 0\n      ISZERO \t\t\t(len - i) % 3 == 0 && i != 0\n      PUSH [tag] 76\t\t\t(len - i) % 3 == 0 && i != 0\n      JUMPI \t\t\t(len - i) % 3 == 0 && i != 0\n      POP \t\t\t(len - i) % 3 == 0 && i != 0\n      PUSH 0\t\t\t0\n      DUP2 \t\t\ti\n      EQ \t\t\ti != 0\n      ISZERO \t\t\ti != 0\n    tag 76\t\t\t(len - i) % 3 == 0 && i != 0\n      JUMPDEST \t\t\t(len - i) % 3 == 0 && i != 0\n      ISZERO \t\t\tif ((len - i) % 3 == 0 && i !=...\n      PUSH [tag] 77\t\t\tif ((len - i) % 3 == 0 && i !=...\n      JUMPI \t\t\tif ((len - i) % 3 == 0 && i !=...\n      PUSH 2C00000000000000000000000000000000000000000000000000000000000000\t\t\tbytes1(',')\n      DUP4 \t\t\tresult\n      DUP4 \t\t\tj++\n      DUP1 \t\t\tj++\n      PUSH [tag] 78\t\t\tj++\n      SWAP1 \t\t\tj++\n      PUSH [tag] 79\t\t\tj++\n      JUMP \t\t\tj++\n    tag 78\t\t\tj++\n      JUMPDEST \t\t\tj++\n      SWAP5 \t\t\tj++\n      POP \t\t\tj++\n      DUP2 \t\t\tresult[j++]\n      MLOAD \t\t\tresult[j++]\n      DUP2 \t\t\tresult[j++]\n      LT \t\t\tresult[j++]\n      PUSH [tag] 80\t\t\tresult[j++]\n      JUMPI \t\t\tresult[j++]\n      PUSH [tag] 81\t\t\tresult[j++]\n      PUSH [tag] 82\t\t\tresult[j++]\n      JUMP \t\t\tresult[j++]\n    tag 81\t\t\tresult[j++]\n      JUMPDEST \t\t\tresult[j++]\n    tag 80\t\t\tresult[j++]\n      JUMPDEST \t\t\tresult[j++]\n      PUSH 20\t\t\tresult[j++]\n      ADD \t\t\tresult[j++]\n      ADD \t\t\tresult[j++]\n      SWAP1 \t\t\tresult[j++] = bytes1(',')\n      PUSH FFFFFFFFFFFFFFFFFFFFFFFFFFFFFFFFFFFFFFFFFFFFFFFFFFFFFFFFFFFFFF\t\t\tresult[j++] = bytes1(',')\n      NOT \t\t\tresult[j++] = bytes1(',')\n      AND \t\t\tresult[j++] = bytes1(',')\n      SWAP1 \t\t\tresult[j++] = bytes1(',')\n      DUP2 \t\t\tresult[j++] = bytes1(',')\n      PUSH 0\t\t\tresult[j++] = bytes1(',')\n      BYTE \t\t\tresult[j++] = bytes1(',')\n      SWAP1 \t\t\tresult[j++] = bytes1(',')\n      MSTORE8 \t\t\tresult[j++] = bytes1(',')\n      POP \t\t\tresult[j++] = bytes1(',')\n    tag 77\t\t\tif ((len - i) % 3 == 0 && i !=...\n      JUMPDEST \t\t\tif ((len - i) % 3 == 0 && i !=...\n      DUP5 \t\t\tstrBytes\n      DUP2 \t\t\ti\n      DUP2 \t\t\tstrBytes[i]\n      MLOAD \t\t\tstrBytes[i]\n      DUP2 \t\t\tstrBytes[i]\n      LT \t\t\tstrBytes[i]\n      PUSH [tag] 83\t\t\tstrBytes[i]\n      JUMPI \t\t\tstrBytes[i]\n      PUSH [tag] 84\t\t\tstrBytes[i]\n      PUSH [tag] 82\t\t\tstrBytes[i]\n      JUMP \t\t\tstrBytes[i]\n    tag 84\t\t\tstrBytes[i]\n      JUMPDEST \t\t\tstrBytes[i]\n    tag 83\t\t\tstrBytes[i]\n      JUMPDEST \t\t\tstrBytes[i]\n      PUSH 20\t\t\tstrBytes[i]\n      ADD \t\t\tstrBytes[i]\n      ADD \t\t\tstrBytes[i]\n      MLOAD \t\t\tstrBytes[i]\n      PUSH F8\t\t\tstrBytes[i]\n      SHR \t\t\tstrBytes[i]\n      PUSH F8\t\t\tstrBytes[i]\n      SHL \t\t\tstrBytes[i]\n      DUP4 \t\t\tresult\n      DUP4 \t\t\tj++\n      DUP1 \t\t\tj++\n      PUSH [tag] 85\t\t\tj++\n      SWAP1 \t\t\tj++\n      PUSH [tag] 79\t\t\tj++\n      JUMP \t\t\tj++\n    tag 85\t\t\tj++\n      JUMPDEST \t\t\tj++\n      SWAP5 \t\t\tj++\n      POP \t\t\tj++\n      DUP2 \t\t\tresult[j++]\n      MLOAD \t\t\tresult[j++]\n      DUP2 \t\t\tresult[j++]\n      LT \t\t\tresult[j++]\n      PUSH [tag] 86\t\t\tresult[j++]\n      JUMPI \t\t\tresult[j++]\n      PUSH [tag] 87\t\t\tresult[j++]\n      PUSH [tag] 82\t\t\tresult[j++]\n      JUMP \t\t\tresult[j++]\n    tag 87\t\t\tresult[j++]\n      JUMPDEST \t\t\tresult[j++]\n    tag 86\t\t\tresult[j++]\n      JUMPDEST \t\t\tresult[j++]\n      PUSH 20\t\t\tresult[j++]\n      ADD \t\t\tresult[j++]\n      ADD \t\t\tresult[j++]\n      SWAP1 \t\t\tresult[j++] = strBytes[i]\n      PUSH FFFFFFFFFFFFFFFFFFFFFFFFFFFFFFFFFFFFFFFFFFFFFFFFFFFFFFFFFFFFFF\t\t\tresult[j++] = strBytes[i]\n      NOT \t\t\tresult[j++] = strBytes[i]\n      AND \t\t\tresult[j++] = strBytes[i]\n      SWAP1 \t\t\tresult[j++] = strBytes[i]\n      DUP2 \t\t\tresult[j++] = strBytes[i]\n      PUSH 0\t\t\tresult[j++] = strBytes[i]\n      BYTE \t\t\tresult[j++] = strBytes[i]\n      SWAP1 \t\t\tresult[j++] = strBytes[i]\n      MSTORE8 \t\t\tresult[j++] = strBytes[i]\n      POP \t\t\tresult[j++] = strBytes[i]\n      DUP1 \t\t\ti++\n      DUP1 \t\t\ti++\n      PUSH [tag] 88\t\t\ti++\n      SWAP1 \t\t\ti++\n      PUSH [tag] 79\t\t\ti++\n      JUMP \t\t\ti++\n    tag 88\t\t\ti++\n      JUMPDEST \t\t\ti++\n      SWAP2 \t\t\ti++\n      POP \t\t\ti++\n      POP \t\t\ti++\n      PUSH [tag] 70\t\t\tfor (uint256 i = 0; i < len; i...\n      JUMP \t\t\tfor (uint256 i = 0; i < len; i...\n    tag 71\t\t\tfor (uint256 i = 0; i < len; i...\n      JUMPDEST \t\t\tfor (uint256 i = 0; i < len; i...\n      POP \t\t\tfor (uint256 i = 0; i < len; i...\n      DUP2 \t\t\tresult\n      PUSH [tag] 89\t\t\tuintToString(decimalPart / (10...\n      PUSH F4240\t\t\t10**6\n      DUP9 \t\t\tdecimalPart\n      PUSH [tag] 90\t\t\tdecimalPart / (10**6)\n      SWAP2 \t\t\tdecimalPart / (10**6)\n      SWAP1 \t\t\tdecimalPart / (10**6)\n      PUSH [tag] 45\t\t\tdecimalPart / (10**6)\n      JUMP \t\t\tdecimalPart / (10**6)\n    tag 90\t\t\tdecimalPart / (10**6)\n      JUMPDEST \t\t\tdecimalPart / (10**6)\n      PUSH [tag] 62\t\t\tuintToString\n      JUMP \t\t\tuintToString(decimalPart / (10...\n    tag 89\t\t\tuintToString(decimalPart / (10...\n      JUMPDEST \t\t\tuintToString(decimalPart / (10...\n      PUSH 40\t\t\tabi.encodePacked(result, \".\", ...\n      MLOAD \t\t\tabi.encodePacked(result, \".\", ...\n      PUSH 20\t\t\tabi.encodePacked(result, \".\", ...\n      ADD \t\t\tabi.encodePacked(result, \".\", ...\n      PUSH [tag] 91\t\t\tabi.encodePacked(result, \".\", ...\n      SWAP3 \t\t\tabi.encodePacked(result, \".\", ...\n      SWAP2 \t\t\tabi.encodePacked(result, \".\", ...\n      SWAP1 \t\t\tabi.encodePacked(result, \".\", ...\n      PUSH [tag] 92\t\t\tabi.encodePacked(result, \".\", ...\n      JUMP \t\t\tabi.encodePacked(result, \".\", ...\n    tag 91\t\t\tabi.encodePacked(result, \".\", ...\n      JUMPDEST \t\t\tabi.encodePacked(result, \".\", ...\n      PUSH 40\t\t\tabi.encodePacked(result, \".\", ...\n      MLOAD \t\t\tabi.encodePacked(result, \".\", ...\n      PUSH 20\t\t\tabi.encodePacked(result, \".\", ...\n      DUP2 \t\t\tabi.encodePacked(result, \".\", ...\n      DUP4 \t\t\tabi.encodePacked(result, \".\", ...\n      SUB \t\t\tabi.encodePacked(result, \".\", ...\n      SUB \t\t\tabi.encodePacked(result, \".\", ...\n      DUP2 \t\t\tabi.encodePacked(result, \".\", ...\n      MSTORE \t\t\tabi.encodePacked(result, \".\", ...\n      SWAP1 \t\t\tabi.encodePacked(result, \".\", ...\n      PUSH 40\t\t\tabi.encodePacked(result, \".\", ...\n      MSTORE \t\t\tabi.encodePacked(result, \".\", ...\n      SWAP8 \t\t\treturn string(abi.encodePacked...\n      POP \t\t\treturn string(abi.encodePacked...\n      POP \t\t\treturn string(abi.encodePacked...\n      POP \t\t\treturn string(abi.encodePacked...\n      POP \t\t\treturn string(abi.encodePacked...\n      POP \t\t\treturn string(abi.encodePacked...\n      POP \t\t\treturn string(abi.encodePacked...\n      POP \t\t\treturn string(abi.encodePacked...\n      POP \t\t\treturn string(abi.encodePacked...\n      SWAP2 \t\t\tfunction formatBTC(uint256 amo...\n      SWAP1 \t\t\tfunction formatBTC(uint256 amo...\n      POP \t\t\tfunction formatBTC(uint256 amo...\n      JUMP \t\t\tfunction formatBTC(uint256 amo...\n    tag 47\t\t\tfunction formatUSD(uint256 amo...\n      JUMPDEST \t\t\tfunction formatUSD(uint256 amo...\n      PUSH 60\t\t\tstring memory\n      PUSH 0\t\t\tstring memory strAmount\n      PUSH [tag] 94\t\t\tuintToString(amount)\n      DUP4 \t\t\tamount\n      PUSH [tag] 62\t\t\tuintToString\n      JUMP \t\t\tuintToString(amount)\n    tag 94\t\t\tuintToString(amount)\n      JUMPDEST \t\t\tuintToString(amount)\n      SWAP1 \t\t\tstring memory strAmount = uint...\n      POP \t\t\tstring memory strAmount = uint...\n      PUSH 0\t\t\tbytes memory strBytes\n      DUP2 \t\t\tstrAmount\n      SWAP1 \t\t\tbytes memory strBytes = bytes(...\n      POP \t\t\tbytes memory strBytes = bytes(...\n      PUSH 0\t\t\tuint256 len\n      DUP2 \t\t\tstrBytes\n      MLOAD \t\t\tstrBytes.length\n      SWAP1 \t\t\tuint256 len = strBytes.length\n      POP \t\t\tuint256 len = strBytes.length\n      PUSH 6\t\t\t6\n      DUP2 \t\t\tlen\n      GT \t\t\tlen <= 6\n      PUSH [tag] 95\t\t\tif (len <= 6) {\\r\\n           ...\n      JUMPI \t\t\tif (len <= 6) {\\r\\n           ...\n      DUP3 \t\t\tstrAmount\n      PUSH 40\t\t\tabi.encodePacked(\"$\", strAmoun...\n      MLOAD \t\t\tabi.encodePacked(\"$\", strAmoun...\n      PUSH 20\t\t\tabi.encodePacked(\"$\", strAmoun...\n      ADD \t\t\tabi.encodePacked(\"$\", strAmoun...\n      PUSH [tag] 96\t\t\tabi.encodePacked(\"$\", strAmoun...\n      SWAP2 \t\t\tabi.encodePacked(\"$\", strAmoun...\n      SWAP1 \t\t\tabi.encodePacked(\"$\", strAmoun...\n      PUSH [tag] 97\t\t\tabi.encodePacked(\"$\", strAmoun...\n      JUMP \t\t\tabi.encodePacked(\"$\", strAmoun...\n    tag 96\t\t\tabi.encodePacked(\"$\", strAmoun...\n      JUMPDEST \t\t\tabi.encodePacked(\"$\", strAmoun...\n      PUSH 40\t\t\tabi.encodePacked(\"$\", strAmoun...\n      MLOAD \t\t\tabi.encodePacked(\"$\", strAmoun...\n      PUSH 20\t\t\tabi.encodePacked(\"$\", strAmoun...\n      DUP2 \t\t\tabi.encodePacked(\"$\", strAmoun...\n      DUP4 \t\t\tabi.encodePacked(\"$\", strAmoun...\n      SUB \t\t\tabi.encodePacked(\"$\", strAmoun...\n      SUB \t\t\tabi.encodePacked(\"$\", strAmoun...\n      DUP2 \t\t\tabi.encodePacked(\"$\", strAmoun...\n      MSTORE \t\t\tabi.encodePacked(\"$\", strAmoun...\n      SWAP1 \t\t\tabi.encodePacked(\"$\", strAmoun...\n      PUSH 40\t\t\tabi.encodePacked(\"$\", strAmoun...\n      MSTORE \t\t\tabi.encodePacked(\"$\", strAmoun...\n      SWAP4 \t\t\treturn string(abi.encodePacked...\n      POP \t\t\treturn string(abi.encodePacked...\n      POP \t\t\treturn string(abi.encodePacked...\n      POP \t\t\treturn string(abi.encodePacked...\n      POP \t\t\treturn string(abi.encodePacked...\n      PUSH [tag] 93\t\t\treturn string(abi.encodePacked...\n      JUMP \t\t\treturn string(abi.encodePacked...\n    tag 95\t\t\tif (len <= 6) {\\r\\n           ...\n      JUMPDEST \t\t\tif (len <= 6) {\\r\\n           ...\n      PUSH 0\t\t\tbytes memory result\n      PUSH 3\t\t\t3\n      DUP3 \t\t\tlen\n      PUSH [tag] 98\t\t\tlen / 3\n      SWAP2 \t\t\tlen / 3\n      SWAP1 \t\t\tlen / 3\n      PUSH [tag] 45\t\t\tlen / 3\n      JUMP \t\t\tlen / 3\n    tag 98\t\t\tlen / 3\n      JUMPDEST \t\t\tlen / 3\n      DUP3 \t\t\tlen\n      PUSH [tag] 99\t\t\tlen + len / 3\n      SWAP2 \t\t\tlen + len / 3\n      SWAP1 \t\t\tlen + len / 3\n      PUSH [tag] 65\t\t\tlen + len / 3\n      JUMP \t\t\tlen + len / 3\n    tag 99\t\t\tlen + len / 3\n      JUMPDEST \t\t\tlen + len / 3\n      PUSH FFFFFFFFFFFFFFFF\t\t\tnew bytes(len + len / 3)\n      DUP2 \t\t\tnew bytes(len + len / 3)\n      GT \t\t\tnew bytes(len + len / 3)\n      ISZERO \t\t\tnew bytes(len + len / 3)\n      PUSH [tag] 100\t\t\tnew bytes(len + len / 3)\n      JUMPI \t\t\tnew bytes(len + len / 3)\n      PUSH [tag] 101\t\t\tnew bytes(len + len / 3)\n      PUSH [tag] 68\t\t\tnew bytes(len + len / 3)\n      JUMP \t\t\tnew bytes(len + len / 3)\n    tag 101\t\t\tnew bytes(len + len / 3)\n      JUMPDEST \t\t\tnew bytes(len + len / 3)\n    tag 100\t\t\tnew bytes(len + len / 3)\n      JUMPDEST \t\t\tnew bytes(len + len / 3)\n      PUSH 40\t\t\tnew bytes(len + len / 3)\n      MLOAD \t\t\tnew bytes(len + len / 3)\n      SWAP1 \t\t\tnew bytes(len + len / 3)\n      DUP1 \t\t\tnew bytes(len + len / 3)\n      DUP3 \t\t\tnew bytes(len + len / 3)\n      MSTORE \t\t\tnew bytes(len + len / 3)\n      DUP1 \t\t\tnew bytes(len + len / 3)\n      PUSH 1F\t\t\tnew bytes(len + len / 3)\n      ADD \t\t\tnew bytes(len + len / 3)\n      PUSH 1F\t\t\tnew bytes(len + len / 3)\n      NOT \t\t\tnew bytes(len + len / 3)\n      AND \t\t\tnew bytes(len + len / 3)\n      PUSH 20\t\t\tnew bytes(len + len / 3)\n      ADD \t\t\tnew bytes(len + len / 3)\n      DUP3 \t\t\tnew bytes(len + len / 3)\n      ADD \t\t\tnew bytes(len + len / 3)\n      PUSH 40\t\t\tnew bytes(len + len / 3)\n      MSTORE \t\t\tnew bytes(len + len / 3)\n      DUP1 \t\t\tnew bytes(len + len / 3)\n      ISZERO \t\t\tnew bytes(len + len / 3)\n      PUSH [tag] 102\t\t\tnew bytes(len + len / 3)\n      JUMPI \t\t\tnew bytes(len + len / 3)\n      DUP2 \t\t\tnew bytes(len + len / 3)\n      PUSH 20\t\t\tnew bytes(len + len / 3)\n      ADD \t\t\tnew bytes(len + len / 3)\n      PUSH 1\t\t\tnew bytes(len + len / 3)\n      DUP3 \t\t\tnew bytes(len + len / 3)\n      MUL \t\t\tnew bytes(len + len / 3)\n      DUP1 \t\t\tnew bytes(len + len / 3)\n      CALLDATASIZE \t\t\tnew bytes(len + len / 3)\n      DUP4 \t\t\tnew bytes(len + len / 3)\n      CALLDATACOPY \t\t\tnew bytes(len + len / 3)\n      DUP1 \t\t\tnew bytes(len + len / 3)\n      DUP3 \t\t\tnew bytes(len + len / 3)\n      ADD \t\t\tnew bytes(len + len / 3)\n      SWAP2 \t\t\tnew bytes(len + len / 3)\n      POP \t\t\tnew bytes(len + len / 3)\n      POP \t\t\tnew bytes(len + len / 3)\n      SWAP1 \t\t\tnew bytes(len + len / 3)\n      POP \t\t\tnew bytes(len + len / 3)\n    tag 102\t\t\tnew bytes(len + len / 3)\n      JUMPDEST \t\t\tnew bytes(len + len / 3)\n      POP \t\t\tnew bytes(len + len / 3)\n      SWAP1 \t\t\tbytes memory result = new byte...\n      POP \t\t\tbytes memory result = new byte...\n      PUSH 0\t\t\tuint256 j\n      DUP1 \t\t\tuint256 i\n    tag 103\t\t\tfor (uint256 i = 0; i < len; i...\n      JUMPDEST \t\t\tfor (uint256 i = 0; i < len; i...\n      DUP4 \t\t\tlen\n      DUP2 \t\t\ti\n      LT \t\t\ti < len\n      ISZERO \t\t\tfor (uint256 i = 0; i < len; i...\n      PUSH [tag] 104\t\t\tfor (uint256 i = 0; i < len; i...\n      JUMPI \t\t\tfor (uint256 i = 0; i < len; i...\n      PUSH 0\t\t\t0\n      PUSH 3\t\t\t3\n      DUP3 \t\t\ti\n      DUP7 \t\t\tlen\n      PUSH [tag] 106\t\t\tlen - i\n      SWAP2 \t\t\tlen - i\n      SWAP1 \t\t\tlen - i\n      PUSH [tag] 74\t\t\tlen - i\n      JUMP \t\t\tlen - i\n    tag 106\t\t\tlen - i\n      JUMPDEST \t\t\tlen - i\n      PUSH [tag] 107\t\t\t(len - i) % 3\n      SWAP2 \t\t\t(len - i) % 3\n      SWAP1 \t\t\t(len - i) % 3\n      PUSH [tag] 60\t\t\t(len - i) % 3\n      JUMP \t\t\t(len - i) % 3\n    tag 107\t\t\t(len - i) % 3\n      JUMPDEST \t\t\t(len - i) % 3\n      EQ \t\t\t(len - i) % 3 == 0\n      DUP1 \t\t\t(len - i) % 3 == 0 && i != 0\n      ISZERO \t\t\t(len - i) % 3 == 0 && i != 0\n      PUSH [tag] 108\t\t\t(len - i) % 3 == 0 && i != 0\n      JUMPI \t\t\t(len - i) % 3 == 0 && i != 0\n      POP \t\t\t(len - i) % 3 == 0 && i != 0\n      PUSH 0\t\t\t0\n      DUP2 \t\t\ti\n      EQ \t\t\ti != 0\n      ISZERO \t\t\ti != 0\n    tag 108\t\t\t(len - i) % 3 == 0 && i != 0\n      JUMPDEST \t\t\t(len - i) % 3 == 0 && i != 0\n      ISZERO \t\t\tif ((len - i) % 3 == 0 && i !=...\n      PUSH [tag] 109\t\t\tif ((len - i) % 3 == 0 && i !=...\n      JUMPI \t\t\tif ((len - i) % 3 == 0 && i !=...\n      PUSH 2C00000000000000000000000000000000000000000000000000000000000000\t\t\tbytes1(',')\n      DUP4 \t\t\tresult\n      DUP4 \t\t\tj++\n      DUP1 \t\t\tj++\n      PUSH [tag] 110\t\t\tj++\n      SWAP1 \t\t\tj++\n      PUSH [tag] 79\t\t\tj++\n      JUMP \t\t\tj++\n    tag 110\t\t\tj++\n      JUMPDEST \t\t\tj++\n      SWAP5 \t\t\tj++\n      POP \t\t\tj++\n      DUP2 \t\t\tresult[j++]\n      MLOAD \t\t\tresult[j++]\n      DUP2 \t\t\tresult[j++]\n      LT \t\t\tresult[j++]\n      PUSH [tag] 111\t\t\tresult[j++]\n      JUMPI \t\t\tresult[j++]\n      PUSH [tag] 112\t\t\tresult[j++]\n      PUSH [tag] 82\t\t\tresult[j++]\n      JUMP \t\t\tresult[j++]\n    tag 112\t\t\tresult[j++]\n      JUMPDEST \t\t\tresult[j++]\n    tag 111\t\t\tresult[j++]\n      JUMPDEST \t\t\tresult[j++]\n      PUSH 20\t\t\tresult[j++]\n      ADD \t\t\tresult[j++]\n      ADD \t\t\tresult[j++]\n      SWAP1 \t\t\tresult[j++] = bytes1(',')\n      PUSH FFFFFFFFFFFFFFFFFFFFFFFFFFFFFFFFFFFFFFFFFFFFFFFFFFFFFFFFFFFFFF\t\t\tresult[j++] = bytes1(',')\n      NOT \t\t\tresult[j++] = bytes1(',')\n      AND \t\t\tresult[j++] = bytes1(',')\n      SWAP1 \t\t\tresult[j++] = bytes1(',')\n      DUP2 \t\t\tresult[j++] = bytes1(',')\n      PUSH 0\t\t\tresult[j++] = bytes1(',')\n      BYTE \t\t\tresult[j++] = bytes1(',')\n      SWAP1 \t\t\tresult[j++] = bytes1(',')\n      MSTORE8 \t\t\tresult[j++] = bytes1(',')\n      POP \t\t\tresult[j++] = bytes1(',')\n    tag 109\t\t\tif ((len - i) % 3 == 0 && i !=...\n      JUMPDEST \t\t\tif ((len - i) % 3 == 0 && i !=...\n      DUP5 \t\t\tstrBytes\n      DUP2 \t\t\ti\n      DUP2 \t\t\tstrBytes[i]\n      MLOAD \t\t\tstrBytes[i]\n      DUP2 \t\t\tstrBytes[i]\n      LT \t\t\tstrBytes[i]\n      PUSH [tag] 113\t\t\tstrBytes[i]\n      JUMPI \t\t\tstrBytes[i]\n      PUSH [tag] 114\t\t\tstrBytes[i]\n      PUSH [tag] 82\t\t\tstrBytes[i]\n      JUMP \t\t\tstrBytes[i]\n    tag 114\t\t\tstrBytes[i]\n      JUMPDEST \t\t\tstrBytes[i]\n    tag 113\t\t\tstrBytes[i]\n      JUMPDEST \t\t\tstrBytes[i]\n      PUSH 20\t\t\tstrBytes[i]\n      ADD \t\t\tstrBytes[i]\n      ADD \t\t\tstrBytes[i]\n      MLOAD \t\t\tstrBytes[i]\n      PUSH F8\t\t\tstrBytes[i]\n      SHR \t\t\tstrBytes[i]\n      PUSH F8\t\t\tstrBytes[i]\n      SHL \t\t\tstrBytes[i]\n      DUP4 \t\t\tresult\n      DUP4 \t\t\tj++\n      DUP1 \t\t\tj++\n      PUSH [tag] 115\t\t\tj++\n      SWAP1 \t\t\tj++\n      PUSH [tag] 79\t\t\tj++\n      JUMP \t\t\tj++\n    tag 115\t\t\tj++\n      JUMPDEST \t\t\tj++\n      SWAP5 \t\t\tj++\n      POP \t\t\tj++\n      DUP2 \t\t\tresult[j++]\n      MLOAD \t\t\tresult[j++]\n      DUP2 \t\t\tresult[j++]\n      LT \t\t\tresult[j++]\n      PUSH [tag] 116\t\t\tresult[j++]\n      JUMPI \t\t\tresult[j++]\n      PUSH [tag] 117\t\t\tresult[j++]\n      PUSH [tag] 82\t\t\tresult[j++]\n      JUMP \t\t\tresult[j++]\n    tag 117\t\t\tresult[j++]\n      JUMPDEST \t\t\tresult[j++]\n    tag 116\t\t\tresult[j++]\n      JUMPDEST \t\t\tresult[j++]\n      PUSH 20\t\t\tresult[j++]\n      ADD \t\t\tresult[j++]\n      ADD \t\t\tresult[j++]\n      SWAP1 \t\t\tresult[j++] = strBytes[i]\n      PUSH FFFFFFFFFFFFFFFFFFFFFFFFFFFFFFFFFFFFFFFFFFFFFFFFFFFFFFFFFFFFFF\t\t\tresult[j++] = strBytes[i]\n      NOT \t\t\tresult[j++] = strBytes[i]\n      AND \t\t\tresult[j++] = strBytes[i]\n      SWAP1 \t\t\tresult[j++] = strBytes[i]\n      DUP2 \t\t\tresult[j++] = strBytes[i]\n      PUSH 0\t\t\tresult[j++] = strBytes[i]\n      BYTE \t\t\tresult[j++] = strBytes[i]\n      SWAP1 \t\t\tresult[j++] = strBytes[i]\n      MSTORE8 \t\t\tresult[j++] = strBytes[i]\n      POP \t\t\tresult[j++] = strBytes[i]\n      DUP1 \t\t\ti++\n      DUP1 \t\t\ti++\n      PUSH [tag] 118\t\t\ti++\n      SWAP1 \t\t\ti++\n      PUSH [tag] 79\t\t\ti++\n      JUMP \t\t\ti++\n    tag 118\t\t\ti++\n      JUMPDEST \t\t\ti++\n      SWAP2 \t\t\ti++\n      POP \t\t\ti++\n      POP \t\t\ti++\n      PUSH [tag] 103\t\t\tfor (uint256 i = 0; i < len; i...\n      JUMP \t\t\tfor (uint256 i = 0; i < len; i...\n    tag 104\t\t\tfor (uint256 i = 0; i < len; i...\n      JUMPDEST \t\t\tfor (uint256 i = 0; i < len; i...\n      POP \t\t\tfor (uint256 i = 0; i < len; i...\n      DUP2 \t\t\tresult\n      PUSH 40\t\t\tabi.encodePacked(\"$\", result, ...\n      MLOAD \t\t\tabi.encodePacked(\"$\", result, ...\n      PUSH 20\t\t\tabi.encodePacked(\"$\", result, ...\n      ADD \t\t\tabi.encodePacked(\"$\", result, ...\n      PUSH [tag] 119\t\t\tabi.encodePacked(\"$\", result, ...\n      SWAP2 \t\t\tabi.encodePacked(\"$\", result, ...\n      SWAP1 \t\t\tabi.encodePacked(\"$\", result, ...\n      PUSH [tag] 120\t\t\tabi.encodePacked(\"$\", result, ...\n      JUMP \t\t\tabi.encodePacked(\"$\", result, ...\n    tag 119\t\t\tabi.encodePacked(\"$\", result, ...\n      JUMPDEST \t\t\tabi.encodePacked(\"$\", result, ...\n      PUSH 40\t\t\tabi.encodePacked(\"$\", result, ...\n      MLOAD \t\t\tabi.encodePacked(\"$\", result, ...\n      PUSH 20\t\t\tabi.encodePacked(\"$\", result, ...\n      DUP2 \t\t\tabi.encodePacked(\"$\", result, ...\n      DUP4 \t\t\tabi.encodePacked(\"$\", result, ...\n      SUB \t\t\tabi.encodePacked(\"$\", result, ...\n      SUB \t\t\tabi.encodePacked(\"$\", result, ...\n      DUP2 \t\t\tabi.encodePacked(\"$\", result, ...\n      MSTORE \t\t\tabi.encodePacked(\"$\", result, ...\n      SWAP1 \t\t\tabi.encodePacked(\"$\", result, ...\n      PUSH 40\t\t\tabi.encodePacked(\"$\", result, ...\n      MSTORE \t\t\tabi.encodePacked(\"$\", result, ...\n      SWAP6 \t\t\treturn string(abi.encodePacked...\n      POP \t\t\treturn string(abi.encodePacked...\n      POP \t\t\treturn string(abi.encodePacked...\n      POP \t\t\treturn string(abi.encodePacked...\n      POP \t\t\treturn string(abi.encodePacked...\n      POP \t\t\treturn string(abi.encodePacked...\n      POP \t\t\treturn string(abi.encodePacked...\n    tag 93\t\t\tfunction formatUSD(uint256 amo...\n      JUMPDEST \t\t\tfunction formatUSD(uint256 amo...\n      SWAP2 \t\t\tfunction formatUSD(uint256 amo...\n      SWAP1 \t\t\tfunction formatUSD(uint256 amo...\n      POP \t\t\tfunction formatUSD(uint256 amo...\n      JUMP \t\t\tfunction formatUSD(uint256 amo...\n    tag 62\t\t\tfunction uintToString(uint256 ...\n      JUMPDEST \t\t\tfunction uintToString(uint256 ...\n      PUSH 60\t\t\tstring memory\n      PUSH 0\t\t\t0\n      DUP3 \t\t\tvalue\n      SUB \t\t\tvalue == 0\n      PUSH [tag] 122\t\t\tif (value == 0) {\\r\\n         ...\n      JUMPI \t\t\tif (value == 0) {\\r\\n         ...\n      PUSH 40\t\t\treturn \"0\"\n      MLOAD \t\t\treturn \"0\"\n      DUP1 \t\t\treturn \"0\"\n      PUSH 40\t\t\treturn \"0\"\n      ADD \t\t\treturn \"0\"\n      PUSH 40\t\t\treturn \"0\"\n      MSTORE \t\t\treturn \"0\"\n      DUP1 \t\t\treturn \"0\"\n      PUSH 1\t\t\treturn \"0\"\n      DUP2 \t\t\treturn \"0\"\n      MSTORE \t\t\treturn \"0\"\n      PUSH 20\t\t\treturn \"0\"\n      ADD \t\t\treturn \"0\"\n      PUSH 3000000000000000000000000000000000000000000000000000000000000000\t\t\treturn \"0\"\n      DUP2 \t\t\treturn \"0\"\n      MSTORE \t\t\treturn \"0\"\n      POP \t\t\treturn \"0\"\n      SWAP1 \t\t\treturn \"0\"\n      POP \t\t\treturn \"0\"\n      PUSH [tag] 121\t\t\treturn \"0\"\n      JUMP \t\t\treturn \"0\"\n    tag 122\t\t\tif (value == 0) {\\r\\n         ...\n      JUMPDEST \t\t\tif (value == 0) {\\r\\n         ...\n      PUSH 0\t\t\tuint256 temp\n      DUP3 \t\t\tvalue\n      SWAP1 \t\t\tuint256 temp = value\n      POP \t\t\tuint256 temp = value\n      PUSH 0\t\t\tuint256 digits\n    tag 123\t\t\twhile (temp != 0) {\\r\\n       ...\n      JUMPDEST \t\t\twhile (temp != 0) {\\r\\n       ...\n      PUSH 0\t\t\t0\n      DUP3 \t\t\ttemp\n      EQ \t\t\ttemp != 0\n      PUSH [tag] 124\t\t\twhile (temp != 0) {\\r\\n       ...\n      JUMPI \t\t\twhile (temp != 0) {\\r\\n       ...\n      DUP1 \t\t\tdigits++\n      DUP1 \t\t\tdigits++\n      PUSH [tag] 125\t\t\tdigits++\n      SWAP1 \t\t\tdigits++\n      PUSH [tag] 79\t\t\tdigits++\n      JUMP \t\t\tdigits++\n    tag 125\t\t\tdigits++\n      JUMPDEST \t\t\tdigits++\n      SWAP2 \t\t\tdigits++\n      POP \t\t\tdigits++\n      POP \t\t\tdigits++\n      PUSH A\t\t\t10\n      DUP3 \t\t\ttemp /= 10\n      PUSH [tag] 126\t\t\ttemp /= 10\n      SWAP2 \t\t\ttemp /= 10\n      SWAP1 \t\t\ttemp /= 10\n      PUSH [tag] 45\t\t\ttemp /= 10\n      JUMP \t\t\ttemp /= 10\n    tag 126\t\t\ttemp /= 10\n      JUMPDEST \t\t\ttemp /= 10\n      SWAP2 \t\t\ttemp /= 10\n      POP \t\t\ttemp /= 10\n      PUSH [tag] 123\t\t\twhile (temp != 0) {\\r\\n       ...\n      JUMP \t\t\twhile (temp != 0) {\\r\\n       ...\n    tag 124\t\t\twhile (temp != 0) {\\r\\n       ...\n      JUMPDEST \t\t\twhile (temp != 0) {\\r\\n       ...\n      PUSH 0\t\t\tbytes memory buffer\n      DUP2 \t\t\tdigits\n      PUSH FFFFFFFFFFFFFFFF\t\t\tnew bytes(digits)\n      DUP2 \t\t\tnew bytes(digits)\n      GT \t\t\tnew bytes(digits)\n      ISZERO \t\t\tnew bytes(digits)\n      PUSH [tag] 127\t\t\tnew bytes(digits)\n      JUMPI \t\t\tnew bytes(digits)\n      PUSH [tag] 128\t\t\tnew bytes(digits)\n      PUSH [tag] 68\t\t\tnew bytes(digits)\n      JUMP \t\t\tnew bytes(digits)\n    tag 128\t\t\tnew bytes(digits)\n      JUMPDEST \t\t\tnew bytes(digits)\n    tag 127\t\t\tnew bytes(digits)\n      JUMPDEST \t\t\tnew bytes(digits)\n      PUSH 40\t\t\tnew bytes(digits)\n      MLOAD \t\t\tnew bytes(digits)\n      SWAP1 \t\t\tnew bytes(digits)\n      DUP1 \t\t\tnew bytes(digits)\n      DUP3 \t\t\tnew bytes(digits)\n      MSTORE \t\t\tnew bytes(digits)\n      DUP1 \t\t\tnew bytes(digits)\n      PUSH 1F\t\t\tnew bytes(digits)\n      ADD \t\t\tnew bytes(digits)\n      PUSH 1F\t\t\tnew bytes(digits)\n      NOT \t\t\tnew bytes(digits)\n      AND \t\t\tnew bytes(digits)\n      PUSH 20\t\t\tnew bytes(digits)\n      ADD \t\t\tnew bytes(digits)\n      DUP3 \t\t\tnew bytes(digits)\n      ADD \t\t\tnew bytes(digits)\n      PUSH 40\t\t\tnew bytes(digits)\n      MSTORE \t\t\tnew bytes(digits)\n      DUP1 \t\t\tnew bytes(digits)\n      ISZERO \t\t\tnew bytes(digits)\n      PUSH [tag] 129\t\t\tnew bytes(digits)\n      JUMPI \t\t\tnew bytes(digits)\n      DUP2 \t\t\tnew bytes(digits)\n      PUSH 20\t\t\tnew bytes(digits)\n      ADD \t\t\tnew bytes(digits)\n      PUSH 1\t\t\tnew bytes(digits)\n      DUP3 \t\t\tnew bytes(digits)\n      MUL \t\t\tnew bytes(digits)\n      DUP1 \t\t\tnew bytes(digits)\n      CALLDATASIZE \t\t\tnew bytes(digits)\n      DUP4 \t\t\tnew bytes(digits)\n      CALLDATACOPY \t\t\tnew bytes(digits)\n      DUP1 \t\t\tnew bytes(digits)\n      DUP3 \t\t\tnew bytes(digits)\n      ADD \t\t\tnew bytes(digits)\n      SWAP2 \t\t\tnew bytes(digits)\n      POP \t\t\tnew bytes(digits)\n      POP \t\t\tnew bytes(digits)\n      SWAP1 \t\t\tnew bytes(digits)\n      POP \t\t\tnew bytes(digits)\n    tag 129\t\t\tnew bytes(digits)\n      JUMPDEST \t\t\tnew bytes(digits)\n      POP \t\t\tnew bytes(digits)\n      SWAP1 \t\t\tbytes memory buffer = new byte...\n      POP \t\t\tbytes memory buffer = new byte...\n    tag 130\t\t\twhile (value != 0) {\\r\\n      ...\n      JUMPDEST \t\t\twhile (value != 0) {\\r\\n      ...\n      PUSH 0\t\t\t0\n      DUP6 \t\t\tvalue\n      EQ \t\t\tvalue != 0\n      PUSH [tag] 131\t\t\twhile (value != 0) {\\r\\n      ...\n      JUMPI \t\t\twhile (value != 0) {\\r\\n      ...\n      PUSH 1\t\t\t1\n      DUP3 \t\t\tdigits -= 1\n      PUSH [tag] 132\t\t\tdigits -= 1\n      SWAP2 \t\t\tdigits -= 1\n      SWAP1 \t\t\tdigits -= 1\n      PUSH [tag] 74\t\t\tdigits -= 1\n      JUMP \t\t\tdigits -= 1\n    tag 132\t\t\tdigits -= 1\n      JUMPDEST \t\t\tdigits -= 1\n      SWAP2 \t\t\tdigits -= 1\n      POP \t\t\tdigits -= 1\n      PUSH A\t\t\t10\n      DUP6 \t\t\tvalue\n      PUSH [tag] 133\t\t\tvalue % 10\n      SWAP2 \t\t\tvalue % 10\n      SWAP1 \t\t\tvalue % 10\n      PUSH [tag] 60\t\t\tvalue % 10\n      JUMP \t\t\tvalue % 10\n    tag 133\t\t\tvalue % 10\n      JUMPDEST \t\t\tvalue % 10\n      PUSH 30\t\t\t48\n      PUSH [tag] 134\t\t\t48 + uint256(value % 10)\n      SWAP2 \t\t\t48 + uint256(value % 10)\n      SWAP1 \t\t\t48 + uint256(value % 10)\n      PUSH [tag] 65\t\t\t48 + uint256(value % 10)\n      JUMP \t\t\t48 + uint256(value % 10)\n    tag 134\t\t\t48 + uint256(value % 10)\n      JUMPDEST \t\t\t48 + uint256(value % 10)\n      PUSH F8\t\t\tbytes1(uint8(48 + uint256(valu...\n      SHL \t\t\tbytes1(uint8(48 + uint256(valu...\n      DUP2 \t\t\tbuffer\n      DUP4 \t\t\tdigits\n      DUP2 \t\t\tbuffer[digits]\n      MLOAD \t\t\tbuffer[digits]\n      DUP2 \t\t\tbuffer[digits]\n      LT \t\t\tbuffer[digits]\n      PUSH [tag] 135\t\t\tbuffer[digits]\n      JUMPI \t\t\tbuffer[digits]\n      PUSH [tag] 136\t\t\tbuffer[digits]\n      PUSH [tag] 82\t\t\tbuffer[digits]\n      JUMP \t\t\tbuffer[digits]\n    tag 136\t\t\tbuffer[digits]\n      JUMPDEST \t\t\tbuffer[digits]\n    tag 135\t\t\tbuffer[digits]\n      JUMPDEST \t\t\tbuffer[digits]\n      PUSH 20\t\t\tbuffer[digits]\n      ADD \t\t\tbuffer[digits]\n      ADD \t\t\tbuffer[digits]\n      SWAP1 \t\t\tbuffer[digits] = bytes1(uint8(...\n      PUSH FFFFFFFFFFFFFFFFFFFFFFFFFFFFFFFFFFFFFFFFFFFFFFFFFFFFFFFFFFFFFF\t\t\tbuffer[digits] = bytes1(uint8(...\n      NOT \t\t\tbuffer[digits] = bytes1(uint8(...\n      AND \t\t\tbuffer[digits] = bytes1(uint8(...\n      SWAP1 \t\t\tbuffer[digits] = bytes1(uint8(...\n      DUP2 \t\t\tbuffer[digits] = bytes1(uint8(...\n      PUSH 0\t\t\tbuffer[digits] = bytes1(uint8(...\n      BYTE \t\t\tbuffer[digits] = bytes1(uint8(...\n      SWAP1 \t\t\tbuffer[digits] = bytes1(uint8(...\n      MSTORE8 \t\t\tbuffer[digits] = bytes1(uint8(...\n      POP \t\t\tbuffer[digits] = bytes1(uint8(...\n      PUSH A\t\t\t10\n      DUP6 \t\t\tvalue /= 10\n      PUSH [tag] 137\t\t\tvalue /= 10\n      SWAP2 \t\t\tvalue /= 10\n      SWAP1 \t\t\tvalue /= 10\n      PUSH [tag] 45\t\t\tvalue /= 10\n      JUMP \t\t\tvalue /= 10\n    tag 137\t\t\tvalue /= 10\n      JUMPDEST \t\t\tvalue /= 10\n      SWAP5 \t\t\tvalue /= 10\n      POP \t\t\tvalue /= 10\n      PUSH [tag] 130\t\t\twhile (value != 0) {\\r\\n      ...\n      JUMP \t\t\twhile (value != 0) {\\r\\n      ...\n    tag 131\t\t\twhile (value != 0) {\\r\\n      ...\n      JUMPDEST \t\t\twhile (value != 0) {\\r\\n      ...\n      DUP1 \t\t\tbuffer\n      SWAP4 \t\t\treturn string(buffer)\n      POP \t\t\treturn string(buffer)\n      POP \t\t\treturn string(buffer)\n      POP \t\t\treturn string(buffer)\n      POP \t\t\treturn string(buffer)\n    tag 121\t\t\tfunction uintToString(uint256 ...\n      JUMPDEST \t\t\tfunction uintToString(uint256 ...\n      SWAP2 \t\t\tfunction uintToString(uint256 ...\n      SWAP1 \t\t\tfunction uintToString(uint256 ...\n      POP \t\t\tfunction uintToString(uint256 ...\n      JUMP \t\t\tfunction uintToString(uint256 ...\n    tag 138\t\t\t-License-Identifier: MIT\\r\\npr...\n      JUMPDEST \t\t\t-License-Identifier: MIT\\r\\npr...\n      PUSH 0\t\t\t\\ncontr\n      DUP2 \t\t\trivat\n      MLOAD \t\t\tring private\n      SWAP1 \t\t\t {\\r\\n    string private\n      POP \t\t\t {\\r\\n    string private\n      SWAP2 \t\t\t-License-Identifier: MIT\\r\\npr...\n      SWAP1 \t\t\t-License-Identifier: MIT\\r\\npr...\n      POP \t\t\t-License-Identifier: MIT\\r\\npr...\n      JUMP \t\t\t-License-Identifier: MIT\\r\\npr...\n    tag 139\t\t\tger-Nano-X (Recognized HARDWAR...\n      JUMPDEST \t\t\tger-Nano-X (Recognized HARDWAR...\n      PUSH 0\t\t\t    bool pr\n      DUP3 \t\t\t\\r\\n\\r\\n  \n      DUP3 \t\t\tals\n      MSTORE \t\t\tdIn = false;\\r\\n\\r\\n   \n      PUSH 20\t\t\tmemo\n      DUP3 \t\t\trin\n      ADD \t\t\td(string memor\n      SWAP1 \t\t\t requirePassword(string memor\n      POP \t\t\t requirePassword(string memor\n      SWAP3 \t\t\tger-Nano-X (Recognized HARDWAR...\n      SWAP2 \t\t\tger-Nano-X (Recognized HARDWAR...\n      POP \t\t\tger-Nano-X (Recognized HARDWAR...\n      POP \t\t\tger-Nano-X (Recognized HARDWAR...\n      JUMP \t\t\tger-Nano-X (Recognized HARDWAR...\n    tag 140\t\t\t{\\r\\n        require(keccak256...\n      JUMPDEST \t\t\t{\\r\\n        require(keccak256...\n      PUSH 0\t\t\t \n    tag 181\t\t\tt password.\");\\r\\n        _;\\r...\n      JUMPDEST \t\t\tt password.\");\\r\\n        _;\\r...\n      DUP4 \t\t\t\\r\\n    \n      DUP2 \t\t\t\"\n      LT \t\t\trd.\");\\r\\n     \n      ISZERO \t\t\tt password.\");\\r\\n        _;\\r...\n      PUSH [tag] 183\t\t\tt password.\");\\r\\n        _;\\r...\n      JUMPI \t\t\tt password.\");\\r\\n        _;\\r...\n      DUP1 \t\t\ts\n      DUP3 \t\t\t\"Pl\n      ADD \t\t\tIn, \"Please\n      MLOAD \t\t\tloggedIn, \"Please \n      DUP2 \t\t\ti\n      DUP5 \t\t\t re\n      ADD \t\t\t     requir\n      MSTORE \t\t\t {\\r\\n        require(loggedIn...\n      PUSH 20\t\t\t\\n \n      DUP2 \t\t\t\\r\n      ADD \t\t\t   }\\r\\n\\r\\n  \n      SWAP1 \t\t\t_;\\r\\n    }\\r\\n\\r\\n  \n      POP \t\t\t_;\\r\\n    }\\r\\n\\r\\n  \n      PUSH [tag] 181\t\t\tt password.\");\\r\\n        _;\\r...\n      JUMP \t\t\tt password.\");\\r\\n        _;\\r...\n    tag 183\t\t\tt password.\");\\r\\n        _;\\r...\n      JUMPDEST \t\t\tt password.\");\\r\\n        _;\\r...\n      PUSH 0\t\t\tc\n      DUP5 \t\t\t\\r\\n    \n      DUP5 \t\t\t  }\n      ADD \t\t\t\\r\\n    }\\r\\n\\r\\n    f\n      MSTORE \t\t\t     _;\\r\\n    }\\r\\n\\r\\n    fu...\n      POP \t\t\t) == PASSWORD_HASH, \"Incorrect...\n      POP \t\t\t{\\r\\n        require(keccak256...\n      POP \t\t\t{\\r\\n        require(keccak256...\n      POP \t\t\t{\\r\\n        require(keccak256...\n      JUMP \t\t\t{\\r\\n        require(keccak256...\n    tag 141\t\t\tATION(string memory password) ...\n      JUMPDEST \t\t\tATION(string memory password) ...\n      PUSH 0\t\t\tirePas\n      PUSH 1F\t\t\t  \n      NOT \t\t\te;\\r\\n   \n      PUSH 1F\t\t\t= \n      DUP4 \t\t\tggedI\n      ADD \t\t\t  loggedIn = t\n      AND \t\t\t      loggedIn = true;\\r\\n    \n      SWAP1 \t\t\tord) {\\r\\n        loggedIn = t...\n      POP \t\t\tord) {\\r\\n        loggedIn = t...\n      SWAP2 \t\t\tATION(string memory password) ...\n      SWAP1 \t\t\tATION(string memory password) ...\n      POP \t\t\tATION(string memory password) ...\n      JUMP \t\t\tATION(string memory password) ...\n    tag 142\t\t\tunction CONVERSION() public vi...\n      JUMPDEST \t\t\tunction CONVERSION() public vi...\n      PUSH 0\t\t\t bt\n      PUSH [tag] 186\t\t\t    uint256 usdAmount = btcAmo...\n      DUP3 \t\t\t * bt\n      PUSH [tag] 138\t\t\t    uint256 usdAmount = btcAmo...\n      JUMP \t\t\t    uint256 usdAmount = btcAmo...\n    tag 186\t\t\t    uint256 usdAmount = btcAmo...\n      JUMPDEST \t\t\t    uint256 usdAmount = btcAmo...\n      PUSH [tag] 187\t\t\t*8);\\r\\n        return formatU...\n      DUP2 \t\t\tn OWNE\n      DUP6 \t\t\tnct\n      PUSH [tag] 139\t\t\t*8);\\r\\n        return formatU...\n      JUMP \t\t\t*8);\\r\\n        return formatU...\n    tag 187\t\t\t*8);\\r\\n        return formatU...\n      JUMPDEST \t\t\t*8);\\r\\n        return formatU...\n      SWAP4 \t\t\t / (10**8);\\r\\n        return ...\n      POP \t\t\t / (10**8);\\r\\n        return ...\n      PUSH [tag] 188\t\t\t view requireLogin returns (st...\n      DUP2 \t\t\trn own\n      DUP6 \t\t\t re\n      PUSH 20\t\t\t    \n      DUP7 \t\t\try) {\n      ADD \t\t\tmemory) {\\r\\n     \n      PUSH [tag] 140\t\t\t view requireLogin returns (st...\n      JUMP \t\t\t view requireLogin returns (st...\n    tag 188\t\t\t view requireLogin returns (st...\n      JUMPDEST \t\t\t view requireLogin returns (st...\n      PUSH [tag] 189\t\t\t TOKENS() public view require\n      DUP2 \t\t\trequir\n      PUSH [tag] 141\t\t\t TOKENS() public view require\n      JUMP \t\t\t TOKENS() public view require\n    tag 189\t\t\t TOKENS() public view require\n      JUMPDEST \t\t\t TOKENS() public view require\n      DUP5 \t\t\tcti\n      ADD \t\t\t function TOKENS() public view...\n      SWAP2 \t\t\t\\r\\n\\r\\n    function TOKENS() ...\n      POP \t\t\t\\r\\n\\r\\n    function TOKENS() ...\n      POP \t\t\tToUsdRate = 27017;\\r\\n        ...\n      SWAP3 \t\t\tunction CONVERSION() public vi...\n      SWAP2 \t\t\tunction CONVERSION() public vi...\n      POP \t\t\tunction CONVERSION() public vi...\n      POP \t\t\tunction CONVERSION() public vi...\n      JUMP \t\t\tunction CONVERSION() public vi...\n    tag 10\t\t\t (string memory) {\\r\\n        ...\n      JUMPDEST \t\t\t (string memory) {\\r\\n        ...\n      PUSH 0\t\t\t pur\n      PUSH 20\t\t\t  \n      DUP3 \t\t\ty) {\\r\\n   \n      ADD \t\t\temory) {\\r\\n        \n      SWAP1 \t\t\tstring memory) {\\r\\n        \n      POP \t\t\tstring memory) {\\r\\n        \n      DUP2 \t\t\t;\\r\\n      \n      DUP2 \t\t\tmoun\n      SUB \t\t\tng(amount);\\r\\n       \n      PUSH 0\t\t\tS\n      DUP4 \t\t\tnt = uint\n      ADD \t\t\tAmount = uintToSt\n      MSTORE \t\t\tory strAmount = uintToString(a...\n      PUSH [tag] 191\t\t\tytes = bytes(strAmount);\\r\\n  ...\n      DUP2 \t\t\t if \n      DUP5 \t\t\t\\r\\n    \n      PUSH [tag] 142\t\t\tytes = bytes(strAmount);\\r\\n  ...\n      JUMP \t\t\tytes = bytes(strAmount);\\r\\n  ...\n    tag 191\t\t\tytes = bytes(strAmount);\\r\\n  ...\n      JUMPDEST \t\t\tytes = bytes(strAmount);\\r\\n  ...\n      SWAP1 \t\t\tory strBytes = bytes(strAmount...\n      POP \t\t\tory strBytes = bytes(strAmount...\n      SWAP3 \t\t\t (string memory) {\\r\\n        ...\n      SWAP2 \t\t\t (string memory) {\\r\\n        ...\n      POP \t\t\t (string memory) {\\r\\n        ...\n      POP \t\t\t (string memory) {\\r\\n        ...\n      JUMP \t\t\t (string memory) {\\r\\n        ...\n    tag 143\t\t\t            return string(abi....\n      JUMPDEST \t\t\t            return string(abi....\n      PUSH 0\t\t\todePac\n      PUSH 40\t\t\t;\\r\n      MLOAD \t\t\t.00\"));\\r\\n\n      SWAP1 \t\t\trAmount, \".00\"));\\r\\n\n      POP \t\t\trAmount, \".00\"));\\r\\n\n      SWAP1 \t\t\t            return string(abi....\n      JUMP \t\t\t            return string(abi....\n    tag 144\t\t\t       bytes memory result = n...\n      JUMPDEST \t\t\t       bytes memory result = n...\n      PUSH 0\t\t\t \n      DUP1 \t\t\t;\n      REVERT \t\t\t6 i = 0; i <\n    tag 145\t\t\t\\r\\n            if ((len - i) ...\n      JUMPDEST \t\t\t\\r\\n            if ((len - i) ...\n      PUSH 0\t\t\t\\n\n      DUP1 \t\t\t \n      REVERT \t\t\t        }\\r\\n \n    tag 146\t\t\tesult[j++] = strBytes[i];\\r\\n ...\n      JUMPDEST \t\t\tesult[j++] = strBytes[i];\\r\\n ...\n      PUSH 0\t\t\t\\r\n      DUP1 \t\t\t\\n\n      REVERT \t\t\t\\n    }\\r\\n\\r\\n\\r\\n\n    tag 147\t\t\t formatBTC(uint256 amount) pri...\n      JUMPDEST \t\t\t formatBTC(uint256 amount) pri...\n      PUSH 0\t\t\t;\n      DUP1 \t\t\t*\n      REVERT \t\t\t / (10**8);\\r\n    tag 68\t\t\t decimalPart = amount % (10**8...\n      JUMPDEST \t\t\t decimalPart = amount % (10**8...\n      PUSH 4E487B7100000000000000000000000000000000000000000000000000000000\t\t\tory strIntegerPart = uintToStr...\n      PUSH 0\t\t\tm\n      MSTORE \t\t\tstring memory strIntegerPart =...\n      PUSH 41\t\t\t);\\r\\n\n      PUSH 4\t\t\ta\n      MSTORE \t\t\tntegerPart);\\r\\n \n      PUSH 24\t\t\trByt\n      PUSH 0\t\t\t \n      REVERT \t\t\t6 len = strByte\n    tag 148\t\t\t   bytes memory result = new b...\n      JUMPDEST \t\t\t   bytes memory result = new b...\n      PUSH [tag] 199\t\t\tnt256 i = 0; i < len; i++) \n      DUP3 \t\t\ti++)\n      PUSH [tag] 141\t\t\tnt256 i = 0; i < len; i++) \n      JUMP \t\t\tnt256 i = 0; i < len; i++) \n    tag 199\t\t\tnt256 i = 0; i < len; i++) \n      JUMPDEST \t\t\tnt256 i = 0; i < len; i++) \n      DUP2 \t\t\t for (\n      ADD \t\t\t\\n    for (uint256 i = 0; i < ...\n      DUP2 \t\t\t    re\n      DUP2 \t\t\t     }\\r\\n  \n      LT \t\t\t        }\\r\\n        res\n      PUSH FFFFFFFFFFFFFFFF\t\t\tj++] = bytes1(',')\n      DUP3 \t\t\t     resul\n      GT \t\t\t        result[j++] = bytes1('...\n      OR \t\t\t           result[j++] = bytes...\n      ISZERO \t\t\t\\r\\n            result[j++] = ...\n      PUSH [tag] 200\t\t\t\\r\\n            result[j++] = ...\n      JUMPI \t\t\t\\r\\n            result[j++] = ...\n      PUSH [tag] 201\t\t\tj++] = strBytes[i]\n      PUSH [tag] 68\t\t\tj++] = strBytes[i]\n      JUMP \t\t\tj++] = strBytes[i]\n    tag 201\t\t\tj++] = strBytes[i]\n      JUMPDEST \t\t\tj++] = strBytes[i]\n    tag 200\t\t\t\\r\\n            result[j++] = ...\n      JUMPDEST \t\t\t\\r\\n            result[j++] = ...\n      DUP1 \t\t\ttring(abi.\n      PUSH 40\t\t\trn\n      MSTORE \t\t\t   return string(abi.e\n      POP \t\t\tn / 3);\\r\\n    uint256 j = 0;\\...\n      POP \t\t\t   bytes memory result = new b...\n      POP \t\t\t   bytes memory result = new b...\n      JUMP \t\t\t   bytes memory result = new b...\n    tag 149\t\t\tresult, \".\", uintToString(deci...\n      JUMPDEST \t\t\tresult, \".\", uintToString(deci...\n      PUSH 0\t\t\tart / \n      PUSH [tag] 203\t\t\t\\n}\\r\\n\\r\\n\\r\\n   bytes32 p\n      PUSH [tag] 143\t\t\t\\n}\\r\\n\\r\\n\\r\\n   bytes32 p\n      JUMP \t\t\t\\n}\\r\\n\\r\\n\\r\\n   bytes32 p\n    tag 203\t\t\t\\n}\\r\\n\\r\\n\\r\\n   bytes32 p\n      JUMPDEST \t\t\t\\n}\\r\\n\\r\\n\\r\\n   bytes32 p\n      SWAP1 \t\t\t0 BTC\"));\\r\\n}\\r\\n\\r\\n\\r\\n   b...\n      POP \t\t\t0 BTC\"));\\r\\n}\\r\\n\\r\\n\\r\\n   b...\n      PUSH [tag] 204\t\t\tnstant PASSWORD_HASH = keccak2...\n      DUP3 \t\t\tk256\n      DUP3 \t\t\t = kec\n      PUSH [tag] 148\t\t\tnstant PASSWORD_HASH = keccak2...\n      JUMP \t\t\tnstant PASSWORD_HASH = keccak2...\n    tag 204\t\t\tnstant PASSWORD_HASH = keccak2...\n      JUMPDEST \t\t\tnstant PASSWORD_HASH = keccak2...\n      SWAP2 \t\t\tresult, \".\", uintToString(deci...\n      SWAP1 \t\t\tresult, \".\", uintToString(deci...\n      POP \t\t\tresult, \".\", uintToString(deci...\n      JUMP \t\t\tresult, \".\", uintToString(deci...\n    tag 150\t\t\tcked(\"Xy~01k!*\"));\\r\\n\\r\\n    ...\n      JUMPDEST \t\t\tcked(\"Xy~01k!*\"));\\r\\n\\r\\n    ...\n      PUSH 0\t\t\t pri\n      PUSH FFFFFFFFFFFFFFFF\t\t\t;\\r\\n        }\\r\\n    \n      DUP3 \t\t\tturn \"\n      GT \t\t\t return \"0\";\\r\\n        }\\r\\n ...\n      ISZERO \t\t\t    return \"0\";\\r\\n        }\\r...\n      PUSH [tag] 206\t\t\t    return \"0\";\\r\\n        }\\r...\n      JUMPI \t\t\t    return \"0\";\\r\\n        }\\r...\n      PUSH [tag] 207\t\t\tuint256 temp = val\n      PUSH [tag] 68\t\t\tuint256 temp = val\n      JUMP \t\t\tuint256 temp = val\n    tag 207\t\t\tuint256 temp = val\n      JUMPDEST \t\t\tuint256 temp = val\n    tag 206\t\t\t    return \"0\";\\r\\n        }\\r...\n      JUMPDEST \t\t\t    return \"0\";\\r\\n        }\\r...\n      PUSH [tag] 208\t\t\t digits;\\r\\n        while (tem...\n      DUP3 \t\t\te (tem\n      PUSH [tag] 141\t\t\t digits;\\r\\n        while (tem...\n      JUMP \t\t\t digits;\\r\\n        while (tem...\n    tag 208\t\t\t digits;\\r\\n        while (tem...\n      JUMPDEST \t\t\t digits;\\r\\n        while (tem...\n      SWAP1 \t\t\t uint256 digits;\\r\\n        wh...\n      POP \t\t\t uint256 digits;\\r\\n        wh...\n      PUSH 20\t\t\t;\\r\\n \n      DUP2 \t\t\t /= \n      ADD \t\t\ttemp /= 10;\\r\\n  \n      SWAP1 \t\t\t        temp /= 10;\\r\\n  \n      POP \t\t\t        temp /= 10;\\r\\n  \n      SWAP2 \t\t\tcked(\"Xy~01k!*\"));\\r\\n\\r\\n    ...\n      SWAP1 \t\t\tcked(\"Xy~01k!*\"));\\r\\n\\r\\n    ...\n      POP \t\t\tcked(\"Xy~01k!*\"));\\r\\n\\r\\n    ...\n      JUMP \t\t\tcked(\"Xy~01k!*\"));\\r\\n\\r\\n    ...\n    tag 151\t\t\t    bytes memory buffer = new ...\n      JUMPDEST \t\t\t    bytes memory buffer = new ...\n      DUP3 \t\t\t 1;\\r\\n \n      DUP2 \t\t\tts \n      DUP4 \t\t\t di\n      CALLDATACOPY \t\t\t\\r\\n            digits -= 1;\\r...\n      PUSH 0\t\t\tu\n      DUP4 \t\t\t= byte\n      DUP4 \t\t\tits\n      ADD \t\t\t[digits] = bytes\n      MSTORE \t\t\t buffer[digits] = bytes1(ui\n      POP \t\t\t    bytes memory buffer = new ...\n      POP \t\t\t    bytes memory buffer = new ...\n      POP \t\t\t    bytes memory buffer = new ...\n      JUMP \t\t\t    bytes memory buffer = new ...\n    tag 152\t\t\tt256(value % 10)));\\r\\n       ...\n      JUMPDEST \t\t\tt256(value % 10)));\\r\\n       ...\n      PUSH 0\t\t\tg(buf\n      PUSH [tag] 211\t\t\t\n      PUSH [tag] 212\t\t\t\n      DUP5 \t\t\t\n      PUSH [tag] 150\t\t\t\n      JUMP \t\t\t\n    tag 212\t\t\t\n      JUMPDEST \t\t\t\n      PUSH [tag] 149\t\t\t\n      JUMP \t\t\t\n    tag 211\t\t\t\n      JUMPDEST \t\t\t\n      SWAP1 \t\t\t}\\r\\n}\n      POP \t\t\t}\\r\\n}\n      DUP3 \t\t\t\n      DUP2 \t\t\t\n      MSTORE \t\t\t\n      PUSH 20\t\t\t\n      DUP2 \t\t\t\n      ADD \t\t\t\n      DUP5 \t\t\t\n      DUP5 \t\t\t\n      DUP5 \t\t\t\n      ADD \t\t\t\n      GT \t\t\t\n      ISZERO \t\t\t\n      PUSH [tag] 213\t\t\t\n      JUMPI \t\t\t\n      PUSH [tag] 214\t\t\t\n      PUSH [tag] 147\t\t\t\n      JUMP \t\t\t\n    tag 214\t\t\t\n      JUMPDEST \t\t\t\n    tag 213\t\t\t\n      JUMPDEST \t\t\t\n      PUSH [tag] 215\t\t\t\n      DUP5 \t\t\t\n      DUP3 \t\t\t\n      DUP6 \t\t\t\n      PUSH [tag] 151\t\t\t\n      JUMP \t\t\t\n    tag 215\t\t\t\n      JUMPDEST \t\t\t\n      POP \t\t\ter);\\r\\n    }\\r\\n}\n      SWAP4 \t\t\tt256(value % 10)));\\r\\n       ...\n      SWAP3 \t\t\tt256(value % 10)));\\r\\n       ...\n      POP \t\t\tt256(value % 10)));\\r\\n       ...\n      POP \t\t\tt256(value % 10)));\\r\\n       ...\n      POP \t\t\tt256(value % 10)));\\r\\n       ...\n      JUMP \t\t\tt256(value % 10)));\\r\\n       ...\n    tag 153\t\t\t\n      JUMPDEST \t\t\t\n      PUSH 0\t\t\t\n      DUP3 \t\t\t\n      PUSH 1F\t\t\t\n      DUP4 \t\t\t\n      ADD \t\t\t\n      SLT \t\t\t\n      PUSH [tag] 217\t\t\t\n      JUMPI \t\t\t\n      PUSH [tag] 218\t\t\t\n      PUSH [tag] 146\t\t\t\n      JUMP \t\t\t\n    tag 218\t\t\t\n      JUMPDEST \t\t\t\n    tag 217\t\t\t\n      JUMPDEST \t\t\t\n      DUP2 \t\t\t\n      CALLDATALOAD \t\t\t\n      PUSH [tag] 219\t\t\t\n      DUP5 \t\t\t\n      DUP3 \t\t\t\n      PUSH 20\t\t\t\n      DUP7 \t\t\t\n      ADD \t\t\t\n      PUSH [tag] 152\t\t\t\n      JUMP \t\t\t\n    tag 219\t\t\t\n      JUMPDEST \t\t\t\n      SWAP2 \t\t\t\n      POP \t\t\t\n      POP \t\t\t\n      SWAP3 \t\t\t\n      SWAP2 \t\t\t\n      POP \t\t\t\n      POP \t\t\t\n      JUMP \t\t\t\n    tag 19\t\t\t\n      JUMPDEST \t\t\t\n      PUSH 0\t\t\t\n      PUSH 20\t\t\t\n      DUP3 \t\t\t\n      DUP5 \t\t\t\n      SUB \t\t\t\n      SLT \t\t\t\n      ISZERO \t\t\t\n      PUSH [tag] 221\t\t\t\n      JUMPI \t\t\t\n      PUSH [tag] 222\t\t\t\n      PUSH [tag] 144\t\t\t\n      JUMP \t\t\t\n    tag 222\t\t\t\n      JUMPDEST \t\t\t\n    tag 221\t\t\t\n      JUMPDEST \t\t\t\n      PUSH 0\t\t\t\n      DUP3 \t\t\t\n      ADD \t\t\t\n      CALLDATALOAD \t\t\t\n      PUSH FFFFFFFFFFFFFFFF\t\t\t\n      DUP2 \t\t\t\n      GT \t\t\t\n      ISZERO \t\t\t\n      PUSH [tag] 223\t\t\t\n      JUMPI \t\t\t\n      PUSH [tag] 224\t\t\t\n      PUSH [tag] 145\t\t\t\n      JUMP \t\t\t\n    tag 224\t\t\t\n      JUMPDEST \t\t\t\n    tag 223\t\t\t\n      JUMPDEST \t\t\t\n      PUSH [tag] 225\t\t\t\n      DUP5 \t\t\t\n      DUP3 \t\t\t\n      DUP6 \t\t\t\n      ADD \t\t\t\n      PUSH [tag] 153\t\t\t\n      JUMP \t\t\t\n    tag 225\t\t\t\n      JUMPDEST \t\t\t\n      SWAP2 \t\t\t\n      POP \t\t\t\n      POP \t\t\t\n      SWAP3 \t\t\t\n      SWAP2 \t\t\t\n      POP \t\t\t\n      POP \t\t\t\n      JUMP \t\t\t\n    tag 154\t\t\t\n      JUMPDEST \t\t\t\n      PUSH 506C65617365206C6F67696E2066697273742E00000000000000000000000000\t\t\t\n      PUSH 0\t\t\t\n      DUP3 \t\t\t\n      ADD \t\t\t\n      MSTORE \t\t\t\n      POP \t\t\t\n      JUMP \t\t\t\n    tag 155\t\t\t\n      JUMPDEST \t\t\t\n      PUSH 0\t\t\t\n      PUSH [tag] 228\t\t\t\n      PUSH 13\t\t\t\n      DUP4 \t\t\t\n      PUSH [tag] 139\t\t\t\n      JUMP \t\t\t\n    tag 228\t\t\t\n      JUMPDEST \t\t\t\n      SWAP2 \t\t\t\n      POP \t\t\t\n      PUSH [tag] 229\t\t\t\n      DUP3 \t\t\t\n      PUSH [tag] 154\t\t\t\n      JUMP \t\t\t\n    tag 229\t\t\t\n      JUMPDEST \t\t\t\n      PUSH 20\t\t\t\n      DUP3 \t\t\t\n      ADD \t\t\t\n      SWAP1 \t\t\t\n      POP \t\t\t\n      SWAP2 \t\t\t\n      SWAP1 \t\t\t\n      POP \t\t\t\n      JUMP \t\t\t\n    tag 24\t\t\t\n      JUMPDEST \t\t\t\n      PUSH 0\t\t\t\n      PUSH 20\t\t\t\n      DUP3 \t\t\t\n      ADD \t\t\t\n      SWAP1 \t\t\t\n      POP \t\t\t\n      DUP2 \t\t\t\n      DUP2 \t\t\t\n      SUB \t\t\t\n      PUSH 0\t\t\t\n      DUP4 \t\t\t\n      ADD \t\t\t\n      MSTORE \t\t\t\n      PUSH [tag] 231\t\t\t\n      DUP2 \t\t\t\n      PUSH [tag] 155\t\t\t\n      JUMP \t\t\t\n    tag 231\t\t\t\n      JUMPDEST \t\t\t\n      SWAP1 \t\t\t\n      POP \t\t\t\n      SWAP2 \t\t\t\n      SWAP1 \t\t\t\n      POP \t\t\t\n      JUMP \t\t\t\n    tag 156\t\t\t\n      JUMPDEST \t\t\t\n      PUSH 4E487B7100000000000000000000000000000000000000000000000000000000\t\t\t\n      PUSH 0\t\t\t\n      MSTORE \t\t\t\n      PUSH 22\t\t\t\n      PUSH 4\t\t\t\n      MSTORE \t\t\t\n      PUSH 24\t\t\t\n      PUSH 0\t\t\t\n      REVERT \t\t\t\n    tag 27\t\t\t\n      JUMPDEST \t\t\t\n      PUSH 0\t\t\t\n      PUSH 2\t\t\t\n      DUP3 \t\t\t\n      DIV \t\t\t\n      SWAP1 \t\t\t\n      POP \t\t\t\n      PUSH 1\t\t\t\n      DUP3 \t\t\t\n      AND \t\t\t\n      DUP1 \t\t\t\n      PUSH [tag] 234\t\t\t\n      JUMPI \t\t\t\n      PUSH 7F\t\t\t\n      DUP3 \t\t\t\n      AND \t\t\t\n      SWAP2 \t\t\t\n      POP \t\t\t\n    tag 234\t\t\t\n      JUMPDEST \t\t\t\n      PUSH 20\t\t\t\n      DUP3 \t\t\t\n      LT \t\t\t\n      DUP2 \t\t\t\n      SUB \t\t\t\n      PUSH [tag] 235\t\t\t\n      JUMPI \t\t\t\n      PUSH [tag] 236\t\t\t\n      PUSH [tag] 156\t\t\t\n      JUMP \t\t\t\n    tag 236\t\t\t\n      JUMPDEST \t\t\t\n    tag 235\t\t\t\n      JUMPDEST \t\t\t\n      POP \t\t\t\n      SWAP2 \t\t\t\n      SWAP1 \t\t\t\n      POP \t\t\t\n      JUMP \t\t\t\n    tag 157\t\t\t\n      JUMPDEST \t\t\t\n      PUSH 0\t\t\t\n      DUP2 \t\t\t\n      SWAP1 \t\t\t\n      POP \t\t\t\n      SWAP2 \t\t\t\n      SWAP1 \t\t\t\n      POP \t\t\t\n      JUMP \t\t\t\n    tag 158\t\t\t\n      JUMPDEST \t\t\t\n      PUSH 4E487B7100000000000000000000000000000000000000000000000000000000\t\t\t\n      PUSH 0\t\t\t\n      MSTORE \t\t\t\n      PUSH 11\t\t\t\n      PUSH 4\t\t\t\n      MSTORE \t\t\t\n      PUSH 24\t\t\t\n      PUSH 0\t\t\t\n      REVERT \t\t\t\n    tag 43\t\t\t\n      JUMPDEST \t\t\t\n      PUSH 0\t\t\t\n      PUSH [tag] 240\t\t\t\n      DUP3 \t\t\t\n      PUSH [tag] 157\t\t\t\n      JUMP \t\t\t\n    tag 240\t\t\t\n      JUMPDEST \t\t\t\n      SWAP2 \t\t\t\n      POP \t\t\t\n      PUSH [tag] 241\t\t\t\n      DUP4 \t\t\t\n      PUSH [tag] 157\t\t\t\n      JUMP \t\t\t\n    tag 241\t\t\t\n      JUMPDEST \t\t\t\n      SWAP3 \t\t\t\n      POP \t\t\t\n      DUP3 \t\t\t\n      DUP3 \t\t\t\n      MUL \t\t\t\n      PUSH [tag] 242\t\t\t\n      DUP2 \t\t\t\n      PUSH [tag] 157\t\t\t\n      JUMP \t\t\t\n    tag 242\t\t\t\n      JUMPDEST \t\t\t\n      SWAP2 \t\t\t\n      POP \t\t\t\n      DUP3 \t\t\t\n      DUP3 \t\t\t\n      DIV \t\t\t\n      DUP5 \t\t\t\n      EQ \t\t\t\n      DUP4 \t\t\t\n      ISZERO \t\t\t\n      OR \t\t\t\n      PUSH [tag] 243\t\t\t\n      JUMPI \t\t\t\n      PUSH [tag] 244\t\t\t\n      PUSH [tag] 158\t\t\t\n      JUMP \t\t\t\n    tag 244\t\t\t\n      JUMPDEST \t\t\t\n    tag 243\t\t\t\n      JUMPDEST \t\t\t\n      POP \t\t\t\n      SWAP3 \t\t\t\n      SWAP2 \t\t\t\n      POP \t\t\t\n      POP \t\t\t\n      JUMP \t\t\t\n    tag 159\t\t\t\n      JUMPDEST \t\t\t\n      PUSH 4E487B7100000000000000000000000000000000000000000000000000000000\t\t\t\n      PUSH 0\t\t\t\n      MSTORE \t\t\t\n      PUSH 12\t\t\t\n      PUSH 4\t\t\t\n      MSTORE \t\t\t\n      PUSH 24\t\t\t\n      PUSH 0\t\t\t\n      REVERT \t\t\t\n    tag 45\t\t\t\n      JUMPDEST \t\t\t\n      PUSH 0\t\t\t\n      PUSH [tag] 247\t\t\t\n      DUP3 \t\t\t\n      PUSH [tag] 157\t\t\t\n      JUMP \t\t\t\n    tag 247\t\t\t\n      JUMPDEST \t\t\t\n      SWAP2 \t\t\t\n      POP \t\t\t\n      PUSH [tag] 248\t\t\t\n      DUP4 \t\t\t\n      PUSH [tag] 157\t\t\t\n      JUMP \t\t\t\n    tag 248\t\t\t\n      JUMPDEST \t\t\t\n      SWAP3 \t\t\t\n      POP \t\t\t\n      DUP3 \t\t\t\n      PUSH [tag] 249\t\t\t\n      JUMPI \t\t\t\n      PUSH [tag] 250\t\t\t\n      PUSH [tag] 159\t\t\t\n      JUMP \t\t\t\n    tag 250\t\t\t\n      JUMPDEST \t\t\t\n    tag 249\t\t\t\n      JUMPDEST \t\t\t\n      DUP3 \t\t\t\n      DUP3 \t\t\t\n      DIV \t\t\t\n      SWAP1 \t\t\t\n      POP \t\t\t\n      SWAP3 \t\t\t\n      SWAP2 \t\t\t\n      POP \t\t\t\n      POP \t\t\t\n      JUMP \t\t\t\n    tag 160\t\t\t\n      JUMPDEST \t\t\t\n      PUSH 0\t\t\t\n      DUP2 \t\t\t\n      SWAP1 \t\t\t\n      POP \t\t\t\n      SWAP3 \t\t\t\n      SWAP2 \t\t\t\n      POP \t\t\t\n      POP \t\t\t\n      JUMP \t\t\t\n    tag 161\t\t\t\n      JUMPDEST \t\t\t\n      PUSH 58797E30316B212A000000000000000000000000000000000000000000000000\t\t\t\n      PUSH 0\t\t\t\n      DUP3 \t\t\t\n      ADD \t\t\t\n      MSTORE \t\t\t\n      POP \t\t\t\n      JUMP \t\t\t\n    tag 162\t\t\t\n      JUMPDEST \t\t\t\n      PUSH 0\t\t\t\n      PUSH [tag] 254\t\t\t\n      PUSH 8\t\t\t\n      DUP4 \t\t\t\n      PUSH [tag] 160\t\t\t\n      JUMP \t\t\t\n    tag 254\t\t\t\n      JUMPDEST \t\t\t\n      SWAP2 \t\t\t\n      POP \t\t\t\n      PUSH [tag] 255\t\t\t\n      DUP3 \t\t\t\n      PUSH [tag] 161\t\t\t\n      JUMP \t\t\t\n    tag 255\t\t\t\n      JUMPDEST \t\t\t\n      PUSH 8\t\t\t\n      DUP3 \t\t\t\n      ADD \t\t\t\n      SWAP1 \t\t\t\n      POP \t\t\t\n      SWAP2 \t\t\t\n      SWAP1 \t\t\t\n      POP \t\t\t\n      JUMP \t\t\t\n    tag 50\t\t\t\n      JUMPDEST \t\t\t\n      PUSH 0\t\t\t\n      PUSH [tag] 257\t\t\t\n      DUP3 \t\t\t\n      PUSH [tag] 162\t\t\t\n      JUMP \t\t\t\n    tag 257\t\t\t\n      JUMPDEST \t\t\t\n      SWAP2 \t\t\t\n      POP \t\t\t\n      DUP2 \t\t\t\n      SWAP1 \t\t\t\n      POP \t\t\t\n      SWAP2 \t\t\t\n      SWAP1 \t\t\t\n      POP \t\t\t\n      JUMP \t\t\t\n    tag 163\t\t\t\n      JUMPDEST \t\t\t\n      PUSH 0\t\t\t\n      DUP2 \t\t\t\n      MLOAD \t\t\t\n      SWAP1 \t\t\t\n      POP \t\t\t\n      SWAP2 \t\t\t\n      SWAP1 \t\t\t\n      POP \t\t\t\n      JUMP \t\t\t\n    tag 164\t\t\t\n      JUMPDEST \t\t\t\n      PUSH 0\t\t\t\n      DUP2 \t\t\t\n      SWAP1 \t\t\t\n      POP \t\t\t\n      SWAP3 \t\t\t\n      SWAP2 \t\t\t\n      POP \t\t\t\n      POP \t\t\t\n      JUMP \t\t\t\n    tag 165\t\t\t\n      JUMPDEST \t\t\t\n      PUSH 0\t\t\t\n      PUSH [tag] 261\t\t\t\n      DUP3 \t\t\t\n      PUSH [tag] 163\t\t\t\n      JUMP \t\t\t\n    tag 261\t\t\t\n      JUMPDEST \t\t\t\n      PUSH [tag] 262\t\t\t\n      DUP2 \t\t\t\n      DUP6 \t\t\t\n      PUSH [tag] 164\t\t\t\n      JUMP \t\t\t\n    tag 262\t\t\t\n      JUMPDEST \t\t\t\n      SWAP4 \t\t\t\n      POP \t\t\t\n      PUSH [tag] 263\t\t\t\n      DUP2 \t\t\t\n      DUP6 \t\t\t\n      PUSH 20\t\t\t\n      DUP7 \t\t\t\n      ADD \t\t\t\n      PUSH [tag] 140\t\t\t\n      JUMP \t\t\t\n    tag 263\t\t\t\n      JUMPDEST \t\t\t\n      DUP1 \t\t\t\n      DUP5 \t\t\t\n      ADD \t\t\t\n      SWAP2 \t\t\t\n      POP \t\t\t\n      POP \t\t\t\n      SWAP3 \t\t\t\n      SWAP2 \t\t\t\n      POP \t\t\t\n      POP \t\t\t\n      JUMP \t\t\t\n    tag 52\t\t\t\n      JUMPDEST \t\t\t\n      PUSH 0\t\t\t\n      PUSH [tag] 265\t\t\t\n      DUP3 \t\t\t\n      DUP5 \t\t\t\n      PUSH [tag] 165\t\t\t\n      JUMP \t\t\t\n    tag 265\t\t\t\n      JUMPDEST \t\t\t\n      SWAP2 \t\t\t\n      POP \t\t\t\n      DUP2 \t\t\t\n      SWAP1 \t\t\t\n      POP \t\t\t\n      SWAP3 \t\t\t\n      SWAP2 \t\t\t\n      POP \t\t\t\n      POP \t\t\t\n      JUMP \t\t\t\n    tag 166\t\t\t\n      JUMPDEST \t\t\t\n      PUSH 496E636F72726563742070617373776F72642E00000000000000000000000000\t\t\t\n      PUSH 0\t\t\t\n      DUP3 \t\t\t\n      ADD \t\t\t\n      MSTORE \t\t\t\n      POP \t\t\t\n      JUMP \t\t\t\n    tag 167\t\t\t\n      JUMPDEST \t\t\t\n      PUSH 0\t\t\t\n      PUSH [tag] 268\t\t\t\n      PUSH 13\t\t\t\n      DUP4 \t\t\t\n      PUSH [tag] 139\t\t\t\n      JUMP \t\t\t\n    tag 268\t\t\t\n      JUMPDEST \t\t\t\n      SWAP2 \t\t\t\n      POP \t\t\t\n      PUSH [tag] 269\t\t\t\n      DUP3 \t\t\t\n      PUSH [tag] 166\t\t\t\n      JUMP \t\t\t\n    tag 269\t\t\t\n      JUMPDEST \t\t\t\n      PUSH 20\t\t\t\n      DUP3 \t\t\t\n      ADD \t\t\t\n      SWAP1 \t\t\t\n      POP \t\t\t\n      SWAP2 \t\t\t\n      SWAP1 \t\t\t\n      POP \t\t\t\n      JUMP \t\t\t\n    tag 55\t\t\t\n      JUMPDEST \t\t\t\n      PUSH 0\t\t\t\n      PUSH 20\t\t\t\n      DUP3 \t\t\t\n      ADD \t\t\t\n      SWAP1 \t\t\t\n      POP \t\t\t\n      DUP2 \t\t\t\n      DUP2 \t\t\t\n      SUB \t\t\t\n      PUSH 0\t\t\t\n      DUP4 \t\t\t\n      ADD \t\t\t\n      MSTORE \t\t\t\n      PUSH [tag] 271\t\t\t\n      DUP2 \t\t\t\n      PUSH [tag] 167\t\t\t\n      JUMP \t\t\t\n    tag 271\t\t\t\n      JUMPDEST \t\t\t\n      SWAP1 \t\t\t\n      POP \t\t\t\n      SWAP2 \t\t\t\n      SWAP1 \t\t\t\n      POP \t\t\t\n      JUMP \t\t\t\n    tag 60\t\t\t\n      JUMPDEST \t\t\t\n      PUSH 0\t\t\t\n      PUSH [tag] 273\t\t\t\n      DUP3 \t\t\t\n      PUSH [tag] 157\t\t\t\n      JUMP \t\t\t\n    tag 273\t\t\t\n      JUMPDEST \t\t\t\n      SWAP2 \t\t\t\n      POP \t\t\t\n      PUSH [tag] 274\t\t\t\n      DUP4 \t\t\t\n      PUSH [tag] 157\t\t\t\n      JUMP \t\t\t\n    tag 274\t\t\t\n      JUMPDEST \t\t\t\n      SWAP3 \t\t\t\n      POP \t\t\t\n      DUP3 \t\t\t\n      PUSH [tag] 275\t\t\t\n      JUMPI \t\t\t\n      PUSH [tag] 276\t\t\t\n      PUSH [tag] 159\t\t\t\n      JUMP \t\t\t\n    tag 276\t\t\t\n      JUMPDEST \t\t\t\n    tag 275\t\t\t\n      JUMPDEST \t\t\t\n      DUP3 \t\t\t\n      DUP3 \t\t\t\n      MOD \t\t\t\n      SWAP1 \t\t\t\n      POP \t\t\t\n      SWAP3 \t\t\t\n      SWAP2 \t\t\t\n      POP \t\t\t\n      POP \t\t\t\n      JUMP \t\t\t\n    tag 65\t\t\t\n      JUMPDEST \t\t\t\n      PUSH 0\t\t\t\n      PUSH [tag] 278\t\t\t\n      DUP3 \t\t\t\n      PUSH [tag] 157\t\t\t\n      JUMP \t\t\t\n    tag 278\t\t\t\n      JUMPDEST \t\t\t\n      SWAP2 \t\t\t\n      POP \t\t\t\n      PUSH [tag] 279\t\t\t\n      DUP4 \t\t\t\n      PUSH [tag] 157\t\t\t\n      JUMP \t\t\t\n    tag 279\t\t\t\n      JUMPDEST \t\t\t\n      SWAP3 \t\t\t\n      POP \t\t\t\n      DUP3 \t\t\t\n      DUP3 \t\t\t\n      ADD \t\t\t\n      SWAP1 \t\t\t\n      POP \t\t\t\n      DUP1 \t\t\t\n      DUP3 \t\t\t\n      GT \t\t\t\n      ISZERO \t\t\t\n      PUSH [tag] 280\t\t\t\n      JUMPI \t\t\t\n      PUSH [tag] 281\t\t\t\n      PUSH [tag] 158\t\t\t\n      JUMP \t\t\t\n    tag 281\t\t\t\n      JUMPDEST \t\t\t\n    tag 280\t\t\t\n      JUMPDEST \t\t\t\n      SWAP3 \t\t\t\n      SWAP2 \t\t\t\n      POP \t\t\t\n      POP \t\t\t\n      JUMP \t\t\t\n    tag 74\t\t\t\n      JUMPDEST \t\t\t\n      PUSH 0\t\t\t\n      PUSH [tag] 283\t\t\t\n      DUP3 \t\t\t\n      PUSH [tag] 157\t\t\t\n      JUMP \t\t\t\n    tag 283\t\t\t\n      JUMPDEST \t\t\t\n      SWAP2 \t\t\t\n      POP \t\t\t\n      PUSH [tag] 284\t\t\t\n      DUP4 \t\t\t\n      PUSH [tag] 157\t\t\t\n      JUMP \t\t\t\n    tag 284\t\t\t\n      JUMPDEST \t\t\t\n      SWAP3 \t\t\t\n      POP \t\t\t\n      DUP3 \t\t\t\n      DUP3 \t\t\t\n      SUB \t\t\t\n      SWAP1 \t\t\t\n      POP \t\t\t\n      DUP2 \t\t\t\n      DUP2 \t\t\t\n      GT \t\t\t\n      ISZERO \t\t\t\n      PUSH [tag] 285\t\t\t\n      JUMPI \t\t\t\n      PUSH [tag] 286\t\t\t\n      PUSH [tag] 158\t\t\t\n      JUMP \t\t\t\n    tag 286\t\t\t\n      JUMPDEST \t\t\t\n    tag 285\t\t\t\n      JUMPDEST \t\t\t\n      SWAP3 \t\t\t\n      SWAP2 \t\t\t\n      POP \t\t\t\n      POP \t\t\t\n      JUMP \t\t\t\n    tag 79\t\t\t\n      JUMPDEST \t\t\t\n      PUSH 0\t\t\t\n      PUSH [tag] 288\t\t\t\n      DUP3 \t\t\t\n      PUSH [tag] 157\t\t\t\n      JUMP \t\t\t\n    tag 288\t\t\t\n      JUMPDEST \t\t\t\n      SWAP2 \t\t\t\n      POP \t\t\t\n      PUSH FFFFFFFFFFFFFFFFFFFFFFFFFFFFFFFFFFFFFFFFFFFFFFFFFFFFFFFFFFFFFFFF\t\t\t\n      DUP3 \t\t\t\n      SUB \t\t\t\n      PUSH [tag] 289\t\t\t\n      JUMPI \t\t\t\n      PUSH [tag] 290\t\t\t\n      PUSH [tag] 158\t\t\t\n      JUMP \t\t\t\n    tag 290\t\t\t\n      JUMPDEST \t\t\t\n    tag 289\t\t\t\n      JUMPDEST \t\t\t\n      PUSH 1\t\t\t\n      DUP3 \t\t\t\n      ADD \t\t\t\n      SWAP1 \t\t\t\n      POP \t\t\t\n      SWAP2 \t\t\t\n      SWAP1 \t\t\t\n      POP \t\t\t\n      JUMP \t\t\t\n    tag 82\t\t\t\n      JUMPDEST \t\t\t\n      PUSH 4E487B7100000000000000000000000000000000000000000000000000000000\t\t\t\n      PUSH 0\t\t\t\n      MSTORE \t\t\t\n      PUSH 32\t\t\t\n      PUSH 4\t\t\t\n      MSTORE \t\t\t\n      PUSH 24\t\t\t\n      PUSH 0\t\t\t\n      REVERT \t\t\t\n    tag 168\t\t\t\n      JUMPDEST \t\t\t\n      PUSH 2E00000000000000000000000000000000000000000000000000000000000000\t\t\t\n      PUSH 0\t\t\t\n      DUP3 \t\t\t\n      ADD \t\t\t\n      MSTORE \t\t\t\n      POP \t\t\t\n      JUMP \t\t\t\n    tag 169\t\t\t\n      JUMPDEST \t\t\t\n      PUSH 0\t\t\t\n      PUSH [tag] 294\t\t\t\n      PUSH 1\t\t\t\n      DUP4 \t\t\t\n      PUSH [tag] 160\t\t\t\n      JUMP \t\t\t\n    tag 294\t\t\t\n      JUMPDEST \t\t\t\n      SWAP2 \t\t\t\n      POP \t\t\t\n      PUSH [tag] 295\t\t\t\n      DUP3 \t\t\t\n      PUSH [tag] 168\t\t\t\n      JUMP \t\t\t\n    tag 295\t\t\t\n      JUMPDEST \t\t\t\n      PUSH 1\t\t\t\n      DUP3 \t\t\t\n      ADD \t\t\t\n      SWAP1 \t\t\t\n      POP \t\t\t\n      SWAP2 \t\t\t\n      SWAP1 \t\t\t\n      POP \t\t\t\n      JUMP \t\t\t\n    tag 170\t\t\t\n      JUMPDEST \t\t\t\n      PUSH 0\t\t\t\n      PUSH [tag] 297\t\t\t\n      DUP3 \t\t\t\n      PUSH [tag] 138\t\t\t\n      JUMP \t\t\t\n    tag 297\t\t\t\n      JUMPDEST \t\t\t\n      PUSH [tag] 298\t\t\t\n      DUP2 \t\t\t\n      DUP6 \t\t\t\n      PUSH [tag] 160\t\t\t\n      JUMP \t\t\t\n    tag 298\t\t\t\n      JUMPDEST \t\t\t\n      SWAP4 \t\t\t\n      POP \t\t\t\n      PUSH [tag] 299\t\t\t\n      DUP2 \t\t\t\n      DUP6 \t\t\t\n      PUSH 20\t\t\t\n      DUP7 \t\t\t\n      ADD \t\t\t\n      PUSH [tag] 140\t\t\t\n      JUMP \t\t\t\n    tag 299\t\t\t\n      JUMPDEST \t\t\t\n      DUP1 \t\t\t\n      DUP5 \t\t\t\n      ADD \t\t\t\n      SWAP2 \t\t\t\n      POP \t\t\t\n      POP \t\t\t\n      SWAP3 \t\t\t\n      SWAP2 \t\t\t\n      POP \t\t\t\n      POP \t\t\t\n      JUMP \t\t\t\n    tag 171\t\t\t\n      JUMPDEST \t\t\t\n      PUSH 3020425443000000000000000000000000000000000000000000000000000000\t\t\t\n      PUSH 0\t\t\t\n      DUP3 \t\t\t\n      ADD \t\t\t\n      MSTORE \t\t\t\n      POP \t\t\t\n      JUMP \t\t\t\n    tag 172\t\t\t\n      JUMPDEST \t\t\t\n      PUSH 0\t\t\t\n      PUSH [tag] 302\t\t\t\n      PUSH 5\t\t\t\n      DUP4 \t\t\t\n      PUSH [tag] 160\t\t\t\n      JUMP \t\t\t\n    tag 302\t\t\t\n      JUMPDEST \t\t\t\n      SWAP2 \t\t\t\n      POP \t\t\t\n      PUSH [tag] 303\t\t\t\n      DUP3 \t\t\t\n      PUSH [tag] 171\t\t\t\n      JUMP \t\t\t\n    tag 303\t\t\t\n      JUMPDEST \t\t\t\n      PUSH 5\t\t\t\n      DUP3 \t\t\t\n      ADD \t\t\t\n      SWAP1 \t\t\t\n      POP \t\t\t\n      SWAP2 \t\t\t\n      SWAP1 \t\t\t\n      POP \t\t\t\n      JUMP \t\t\t\n    tag 92\t\t\t\n      JUMPDEST \t\t\t\n      PUSH 0\t\t\t\n      PUSH [tag] 305\t\t\t\n      DUP3 \t\t\t\n      DUP6 \t\t\t\n      PUSH [tag] 165\t\t\t\n      JUMP \t\t\t\n    tag 305\t\t\t\n      JUMPDEST \t\t\t\n      SWAP2 \t\t\t\n      POP \t\t\t\n      PUSH [tag] 306\t\t\t\n      DUP3 \t\t\t\n      PUSH [tag] 169\t\t\t\n      JUMP \t\t\t\n    tag 306\t\t\t\n      JUMPDEST \t\t\t\n      SWAP2 \t\t\t\n      POP \t\t\t\n      PUSH [tag] 307\t\t\t\n      DUP3 \t\t\t\n      DUP5 \t\t\t\n      PUSH [tag] 170\t\t\t\n      JUMP \t\t\t\n    tag 307\t\t\t\n      JUMPDEST \t\t\t\n      SWAP2 \t\t\t\n      POP \t\t\t\n      PUSH [tag] 308\t\t\t\n      DUP3 \t\t\t\n      PUSH [tag] 172\t\t\t\n      JUMP \t\t\t\n    tag 308\t\t\t\n      JUMPDEST \t\t\t\n      SWAP2 \t\t\t\n      POP \t\t\t\n      DUP2 \t\t\t\n      SWAP1 \t\t\t\n      POP \t\t\t\n      SWAP4 \t\t\t\n      SWAP3 \t\t\t\n      POP \t\t\t\n      POP \t\t\t\n      POP \t\t\t\n      JUMP \t\t\t\n    tag 173\t\t\t\n      JUMPDEST \t\t\t\n      PUSH 2400000000000000000000000000000000000000000000000000000000000000\t\t\t\n      PUSH 0\t\t\t\n      DUP3 \t\t\t\n      ADD \t\t\t\n      MSTORE \t\t\t\n      POP \t\t\t\n      JUMP \t\t\t\n    tag 174\t\t\t\n      JUMPDEST \t\t\t\n      PUSH 0\t\t\t\n      PUSH [tag] 311\t\t\t\n      PUSH 1\t\t\t\n      DUP4 \t\t\t\n      PUSH [tag] 160\t\t\t\n      JUMP \t\t\t\n    tag 311\t\t\t\n      JUMPDEST \t\t\t\n      SWAP2 \t\t\t\n      POP \t\t\t\n      PUSH [tag] 312\t\t\t\n      DUP3 \t\t\t\n      PUSH [tag] 173\t\t\t\n      JUMP \t\t\t\n    tag 312\t\t\t\n      JUMPDEST \t\t\t\n      PUSH 1\t\t\t\n      DUP3 \t\t\t\n      ADD \t\t\t\n      SWAP1 \t\t\t\n      POP \t\t\t\n      SWAP2 \t\t\t\n      SWAP1 \t\t\t\n      POP \t\t\t\n      JUMP \t\t\t\n    tag 175\t\t\t\n      JUMPDEST \t\t\t\n      PUSH 2E30300000000000000000000000000000000000000000000000000000000000\t\t\t\n      PUSH 0\t\t\t\n      DUP3 \t\t\t\n      ADD \t\t\t\n      MSTORE \t\t\t\n      POP \t\t\t\n      JUMP \t\t\t\n    tag 176\t\t\t\n      JUMPDEST \t\t\t\n      PUSH 0\t\t\t\n      PUSH [tag] 315\t\t\t\n      PUSH 3\t\t\t\n      DUP4 \t\t\t\n      PUSH [tag] 160\t\t\t\n      JUMP \t\t\t\n    tag 315\t\t\t\n      JUMPDEST \t\t\t\n      SWAP2 \t\t\t\n      POP \t\t\t\n      PUSH [tag] 316\t\t\t\n      DUP3 \t\t\t\n      PUSH [tag] 175\t\t\t\n      JUMP \t\t\t\n    tag 316\t\t\t\n      JUMPDEST \t\t\t\n      PUSH 3\t\t\t\n      DUP3 \t\t\t\n      ADD \t\t\t\n      SWAP1 \t\t\t\n      POP \t\t\t\n      SWAP2 \t\t\t\n      SWAP1 \t\t\t\n      POP \t\t\t\n      JUMP \t\t\t\n    tag 97\t\t\t\n      JUMPDEST \t\t\t\n      PUSH 0\t\t\t\n      PUSH [tag] 318\t\t\t\n      DUP3 \t\t\t\n      PUSH [tag] 174\t\t\t\n      JUMP \t\t\t\n    tag 318\t\t\t\n      JUMPDEST \t\t\t\n      SWAP2 \t\t\t\n      POP \t\t\t\n      PUSH [tag] 319\t\t\t\n      DUP3 \t\t\t\n      DUP5 \t\t\t\n      PUSH [tag] 170\t\t\t\n      JUMP \t\t\t\n    tag 319\t\t\t\n      JUMPDEST \t\t\t\n      SWAP2 \t\t\t\n      POP \t\t\t\n      PUSH [tag] 320\t\t\t\n      DUP3 \t\t\t\n      PUSH [tag] 176\t\t\t\n      JUMP \t\t\t\n    tag 320\t\t\t\n      JUMPDEST \t\t\t\n      SWAP2 \t\t\t\n      POP \t\t\t\n      DUP2 \t\t\t\n      SWAP1 \t\t\t\n      POP \t\t\t\n      SWAP3 \t\t\t\n      SWAP2 \t\t\t\n      POP \t\t\t\n      POP \t\t\t\n      JUMP \t\t\t\n    tag 120\t\t\t\n      JUMPDEST \t\t\t\n      PUSH 0\t\t\t\n      PUSH [tag] 322\t\t\t\n      DUP3 \t\t\t\n      PUSH [tag] 174\t\t\t\n      JUMP \t\t\t\n    tag 322\t\t\t\n      JUMPDEST \t\t\t\n      SWAP2 \t\t\t\n      POP \t\t\t\n      PUSH [tag] 323\t\t\t\n      DUP3 \t\t\t\n      DUP5 \t\t\t\n      PUSH [tag] 165\t\t\t\n      JUMP \t\t\t\n    tag 323\t\t\t\n      JUMPDEST \t\t\t\n      SWAP2 \t\t\t\n      POP \t\t\t\n      PUSH [tag] 324\t\t\t\n      DUP3 \t\t\t\n      PUSH [tag] 176\t\t\t\n      JUMP \t\t\t\n    tag 324\t\t\t\n      JUMPDEST \t\t\t\n      SWAP2 \t\t\t\n      POP \t\t\t\n      DUP2 \t\t\t\n      SWAP1 \t\t\t\n      POP \t\t\t\n      SWAP3 \t\t\t\n      SWAP2 \t\t\t\n      POP \t\t\t\n      POP \t\t\t\n      JUMP \t\t\t\n    .data\n  AAFAED2B39B823BF94636B2D15E213CC715F9DB176507D7232FFD32B6622025D:\n    4c65646765722d4e616e6f2d5820285265636f676e697a656420484152445741524529\n"
}