{
	"data": {
		"bytecode": {
			"linkReferences": {},
			"object": "608060405234801561001057600080fd5b5061096e806100206000396000f3fe608060405234801561001057600080fd5b50600436106100365760003560e01c80633a7d280c1461003b578063908cf0aa1461006b575b600080fd5b6100556004803603810190610050919061048f565b610089565b6040516100629190610557565b60405180910390f35b61007361016c565b6040516100809190610557565b60405180910390f35b60606040518060400160405280600881526020017f58797e30316b212a0000000000000000000000000000000000000000000000008152508051906020012082805190602001200361012c5760016000806101000a81548160ff0219169083151502179055506040518060400160405280600f81526020017f425443203d2035332c3730332e393000000000000000000000000000000000008152509050610167565b6040517f08c379a000000000000000000000000000000000000000000000000000000000815260040161015e906105c5565b60405180910390fd5b919050565b606060008054906101000a900460ff166101bb576040517f08c379a00000000000000000000000000000000000000000000000000000000081526004016101b290610657565b60405180910390fd5b60006101c5610236565b905060006305f5e10082690b5f4b54228b0c9600006101e491906106b0565b6101ee9190610721565b905061022f816040518060400160405280600181526020017f2400000000000000000000000000000000000000000000000000000000000000815250610242565b9250505090565b6000639f77ab60905090565b60606000604051806020016040528060008152509050600084905060005b60008111801561027c5750600060038261027a9190610752565b145b156102a45782604051602001610292919061080b565b60405160208183030381529060405292505b6030600a836102b39190610752565b6102bd919061082d565b836040516020016102cf9291906108a4565b6040516020818303038152906040529250600a826102ed9190610721565b915080806102fa906108cc565b91505060008211610260578483604051602001610318929190610914565b604051602081830303815290604052925082935050505092915050565b6000604051905090565b600080fd5b600080fd5b600080fd5b600080fd5b6000601f19601f8301169050919050565b7f4e487b7100000000000000000000000000000000000000000000000000000000600052604160045260246000fd5b61039c82610353565b810181811067ffffffffffffffff821117156103bb576103ba610364565b5b80604052505050565b60006103ce610335565b90506103da8282610393565b919050565b600067ffffffffffffffff8211156103fa576103f9610364565b5b61040382610353565b9050602081019050919050565b82818337600083830152505050565b600061043261042d846103df565b6103c4565b90508281526020810184848401111561044e5761044d61034e565b5b610459848285610410565b509392505050565b600082601f83011261047657610475610349565b5b813561048684826020860161041f565b91505092915050565b6000602082840312156104a5576104a461033f565b5b600082013567ffffffffffffffff8111156104c3576104c2610344565b5b6104cf84828501610461565b91505092915050565b600081519050919050565b600082825260208201905092915050565b60005b838110156105125780820151818401526020810190506104f7565b60008484015250505050565b6000610529826104d8565b61053381856104e3565b93506105438185602086016104f4565b61054c81610353565b840191505092915050565b60006020820190508181036000830152610571818461051e565b905092915050565b7f496e636f72726563742070617373776f72640000000000000000000000000000600082015250565b60006105af6012836104e3565b91506105ba82610579565b602082019050919050565b600060208201905081810360008301526105de816105a2565b9050919050565b7f596f75206d757374206265206c6f6767656420696e20746f206163636573732060008201527f746869732066756e6374696f6e2e000000000000000000000000000000000000602082015250565b6000610641602e836104e3565b915061064c826105e5565b604082019050919050565b6000602082019050818103600083015261067081610634565b9050919050565b6000819050919050565b7f4e487b7100000000000000000000000000000000000000000000000000000000600052601160045260246000fd5b60006106bb82610677565b91506106c683610677565b92508282026106d481610677565b915082820484148315176106eb576106ea610681565b5b5092915050565b7f4e487b7100000000000000000000000000000000000000000000000000000000600052601260045260246000fd5b600061072c82610677565b915061073783610677565b925082610747576107466106f2565b5b828204905092915050565b600061075d82610677565b915061076883610677565b925082610778576107776106f2565b5b828206905092915050565b600081905092915050565b7f2c00000000000000000000000000000000000000000000000000000000000000600082015250565b60006107c4600183610783565b91506107cf8261078e565b600182019050919050565b60006107e5826104d8565b6107ef8185610783565b93506107ff8185602086016104f4565b80840191505092915050565b6000610816826107b7565b915061082282846107da565b915081905092915050565b600061083882610677565b915061084383610677565b925082820190508082111561085b5761085a610681565b5b92915050565b600060ff82169050919050565b60008160f81b9050919050565b60006108868261086e565b9050919050565b61089e61089982610861565b61087b565b82525050565b60006108b0828561088d565b6001820191506108c082846107da565b91508190509392505050565b60006108d782610677565b91507fffffffffffffffffffffffffffffffffffffffffffffffffffffffffffffffff820361090957610908610681565b5b600182019050919050565b600061092082856107da565b915061092c82846107da565b9150819050939250505056fea2646970667358221220b05b8d05dc98489a0b92abec14adbcec9683c3b79c33fdb66bb11823ff7c3f3564736f6c63430008120033",
			"opcodes": "PUSH1 0x80 PUSH1 0x40 MSTORE CALLVALUE DUP1 ISZERO PUSH2 0x10 JUMPI PUSH1 0x0 DUP1 REVERT JUMPDEST POP PUSH2 0x96E DUP1 PUSH2 0x20 PUSH1 0x0 CODECOPY PUSH1 0x0 RETURN INVALID PUSH1 0x80 PUSH1 0x40 MSTORE CALLVALUE DUP1 ISZERO PUSH2 0x10 JUMPI PUSH1 0x0 DUP1 REVERT JUMPDEST POP PUSH1 0x4 CALLDATASIZE LT PUSH2 0x36 JUMPI PUSH1 0x0 CALLDATALOAD PUSH1 0xE0 SHR DUP1 PUSH4 0x3A7D280C EQ PUSH2 0x3B JUMPI DUP1 PUSH4 0x908CF0AA EQ PUSH2 0x6B JUMPI JUMPDEST PUSH1 0x0 DUP1 REVERT JUMPDEST PUSH2 0x55 PUSH1 0x4 DUP1 CALLDATASIZE SUB DUP2 ADD SWAP1 PUSH2 0x50 SWAP2 SWAP1 PUSH2 0x48F JUMP JUMPDEST PUSH2 0x89 JUMP JUMPDEST PUSH1 0x40 MLOAD PUSH2 0x62 SWAP2 SWAP1 PUSH2 0x557 JUMP JUMPDEST PUSH1 0x40 MLOAD DUP1 SWAP2 SUB SWAP1 RETURN JUMPDEST PUSH2 0x73 PUSH2 0x16C JUMP JUMPDEST PUSH1 0x40 MLOAD PUSH2 0x80 SWAP2 SWAP1 PUSH2 0x557 JUMP JUMPDEST PUSH1 0x40 MLOAD DUP1 SWAP2 SUB SWAP1 RETURN JUMPDEST PUSH1 0x60 PUSH1 0x40 MLOAD DUP1 PUSH1 0x40 ADD PUSH1 0x40 MSTORE DUP1 PUSH1 0x8 DUP2 MSTORE PUSH1 0x20 ADD PUSH32 0x58797E30316B212A000000000000000000000000000000000000000000000000 DUP2 MSTORE POP DUP1 MLOAD SWAP1 PUSH1 0x20 ADD KECCAK256 DUP3 DUP1 MLOAD SWAP1 PUSH1 0x20 ADD KECCAK256 SUB PUSH2 0x12C JUMPI PUSH1 0x1 PUSH1 0x0 DUP1 PUSH2 0x100 EXP DUP2 SLOAD DUP2 PUSH1 0xFF MUL NOT AND SWAP1 DUP4 ISZERO ISZERO MUL OR SWAP1 SSTORE POP PUSH1 0x40 MLOAD DUP1 PUSH1 0x40 ADD PUSH1 0x40 MSTORE DUP1 PUSH1 0xF DUP2 MSTORE PUSH1 0x20 ADD PUSH32 0x425443203D2035332C3730332E39300000000000000000000000000000000000 DUP2 MSTORE POP SWAP1 POP PUSH2 0x167 JUMP JUMPDEST PUSH1 0x40 MLOAD PUSH32 0x8C379A000000000000000000000000000000000000000000000000000000000 DUP2 MSTORE PUSH1 0x4 ADD PUSH2 0x15E SWAP1 PUSH2 0x5C5 JUMP JUMPDEST PUSH1 0x40 MLOAD DUP1 SWAP2 SUB SWAP1 REVERT JUMPDEST SWAP2 SWAP1 POP JUMP JUMPDEST PUSH1 0x60 PUSH1 0x0 DUP1 SLOAD SWAP1 PUSH2 0x100 EXP SWAP1 DIV PUSH1 0xFF AND PUSH2 0x1BB JUMPI PUSH1 0x40 MLOAD PUSH32 0x8C379A000000000000000000000000000000000000000000000000000000000 DUP2 MSTORE PUSH1 0x4 ADD PUSH2 0x1B2 SWAP1 PUSH2 0x657 JUMP JUMPDEST PUSH1 0x40 MLOAD DUP1 SWAP2 SUB SWAP1 REVERT JUMPDEST PUSH1 0x0 PUSH2 0x1C5 PUSH2 0x236 JUMP JUMPDEST SWAP1 POP PUSH1 0x0 PUSH4 0x5F5E100 DUP3 PUSH10 0xB5F4B54228B0C960000 PUSH2 0x1E4 SWAP2 SWAP1 PUSH2 0x6B0 JUMP JUMPDEST PUSH2 0x1EE SWAP2 SWAP1 PUSH2 0x721 JUMP JUMPDEST SWAP1 POP PUSH2 0x22F DUP2 PUSH1 0x40 MLOAD DUP1 PUSH1 0x40 ADD PUSH1 0x40 MSTORE DUP1 PUSH1 0x1 DUP2 MSTORE PUSH1 0x20 ADD PUSH32 0x2400000000000000000000000000000000000000000000000000000000000000 DUP2 MSTORE POP PUSH2 0x242 JUMP JUMPDEST SWAP3 POP POP POP SWAP1 JUMP JUMPDEST PUSH1 0x0 PUSH4 0x9F77AB60 SWAP1 POP SWAP1 JUMP JUMPDEST PUSH1 0x60 PUSH1 0x0 PUSH1 0x40 MLOAD DUP1 PUSH1 0x20 ADD PUSH1 0x40 MSTORE DUP1 PUSH1 0x0 DUP2 MSTORE POP SWAP1 POP PUSH1 0x0 DUP5 SWAP1 POP PUSH1 0x0 JUMPDEST PUSH1 0x0 DUP2 GT DUP1 ISZERO PUSH2 0x27C JUMPI POP PUSH1 0x0 PUSH1 0x3 DUP3 PUSH2 0x27A SWAP2 SWAP1 PUSH2 0x752 JUMP JUMPDEST EQ JUMPDEST ISZERO PUSH2 0x2A4 JUMPI DUP3 PUSH1 0x40 MLOAD PUSH1 0x20 ADD PUSH2 0x292 SWAP2 SWAP1 PUSH2 0x80B JUMP JUMPDEST PUSH1 0x40 MLOAD PUSH1 0x20 DUP2 DUP4 SUB SUB DUP2 MSTORE SWAP1 PUSH1 0x40 MSTORE SWAP3 POP JUMPDEST PUSH1 0x30 PUSH1 0xA DUP4 PUSH2 0x2B3 SWAP2 SWAP1 PUSH2 0x752 JUMP JUMPDEST PUSH2 0x2BD SWAP2 SWAP1 PUSH2 0x82D JUMP JUMPDEST DUP4 PUSH1 0x40 MLOAD PUSH1 0x20 ADD PUSH2 0x2CF SWAP3 SWAP2 SWAP1 PUSH2 0x8A4 JUMP JUMPDEST PUSH1 0x40 MLOAD PUSH1 0x20 DUP2 DUP4 SUB SUB DUP2 MSTORE SWAP1 PUSH1 0x40 MSTORE SWAP3 POP PUSH1 0xA DUP3 PUSH2 0x2ED SWAP2 SWAP1 PUSH2 0x721 JUMP JUMPDEST SWAP2 POP DUP1 DUP1 PUSH2 0x2FA SWAP1 PUSH2 0x8CC JUMP JUMPDEST SWAP2 POP POP PUSH1 0x0 DUP3 GT PUSH2 0x260 JUMPI DUP5 DUP4 PUSH1 0x40 MLOAD PUSH1 0x20 ADD PUSH2 0x318 SWAP3 SWAP2 SWAP1 PUSH2 0x914 JUMP JUMPDEST PUSH1 0x40 MLOAD PUSH1 0x20 DUP2 DUP4 SUB SUB DUP2 MSTORE SWAP1 PUSH1 0x40 MSTORE SWAP3 POP DUP3 SWAP4 POP POP POP POP SWAP3 SWAP2 POP POP JUMP JUMPDEST PUSH1 0x0 PUSH1 0x40 MLOAD SWAP1 POP SWAP1 JUMP JUMPDEST PUSH1 0x0 DUP1 REVERT JUMPDEST PUSH1 0x0 DUP1 REVERT JUMPDEST PUSH1 0x0 DUP1 REVERT JUMPDEST PUSH1 0x0 DUP1 REVERT JUMPDEST PUSH1 0x0 PUSH1 0x1F NOT PUSH1 0x1F DUP4 ADD AND SWAP1 POP SWAP2 SWAP1 POP JUMP JUMPDEST PUSH32 0x4E487B7100000000000000000000000000000000000000000000000000000000 PUSH1 0x0 MSTORE PUSH1 0x41 PUSH1 0x4 MSTORE PUSH1 0x24 PUSH1 0x0 REVERT JUMPDEST PUSH2 0x39C DUP3 PUSH2 0x353 JUMP JUMPDEST DUP2 ADD DUP2 DUP2 LT PUSH8 0xFFFFFFFFFFFFFFFF DUP3 GT OR ISZERO PUSH2 0x3BB JUMPI PUSH2 0x3BA PUSH2 0x364 JUMP JUMPDEST JUMPDEST DUP1 PUSH1 0x40 MSTORE POP POP POP JUMP JUMPDEST PUSH1 0x0 PUSH2 0x3CE PUSH2 0x335 JUMP JUMPDEST SWAP1 POP PUSH2 0x3DA DUP3 DUP3 PUSH2 0x393 JUMP JUMPDEST SWAP2 SWAP1 POP JUMP JUMPDEST PUSH1 0x0 PUSH8 0xFFFFFFFFFFFFFFFF DUP3 GT ISZERO PUSH2 0x3FA JUMPI PUSH2 0x3F9 PUSH2 0x364 JUMP JUMPDEST JUMPDEST PUSH2 0x403 DUP3 PUSH2 0x353 JUMP JUMPDEST SWAP1 POP PUSH1 0x20 DUP2 ADD SWAP1 POP SWAP2 SWAP1 POP JUMP JUMPDEST DUP3 DUP2 DUP4 CALLDATACOPY PUSH1 0x0 DUP4 DUP4 ADD MSTORE POP POP POP JUMP JUMPDEST PUSH1 0x0 PUSH2 0x432 PUSH2 0x42D DUP5 PUSH2 0x3DF JUMP JUMPDEST PUSH2 0x3C4 JUMP JUMPDEST SWAP1 POP DUP3 DUP2 MSTORE PUSH1 0x20 DUP2 ADD DUP5 DUP5 DUP5 ADD GT ISZERO PUSH2 0x44E JUMPI PUSH2 0x44D PUSH2 0x34E JUMP JUMPDEST JUMPDEST PUSH2 0x459 DUP5 DUP3 DUP6 PUSH2 0x410 JUMP JUMPDEST POP SWAP4 SWAP3 POP POP POP JUMP JUMPDEST PUSH1 0x0 DUP3 PUSH1 0x1F DUP4 ADD SLT PUSH2 0x476 JUMPI PUSH2 0x475 PUSH2 0x349 JUMP JUMPDEST JUMPDEST DUP2 CALLDATALOAD PUSH2 0x486 DUP5 DUP3 PUSH1 0x20 DUP7 ADD PUSH2 0x41F JUMP JUMPDEST SWAP2 POP POP SWAP3 SWAP2 POP POP JUMP JUMPDEST PUSH1 0x0 PUSH1 0x20 DUP3 DUP5 SUB SLT ISZERO PUSH2 0x4A5 JUMPI PUSH2 0x4A4 PUSH2 0x33F JUMP JUMPDEST JUMPDEST PUSH1 0x0 DUP3 ADD CALLDATALOAD PUSH8 0xFFFFFFFFFFFFFFFF DUP2 GT ISZERO PUSH2 0x4C3 JUMPI PUSH2 0x4C2 PUSH2 0x344 JUMP JUMPDEST JUMPDEST PUSH2 0x4CF DUP5 DUP3 DUP6 ADD PUSH2 0x461 JUMP JUMPDEST SWAP2 POP POP SWAP3 SWAP2 POP POP JUMP JUMPDEST PUSH1 0x0 DUP2 MLOAD SWAP1 POP SWAP2 SWAP1 POP JUMP JUMPDEST PUSH1 0x0 DUP3 DUP3 MSTORE PUSH1 0x20 DUP3 ADD SWAP1 POP SWAP3 SWAP2 POP POP JUMP JUMPDEST PUSH1 0x0 JUMPDEST DUP4 DUP2 LT ISZERO PUSH2 0x512 JUMPI DUP1 DUP3 ADD MLOAD DUP2 DUP5 ADD MSTORE PUSH1 0x20 DUP2 ADD SWAP1 POP PUSH2 0x4F7 JUMP JUMPDEST PUSH1 0x0 DUP5 DUP5 ADD MSTORE POP POP POP POP JUMP JUMPDEST PUSH1 0x0 PUSH2 0x529 DUP3 PUSH2 0x4D8 JUMP JUMPDEST PUSH2 0x533 DUP2 DUP6 PUSH2 0x4E3 JUMP JUMPDEST SWAP4 POP PUSH2 0x543 DUP2 DUP6 PUSH1 0x20 DUP7 ADD PUSH2 0x4F4 JUMP JUMPDEST PUSH2 0x54C DUP2 PUSH2 0x353 JUMP JUMPDEST DUP5 ADD SWAP2 POP POP SWAP3 SWAP2 POP POP JUMP JUMPDEST PUSH1 0x0 PUSH1 0x20 DUP3 ADD SWAP1 POP DUP2 DUP2 SUB PUSH1 0x0 DUP4 ADD MSTORE PUSH2 0x571 DUP2 DUP5 PUSH2 0x51E JUMP JUMPDEST SWAP1 POP SWAP3 SWAP2 POP POP JUMP JUMPDEST PUSH32 0x496E636F72726563742070617373776F72640000000000000000000000000000 PUSH1 0x0 DUP3 ADD MSTORE POP JUMP JUMPDEST PUSH1 0x0 PUSH2 0x5AF PUSH1 0x12 DUP4 PUSH2 0x4E3 JUMP JUMPDEST SWAP2 POP PUSH2 0x5BA DUP3 PUSH2 0x579 JUMP JUMPDEST PUSH1 0x20 DUP3 ADD SWAP1 POP SWAP2 SWAP1 POP JUMP JUMPDEST PUSH1 0x0 PUSH1 0x20 DUP3 ADD SWAP1 POP DUP2 DUP2 SUB PUSH1 0x0 DUP4 ADD MSTORE PUSH2 0x5DE DUP2 PUSH2 0x5A2 JUMP JUMPDEST SWAP1 POP SWAP2 SWAP1 POP JUMP JUMPDEST PUSH32 0x596F75206D757374206265206C6F6767656420696E20746F2061636365737320 PUSH1 0x0 DUP3 ADD MSTORE PUSH32 0x746869732066756E6374696F6E2E000000000000000000000000000000000000 PUSH1 0x20 DUP3 ADD MSTORE POP JUMP JUMPDEST PUSH1 0x0 PUSH2 0x641 PUSH1 0x2E DUP4 PUSH2 0x4E3 JUMP JUMPDEST SWAP2 POP PUSH2 0x64C DUP3 PUSH2 0x5E5 JUMP JUMPDEST PUSH1 0x40 DUP3 ADD SWAP1 POP SWAP2 SWAP1 POP JUMP JUMPDEST PUSH1 0x0 PUSH1 0x20 DUP3 ADD SWAP1 POP DUP2 DUP2 SUB PUSH1 0x0 DUP4 ADD MSTORE PUSH2 0x670 DUP2 PUSH2 0x634 JUMP JUMPDEST SWAP1 POP SWAP2 SWAP1 POP JUMP JUMPDEST PUSH1 0x0 DUP2 SWAP1 POP SWAP2 SWAP1 POP JUMP JUMPDEST PUSH32 0x4E487B7100000000000000000000000000000000000000000000000000000000 PUSH1 0x0 MSTORE PUSH1 0x11 PUSH1 0x4 MSTORE PUSH1 0x24 PUSH1 0x0 REVERT JUMPDEST PUSH1 0x0 PUSH2 0x6BB DUP3 PUSH2 0x677 JUMP JUMPDEST SWAP2 POP PUSH2 0x6C6 DUP4 PUSH2 0x677 JUMP JUMPDEST SWAP3 POP DUP3 DUP3 MUL PUSH2 0x6D4 DUP2 PUSH2 0x677 JUMP JUMPDEST SWAP2 POP DUP3 DUP3 DIV DUP5 EQ DUP4 ISZERO OR PUSH2 0x6EB JUMPI PUSH2 0x6EA PUSH2 0x681 JUMP JUMPDEST JUMPDEST POP SWAP3 SWAP2 POP POP JUMP JUMPDEST PUSH32 0x4E487B7100000000000000000000000000000000000000000000000000000000 PUSH1 0x0 MSTORE PUSH1 0x12 PUSH1 0x4 MSTORE PUSH1 0x24 PUSH1 0x0 REVERT JUMPDEST PUSH1 0x0 PUSH2 0x72C DUP3 PUSH2 0x677 JUMP JUMPDEST SWAP2 POP PUSH2 0x737 DUP4 PUSH2 0x677 JUMP JUMPDEST SWAP3 POP DUP3 PUSH2 0x747 JUMPI PUSH2 0x746 PUSH2 0x6F2 JUMP JUMPDEST JUMPDEST DUP3 DUP3 DIV SWAP1 POP SWAP3 SWAP2 POP POP JUMP JUMPDEST PUSH1 0x0 PUSH2 0x75D DUP3 PUSH2 0x677 JUMP JUMPDEST SWAP2 POP PUSH2 0x768 DUP4 PUSH2 0x677 JUMP JUMPDEST SWAP3 POP DUP3 PUSH2 0x778 JUMPI PUSH2 0x777 PUSH2 0x6F2 JUMP JUMPDEST JUMPDEST DUP3 DUP3 MOD SWAP1 POP SWAP3 SWAP2 POP POP JUMP JUMPDEST PUSH1 0x0 DUP2 SWAP1 POP SWAP3 SWAP2 POP POP JUMP JUMPDEST PUSH32 0x2C00000000000000000000000000000000000000000000000000000000000000 PUSH1 0x0 DUP3 ADD MSTORE POP JUMP JUMPDEST PUSH1 0x0 PUSH2 0x7C4 PUSH1 0x1 DUP4 PUSH2 0x783 JUMP JUMPDEST SWAP2 POP PUSH2 0x7CF DUP3 PUSH2 0x78E JUMP JUMPDEST PUSH1 0x1 DUP3 ADD SWAP1 POP SWAP2 SWAP1 POP JUMP JUMPDEST PUSH1 0x0 PUSH2 0x7E5 DUP3 PUSH2 0x4D8 JUMP JUMPDEST PUSH2 0x7EF DUP2 DUP6 PUSH2 0x783 JUMP JUMPDEST SWAP4 POP PUSH2 0x7FF DUP2 DUP6 PUSH1 0x20 DUP7 ADD PUSH2 0x4F4 JUMP JUMPDEST DUP1 DUP5 ADD SWAP2 POP POP SWAP3 SWAP2 POP POP JUMP JUMPDEST PUSH1 0x0 PUSH2 0x816 DUP3 PUSH2 0x7B7 JUMP JUMPDEST SWAP2 POP PUSH2 0x822 DUP3 DUP5 PUSH2 0x7DA JUMP JUMPDEST SWAP2 POP DUP2 SWAP1 POP SWAP3 SWAP2 POP POP JUMP JUMPDEST PUSH1 0x0 PUSH2 0x838 DUP3 PUSH2 0x677 JUMP JUMPDEST SWAP2 POP PUSH2 0x843 DUP4 PUSH2 0x677 JUMP JUMPDEST SWAP3 POP DUP3 DUP3 ADD SWAP1 POP DUP1 DUP3 GT ISZERO PUSH2 0x85B JUMPI PUSH2 0x85A PUSH2 0x681 JUMP JUMPDEST JUMPDEST SWAP3 SWAP2 POP POP JUMP JUMPDEST PUSH1 0x0 PUSH1 0xFF DUP3 AND SWAP1 POP SWAP2 SWAP1 POP JUMP JUMPDEST PUSH1 0x0 DUP2 PUSH1 0xF8 SHL SWAP1 POP SWAP2 SWAP1 POP JUMP JUMPDEST PUSH1 0x0 PUSH2 0x886 DUP3 PUSH2 0x86E JUMP JUMPDEST SWAP1 POP SWAP2 SWAP1 POP JUMP JUMPDEST PUSH2 0x89E PUSH2 0x899 DUP3 PUSH2 0x861 JUMP JUMPDEST PUSH2 0x87B JUMP JUMPDEST DUP3 MSTORE POP POP JUMP JUMPDEST PUSH1 0x0 PUSH2 0x8B0 DUP3 DUP6 PUSH2 0x88D JUMP JUMPDEST PUSH1 0x1 DUP3 ADD SWAP2 POP PUSH2 0x8C0 DUP3 DUP5 PUSH2 0x7DA JUMP JUMPDEST SWAP2 POP DUP2 SWAP1 POP SWAP4 SWAP3 POP POP POP JUMP JUMPDEST PUSH1 0x0 PUSH2 0x8D7 DUP3 PUSH2 0x677 JUMP JUMPDEST SWAP2 POP PUSH32 0xFFFFFFFFFFFFFFFFFFFFFFFFFFFFFFFFFFFFFFFFFFFFFFFFFFFFFFFFFFFFFFFF DUP3 SUB PUSH2 0x909 JUMPI PUSH2 0x908 PUSH2 0x681 JUMP JUMPDEST JUMPDEST PUSH1 0x1 DUP3 ADD SWAP1 POP SWAP2 SWAP1 POP JUMP JUMPDEST PUSH1 0x0 PUSH2 0x920 DUP3 DUP6 PUSH2 0x7DA JUMP JUMPDEST SWAP2 POP PUSH2 0x92C DUP3 DUP5 PUSH2 0x7DA JUMP JUMPDEST SWAP2 POP DUP2 SWAP1 POP SWAP4 SWAP3 POP POP POP JUMP INVALID LOG2 PUSH5 0x6970667358 0x22 SLT KECCAK256 0xB0 JUMPDEST DUP14 SDIV 0xDC SWAP9 BASEFEE SWAP11 SIGNEXTEND SWAP3 0xAB 0xEC EQ 0xAD 0xBC 0xEC SWAP7 DUP4 0xC3 0xB7 SWAP13 CALLER REVERT 0xB6 PUSH12 0xB11823FF7C3F3564736F6C63 NUMBER STOP ADDMOD SLT STOP CALLER "
		},
		"gasEstimates": {
			"creation": {
				"codeDepositCost": "482800",
				"executionCost": "518",
				"totalCost": "483318"
			},
			"external": {
				"getBtcAmountInDollars()": "infinite",
				"login(string)": "infinite"
			},
			"internal": {
				"formatAmount(uint256,string memory)": "infinite",
				"getBtcToUsdRate()": "23"
			}
		},
		"methodIdentifiers": {
			"getBtcAmountInDollars()": "908cf0aa",
			"login(string)": "3a7d280c"
		}
	},
	"abi": [
		{
			"inputs": [],
			"name": "getBtcAmountInDollars",
			"outputs": [
				{
					"internalType": "string",
					"name": "",
					"type": "string"
				}
			],
			"stateMutability": "view",
			"type": "function"
		},
		{
			"inputs": [
				{
					"internalType": "string",
					"name": "_password",
					"type": "string"
				}
			],
			"name": "login",
			"outputs": [
				{
					"internalType": "string",
					"name": "",
					"type": "string"
				}
			],
			"stateMutability": "nonpayable",
			"type": "function"
		}
	]
}