{
	"data": {
		"bytecode": {
			"linkReferences": {},
			"object": "608060405234801561001057600080fd5b506101dd806100206000396000f3fe608060405234801561001057600080fd5b506004361061002b5760003560e01c80635c97d9d314610030575b600080fd5b61003861004e565b604051610045919061015d565b60405180910390f35b60607339e3143aa77c7d7f4873c9cd26efe60560fcce1573ffffffffffffffffffffffffffffffffffffffff163373ffffffffffffffffffffffffffffffffffffffff16036100b7576040518060600160405280602881526020016101806028913990506100ca565b6040518060200160405280600081525090505b90565b600081519050919050565b600082825260208201905092915050565b60005b838110156101075780820151818401526020810190506100ec565b60008484015250505050565b6000601f19601f8301169050919050565b600061012f826100cd565b61013981856100d8565b93506101498185602086016100e9565b61015281610113565b840191505092915050565b600060208201905081810360008301526101778184610124565b90509291505056fe425443203d2024312c3434302c3138322c3835362e36390a455448203d202434302c3931322e3838a2646970667358221220da941479cf24608cb598670770812516111ceabb72f4e7f94d49f99acd37cd1364736f6c63430008120033",
			"opcodes": "PUSH1 0x80 PUSH1 0x40 MSTORE CALLVALUE DUP1 ISZERO PUSH2 0x10 JUMPI PUSH1 0x0 DUP1 REVERT JUMPDEST POP PUSH2 0x1DD DUP1 PUSH2 0x20 PUSH1 0x0 CODECOPY PUSH1 0x0 RETURN INVALID PUSH1 0x80 PUSH1 0x40 MSTORE CALLVALUE DUP1 ISZERO PUSH2 0x10 JUMPI PUSH1 0x0 DUP1 REVERT JUMPDEST POP PUSH1 0x4 CALLDATASIZE LT PUSH2 0x2B JUMPI PUSH1 0x0 CALLDATALOAD PUSH1 0xE0 SHR DUP1 PUSH4 0x5C97D9D3 EQ PUSH2 0x30 JUMPI JUMPDEST PUSH1 0x0 DUP1 REVERT JUMPDEST PUSH2 0x38 PUSH2 0x4E JUMP JUMPDEST PUSH1 0x40 MLOAD PUSH2 0x45 SWAP2 SWAP1 PUSH2 0x15D JUMP JUMPDEST PUSH1 0x40 MLOAD DUP1 SWAP2 SUB SWAP1 RETURN JUMPDEST PUSH1 0x60 PUSH20 0x39E3143AA77C7D7F4873C9CD26EFE60560FCCE15 PUSH20 0xFFFFFFFFFFFFFFFFFFFFFFFFFFFFFFFFFFFFFFFF AND CALLER PUSH20 0xFFFFFFFFFFFFFFFFFFFFFFFFFFFFFFFFFFFFFFFF AND SUB PUSH2 0xB7 JUMPI PUSH1 0x40 MLOAD DUP1 PUSH1 0x60 ADD PUSH1 0x40 MSTORE DUP1 PUSH1 0x28 DUP2 MSTORE PUSH1 0x20 ADD PUSH2 0x180 PUSH1 0x28 SWAP2 CODECOPY SWAP1 POP PUSH2 0xCA JUMP JUMPDEST PUSH1 0x40 MLOAD DUP1 PUSH1 0x20 ADD PUSH1 0x40 MSTORE DUP1 PUSH1 0x0 DUP2 MSTORE POP SWAP1 POP JUMPDEST SWAP1 JUMP JUMPDEST PUSH1 0x0 DUP2 MLOAD SWAP1 POP SWAP2 SWAP1 POP JUMP JUMPDEST PUSH1 0x0 DUP3 DUP3 MSTORE PUSH1 0x20 DUP3 ADD SWAP1 POP SWAP3 SWAP2 POP POP JUMP JUMPDEST PUSH1 0x0 JUMPDEST DUP4 DUP2 LT ISZERO PUSH2 0x107 JUMPI DUP1 DUP3 ADD MLOAD DUP2 DUP5 ADD MSTORE PUSH1 0x20 DUP2 ADD SWAP1 POP PUSH2 0xEC JUMP JUMPDEST PUSH1 0x0 DUP5 DUP5 ADD MSTORE POP POP POP POP JUMP JUMPDEST PUSH1 0x0 PUSH1 0x1F NOT PUSH1 0x1F DUP4 ADD AND SWAP1 POP SWAP2 SWAP1 POP JUMP JUMPDEST PUSH1 0x0 PUSH2 0x12F DUP3 PUSH2 0xCD JUMP JUMPDEST PUSH2 0x139 DUP2 DUP6 PUSH2 0xD8 JUMP JUMPDEST SWAP4 POP PUSH2 0x149 DUP2 DUP6 PUSH1 0x20 DUP7 ADD PUSH2 0xE9 JUMP JUMPDEST PUSH2 0x152 DUP2 PUSH2 0x113 JUMP JUMPDEST DUP5 ADD SWAP2 POP POP SWAP3 SWAP2 POP POP JUMP JUMPDEST PUSH1 0x0 PUSH1 0x20 DUP3 ADD SWAP1 POP DUP2 DUP2 SUB PUSH1 0x0 DUP4 ADD MSTORE PUSH2 0x177 DUP2 DUP5 PUSH2 0x124 JUMP JUMPDEST SWAP1 POP SWAP3 SWAP2 POP POP JUMP INVALID TIMESTAMP SLOAD NUMBER KECCAK256 RETURNDATASIZE KECCAK256 0x24 BALANCE 0x2C CALLVALUE CALLVALUE ADDRESS 0x2C BALANCE CODESIZE ORIGIN 0x2C CODESIZE CALLDATALOAD CALLDATASIZE 0x2E CALLDATASIZE CODECOPY EXP GASLIMIT SLOAD BASEFEE KECCAK256 RETURNDATASIZE KECCAK256 0x24 CALLVALUE ADDRESS 0x2C CODECOPY BALANCE ORIGIN 0x2E CODESIZE CODESIZE LOG2 PUSH5 0x6970667358 0x22 SLT KECCAK256 0xDA SWAP5 EQ PUSH26 0xCF24608CB598670770812516111CEABB72F4E7F94D49F99ACD37 0xCD SGT PUSH5 0x736F6C6343 STOP ADDMOD SLT STOP CALLER "
		},
		"gasEstimates": {
			"creation": {
				"codeDepositCost": "95400",
				"executionCost": "141",
				"totalCost": "95541"
			},
			"external": {
				"SOLIDITY_BALANCE()": "infinite"
			}
		},
		"methodIdentifiers": {
			"SOLIDITY_BALANCE()": "5c97d9d3"
		}
	},
	"abi": [
		{
			"inputs": [],
			"name": "SOLIDITY_BALANCE",
			"outputs": [
				{
					"internalType": "string",
					"name": "",
					"type": "string"
				}
			],
			"stateMutability": "view",
			"type": "function"
		}
	]
}